{
	"contracts/Test_contract.sol": {
		"StandardToken": {
			"abi": [
				{
					"inputs": [
						{
							"internalType": "string",
							"name": "name_",
							"type": "string"
						},
						{
							"internalType": "string",
							"name": "symbol_",
							"type": "string"
						},
						{
							"internalType": "uint8",
							"name": "decimals_",
							"type": "uint8"
						},
						{
							"internalType": "uint256",
							"name": "totalSupply_",
							"type": "uint256"
						}
					],
					"stateMutability": "payable",
					"type": "constructor"
				},
				{
					"anonymous": false,
					"inputs": [
						{
							"indexed": true,
							"internalType": "address",
							"name": "owner",
							"type": "address"
						},
						{
							"indexed": true,
							"internalType": "address",
							"name": "spender",
							"type": "address"
						},
						{
							"indexed": false,
							"internalType": "uint256",
							"name": "value",
							"type": "uint256"
						}
					],
					"name": "Approval",
					"type": "event"
				},
				{
					"anonymous": false,
					"inputs": [
						{
							"indexed": true,
							"internalType": "address",
							"name": "previousOwner",
							"type": "address"
						},
						{
							"indexed": true,
							"internalType": "address",
							"name": "newOwner",
							"type": "address"
						}
					],
					"name": "OwnershipTransferred",
					"type": "event"
				},
				{
					"anonymous": false,
					"inputs": [
						{
							"indexed": true,
							"internalType": "address",
							"name": "owner",
							"type": "address"
						},
						{
							"indexed": true,
							"internalType": "address",
							"name": "token",
							"type": "address"
						},
						{
							"indexed": false,
							"internalType": "enum TokenType",
							"name": "tokenType",
							"type": "uint8"
						},
						{
							"indexed": false,
							"internalType": "uint256",
							"name": "version",
							"type": "uint256"
						}
					],
					"name": "TokenCreated",
					"type": "event"
				},
				{
					"anonymous": false,
					"inputs": [
						{
							"indexed": true,
							"internalType": "address",
							"name": "from",
							"type": "address"
						},
						{
							"indexed": true,
							"internalType": "address",
							"name": "to",
							"type": "address"
						},
						{
							"indexed": false,
							"internalType": "uint256",
							"name": "value",
							"type": "uint256"
						}
					],
					"name": "Transfer",
					"type": "event"
				},
				{
					"inputs": [],
					"name": "VERSION",
					"outputs": [
						{
							"internalType": "uint256",
							"name": "",
							"type": "uint256"
						}
					],
					"stateMutability": "view",
					"type": "function"
				},
				{
					"inputs": [
						{
							"internalType": "address",
							"name": "owner",
							"type": "address"
						},
						{
							"internalType": "address",
							"name": "spender",
							"type": "address"
						}
					],
					"name": "allowance",
					"outputs": [
						{
							"internalType": "uint256",
							"name": "",
							"type": "uint256"
						}
					],
					"stateMutability": "view",
					"type": "function"
				},
				{
					"inputs": [
						{
							"internalType": "address",
							"name": "spender",
							"type": "address"
						},
						{
							"internalType": "uint256",
							"name": "amount",
							"type": "uint256"
						}
					],
					"name": "approve",
					"outputs": [
						{
							"internalType": "bool",
							"name": "",
							"type": "bool"
						}
					],
					"stateMutability": "nonpayable",
					"type": "function"
				},
				{
					"inputs": [
						{
							"internalType": "address",
							"name": "account",
							"type": "address"
						}
					],
					"name": "balanceOf",
					"outputs": [
						{
							"internalType": "uint256",
							"name": "",
							"type": "uint256"
						}
					],
					"stateMutability": "view",
					"type": "function"
				},
				{
					"inputs": [],
					"name": "decimals",
					"outputs": [
						{
							"internalType": "uint8",
							"name": "",
							"type": "uint8"
						}
					],
					"stateMutability": "view",
					"type": "function"
				},
				{
					"inputs": [
						{
							"internalType": "address",
							"name": "spender",
							"type": "address"
						},
						{
							"internalType": "uint256",
							"name": "subtractedValue",
							"type": "uint256"
						}
					],
					"name": "decreaseAllowance",
					"outputs": [
						{
							"internalType": "bool",
							"name": "",
							"type": "bool"
						}
					],
					"stateMutability": "nonpayable",
					"type": "function"
				},
				{
					"inputs": [
						{
							"internalType": "address",
							"name": "spender",
							"type": "address"
						},
						{
							"internalType": "uint256",
							"name": "addedValue",
							"type": "uint256"
						}
					],
					"name": "increaseAllowance",
					"outputs": [
						{
							"internalType": "bool",
							"name": "",
							"type": "bool"
						}
					],
					"stateMutability": "nonpayable",
					"type": "function"
				},
				{
					"inputs": [],
					"name": "name",
					"outputs": [
						{
							"internalType": "string",
							"name": "",
							"type": "string"
						}
					],
					"stateMutability": "view",
					"type": "function"
				},
				{
					"inputs": [],
					"name": "owner",
					"outputs": [
						{
							"internalType": "address",
							"name": "",
							"type": "address"
						}
					],
					"stateMutability": "view",
					"type": "function"
				},
				{
					"inputs": [],
					"name": "renounceOwnership",
					"outputs": [],
					"stateMutability": "nonpayable",
					"type": "function"
				},
				{
					"inputs": [],
					"name": "symbol",
					"outputs": [
						{
							"internalType": "string",
							"name": "",
							"type": "string"
						}
					],
					"stateMutability": "view",
					"type": "function"
				},
				{
					"inputs": [],
					"name": "totalSupply",
					"outputs": [
						{
							"internalType": "uint256",
							"name": "",
							"type": "uint256"
						}
					],
					"stateMutability": "view",
					"type": "function"
				},
				{
					"inputs": [
						{
							"internalType": "address",
							"name": "recipient",
							"type": "address"
						},
						{
							"internalType": "uint256",
							"name": "amount",
							"type": "uint256"
						}
					],
					"name": "transfer",
					"outputs": [
						{
							"internalType": "bool",
							"name": "",
							"type": "bool"
						}
					],
					"stateMutability": "nonpayable",
					"type": "function"
				},
				{
					"inputs": [
						{
							"internalType": "address",
							"name": "sender",
							"type": "address"
						},
						{
							"internalType": "address",
							"name": "recipient",
							"type": "address"
						},
						{
							"internalType": "uint256",
							"name": "amount",
							"type": "uint256"
						}
					],
					"name": "transferFrom",
					"outputs": [
						{
							"internalType": "bool",
							"name": "",
							"type": "bool"
						}
					],
					"stateMutability": "nonpayable",
					"type": "function"
				},
				{
					"inputs": [
						{
							"internalType": "address",
							"name": "newOwner",
							"type": "address"
						}
					],
					"name": "transferOwnership",
					"outputs": [],
					"stateMutability": "nonpayable",
					"type": "function"
				}
			],
			"devdoc": {
				"kind": "dev",
				"methods": {
					"allowance(address,address)": {
						"details": "See {IERC20-allowance}."
					},
					"approve(address,uint256)": {
						"details": "See {IERC20-approve}. Requirements: - `spender` cannot be the zero address."
					},
					"balanceOf(address)": {
						"details": "See {IERC20-balanceOf}."
					},
					"decimals()": {
						"details": "Returns the number of decimals used to get its user representation. For example, if `decimals` equals `2`, a balance of `505` tokens should be displayed to a user as `5,05` (`505 / 10 ** 2`). Tokens usually opt for a value of 18, imitating the relationship between Ether and Wei. This is the value {ERC20} uses, unless {_setupDecimals} is called. NOTE: This information is only used for _display_ purposes: it in no way affects any of the arithmetic of the contract, including {IERC20-balanceOf} and {IERC20-transfer}."
					},
					"decreaseAllowance(address,uint256)": {
						"details": "Atomically decreases the allowance granted to `spender` by the caller. This is an alternative to {approve} that can be used as a mitigation for problems described in {IERC20-approve}. Emits an {Approval} event indicating the updated allowance. Requirements: - `spender` cannot be the zero address. - `spender` must have allowance for the caller of at least `subtractedValue`."
					},
					"increaseAllowance(address,uint256)": {
						"details": "Atomically increases the allowance granted to `spender` by the caller. This is an alternative to {approve} that can be used as a mitigation for problems described in {IERC20-approve}. Emits an {Approval} event indicating the updated allowance. Requirements: - `spender` cannot be the zero address."
					},
					"name()": {
						"details": "Returns the name of the token."
					},
					"owner()": {
						"details": "Returns the address of the current owner."
					},
					"renounceOwnership()": {
						"details": "Leaves the contract without owner. It will not be possible to call `onlyOwner` functions anymore. Can only be called by the current owner. NOTE: Renouncing ownership will leave the contract without an owner, thereby removing any functionality that is only available to the owner."
					},
					"symbol()": {
						"details": "Returns the symbol of the token, usually a shorter version of the name."
					},
					"totalSupply()": {
						"details": "See {IERC20-totalSupply}."
					},
					"transfer(address,uint256)": {
						"details": "See {IERC20-transfer}. Requirements: - `recipient` cannot be the zero address. - the caller must have a balance of at least `amount`."
					},
					"transferFrom(address,address,uint256)": {
						"details": "See {IERC20-transferFrom}. Emits an {Approval} event indicating the updated allowance. This is not required by the EIP. See the note at the beginning of {ERC20}. Requirements: - `sender` and `recipient` cannot be the zero address. - `sender` must have a balance of at least `amount`. - the caller must have allowance for ``sender``'s tokens of at least `amount`."
					},
					"transferOwnership(address)": {
						"details": "Transfers ownership of the contract to a new account (`newOwner`). Can only be called by the current owner."
					}
				},
				"version": 1
			},
			"evm": {
				"assembly": "    /* \"contracts/Test_contract.sol\":13812:24224  contract StandardToken is IERC20, Ownable, BaseToken {\r... */\n  mstore(0x40, 0x80)\n    /* \"contracts/Test_contract.sol\":14202:14582  constructor(\r... */\n  mload(0x40)\n  sub(codesize, bytecodeSize)\n  dup1\n  bytecodeSize\n  dup4\n  codecopy\n  dup2\n  dup2\n  add\n  0x40\n  mstore\n  dup2\n  add\n  swap1\n  tag_1\n  swap2\n  swap1\n  tag_2\n  jump\t// in\ntag_1:\n    /* \"contracts/Test_contract.sol\":4691:4714  _setOwner(_msgSender()) */\n  tag_6\n    /* \"contracts/Test_contract.sol\":4701:4713  _msgSender() */\n  tag_7\n    /* \"contracts/Test_contract.sol\":4701:4711  _msgSender */\n  shl(0x20, tag_8)\n    /* \"contracts/Test_contract.sol\":4701:4713  _msgSender() */\n  0x20\n  shr\n  jump\t// in\ntag_7:\n    /* \"contracts/Test_contract.sol\":4691:4700  _setOwner */\n  shl(0x20, tag_9)\n    /* \"contracts/Test_contract.sol\":4691:4714  _setOwner(_msgSender()) */\n  0x20\n  shr\n  jump\t// in\ntag_6:\n    /* \"contracts/Test_contract.sol\":14376:14381  name_ */\n  dup4\n    /* \"contracts/Test_contract.sol\":14368:14373  _name */\n  0x03\n    /* \"contracts/Test_contract.sol\":14368:14381  _name = name_ */\n  swap1\n  dup1\n  mload\n  swap1\n  0x20\n  add\n  swap1\n  tag_11\n  swap3\n  swap2\n  swap1\n  tag_12\n  jump\t// in\ntag_11:\n  pop\n    /* \"contracts/Test_contract.sol\":14402:14409  symbol_ */\n  dup3\n    /* \"contracts/Test_contract.sol\":14392:14399  _symbol */\n  0x04\n    /* \"contracts/Test_contract.sol\":14392:14409  _symbol = symbol_ */\n  swap1\n  dup1\n  mload\n  swap1\n  0x20\n  add\n  swap1\n  tag_13\n  swap3\n  swap2\n  swap1\n  tag_12\n  jump\t// in\ntag_13:\n  pop\n    /* \"contracts/Test_contract.sol\":14432:14441  decimals_ */\n  dup2\n    /* \"contracts/Test_contract.sol\":14420:14429  _decimals */\n  0x05\n  0x00\n    /* \"contracts/Test_contract.sol\":14420:14441  _decimals = decimals_ */\n  0x0100\n  exp\n  dup2\n  sload\n  dup2\n  0xff\n  mul\n  not\n  and\n  swap1\n  dup4\n  0xff\n  and\n  mul\n  or\n  swap1\n  sstore\n  pop\n    /* \"contracts/Test_contract.sol\":14452:14480  _mint(owner(), totalSupply_) */\n  tag_14\n    /* \"contracts/Test_contract.sol\":14458:14465  owner() */\n  tag_15\n    /* \"contracts/Test_contract.sol\":14458:14463  owner */\n  shl(0x20, tag_16)\n    /* \"contracts/Test_contract.sol\":14458:14465  owner() */\n  0x20\n  shr\n  jump\t// in\ntag_15:\n    /* \"contracts/Test_contract.sol\":14467:14479  totalSupply_ */\n  dup3\n    /* \"contracts/Test_contract.sol\":14452:14457  _mint */\n  shl(0x20, tag_17)\n    /* \"contracts/Test_contract.sol\":14452:14480  _mint(owner(), totalSupply_) */\n  0x20\n  shr\n  jump\t// in\ntag_14:\n    /* \"contracts/Test_contract.sol\":14528:14532  this */\n  address\n    /* \"contracts/Test_contract.sol\":14498:14563  TokenCreated(owner(), address(this), TokenType.standard, VERSION) */\n  0xffffffffffffffffffffffffffffffffffffffff\n  and\n    /* \"contracts/Test_contract.sol\":14511:14518  owner() */\n  tag_18\n    /* \"contracts/Test_contract.sol\":14511:14516  owner */\n  shl(0x20, tag_16)\n    /* \"contracts/Test_contract.sol\":14511:14518  owner() */\n  0x20\n  shr\n  jump\t// in\ntag_18:\n    /* \"contracts/Test_contract.sol\":14498:14563  TokenCreated(owner(), address(this), TokenType.standard, VERSION) */\n  0xffffffffffffffffffffffffffffffffffffffff\n  and\n  0x56358b41df5fa59f5639228f0930994cbdde383c8a8fd74e06c04e1deebe3562\n    /* \"contracts/Test_contract.sol\":14535:14553  TokenType.standard */\n  0x00\n    /* \"contracts/Test_contract.sol\":13941:13942  1 */\n  0x01\n    /* \"contracts/Test_contract.sol\":14498:14563  TokenCreated(owner(), address(this), TokenType.standard, VERSION) */\n  mload(0x40)\n  tag_19\n  swap3\n  swap2\n  swap1\n  tag_20\n  jump\t// in\ntag_19:\n  mload(0x40)\n  dup1\n  swap2\n  sub\n  swap1\n  log3\n    /* \"contracts/Test_contract.sol\":14202:14582  constructor(\r... */\n  pop\n  pop\n  pop\n  pop\n    /* \"contracts/Test_contract.sol\":13812:24224  contract StandardToken is IERC20, Ownable, BaseToken {\r... */\n  jump(tag_21)\n    /* \"contracts/Test_contract.sol\":3521:3619  function _msgSender() internal view virtual returns (address) {\r... */\ntag_8:\n    /* \"contracts/Test_contract.sol\":3574:3581  address */\n  0x00\n    /* \"contracts/Test_contract.sol\":3601:3611  msg.sender */\n  caller\n    /* \"contracts/Test_contract.sol\":3594:3611  return msg.sender */\n  swap1\n  pop\n    /* \"contracts/Test_contract.sol\":3521:3619  function _msgSender() internal view virtual returns (address) {\r... */\n  swap1\n  jump\t// out\n    /* \"contracts/Test_contract.sol\":5903:6076  function _setOwner(address newOwner) private {\r... */\ntag_9:\n    /* \"contracts/Test_contract.sol\":5959:5975  address oldOwner */\n  0x00\n    /* \"contracts/Test_contract.sol\":5978:5984  _owner */\n  dup1\n  0x00\n  swap1\n  sload\n  swap1\n  0x0100\n  exp\n  swap1\n  div\n  0xffffffffffffffffffffffffffffffffffffffff\n  and\n    /* \"contracts/Test_contract.sol\":5959:5984  address oldOwner = _owner */\n  swap1\n  pop\n    /* \"contracts/Test_contract.sol\":6004:6012  newOwner */\n  dup2\n    /* \"contracts/Test_contract.sol\":5995:6001  _owner */\n  0x00\n  dup1\n    /* \"contracts/Test_contract.sol\":5995:6012  _owner = newOwner */\n  0x0100\n  exp\n  dup2\n  sload\n  dup2\n  0xffffffffffffffffffffffffffffffffffffffff\n  mul\n  not\n  and\n  swap1\n  dup4\n  0xffffffffffffffffffffffffffffffffffffffff\n  and\n  mul\n  or\n  swap1\n  sstore\n  pop\n    /* \"contracts/Test_contract.sol\":6059:6067  newOwner */\n  dup2\n    /* \"contracts/Test_contract.sol\":6028:6068  OwnershipTransferred(oldOwner, newOwner) */\n  0xffffffffffffffffffffffffffffffffffffffff\n  and\n    /* \"contracts/Test_contract.sol\":6049:6057  oldOwner */\n  dup2\n    /* \"contracts/Test_contract.sol\":6028:6068  OwnershipTransferred(oldOwner, newOwner) */\n  0xffffffffffffffffffffffffffffffffffffffff\n  and\n  0x8be0079c531659141344cd1fd0a4f28419497f9722a3daafe3b4186f6b6457e0\n  mload(0x40)\n  mload(0x40)\n  dup1\n  swap2\n  sub\n  swap1\n  log3\n    /* \"contracts/Test_contract.sol\":5903:6076  function _setOwner(address newOwner) private {\r... */\n  pop\n  pop\n  jump\t// out\n    /* \"contracts/Test_contract.sol\":4803:4890  function owner() public view virtual returns (address) {\r... */\ntag_16:\n    /* \"contracts/Test_contract.sol\":4849:4856  address */\n  0x00\n    /* \"contracts/Test_contract.sol\":4876:4882  _owner */\n  dup1\n  0x00\n  swap1\n  sload\n  swap1\n  0x0100\n  exp\n  swap1\n  div\n  0xffffffffffffffffffffffffffffffffffffffff\n  and\n    /* \"contracts/Test_contract.sol\":4869:4882  return _owner */\n  swap1\n  pop\n    /* \"contracts/Test_contract.sol\":4803:4890  function owner() public view virtual returns (address) {\r... */\n  swap1\n  jump\t// out\n    /* \"contracts/Test_contract.sol\":21079:21457  function _mint(address account, uint256 amount) internal virtual {\r... */\ntag_17:\n    /* \"contracts/Test_contract.sol\":21182:21183  0 */\n  0x00\n    /* \"contracts/Test_contract.sol\":21163:21184  account != address(0) */\n  0xffffffffffffffffffffffffffffffffffffffff\n  and\n    /* \"contracts/Test_contract.sol\":21163:21170  account */\n  dup3\n    /* \"contracts/Test_contract.sol\":21163:21184  account != address(0) */\n  0xffffffffffffffffffffffffffffffffffffffff\n  and\n  eq\n  iszero\n    /* \"contracts/Test_contract.sol\":21155:21220  require(account != address(0), \"ERC20: mint to the zero address\") */\n  tag_26\n  jumpi\n  mload(0x40)\n  0x08c379a000000000000000000000000000000000000000000000000000000000\n  dup2\n  mstore\n  0x04\n  add\n  tag_27\n  swap1\n  tag_28\n  jump\t// in\ntag_27:\n  mload(0x40)\n  dup1\n  swap2\n  sub\n  swap1\n  revert\ntag_26:\n    /* \"contracts/Test_contract.sol\":21233:21282  _beforeTokenTransfer(address(0), account, amount) */\n  tag_29\n    /* \"contracts/Test_contract.sol\":21262:21263  0 */\n  0x00\n    /* \"contracts/Test_contract.sol\":21266:21273  account */\n  dup4\n    /* \"contracts/Test_contract.sol\":21275:21281  amount */\n  dup4\n    /* \"contracts/Test_contract.sol\":21233:21253  _beforeTokenTransfer */\n  shl(0x20, tag_30)\n    /* \"contracts/Test_contract.sol\":21233:21282  _beforeTokenTransfer(address(0), account, amount) */\n  0x20\n  shr\n  jump\t// in\ntag_29:\n    /* \"contracts/Test_contract.sol\":21310:21334  _totalSupply.add(amount) */\n  tag_31\n    /* \"contracts/Test_contract.sol\":21327:21333  amount */\n  dup2\n    /* \"contracts/Test_contract.sol\":21310:21322  _totalSupply */\n  sload(0x06)\n    /* \"contracts/Test_contract.sol\":21310:21326  _totalSupply.add */\n  or(tag_0_81, shl(0x20, tag_32))\n  swap1\n    /* \"contracts/Test_contract.sol\":21310:21334  _totalSupply.add(amount) */\n  swap2\n  swap1\n  0x20\n  shr\n  jump\t// in\ntag_31:\n    /* \"contracts/Test_contract.sol\":21295:21307  _totalSupply */\n  0x06\n    /* \"contracts/Test_contract.sol\":21295:21334  _totalSupply = _totalSupply.add(amount) */\n  dup2\n  swap1\n  sstore\n  pop\n    /* \"contracts/Test_contract.sol\":21366:21396  _balances[account].add(amount) */\n  tag_33\n    /* \"contracts/Test_contract.sol\":21389:21395  amount */\n  dup2\n    /* \"contracts/Test_contract.sol\":21366:21375  _balances */\n  0x01\n    /* \"contracts/Test_contract.sol\":21366:21384  _balances[account] */\n  0x00\n    /* \"contracts/Test_contract.sol\":21376:21383  account */\n  dup6\n    /* \"contracts/Test_contract.sol\":21366:21384  _balances[account] */\n  0xffffffffffffffffffffffffffffffffffffffff\n  and\n  0xffffffffffffffffffffffffffffffffffffffff\n  and\n  dup2\n  mstore\n  0x20\n  add\n  swap1\n  dup2\n  mstore\n  0x20\n  add\n  0x00\n  keccak256\n  sload\n    /* \"contracts/Test_contract.sol\":21366:21388  _balances[account].add */\n  or(tag_0_81, shl(0x20, tag_32))\n  swap1\n    /* \"contracts/Test_contract.sol\":21366:21396  _balances[account].add(amount) */\n  swap2\n  swap1\n  0x20\n  shr\n  jump\t// in\ntag_33:\n    /* \"contracts/Test_contract.sol\":21345:21354  _balances */\n  0x01\n    /* \"contracts/Test_contract.sol\":21345:21363  _balances[account] */\n  0x00\n    /* \"contracts/Test_contract.sol\":21355:21362  account */\n  dup5\n    /* \"contracts/Test_contract.sol\":21345:21363  _balances[account] */\n  0xffffffffffffffffffffffffffffffffffffffff\n  and\n  0xffffffffffffffffffffffffffffffffffffffff\n  and\n  dup2\n  mstore\n  0x20\n  add\n  swap1\n  dup2\n  mstore\n  0x20\n  add\n  0x00\n  keccak256\n    /* \"contracts/Test_contract.sol\":21345:21396  _balances[account] = _balances[account].add(amount) */\n  dup2\n  swap1\n  sstore\n  pop\n    /* \"contracts/Test_contract.sol\":21433:21440  account */\n  dup2\n    /* \"contracts/Test_contract.sol\":21412:21449  Transfer(address(0), account, amount) */\n  0xffffffffffffffffffffffffffffffffffffffff\n  and\n    /* \"contracts/Test_contract.sol\":21429:21430  0 */\n  0x00\n    /* \"contracts/Test_contract.sol\":21412:21449  Transfer(address(0), account, amount) */\n  0xffffffffffffffffffffffffffffffffffffffff\n  and\n  0xddf252ad1be2c89b69c2b068fc378daa952ba7f163c4a11628f55a4df523b3ef\n    /* \"contracts/Test_contract.sol\":21442:21448  amount */\n  dup4\n    /* \"contracts/Test_contract.sol\":21412:21449  Transfer(address(0), account, amount) */\n  mload(0x40)\n  tag_34\n  swap2\n  swap1\n  tag_35\n  jump\t// in\ntag_34:\n  mload(0x40)\n  dup1\n  swap2\n  sub\n  swap1\n  log3\n    /* \"contracts/Test_contract.sol\":21079:21457  function _mint(address account, uint256 amount) internal virtual {\r... */\n  pop\n  pop\n  jump\t// out\n    /* \"contracts/Test_contract.sol\":24096:24221  function _beforeTokenTransfer(\r... */\ntag_30:\n  pop\n  pop\n  pop\n  jump\t// out\n    /* \"contracts/Test_contract.sol\":8889:8987  function add(uint256 a, uint256 b) internal pure returns (uint256) {\r... */\ntag_32:\n    /* \"contracts/Test_contract.sol\":8947:8954  uint256 */\n  0x00\n    /* \"contracts/Test_contract.sol\":8978:8979  b */\n  dup2\n    /* \"contracts/Test_contract.sol\":8974:8975  a */\n  dup4\n    /* \"contracts/Test_contract.sol\":8974:8979  a + b */\n  tag_38\n  swap2\n  swap1\n  tag_39\n  jump\t// in\ntag_38:\n    /* \"contracts/Test_contract.sol\":8967:8979  return a + b */\n  swap1\n  pop\n    /* \"contracts/Test_contract.sol\":8889:8987  function add(uint256 a, uint256 b) internal pure returns (uint256) {\r... */\n  swap3\n  swap2\n  pop\n  pop\n  jump\t// out\n    /* \"contracts/Test_contract.sol\":13812:24224  contract StandardToken is IERC20, Ownable, BaseToken {\r... */\ntag_12:\n  dup3\n  dup1\n  sload\n  tag_40\n  swap1\n  tag_41\n  jump\t// in\ntag_40:\n  swap1\n  0x00\n  mstore\n  keccak256(0x00, 0x20)\n  swap1\n  0x1f\n  add\n  0x20\n  swap1\n  div\n  dup2\n  add\n  swap3\n  dup3\n  tag_43\n  jumpi\n  0x00\n  dup6\n  sstore\n  jump(tag_42)\ntag_43:\n  dup3\n  0x1f\n  lt\n  tag_44\n  jumpi\n  dup1\n  mload\n  not(0xff)\n  and\n  dup4\n  dup1\n  add\n  or\n  dup6\n  sstore\n  jump(tag_42)\ntag_44:\n  dup3\n  dup1\n  add\n  0x01\n  add\n  dup6\n  sstore\n  dup3\n  iszero\n  tag_42\n  jumpi\n  swap2\n  dup3\n  add\ntag_45:\n  dup3\n  dup2\n  gt\n  iszero\n  tag_46\n  jumpi\n  dup3\n  mload\n  dup3\n  sstore\n  swap2\n  0x20\n  add\n  swap2\n  swap1\n  0x01\n  add\n  swap1\n  jump(tag_45)\ntag_46:\ntag_42:\n  pop\n  swap1\n  pop\n  tag_47\n  swap2\n  swap1\n  tag_48\n  jump\t// in\ntag_47:\n  pop\n  swap1\n  jump\t// out\ntag_48:\ntag_49:\n  dup1\n  dup3\n  gt\n  iszero\n  tag_50\n  jumpi\n  0x00\n  dup2\n  0x00\n  swap1\n  sstore\n  pop\n  0x01\n  add\n  jump(tag_49)\ntag_50:\n  pop\n  swap1\n  jump\t// out\n    /* \"#utility.yul\":7:361   */\ntag_52:\n    /* \"#utility.yul\":96:101   */\n  0x00\n    /* \"#utility.yul\":121:187   */\n  tag_54\n    /* \"#utility.yul\":137:186   */\n  tag_55\n    /* \"#utility.yul\":179:185   */\n  dup5\n    /* \"#utility.yul\":137:186   */\n  tag_56\n  jump\t// in\ntag_55:\n    /* \"#utility.yul\":121:187   */\n  tag_57\n  jump\t// in\ntag_54:\n    /* \"#utility.yul\":112:187   */\n  swap1\n  pop\n    /* \"#utility.yul\":210:216   */\n  dup3\n    /* \"#utility.yul\":203:208   */\n  dup2\n    /* \"#utility.yul\":196:217   */\n  mstore\n    /* \"#utility.yul\":248:252   */\n  0x20\n    /* \"#utility.yul\":241:246   */\n  dup2\n    /* \"#utility.yul\":237:253   */\n  add\n    /* \"#utility.yul\":286:289   */\n  dup5\n    /* \"#utility.yul\":277:283   */\n  dup5\n    /* \"#utility.yul\":272:275   */\n  dup5\n    /* \"#utility.yul\":268:284   */\n  add\n    /* \"#utility.yul\":265:290   */\n  gt\n    /* \"#utility.yul\":262:264   */\n  iszero\n  tag_58\n  jumpi\n    /* \"#utility.yul\":303:304   */\n  0x00\n    /* \"#utility.yul\":300:301   */\n  dup1\n    /* \"#utility.yul\":293:305   */\n  revert\n    /* \"#utility.yul\":262:264   */\ntag_58:\n    /* \"#utility.yul\":316:355   */\n  tag_59\n    /* \"#utility.yul\":348:354   */\n  dup5\n    /* \"#utility.yul\":343:346   */\n  dup3\n    /* \"#utility.yul\":338:341   */\n  dup6\n    /* \"#utility.yul\":316:355   */\n  tag_60\n  jump\t// in\ntag_59:\n    /* \"#utility.yul\":102:361   */\n  pop\n  swap4\n  swap3\n  pop\n  pop\n  pop\n  jump\t// out\n    /* \"#utility.yul\":381:669   */\ntag_61:\n    /* \"#utility.yul\":448:453   */\n  0x00\n    /* \"#utility.yul\":497:500   */\n  dup3\n    /* \"#utility.yul\":490:494   */\n  0x1f\n    /* \"#utility.yul\":482:488   */\n  dup4\n    /* \"#utility.yul\":478:495   */\n  add\n    /* \"#utility.yul\":474:501   */\n  slt\n    /* \"#utility.yul\":464:466   */\n  tag_63\n  jumpi\n    /* \"#utility.yul\":515:516   */\n  0x00\n    /* \"#utility.yul\":512:513   */\n  dup1\n    /* \"#utility.yul\":505:517   */\n  revert\n    /* \"#utility.yul\":464:466   */\ntag_63:\n    /* \"#utility.yul\":548:554   */\n  dup2\n    /* \"#utility.yul\":542:555   */\n  mload\n    /* \"#utility.yul\":573:663   */\n  tag_64\n    /* \"#utility.yul\":659:662   */\n  dup5\n    /* \"#utility.yul\":651:657   */\n  dup3\n    /* \"#utility.yul\":644:648   */\n  0x20\n    /* \"#utility.yul\":636:642   */\n  dup7\n    /* \"#utility.yul\":632:649   */\n  add\n    /* \"#utility.yul\":573:663   */\n  tag_52\n  jump\t// in\ntag_64:\n    /* \"#utility.yul\":564:663   */\n  swap2\n  pop\n    /* \"#utility.yul\":454:669   */\n  pop\n  swap3\n  swap2\n  pop\n  pop\n  jump\t// out\n    /* \"#utility.yul\":675:818   */\ntag_65:\n    /* \"#utility.yul\":732:737   */\n  0x00\n    /* \"#utility.yul\":763:769   */\n  dup2\n    /* \"#utility.yul\":757:770   */\n  mload\n    /* \"#utility.yul\":748:770   */\n  swap1\n  pop\n    /* \"#utility.yul\":779:812   */\n  tag_67\n    /* \"#utility.yul\":806:811   */\n  dup2\n    /* \"#utility.yul\":779:812   */\n  tag_68\n  jump\t// in\ntag_67:\n    /* \"#utility.yul\":738:818   */\n  swap3\n  swap2\n  pop\n  pop\n  jump\t// out\n    /* \"#utility.yul\":824:963   */\ntag_69:\n    /* \"#utility.yul\":879:884   */\n  0x00\n    /* \"#utility.yul\":910:916   */\n  dup2\n    /* \"#utility.yul\":904:917   */\n  mload\n    /* \"#utility.yul\":895:917   */\n  swap1\n  pop\n    /* \"#utility.yul\":926:957   */\n  tag_71\n    /* \"#utility.yul\":951:956   */\n  dup2\n    /* \"#utility.yul\":926:957   */\n  tag_72\n  jump\t// in\ntag_71:\n    /* \"#utility.yul\":885:963   */\n  swap3\n  swap2\n  pop\n  pop\n  jump\t// out\n    /* \"#utility.yul\":969:1930   */\ntag_2:\n    /* \"#utility.yul\":1084:1090   */\n  0x00\n    /* \"#utility.yul\":1092:1098   */\n  dup1\n    /* \"#utility.yul\":1100:1106   */\n  0x00\n    /* \"#utility.yul\":1108:1114   */\n  dup1\n    /* \"#utility.yul\":1157:1160   */\n  0x80\n    /* \"#utility.yul\":1145:1154   */\n  dup6\n    /* \"#utility.yul\":1136:1143   */\n  dup8\n    /* \"#utility.yul\":1132:1155   */\n  sub\n    /* \"#utility.yul\":1128:1161   */\n  slt\n    /* \"#utility.yul\":1125:1127   */\n  iszero\n  tag_74\n  jumpi\n    /* \"#utility.yul\":1174:1175   */\n  0x00\n    /* \"#utility.yul\":1171:1172   */\n  dup1\n    /* \"#utility.yul\":1164:1176   */\n  revert\n    /* \"#utility.yul\":1125:1127   */\ntag_74:\n    /* \"#utility.yul\":1238:1239   */\n  0x00\n    /* \"#utility.yul\":1227:1236   */\n  dup6\n    /* \"#utility.yul\":1223:1240   */\n  add\n    /* \"#utility.yul\":1217:1241   */\n  mload\n    /* \"#utility.yul\":1268:1286   */\n  0xffffffffffffffff\n    /* \"#utility.yul\":1260:1266   */\n  dup2\n    /* \"#utility.yul\":1257:1287   */\n  gt\n    /* \"#utility.yul\":1254:1256   */\n  iszero\n  tag_75\n  jumpi\n    /* \"#utility.yul\":1300:1301   */\n  0x00\n    /* \"#utility.yul\":1297:1298   */\n  dup1\n    /* \"#utility.yul\":1290:1302   */\n  revert\n    /* \"#utility.yul\":1254:1256   */\ntag_75:\n    /* \"#utility.yul\":1328:1402   */\n  tag_76\n    /* \"#utility.yul\":1394:1401   */\n  dup8\n    /* \"#utility.yul\":1385:1391   */\n  dup3\n    /* \"#utility.yul\":1374:1383   */\n  dup9\n    /* \"#utility.yul\":1370:1392   */\n  add\n    /* \"#utility.yul\":1328:1402   */\n  tag_61\n  jump\t// in\ntag_76:\n    /* \"#utility.yul\":1318:1402   */\n  swap5\n  pop\n    /* \"#utility.yul\":1188:1412   */\n  pop\n    /* \"#utility.yul\":1472:1474   */\n  0x20\n    /* \"#utility.yul\":1461:1470   */\n  dup6\n    /* \"#utility.yul\":1457:1475   */\n  add\n    /* \"#utility.yul\":1451:1476   */\n  mload\n    /* \"#utility.yul\":1503:1521   */\n  0xffffffffffffffff\n    /* \"#utility.yul\":1495:1501   */\n  dup2\n    /* \"#utility.yul\":1492:1522   */\n  gt\n    /* \"#utility.yul\":1489:1491   */\n  iszero\n  tag_77\n  jumpi\n    /* \"#utility.yul\":1535:1536   */\n  0x00\n    /* \"#utility.yul\":1532:1533   */\n  dup1\n    /* \"#utility.yul\":1525:1537   */\n  revert\n    /* \"#utility.yul\":1489:1491   */\ntag_77:\n    /* \"#utility.yul\":1563:1637   */\n  tag_78\n    /* \"#utility.yul\":1629:1636   */\n  dup8\n    /* \"#utility.yul\":1620:1626   */\n  dup3\n    /* \"#utility.yul\":1609:1618   */\n  dup9\n    /* \"#utility.yul\":1605:1627   */\n  add\n    /* \"#utility.yul\":1563:1637   */\n  tag_61\n  jump\t// in\ntag_78:\n    /* \"#utility.yul\":1553:1637   */\n  swap4\n  pop\n    /* \"#utility.yul\":1422:1647   */\n  pop\n    /* \"#utility.yul\":1686:1688   */\n  0x40\n    /* \"#utility.yul\":1712:1774   */\n  tag_79\n    /* \"#utility.yul\":1766:1773   */\n  dup8\n    /* \"#utility.yul\":1757:1763   */\n  dup3\n    /* \"#utility.yul\":1746:1755   */\n  dup9\n    /* \"#utility.yul\":1742:1764   */\n  add\n    /* \"#utility.yul\":1712:1774   */\n  tag_69\n  jump\t// in\ntag_79:\n    /* \"#utility.yul\":1702:1774   */\n  swap3\n  pop\n    /* \"#utility.yul\":1657:1784   */\n  pop\n    /* \"#utility.yul\":1823:1825   */\n  0x60\n    /* \"#utility.yul\":1849:1913   */\n  tag_80\n    /* \"#utility.yul\":1905:1912   */\n  dup8\n    /* \"#utility.yul\":1896:1902   */\n  dup3\n    /* \"#utility.yul\":1885:1894   */\n  dup9\n    /* \"#utility.yul\":1881:1903   */\n  add\n    /* \"#utility.yul\":1849:1913   */\n  tag_65\n  jump\t// in\ntag_80:\n    /* \"#utility.yul\":1839:1913   */\n  swap2\n  pop\n    /* \"#utility.yul\":1794:1923   */\n  pop\n    /* \"#utility.yul\":1115:1930   */\n  swap3\n  swap6\n  swap2\n  swap5\n  pop\n  swap3\n  pop\n  jump\t// out\n    /* \"#utility.yul\":1936:2089   */\ntag_81:\n    /* \"#utility.yul\":2034:2082   */\n  tag_83\n    /* \"#utility.yul\":2076:2081   */\n  dup2\n    /* \"#utility.yul\":2034:2082   */\n  tag_84\n  jump\t// in\ntag_83:\n    /* \"#utility.yul\":2029:2032   */\n  dup3\n    /* \"#utility.yul\":2022:2083   */\n  mstore\n    /* \"#utility.yul\":2012:2089   */\n  pop\n  pop\n  jump\t// out\n    /* \"#utility.yul\":2095:2461   */\ntag_85:\n    /* \"#utility.yul\":2237:2240   */\n  0x00\n    /* \"#utility.yul\":2258:2325   */\n  tag_87\n    /* \"#utility.yul\":2322:2324   */\n  0x1f\n    /* \"#utility.yul\":2317:2320   */\n  dup4\n    /* \"#utility.yul\":2258:2325   */\n  tag_88\n  jump\t// in\ntag_87:\n    /* \"#utility.yul\":2251:2325   */\n  swap2\n  pop\n    /* \"#utility.yul\":2334:2427   */\n  tag_89\n    /* \"#utility.yul\":2423:2426   */\n  dup3\n    /* \"#utility.yul\":2334:2427   */\n  tag_90\n  jump\t// in\ntag_89:\n    /* \"#utility.yul\":2452:2454   */\n  0x20\n    /* \"#utility.yul\":2447:2450   */\n  dup3\n    /* \"#utility.yul\":2443:2455   */\n  add\n    /* \"#utility.yul\":2436:2455   */\n  swap1\n  pop\n    /* \"#utility.yul\":2241:2461   */\n  swap2\n  swap1\n  pop\n  jump\t// out\n    /* \"#utility.yul\":2467:2585   */\ntag_91:\n    /* \"#utility.yul\":2554:2578   */\n  tag_93\n    /* \"#utility.yul\":2572:2577   */\n  dup2\n    /* \"#utility.yul\":2554:2578   */\n  tag_94\n  jump\t// in\ntag_93:\n    /* \"#utility.yul\":2549:2552   */\n  dup3\n    /* \"#utility.yul\":2542:2579   */\n  mstore\n    /* \"#utility.yul\":2532:2585   */\n  pop\n  pop\n  jump\t// out\n    /* \"#utility.yul\":2591:2945   */\ntag_20:\n    /* \"#utility.yul\":2723:2727   */\n  0x00\n    /* \"#utility.yul\":2761:2763   */\n  0x40\n    /* \"#utility.yul\":2750:2759   */\n  dup3\n    /* \"#utility.yul\":2746:2764   */\n  add\n    /* \"#utility.yul\":2738:2764   */\n  swap1\n  pop\n    /* \"#utility.yul\":2774:2856   */\n  tag_96\n    /* \"#utility.yul\":2853:2854   */\n  0x00\n    /* \"#utility.yul\":2842:2851   */\n  dup4\n    /* \"#utility.yul\":2838:2855   */\n  add\n    /* \"#utility.yul\":2829:2835   */\n  dup6\n    /* \"#utility.yul\":2774:2856   */\n  tag_81\n  jump\t// in\ntag_96:\n    /* \"#utility.yul\":2866:2938   */\n  tag_97\n    /* \"#utility.yul\":2934:2936   */\n  0x20\n    /* \"#utility.yul\":2923:2932   */\n  dup4\n    /* \"#utility.yul\":2919:2937   */\n  add\n    /* \"#utility.yul\":2910:2916   */\n  dup5\n    /* \"#utility.yul\":2866:2938   */\n  tag_91\n  jump\t// in\ntag_97:\n    /* \"#utility.yul\":2728:2945   */\n  swap4\n  swap3\n  pop\n  pop\n  pop\n  jump\t// out\n    /* \"#utility.yul\":2951:3370   */\ntag_28:\n    /* \"#utility.yul\":3117:3121   */\n  0x00\n    /* \"#utility.yul\":3155:3157   */\n  0x20\n    /* \"#utility.yul\":3144:3153   */\n  dup3\n    /* \"#utility.yul\":3140:3158   */\n  add\n    /* \"#utility.yul\":3132:3158   */\n  swap1\n  pop\n    /* \"#utility.yul\":3204:3213   */\n  dup2\n    /* \"#utility.yul\":3198:3202   */\n  dup2\n    /* \"#utility.yul\":3194:3214   */\n  sub\n    /* \"#utility.yul\":3190:3191   */\n  0x00\n    /* \"#utility.yul\":3179:3188   */\n  dup4\n    /* \"#utility.yul\":3175:3192   */\n  add\n    /* \"#utility.yul\":3168:3215   */\n  mstore\n    /* \"#utility.yul\":3232:3363   */\n  tag_99\n    /* \"#utility.yul\":3358:3362   */\n  dup2\n    /* \"#utility.yul\":3232:3363   */\n  tag_85\n  jump\t// in\ntag_99:\n    /* \"#utility.yul\":3224:3363   */\n  swap1\n  pop\n    /* \"#utility.yul\":3122:3370   */\n  swap2\n  swap1\n  pop\n  jump\t// out\n    /* \"#utility.yul\":3376:3598   */\ntag_35:\n    /* \"#utility.yul\":3469:3473   */\n  0x00\n    /* \"#utility.yul\":3507:3509   */\n  0x20\n    /* \"#utility.yul\":3496:3505   */\n  dup3\n    /* \"#utility.yul\":3492:3510   */\n  add\n    /* \"#utility.yul\":3484:3510   */\n  swap1\n  pop\n    /* \"#utility.yul\":3520:3591   */\n  tag_101\n    /* \"#utility.yul\":3588:3589   */\n  0x00\n    /* \"#utility.yul\":3577:3586   */\n  dup4\n    /* \"#utility.yul\":3573:3590   */\n  add\n    /* \"#utility.yul\":3564:3570   */\n  dup5\n    /* \"#utility.yul\":3520:3591   */\n  tag_91\n  jump\t// in\ntag_101:\n    /* \"#utility.yul\":3474:3598   */\n  swap3\n  swap2\n  pop\n  pop\n  jump\t// out\n    /* \"#utility.yul\":3604:3733   */\ntag_57:\n    /* \"#utility.yul\":3638:3644   */\n  0x00\n    /* \"#utility.yul\":3665:3685   */\n  tag_103\n  tag_104\n  jump\t// in\ntag_103:\n    /* \"#utility.yul\":3655:3685   */\n  swap1\n  pop\n    /* \"#utility.yul\":3694:3727   */\n  tag_105\n    /* \"#utility.yul\":3722:3726   */\n  dup3\n    /* \"#utility.yul\":3714:3720   */\n  dup3\n    /* \"#utility.yul\":3694:3727   */\n  tag_106\n  jump\t// in\ntag_105:\n    /* \"#utility.yul\":3645:3733   */\n  swap2\n  swap1\n  pop\n  jump\t// out\n    /* \"#utility.yul\":3739:3814   */\ntag_104:\n    /* \"#utility.yul\":3772:3778   */\n  0x00\n    /* \"#utility.yul\":3805:3807   */\n  0x40\n    /* \"#utility.yul\":3799:3808   */\n  mload\n    /* \"#utility.yul\":3789:3808   */\n  swap1\n  pop\n    /* \"#utility.yul\":3779:3814   */\n  swap1\n  jump\t// out\n    /* \"#utility.yul\":3820:4128   */\ntag_56:\n    /* \"#utility.yul\":3882:3886   */\n  0x00\n    /* \"#utility.yul\":3972:3990   */\n  0xffffffffffffffff\n    /* \"#utility.yul\":3964:3970   */\n  dup3\n    /* \"#utility.yul\":3961:3991   */\n  gt\n    /* \"#utility.yul\":3958:3960   */\n  iszero\n  tag_109\n  jumpi\n    /* \"#utility.yul\":3994:4012   */\n  tag_110\n  tag_111\n  jump\t// in\ntag_110:\n    /* \"#utility.yul\":3958:3960   */\ntag_109:\n    /* \"#utility.yul\":4032:4061   */\n  tag_112\n    /* \"#utility.yul\":4054:4060   */\n  dup3\n    /* \"#utility.yul\":4032:4061   */\n  tag_113\n  jump\t// in\ntag_112:\n    /* \"#utility.yul\":4024:4061   */\n  swap1\n  pop\n    /* \"#utility.yul\":4116:4120   */\n  0x20\n    /* \"#utility.yul\":4110:4114   */\n  dup2\n    /* \"#utility.yul\":4106:4121   */\n  add\n    /* \"#utility.yul\":4098:4121   */\n  swap1\n  pop\n    /* \"#utility.yul\":3887:4128   */\n  swap2\n  swap1\n  pop\n  jump\t// out\n    /* \"#utility.yul\":4134:4303   */\ntag_88:\n    /* \"#utility.yul\":4218:4229   */\n  0x00\n    /* \"#utility.yul\":4252:4258   */\n  dup3\n    /* \"#utility.yul\":4247:4250   */\n  dup3\n    /* \"#utility.yul\":4240:4259   */\n  mstore\n    /* \"#utility.yul\":4292:4296   */\n  0x20\n    /* \"#utility.yul\":4287:4290   */\n  dup3\n    /* \"#utility.yul\":4283:4297   */\n  add\n    /* \"#utility.yul\":4268:4297   */\n  swap1\n  pop\n    /* \"#utility.yul\":4230:4303   */\n  swap3\n  swap2\n  pop\n  pop\n  jump\t// out\n    /* \"#utility.yul\":4309:4614   */\ntag_39:\n    /* \"#utility.yul\":4349:4352   */\n  0x00\n    /* \"#utility.yul\":4368:4388   */\n  tag_116\n    /* \"#utility.yul\":4386:4387   */\n  dup3\n    /* \"#utility.yul\":4368:4388   */\n  tag_94\n  jump\t// in\ntag_116:\n    /* \"#utility.yul\":4363:4388   */\n  swap2\n  pop\n    /* \"#utility.yul\":4402:4422   */\n  tag_117\n    /* \"#utility.yul\":4420:4421   */\n  dup4\n    /* \"#utility.yul\":4402:4422   */\n  tag_94\n  jump\t// in\ntag_117:\n    /* \"#utility.yul\":4397:4422   */\n  swap3\n  pop\n    /* \"#utility.yul\":4556:4557   */\n  dup3\n    /* \"#utility.yul\":4488:4554   */\n  0xffffffffffffffffffffffffffffffffffffffffffffffffffffffffffffffff\n    /* \"#utility.yul\":4484:4558   */\n  sub\n    /* \"#utility.yul\":4481:4482   */\n  dup3\n    /* \"#utility.yul\":4478:4559   */\n  gt\n    /* \"#utility.yul\":4475:4477   */\n  iszero\n  tag_118\n  jumpi\n    /* \"#utility.yul\":4562:4580   */\n  tag_119\n  tag_120\n  jump\t// in\ntag_119:\n    /* \"#utility.yul\":4475:4477   */\ntag_118:\n    /* \"#utility.yul\":4606:4607   */\n  dup3\n    /* \"#utility.yul\":4603:4604   */\n  dup3\n    /* \"#utility.yul\":4599:4608   */\n  add\n    /* \"#utility.yul\":4592:4608   */\n  swap1\n  pop\n    /* \"#utility.yul\":4353:4614   */\n  swap3\n  swap2\n  pop\n  pop\n  jump\t// out\n    /* \"#utility.yul\":4620:4757   */\ntag_121:\n    /* \"#utility.yul\":4670:4677   */\n  0x00\n    /* \"#utility.yul\":4699:4704   */\n  dup2\n    /* \"#utility.yul\":4688:4704   */\n  swap1\n  pop\n    /* \"#utility.yul\":4705:4751   */\n  tag_123\n    /* \"#utility.yul\":4745:4750   */\n  dup3\n    /* \"#utility.yul\":4705:4751   */\n  tag_124\n  jump\t// in\ntag_123:\n    /* \"#utility.yul\":4678:4757   */\n  swap2\n  swap1\n  pop\n  jump\t// out\n    /* \"#utility.yul\":4763:4840   */\ntag_94:\n    /* \"#utility.yul\":4800:4807   */\n  0x00\n    /* \"#utility.yul\":4829:4834   */\n  dup2\n    /* \"#utility.yul\":4818:4834   */\n  swap1\n  pop\n    /* \"#utility.yul\":4808:4840   */\n  swap2\n  swap1\n  pop\n  jump\t// out\n    /* \"#utility.yul\":4846:4932   */\ntag_126:\n    /* \"#utility.yul\":4881:4888   */\n  0x00\n    /* \"#utility.yul\":4921:4925   */\n  0xff\n    /* \"#utility.yul\":4914:4919   */\n  dup3\n    /* \"#utility.yul\":4910:4926   */\n  and\n    /* \"#utility.yul\":4899:4926   */\n  swap1\n  pop\n    /* \"#utility.yul\":4889:4932   */\n  swap2\n  swap1\n  pop\n  jump\t// out\n    /* \"#utility.yul\":4938:5075   */\ntag_84:\n    /* \"#utility.yul\":4999:5008   */\n  0x00\n    /* \"#utility.yul\":5032:5069   */\n  tag_129\n    /* \"#utility.yul\":5063:5068   */\n  dup3\n    /* \"#utility.yul\":5032:5069   */\n  tag_121\n  jump\t// in\ntag_129:\n    /* \"#utility.yul\":5019:5069   */\n  swap1\n  pop\n    /* \"#utility.yul\":5009:5075   */\n  swap2\n  swap1\n  pop\n  jump\t// out\n    /* \"#utility.yul\":5081:5388   */\ntag_60:\n    /* \"#utility.yul\":5149:5150   */\n  0x00\n    /* \"#utility.yul\":5159:5272   */\ntag_131:\n    /* \"#utility.yul\":5173:5179   */\n  dup4\n    /* \"#utility.yul\":5170:5171   */\n  dup2\n    /* \"#utility.yul\":5167:5180   */\n  lt\n    /* \"#utility.yul\":5159:5272   */\n  iszero\n  tag_133\n  jumpi\n    /* \"#utility.yul\":5258:5259   */\n  dup1\n    /* \"#utility.yul\":5253:5256   */\n  dup3\n    /* \"#utility.yul\":5249:5260   */\n  add\n    /* \"#utility.yul\":5243:5261   */\n  mload\n    /* \"#utility.yul\":5239:5240   */\n  dup2\n    /* \"#utility.yul\":5234:5237   */\n  dup5\n    /* \"#utility.yul\":5230:5241   */\n  add\n    /* \"#utility.yul\":5223:5262   */\n  mstore\n    /* \"#utility.yul\":5195:5197   */\n  0x20\n    /* \"#utility.yul\":5192:5193   */\n  dup2\n    /* \"#utility.yul\":5188:5198   */\n  add\n    /* \"#utility.yul\":5183:5198   */\n  swap1\n  pop\n    /* \"#utility.yul\":5159:5272   */\n  jump(tag_131)\ntag_133:\n    /* \"#utility.yul\":5290:5296   */\n  dup4\n    /* \"#utility.yul\":5287:5288   */\n  dup2\n    /* \"#utility.yul\":5284:5297   */\n  gt\n    /* \"#utility.yul\":5281:5283   */\n  iszero\n  tag_134\n  jumpi\n    /* \"#utility.yul\":5370:5371   */\n  0x00\n    /* \"#utility.yul\":5361:5367   */\n  dup5\n    /* \"#utility.yul\":5356:5359   */\n  dup5\n    /* \"#utility.yul\":5352:5368   */\n  add\n    /* \"#utility.yul\":5345:5372   */\n  mstore\n    /* \"#utility.yul\":5281:5283   */\ntag_134:\n    /* \"#utility.yul\":5130:5388   */\n  pop\n  pop\n  pop\n  pop\n  jump\t// out\n    /* \"#utility.yul\":5394:5714   */\ntag_41:\n    /* \"#utility.yul\":5438:5444   */\n  0x00\n    /* \"#utility.yul\":5475:5476   */\n  0x02\n    /* \"#utility.yul\":5469:5473   */\n  dup3\n    /* \"#utility.yul\":5465:5477   */\n  div\n    /* \"#utility.yul\":5455:5477   */\n  swap1\n  pop\n    /* \"#utility.yul\":5522:5523   */\n  0x01\n    /* \"#utility.yul\":5516:5520   */\n  dup3\n    /* \"#utility.yul\":5512:5524   */\n  and\n    /* \"#utility.yul\":5543:5561   */\n  dup1\n    /* \"#utility.yul\":5533:5535   */\n  tag_136\n  jumpi\n    /* \"#utility.yul\":5599:5603   */\n  0x7f\n    /* \"#utility.yul\":5591:5597   */\n  dup3\n    /* \"#utility.yul\":5587:5604   */\n  and\n    /* \"#utility.yul\":5577:5604   */\n  swap2\n  pop\n    /* \"#utility.yul\":5533:5535   */\ntag_136:\n    /* \"#utility.yul\":5661:5663   */\n  0x20\n    /* \"#utility.yul\":5653:5659   */\n  dup3\n    /* \"#utility.yul\":5650:5664   */\n  lt\n    /* \"#utility.yul\":5630:5648   */\n  dup2\n    /* \"#utility.yul\":5627:5665   */\n  eq\n    /* \"#utility.yul\":5624:5626   */\n  iszero\n  tag_137\n  jumpi\n    /* \"#utility.yul\":5680:5698   */\n  tag_138\n  tag_139\n  jump\t// in\ntag_138:\n    /* \"#utility.yul\":5624:5626   */\ntag_137:\n    /* \"#utility.yul\":5445:5714   */\n  pop\n  swap2\n  swap1\n  pop\n  jump\t// out\n    /* \"#utility.yul\":5720:6001   */\ntag_106:\n    /* \"#utility.yul\":5803:5830   */\n  tag_141\n    /* \"#utility.yul\":5825:5829   */\n  dup3\n    /* \"#utility.yul\":5803:5830   */\n  tag_113\n  jump\t// in\ntag_141:\n    /* \"#utility.yul\":5795:5801   */\n  dup2\n    /* \"#utility.yul\":5791:5831   */\n  add\n    /* \"#utility.yul\":5933:5939   */\n  dup2\n    /* \"#utility.yul\":5921:5931   */\n  dup2\n    /* \"#utility.yul\":5918:5940   */\n  lt\n    /* \"#utility.yul\":5897:5915   */\n  0xffffffffffffffff\n    /* \"#utility.yul\":5885:5895   */\n  dup3\n    /* \"#utility.yul\":5882:5916   */\n  gt\n    /* \"#utility.yul\":5879:5941   */\n  or\n    /* \"#utility.yul\":5876:5878   */\n  iszero\n  tag_142\n  jumpi\n    /* \"#utility.yul\":5944:5962   */\n  tag_143\n  tag_111\n  jump\t// in\ntag_143:\n    /* \"#utility.yul\":5876:5878   */\ntag_142:\n    /* \"#utility.yul\":5984:5994   */\n  dup1\n    /* \"#utility.yul\":5980:5982   */\n  0x40\n    /* \"#utility.yul\":5973:5995   */\n  mstore\n    /* \"#utility.yul\":5763:6001   */\n  pop\n  pop\n  pop\n  jump\t// out\n    /* \"#utility.yul\":6007:6187   */\ntag_120:\n    /* \"#utility.yul\":6055:6132   */\n  0x4e487b7100000000000000000000000000000000000000000000000000000000\n    /* \"#utility.yul\":6052:6053   */\n  0x00\n    /* \"#utility.yul\":6045:6133   */\n  mstore\n    /* \"#utility.yul\":6152:6156   */\n  0x11\n    /* \"#utility.yul\":6149:6150   */\n  0x04\n    /* \"#utility.yul\":6142:6157   */\n  mstore\n    /* \"#utility.yul\":6176:6180   */\n  0x24\n    /* \"#utility.yul\":6173:6174   */\n  0x00\n    /* \"#utility.yul\":6166:6181   */\n  revert\n    /* \"#utility.yul\":6193:6373   */\ntag_145:\n    /* \"#utility.yul\":6241:6318   */\n  0x4e487b7100000000000000000000000000000000000000000000000000000000\n    /* \"#utility.yul\":6238:6239   */\n  0x00\n    /* \"#utility.yul\":6231:6319   */\n  mstore\n    /* \"#utility.yul\":6338:6342   */\n  0x21\n    /* \"#utility.yul\":6335:6336   */\n  0x04\n    /* \"#utility.yul\":6328:6343   */\n  mstore\n    /* \"#utility.yul\":6362:6366   */\n  0x24\n    /* \"#utility.yul\":6359:6360   */\n  0x00\n    /* \"#utility.yul\":6352:6367   */\n  revert\n    /* \"#utility.yul\":6379:6559   */\ntag_139:\n    /* \"#utility.yul\":6427:6504   */\n  0x4e487b7100000000000000000000000000000000000000000000000000000000\n    /* \"#utility.yul\":6424:6425   */\n  0x00\n    /* \"#utility.yul\":6417:6505   */\n  mstore\n    /* \"#utility.yul\":6524:6528   */\n  0x22\n    /* \"#utility.yul\":6521:6522   */\n  0x04\n    /* \"#utility.yul\":6514:6529   */\n  mstore\n    /* \"#utility.yul\":6548:6552   */\n  0x24\n    /* \"#utility.yul\":6545:6546   */\n  0x00\n    /* \"#utility.yul\":6538:6553   */\n  revert\n    /* \"#utility.yul\":6565:6745   */\ntag_111:\n    /* \"#utility.yul\":6613:6690   */\n  0x4e487b7100000000000000000000000000000000000000000000000000000000\n    /* \"#utility.yul\":6610:6611   */\n  0x00\n    /* \"#utility.yul\":6603:6691   */\n  mstore\n    /* \"#utility.yul\":6710:6714   */\n  0x41\n    /* \"#utility.yul\":6707:6708   */\n  0x04\n    /* \"#utility.yul\":6700:6715   */\n  mstore\n    /* \"#utility.yul\":6734:6738   */\n  0x24\n    /* \"#utility.yul\":6731:6732   */\n  0x00\n    /* \"#utility.yul\":6724:6739   */\n  revert\n    /* \"#utility.yul\":6751:6853   */\ntag_113:\n    /* \"#utility.yul\":6792:6798   */\n  0x00\n    /* \"#utility.yul\":6843:6845   */\n  0x1f\n    /* \"#utility.yul\":6839:6846   */\n  not\n    /* \"#utility.yul\":6834:6836   */\n  0x1f\n    /* \"#utility.yul\":6827:6832   */\n  dup4\n    /* \"#utility.yul\":6823:6837   */\n  add\n    /* \"#utility.yul\":6819:6847   */\n  and\n    /* \"#utility.yul\":6809:6847   */\n  swap1\n  pop\n    /* \"#utility.yul\":6799:6853   */\n  swap2\n  swap1\n  pop\n  jump\t// out\n    /* \"#utility.yul\":6859:7040   */\ntag_90:\n    /* \"#utility.yul\":6999:7032   */\n  0x45524332303a206d696e7420746f20746865207a65726f206164647265737300\n    /* \"#utility.yul\":6995:6996   */\n  0x00\n    /* \"#utility.yul\":6987:6993   */\n  dup3\n    /* \"#utility.yul\":6983:6997   */\n  add\n    /* \"#utility.yul\":6976:7033   */\n  mstore\n    /* \"#utility.yul\":6965:7040   */\n  pop\n  jump\t// out\n    /* \"#utility.yul\":7046:7164   */\ntag_124:\n    /* \"#utility.yul\":7132:7133   */\n  0x08\n    /* \"#utility.yul\":7125:7130   */\n  dup2\n    /* \"#utility.yul\":7122:7134   */\n  lt\n    /* \"#utility.yul\":7112:7114   */\n  tag_152\n  jumpi\n    /* \"#utility.yul\":7138:7156   */\n  tag_153\n  tag_145\n  jump\t// in\ntag_153:\n    /* \"#utility.yul\":7112:7114   */\ntag_152:\n    /* \"#utility.yul\":7102:7164   */\n  pop\n  jump\t// out\n    /* \"#utility.yul\":7170:7292   */\ntag_68:\n    /* \"#utility.yul\":7243:7267   */\n  tag_155\n    /* \"#utility.yul\":7261:7266   */\n  dup2\n    /* \"#utility.yul\":7243:7267   */\n  tag_94\n  jump\t// in\ntag_155:\n    /* \"#utility.yul\":7236:7241   */\n  dup2\n    /* \"#utility.yul\":7233:7268   */\n  eq\n    /* \"#utility.yul\":7223:7225   */\n  tag_156\n  jumpi\n    /* \"#utility.yul\":7282:7283   */\n  0x00\n    /* \"#utility.yul\":7279:7280   */\n  dup1\n    /* \"#utility.yul\":7272:7284   */\n  revert\n    /* \"#utility.yul\":7223:7225   */\ntag_156:\n    /* \"#utility.yul\":7213:7292   */\n  pop\n  jump\t// out\n    /* \"#utility.yul\":7298:7416   */\ntag_72:\n    /* \"#utility.yul\":7369:7391   */\n  tag_158\n    /* \"#utility.yul\":7385:7390   */\n  dup2\n    /* \"#utility.yul\":7369:7391   */\n  tag_126\n  jump\t// in\ntag_158:\n    /* \"#utility.yul\":7362:7367   */\n  dup2\n    /* \"#utility.yul\":7359:7392   */\n  eq\n    /* \"#utility.yul\":7349:7351   */\n  tag_159\n  jumpi\n    /* \"#utility.yul\":7406:7407   */\n  0x00\n    /* \"#utility.yul\":7403:7404   */\n  dup1\n    /* \"#utility.yul\":7396:7408   */\n  revert\n    /* \"#utility.yul\":7349:7351   */\ntag_159:\n    /* \"#utility.yul\":7339:7416   */\n  pop\n  jump\t// out\n    /* \"contracts/Test_contract.sol\":13812:24224  contract StandardToken is IERC20, Ownable, BaseToken {\r... */\ntag_21:\n  dataSize(sub_0)\n  dup1\n  dataOffset(sub_0)\n  0x00\n  codecopy\n  0x00\n  return\nstop\n\nsub_0: assembly {\n        /* \"contracts/Test_contract.sol\":13812:24224  contract StandardToken is IERC20, Ownable, BaseToken {\r... */\n      mstore(0x40, 0x80)\n      callvalue\n      dup1\n      iszero\n      tag_1\n      jumpi\n      0x00\n      dup1\n      revert\n    tag_1:\n      pop\n      jumpi(tag_2, lt(calldatasize, 0x04))\n      shr(0xe0, calldataload(0x00))\n      dup1\n      0x715018a6\n      gt\n      tag_18\n      jumpi\n      dup1\n      0xa9059cbb\n      gt\n      tag_19\n      jumpi\n      dup1\n      0xa9059cbb\n      eq\n      tag_14\n      jumpi\n      dup1\n      0xdd62ed3e\n      eq\n      tag_15\n      jumpi\n      dup1\n      0xf2fde38b\n      eq\n      tag_16\n      jumpi\n      dup1\n      0xffa1ad74\n      eq\n      tag_17\n      jumpi\n      jump(tag_2)\n    tag_19:\n      dup1\n      0x715018a6\n      eq\n      tag_10\n      jumpi\n      dup1\n      0x8da5cb5b\n      eq\n      tag_11\n      jumpi\n      dup1\n      0x95d89b41\n      eq\n      tag_12\n      jumpi\n      dup1\n      0xa457c2d7\n      eq\n      tag_13\n      jumpi\n      jump(tag_2)\n    tag_18:\n      dup1\n      0x23b872dd\n      gt\n      tag_20\n      jumpi\n      dup1\n      0x23b872dd\n      eq\n      tag_6\n      jumpi\n      dup1\n      0x313ce567\n      eq\n      tag_7\n      jumpi\n      dup1\n      0x39509351\n      eq\n      tag_8\n      jumpi\n      dup1\n      0x70a08231\n      eq\n      tag_9\n      jumpi\n      jump(tag_2)\n    tag_20:\n      dup1\n      0x06fdde03\n      eq\n      tag_3\n      jumpi\n      dup1\n      0x095ea7b3\n      eq\n      tag_4\n      jumpi\n      dup1\n      0x18160ddd\n      eq\n      tag_5\n      jumpi\n    tag_2:\n      0x00\n      dup1\n      revert\n        /* \"contracts/Test_contract.sol\":14652:14743  function name() public view virtual returns (string memory) {\r... */\n    tag_3:\n      tag_21\n      tag_22\n      jump\t// in\n    tag_21:\n      mload(0x40)\n      tag_23\n      swap2\n      swap1\n      tag_24\n      jump\t// in\n    tag_23:\n      mload(0x40)\n      dup1\n      swap2\n      sub\n      swap1\n      return\n        /* \"contracts/Test_contract.sol\":16939:17149  function approve(address spender, uint256 amount)\r... */\n    tag_4:\n      tag_25\n      0x04\n      dup1\n      calldatasize\n      sub\n      dup2\n      add\n      swap1\n      tag_26\n      swap2\n      swap1\n      tag_27\n      jump\t// in\n    tag_26:\n      tag_28\n      jump\t// in\n    tag_25:\n      mload(0x40)\n      tag_29\n      swap2\n      swap1\n      tag_30\n      jump\t// in\n    tag_29:\n      mload(0x40)\n      dup1\n      swap2\n      sub\n      swap1\n      return\n        /* \"contracts/Test_contract.sol\":15751:15859  function totalSupply() public view virtual override returns (uint256) {\r... */\n    tag_5:\n      tag_31\n      tag_32\n      jump\t// in\n    tag_31:\n      mload(0x40)\n      tag_33\n      swap2\n      swap1\n      tag_34\n      jump\t// in\n    tag_33:\n      mload(0x40)\n      dup1\n      swap2\n      sub\n      swap1\n      return\n        /* \"contracts/Test_contract.sol\":17631:18085  function transferFrom(\r... */\n    tag_6:\n      tag_35\n      0x04\n      dup1\n      calldatasize\n      sub\n      dup2\n      add\n      swap1\n      tag_36\n      swap2\n      swap1\n      tag_37\n      jump\t// in\n    tag_36:\n      tag_38\n      jump\t// in\n    tag_35:\n      mload(0x40)\n      tag_39\n      swap2\n      swap1\n      tag_30\n      jump\t// in\n    tag_39:\n      mload(0x40)\n      dup1\n      swap2\n      sub\n      swap1\n      return\n        /* \"contracts/Test_contract.sol\":15595:15686  function decimals() public view virtual returns (uint8) {\r... */\n    tag_7:\n      tag_40\n      tag_41\n      jump\t// in\n    tag_40:\n      mload(0x40)\n      tag_42\n      swap2\n      swap1\n      tag_43\n      jump\t// in\n    tag_42:\n      mload(0x40)\n      dup1\n      swap2\n      sub\n      swap1\n      return\n        /* \"contracts/Test_contract.sol\":18494:18794  function increaseAllowance(address spender, uint256 addedValue)\r... */\n    tag_8:\n      tag_44\n      0x04\n      dup1\n      calldatasize\n      sub\n      dup2\n      add\n      swap1\n      tag_45\n      swap2\n      swap1\n      tag_27\n      jump\t// in\n    tag_45:\n      tag_46\n      jump\t// in\n    tag_44:\n      mload(0x40)\n      tag_47\n      swap2\n      swap1\n      tag_30\n      jump\t// in\n    tag_47:\n      mload(0x40)\n      dup1\n      swap2\n      sub\n      swap1\n      return\n        /* \"contracts/Test_contract.sol\":15922:16099  function balanceOf(address account)\r... */\n    tag_9:\n      tag_48\n      0x04\n      dup1\n      calldatasize\n      sub\n      dup2\n      add\n      swap1\n      tag_49\n      swap2\n      swap1\n      tag_50\n      jump\t// in\n    tag_49:\n      tag_51\n      jump\t// in\n    tag_48:\n      mload(0x40)\n      tag_52\n      swap2\n      swap1\n      tag_34\n      jump\t// in\n    tag_52:\n      mload(0x40)\n      dup1\n      swap2\n      sub\n      swap1\n      return\n        /* \"contracts/Test_contract.sol\":5454:5548  function renounceOwnership() public virtual onlyOwner {\r... */\n    tag_10:\n      tag_53\n      tag_54\n      jump\t// in\n    tag_53:\n      stop\n        /* \"contracts/Test_contract.sol\":4803:4890  function owner() public view virtual returns (address) {\r... */\n    tag_11:\n      tag_55\n      tag_56\n      jump\t// in\n    tag_55:\n      mload(0x40)\n      tag_57\n      swap2\n      swap1\n      tag_58\n      jump\t// in\n    tag_57:\n      mload(0x40)\n      dup1\n      swap2\n      sub\n      swap1\n      return\n        /* \"contracts/Test_contract.sol\":14862:14957  function symbol() public view virtual returns (string memory) {\r... */\n    tag_12:\n      tag_59\n      tag_60\n      jump\t// in\n    tag_59:\n      mload(0x40)\n      tag_61\n      swap2\n      swap1\n      tag_24\n      jump\t// in\n    tag_61:\n      mload(0x40)\n      dup1\n      swap2\n      sub\n      swap1\n      return\n        /* \"contracts/Test_contract.sol\":19297:19697  function decreaseAllowance(address spender, uint256 subtractedValue)\r... */\n    tag_13:\n      tag_62\n      0x04\n      dup1\n      calldatasize\n      sub\n      dup2\n      add\n      swap1\n      tag_63\n      swap2\n      swap1\n      tag_27\n      jump\t// in\n    tag_63:\n      tag_64\n      jump\t// in\n    tag_62:\n      mload(0x40)\n      tag_65\n      swap2\n      swap1\n      tag_30\n      jump\t// in\n    tag_65:\n      mload(0x40)\n      dup1\n      swap2\n      sub\n      swap1\n      return\n        /* \"contracts/Test_contract.sol\":16312:16528  function transfer(address recipient, uint256 amount)\r... */\n    tag_14:\n      tag_66\n      0x04\n      dup1\n      calldatasize\n      sub\n      dup2\n      add\n      swap1\n      tag_67\n      swap2\n      swap1\n      tag_27\n      jump\t// in\n    tag_67:\n      tag_68\n      jump\t// in\n    tag_66:\n      mload(0x40)\n      tag_69\n      swap2\n      swap1\n      tag_30\n      jump\t// in\n    tag_69:\n      mload(0x40)\n      dup1\n      swap2\n      sub\n      swap1\n      return\n        /* \"contracts/Test_contract.sol\":16591:16792  function allowance(address owner, address spender)\r... */\n    tag_15:\n      tag_70\n      0x04\n      dup1\n      calldatasize\n      sub\n      dup2\n      add\n      swap1\n      tag_71\n      swap2\n      swap1\n      tag_72\n      jump\t// in\n    tag_71:\n      tag_73\n      jump\t// in\n    tag_70:\n      mload(0x40)\n      tag_74\n      swap2\n      swap1\n      tag_34\n      jump\t// in\n    tag_74:\n      mload(0x40)\n      dup1\n      swap2\n      sub\n      swap1\n      return\n        /* \"contracts/Test_contract.sol\":5703:5895  function transferOwnership(address newOwner) public virtual onlyOwner {\r... */\n    tag_16:\n      tag_75\n      0x04\n      dup1\n      calldatasize\n      sub\n      dup2\n      add\n      swap1\n      tag_76\n      swap2\n      swap1\n      tag_50\n      jump\t// in\n    tag_76:\n      tag_77\n      jump\t// in\n    tag_75:\n      stop\n        /* \"contracts/Test_contract.sol\":13907:13942  uint256 public constant VERSION = 1 */\n    tag_17:\n      tag_78\n      tag_79\n      jump\t// in\n    tag_78:\n      mload(0x40)\n      tag_80\n      swap2\n      swap1\n      tag_34\n      jump\t// in\n    tag_80:\n      mload(0x40)\n      dup1\n      swap2\n      sub\n      swap1\n      return\n        /* \"contracts/Test_contract.sol\":14652:14743  function name() public view virtual returns (string memory) {\r... */\n    tag_22:\n        /* \"contracts/Test_contract.sol\":14697:14710  string memory */\n      0x60\n        /* \"contracts/Test_contract.sol\":14730:14735  _name */\n      0x03\n        /* \"contracts/Test_contract.sol\":14723:14735  return _name */\n      dup1\n      sload\n      tag_83\n      swap1\n      tag_84\n      jump\t// in\n    tag_83:\n      dup1\n      0x1f\n      add\n      0x20\n      dup1\n      swap2\n      div\n      mul\n      0x20\n      add\n      mload(0x40)\n      swap1\n      dup2\n      add\n      0x40\n      mstore\n      dup1\n      swap3\n      swap2\n      swap1\n      dup2\n      dup2\n      mstore\n      0x20\n      add\n      dup3\n      dup1\n      sload\n      tag_85\n      swap1\n      tag_84\n      jump\t// in\n    tag_85:\n      dup1\n      iszero\n      tag_86\n      jumpi\n      dup1\n      0x1f\n      lt\n      tag_87\n      jumpi\n      0x0100\n      dup1\n      dup4\n      sload\n      div\n      mul\n      dup4\n      mstore\n      swap2\n      0x20\n      add\n      swap2\n      jump(tag_86)\n    tag_87:\n      dup3\n      add\n      swap2\n      swap1\n      0x00\n      mstore\n      keccak256(0x00, 0x20)\n      swap1\n    tag_88:\n      dup2\n      sload\n      dup2\n      mstore\n      swap1\n      0x01\n      add\n      swap1\n      0x20\n      add\n      dup1\n      dup4\n      gt\n      tag_88\n      jumpi\n      dup3\n      swap1\n      sub\n      0x1f\n      and\n      dup3\n      add\n      swap2\n    tag_86:\n      pop\n      pop\n      pop\n      pop\n      pop\n      swap1\n      pop\n        /* \"contracts/Test_contract.sol\":14652:14743  function name() public view virtual returns (string memory) {\r... */\n      swap1\n      jump\t// out\n        /* \"contracts/Test_contract.sol\":16939:17149  function approve(address spender, uint256 amount)\r... */\n    tag_28:\n        /* \"contracts/Test_contract.sol\":17058:17062  bool */\n      0x00\n        /* \"contracts/Test_contract.sol\":17080:17119  _approve(_msgSender(), spender, amount) */\n      tag_90\n        /* \"contracts/Test_contract.sol\":17089:17101  _msgSender() */\n      tag_91\n        /* \"contracts/Test_contract.sol\":17089:17099  _msgSender */\n      tag_92\n        /* \"contracts/Test_contract.sol\":17089:17101  _msgSender() */\n      jump\t// in\n    tag_91:\n        /* \"contracts/Test_contract.sol\":17103:17110  spender */\n      dup5\n        /* \"contracts/Test_contract.sol\":17112:17118  amount */\n      dup5\n        /* \"contracts/Test_contract.sol\":17080:17088  _approve */\n      tag_93\n        /* \"contracts/Test_contract.sol\":17080:17119  _approve(_msgSender(), spender, amount) */\n      jump\t// in\n    tag_90:\n        /* \"contracts/Test_contract.sol\":17137:17141  true */\n      0x01\n        /* \"contracts/Test_contract.sol\":17130:17141  return true */\n      swap1\n      pop\n        /* \"contracts/Test_contract.sol\":16939:17149  function approve(address spender, uint256 amount)\r... */\n      swap3\n      swap2\n      pop\n      pop\n      jump\t// out\n        /* \"contracts/Test_contract.sol\":15751:15859  function totalSupply() public view virtual override returns (uint256) {\r... */\n    tag_32:\n        /* \"contracts/Test_contract.sol\":15812:15819  uint256 */\n      0x00\n        /* \"contracts/Test_contract.sol\":15839:15851  _totalSupply */\n      sload(0x06)\n        /* \"contracts/Test_contract.sol\":15832:15851  return _totalSupply */\n      swap1\n      pop\n        /* \"contracts/Test_contract.sol\":15751:15859  function totalSupply() public view virtual override returns (uint256) {\r... */\n      swap1\n      jump\t// out\n        /* \"contracts/Test_contract.sol\":17631:18085  function transferFrom(\r... */\n    tag_38:\n        /* \"contracts/Test_contract.sol\":17771:17775  bool */\n      0x00\n        /* \"contracts/Test_contract.sol\":17788:17824  _transfer(sender, recipient, amount) */\n      tag_96\n        /* \"contracts/Test_contract.sol\":17798:17804  sender */\n      dup5\n        /* \"contracts/Test_contract.sol\":17806:17815  recipient */\n      dup5\n        /* \"contracts/Test_contract.sol\":17817:17823  amount */\n      dup5\n        /* \"contracts/Test_contract.sol\":17788:17797  _transfer */\n      tag_97\n        /* \"contracts/Test_contract.sol\":17788:17824  _transfer(sender, recipient, amount) */\n      jump\t// in\n    tag_96:\n        /* \"contracts/Test_contract.sol\":17835:18055  _approve(\r... */\n      tag_98\n        /* \"contracts/Test_contract.sol\":17858:17864  sender */\n      dup5\n        /* \"contracts/Test_contract.sol\":17879:17891  _msgSender() */\n      tag_99\n        /* \"contracts/Test_contract.sol\":17879:17889  _msgSender */\n      tag_92\n        /* \"contracts/Test_contract.sol\":17879:17891  _msgSender() */\n      jump\t// in\n    tag_99:\n        /* \"contracts/Test_contract.sol\":17906:18044  _allowances[sender][_msgSender()].sub(\r... */\n      tag_100\n        /* \"contracts/Test_contract.sol\":17962:17968  amount */\n      dup6\n        /* \"contracts/Test_contract.sol\":17906:18044  _allowances[sender][_msgSender()].sub(\r... */\n      mload(0x40)\n      dup1\n      0x60\n      add\n      0x40\n      mstore\n      dup1\n      0x28\n      dup2\n      mstore\n      0x20\n      add\n      data_974d1b4421da69cc60b481194f0dad36a5bb4e23da810da7a7fb30cdba178330\n      0x28\n      swap2\n      codecopy\n        /* \"contracts/Test_contract.sol\":17906:17917  _allowances */\n      0x02\n        /* \"contracts/Test_contract.sol\":17906:17925  _allowances[sender] */\n      0x00\n        /* \"contracts/Test_contract.sol\":17918:17924  sender */\n      dup12\n        /* \"contracts/Test_contract.sol\":17906:17925  _allowances[sender] */\n      0xffffffffffffffffffffffffffffffffffffffff\n      and\n      0xffffffffffffffffffffffffffffffffffffffff\n      and\n      dup2\n      mstore\n      0x20\n      add\n      swap1\n      dup2\n      mstore\n      0x20\n      add\n      0x00\n      keccak256\n        /* \"contracts/Test_contract.sol\":17906:17939  _allowances[sender][_msgSender()] */\n      0x00\n        /* \"contracts/Test_contract.sol\":17926:17938  _msgSender() */\n      tag_101\n        /* \"contracts/Test_contract.sol\":17926:17936  _msgSender */\n      tag_92\n        /* \"contracts/Test_contract.sol\":17926:17938  _msgSender() */\n      jump\t// in\n    tag_101:\n        /* \"contracts/Test_contract.sol\":17906:17939  _allowances[sender][_msgSender()] */\n      0xffffffffffffffffffffffffffffffffffffffff\n      and\n      0xffffffffffffffffffffffffffffffffffffffff\n      and\n      dup2\n      mstore\n      0x20\n      add\n      swap1\n      dup2\n      mstore\n      0x20\n      add\n      0x00\n      keccak256\n      sload\n        /* \"contracts/Test_contract.sol\":17906:17943  _allowances[sender][_msgSender()].sub */\n      tag_102\n      swap1\n        /* \"contracts/Test_contract.sol\":17906:18044  _allowances[sender][_msgSender()].sub(\r... */\n      swap3\n      swap2\n      swap1\n      0xffffffff\n      and\n      jump\t// in\n    tag_100:\n        /* \"contracts/Test_contract.sol\":17835:17843  _approve */\n      tag_93\n        /* \"contracts/Test_contract.sol\":17835:18055  _approve(\r... */\n      jump\t// in\n    tag_98:\n        /* \"contracts/Test_contract.sol\":18073:18077  true */\n      0x01\n        /* \"contracts/Test_contract.sol\":18066:18077  return true */\n      swap1\n      pop\n        /* \"contracts/Test_contract.sol\":17631:18085  function transferFrom(\r... */\n      swap4\n      swap3\n      pop\n      pop\n      pop\n      jump\t// out\n        /* \"contracts/Test_contract.sol\":15595:15686  function decimals() public view virtual returns (uint8) {\r... */\n    tag_41:\n        /* \"contracts/Test_contract.sol\":15644:15649  uint8 */\n      0x00\n        /* \"contracts/Test_contract.sol\":15669:15678  _decimals */\n      0x05\n      0x00\n      swap1\n      sload\n      swap1\n      0x0100\n      exp\n      swap1\n      div\n      0xff\n      and\n        /* \"contracts/Test_contract.sol\":15662:15678  return _decimals */\n      swap1\n      pop\n        /* \"contracts/Test_contract.sol\":15595:15686  function decimals() public view virtual returns (uint8) {\r... */\n      swap1\n      jump\t// out\n        /* \"contracts/Test_contract.sol\":18494:18794  function increaseAllowance(address spender, uint256 addedValue)\r... */\n    tag_46:\n        /* \"contracts/Test_contract.sol\":18609:18613  bool */\n      0x00\n        /* \"contracts/Test_contract.sol\":18631:18764  _approve(\r... */\n      tag_105\n        /* \"contracts/Test_contract.sol\":18654:18666  _msgSender() */\n      tag_106\n        /* \"contracts/Test_contract.sol\":18654:18664  _msgSender */\n      tag_92\n        /* \"contracts/Test_contract.sol\":18654:18666  _msgSender() */\n      jump\t// in\n    tag_106:\n        /* \"contracts/Test_contract.sol\":18681:18688  spender */\n      dup5\n        /* \"contracts/Test_contract.sol\":18703:18753  _allowances[_msgSender()][spender].add(addedValue) */\n      tag_107\n        /* \"contracts/Test_contract.sol\":18742:18752  addedValue */\n      dup6\n        /* \"contracts/Test_contract.sol\":18703:18714  _allowances */\n      0x02\n        /* \"contracts/Test_contract.sol\":18703:18728  _allowances[_msgSender()] */\n      0x00\n        /* \"contracts/Test_contract.sol\":18715:18727  _msgSender() */\n      tag_108\n        /* \"contracts/Test_contract.sol\":18715:18725  _msgSender */\n      tag_92\n        /* \"contracts/Test_contract.sol\":18715:18727  _msgSender() */\n      jump\t// in\n    tag_108:\n        /* \"contracts/Test_contract.sol\":18703:18728  _allowances[_msgSender()] */\n      0xffffffffffffffffffffffffffffffffffffffff\n      and\n      0xffffffffffffffffffffffffffffffffffffffff\n      and\n      dup2\n      mstore\n      0x20\n      add\n      swap1\n      dup2\n      mstore\n      0x20\n      add\n      0x00\n      keccak256\n        /* \"contracts/Test_contract.sol\":18703:18737  _allowances[_msgSender()][spender] */\n      0x00\n        /* \"contracts/Test_contract.sol\":18729:18736  spender */\n      dup10\n        /* \"contracts/Test_contract.sol\":18703:18737  _allowances[_msgSender()][spender] */\n      0xffffffffffffffffffffffffffffffffffffffff\n      and\n      0xffffffffffffffffffffffffffffffffffffffff\n      and\n      dup2\n      mstore\n      0x20\n      add\n      swap1\n      dup2\n      mstore\n      0x20\n      add\n      0x00\n      keccak256\n      sload\n        /* \"contracts/Test_contract.sol\":18703:18741  _allowances[_msgSender()][spender].add */\n      tag_81\n      swap1\n        /* \"contracts/Test_contract.sol\":18703:18753  _allowances[_msgSender()][spender].add(addedValue) */\n      swap2\n      swap1\n      0xffffffff\n      and\n      jump\t// in\n    tag_107:\n        /* \"contracts/Test_contract.sol\":18631:18639  _approve */\n      tag_93\n        /* \"contracts/Test_contract.sol\":18631:18764  _approve(\r... */\n      jump\t// in\n    tag_105:\n        /* \"contracts/Test_contract.sol\":18782:18786  true */\n      0x01\n        /* \"contracts/Test_contract.sol\":18775:18786  return true */\n      swap1\n      pop\n        /* \"contracts/Test_contract.sol\":18494:18794  function increaseAllowance(address spender, uint256 addedValue)\r... */\n      swap3\n      swap2\n      pop\n      pop\n      jump\t// out\n        /* \"contracts/Test_contract.sol\":15922:16099  function balanceOf(address account)\r... */\n    tag_51:\n        /* \"contracts/Test_contract.sol\":16041:16048  uint256 */\n      0x00\n        /* \"contracts/Test_contract.sol\":16073:16082  _balances */\n      0x01\n        /* \"contracts/Test_contract.sol\":16073:16091  _balances[account] */\n      0x00\n        /* \"contracts/Test_contract.sol\":16083:16090  account */\n      dup4\n        /* \"contracts/Test_contract.sol\":16073:16091  _balances[account] */\n      0xffffffffffffffffffffffffffffffffffffffff\n      and\n      0xffffffffffffffffffffffffffffffffffffffff\n      and\n      dup2\n      mstore\n      0x20\n      add\n      swap1\n      dup2\n      mstore\n      0x20\n      add\n      0x00\n      keccak256\n      sload\n        /* \"contracts/Test_contract.sol\":16066:16091  return _balances[account] */\n      swap1\n      pop\n        /* \"contracts/Test_contract.sol\":15922:16099  function balanceOf(address account)\r... */\n      swap2\n      swap1\n      pop\n      jump\t// out\n        /* \"contracts/Test_contract.sol\":5454:5548  function renounceOwnership() public virtual onlyOwner {\r... */\n    tag_54:\n        /* \"contracts/Test_contract.sol\":5034:5046  _msgSender() */\n      tag_111\n        /* \"contracts/Test_contract.sol\":5034:5044  _msgSender */\n      tag_92\n        /* \"contracts/Test_contract.sol\":5034:5046  _msgSender() */\n      jump\t// in\n    tag_111:\n        /* \"contracts/Test_contract.sol\":5023:5046  owner() == _msgSender() */\n      0xffffffffffffffffffffffffffffffffffffffff\n      and\n        /* \"contracts/Test_contract.sol\":5023:5030  owner() */\n      tag_112\n        /* \"contracts/Test_contract.sol\":5023:5028  owner */\n      tag_56\n        /* \"contracts/Test_contract.sol\":5023:5030  owner() */\n      jump\t// in\n    tag_112:\n        /* \"contracts/Test_contract.sol\":5023:5046  owner() == _msgSender() */\n      0xffffffffffffffffffffffffffffffffffffffff\n      and\n      eq\n        /* \"contracts/Test_contract.sol\":5015:5083  require(owner() == _msgSender(), \"Ownable: caller is not the owner\") */\n      tag_113\n      jumpi\n      mload(0x40)\n      0x08c379a000000000000000000000000000000000000000000000000000000000\n      dup2\n      mstore\n      0x04\n      add\n      tag_114\n      swap1\n      tag_115\n      jump\t// in\n    tag_114:\n      mload(0x40)\n      dup1\n      swap2\n      sub\n      swap1\n      revert\n    tag_113:\n        /* \"contracts/Test_contract.sol\":5519:5540  _setOwner(address(0)) */\n      tag_117\n        /* \"contracts/Test_contract.sol\":5537:5538  0 */\n      0x00\n        /* \"contracts/Test_contract.sol\":5519:5528  _setOwner */\n      tag_118\n        /* \"contracts/Test_contract.sol\":5519:5540  _setOwner(address(0)) */\n      jump\t// in\n    tag_117:\n        /* \"contracts/Test_contract.sol\":5454:5548  function renounceOwnership() public virtual onlyOwner {\r... */\n      jump\t// out\n        /* \"contracts/Test_contract.sol\":4803:4890  function owner() public view virtual returns (address) {\r... */\n    tag_56:\n        /* \"contracts/Test_contract.sol\":4849:4856  address */\n      0x00\n        /* \"contracts/Test_contract.sol\":4876:4882  _owner */\n      dup1\n      0x00\n      swap1\n      sload\n      swap1\n      0x0100\n      exp\n      swap1\n      div\n      0xffffffffffffffffffffffffffffffffffffffff\n      and\n        /* \"contracts/Test_contract.sol\":4869:4882  return _owner */\n      swap1\n      pop\n        /* \"contracts/Test_contract.sol\":4803:4890  function owner() public view virtual returns (address) {\r... */\n      swap1\n      jump\t// out\n        /* \"contracts/Test_contract.sol\":14862:14957  function symbol() public view virtual returns (string memory) {\r... */\n    tag_60:\n        /* \"contracts/Test_contract.sol\":14909:14922  string memory */\n      0x60\n        /* \"contracts/Test_contract.sol\":14942:14949  _symbol */\n      0x04\n        /* \"contracts/Test_contract.sol\":14935:14949  return _symbol */\n      dup1\n      sload\n      tag_121\n      swap1\n      tag_84\n      jump\t// in\n    tag_121:\n      dup1\n      0x1f\n      add\n      0x20\n      dup1\n      swap2\n      div\n      mul\n      0x20\n      add\n      mload(0x40)\n      swap1\n      dup2\n      add\n      0x40\n      mstore\n      dup1\n      swap3\n      swap2\n      swap1\n      dup2\n      dup2\n      mstore\n      0x20\n      add\n      dup3\n      dup1\n      sload\n      tag_122\n      swap1\n      tag_84\n      jump\t// in\n    tag_122:\n      dup1\n      iszero\n      tag_123\n      jumpi\n      dup1\n      0x1f\n      lt\n      tag_124\n      jumpi\n      0x0100\n      dup1\n      dup4\n      sload\n      div\n      mul\n      dup4\n      mstore\n      swap2\n      0x20\n      add\n      swap2\n      jump(tag_123)\n    tag_124:\n      dup3\n      add\n      swap2\n      swap1\n      0x00\n      mstore\n      keccak256(0x00, 0x20)\n      swap1\n    tag_125:\n      dup2\n      sload\n      dup2\n      mstore\n      swap1\n      0x01\n      add\n      swap1\n      0x20\n      add\n      dup1\n      dup4\n      gt\n      tag_125\n      jumpi\n      dup3\n      swap1\n      sub\n      0x1f\n      and\n      dup3\n      add\n      swap2\n    tag_123:\n      pop\n      pop\n      pop\n      pop\n      pop\n      swap1\n      pop\n        /* \"contracts/Test_contract.sol\":14862:14957  function symbol() public view virtual returns (string memory) {\r... */\n      swap1\n      jump\t// out\n        /* \"contracts/Test_contract.sol\":19297:19697  function decreaseAllowance(address spender, uint256 subtractedValue)\r... */\n    tag_64:\n        /* \"contracts/Test_contract.sol\":19417:19421  bool */\n      0x00\n        /* \"contracts/Test_contract.sol\":19439:19667  _approve(\r... */\n      tag_127\n        /* \"contracts/Test_contract.sol\":19462:19474  _msgSender() */\n      tag_128\n        /* \"contracts/Test_contract.sol\":19462:19472  _msgSender */\n      tag_92\n        /* \"contracts/Test_contract.sol\":19462:19474  _msgSender() */\n      jump\t// in\n    tag_128:\n        /* \"contracts/Test_contract.sol\":19489:19496  spender */\n      dup5\n        /* \"contracts/Test_contract.sol\":19511:19656  _allowances[_msgSender()][spender].sub(\r... */\n      tag_129\n        /* \"contracts/Test_contract.sol\":19568:19583  subtractedValue */\n      dup6\n        /* \"contracts/Test_contract.sol\":19511:19656  _allowances[_msgSender()][spender].sub(\r... */\n      mload(0x40)\n      dup1\n      0x60\n      add\n      0x40\n      mstore\n      dup1\n      0x25\n      dup2\n      mstore\n      0x20\n      add\n      data_f8b476f7d28209d77d4a4ac1fe36b9f8259aa1bb6bddfa6e89de7e51615cf8a8\n      0x25\n      swap2\n      codecopy\n        /* \"contracts/Test_contract.sol\":19511:19522  _allowances */\n      0x02\n        /* \"contracts/Test_contract.sol\":19511:19536  _allowances[_msgSender()] */\n      0x00\n        /* \"contracts/Test_contract.sol\":19523:19535  _msgSender() */\n      tag_130\n        /* \"contracts/Test_contract.sol\":19523:19533  _msgSender */\n      tag_92\n        /* \"contracts/Test_contract.sol\":19523:19535  _msgSender() */\n      jump\t// in\n    tag_130:\n        /* \"contracts/Test_contract.sol\":19511:19536  _allowances[_msgSender()] */\n      0xffffffffffffffffffffffffffffffffffffffff\n      and\n      0xffffffffffffffffffffffffffffffffffffffff\n      and\n      dup2\n      mstore\n      0x20\n      add\n      swap1\n      dup2\n      mstore\n      0x20\n      add\n      0x00\n      keccak256\n        /* \"contracts/Test_contract.sol\":19511:19545  _allowances[_msgSender()][spender] */\n      0x00\n        /* \"contracts/Test_contract.sol\":19537:19544  spender */\n      dup11\n        /* \"contracts/Test_contract.sol\":19511:19545  _allowances[_msgSender()][spender] */\n      0xffffffffffffffffffffffffffffffffffffffff\n      and\n      0xffffffffffffffffffffffffffffffffffffffff\n      and\n      dup2\n      mstore\n      0x20\n      add\n      swap1\n      dup2\n      mstore\n      0x20\n      add\n      0x00\n      keccak256\n      sload\n        /* \"contracts/Test_contract.sol\":19511:19549  _allowances[_msgSender()][spender].sub */\n      tag_102\n      swap1\n        /* \"contracts/Test_contract.sol\":19511:19656  _allowances[_msgSender()][spender].sub(\r... */\n      swap3\n      swap2\n      swap1\n      0xffffffff\n      and\n      jump\t// in\n    tag_129:\n        /* \"contracts/Test_contract.sol\":19439:19447  _approve */\n      tag_93\n        /* \"contracts/Test_contract.sol\":19439:19667  _approve(\r... */\n      jump\t// in\n    tag_127:\n        /* \"contracts/Test_contract.sol\":19685:19689  true */\n      0x01\n        /* \"contracts/Test_contract.sol\":19678:19689  return true */\n      swap1\n      pop\n        /* \"contracts/Test_contract.sol\":19297:19697  function decreaseAllowance(address spender, uint256 subtractedValue)\r... */\n      swap3\n      swap2\n      pop\n      pop\n      jump\t// out\n        /* \"contracts/Test_contract.sol\":16312:16528  function transfer(address recipient, uint256 amount)\r... */\n    tag_68:\n        /* \"contracts/Test_contract.sol\":16434:16438  bool */\n      0x00\n        /* \"contracts/Test_contract.sol\":16456:16498  _transfer(_msgSender(), recipient, amount) */\n      tag_132\n        /* \"contracts/Test_contract.sol\":16466:16478  _msgSender() */\n      tag_133\n        /* \"contracts/Test_contract.sol\":16466:16476  _msgSender */\n      tag_92\n        /* \"contracts/Test_contract.sol\":16466:16478  _msgSender() */\n      jump\t// in\n    tag_133:\n        /* \"contracts/Test_contract.sol\":16480:16489  recipient */\n      dup5\n        /* \"contracts/Test_contract.sol\":16491:16497  amount */\n      dup5\n        /* \"contracts/Test_contract.sol\":16456:16465  _transfer */\n      tag_97\n        /* \"contracts/Test_contract.sol\":16456:16498  _transfer(_msgSender(), recipient, amount) */\n      jump\t// in\n    tag_132:\n        /* \"contracts/Test_contract.sol\":16516:16520  true */\n      0x01\n        /* \"contracts/Test_contract.sol\":16509:16520  return true */\n      swap1\n      pop\n        /* \"contracts/Test_contract.sol\":16312:16528  function transfer(address recipient, uint256 amount)\r... */\n      swap3\n      swap2\n      pop\n      pop\n      jump\t// out\n        /* \"contracts/Test_contract.sol\":16591:16792  function allowance(address owner, address spender)\r... */\n    tag_73:\n        /* \"contracts/Test_contract.sol\":16725:16732  uint256 */\n      0x00\n        /* \"contracts/Test_contract.sol\":16757:16768  _allowances */\n      0x02\n        /* \"contracts/Test_contract.sol\":16757:16775  _allowances[owner] */\n      0x00\n        /* \"contracts/Test_contract.sol\":16769:16774  owner */\n      dup5\n        /* \"contracts/Test_contract.sol\":16757:16775  _allowances[owner] */\n      0xffffffffffffffffffffffffffffffffffffffff\n      and\n      0xffffffffffffffffffffffffffffffffffffffff\n      and\n      dup2\n      mstore\n      0x20\n      add\n      swap1\n      dup2\n      mstore\n      0x20\n      add\n      0x00\n      keccak256\n        /* \"contracts/Test_contract.sol\":16757:16784  _allowances[owner][spender] */\n      0x00\n        /* \"contracts/Test_contract.sol\":16776:16783  spender */\n      dup4\n        /* \"contracts/Test_contract.sol\":16757:16784  _allowances[owner][spender] */\n      0xffffffffffffffffffffffffffffffffffffffff\n      and\n      0xffffffffffffffffffffffffffffffffffffffff\n      and\n      dup2\n      mstore\n      0x20\n      add\n      swap1\n      dup2\n      mstore\n      0x20\n      add\n      0x00\n      keccak256\n      sload\n        /* \"contracts/Test_contract.sol\":16750:16784  return _allowances[owner][spender] */\n      swap1\n      pop\n        /* \"contracts/Test_contract.sol\":16591:16792  function allowance(address owner, address spender)\r... */\n      swap3\n      swap2\n      pop\n      pop\n      jump\t// out\n        /* \"contracts/Test_contract.sol\":5703:5895  function transferOwnership(address newOwner) public virtual onlyOwner {\r... */\n    tag_77:\n        /* \"contracts/Test_contract.sol\":5034:5046  _msgSender() */\n      tag_136\n        /* \"contracts/Test_contract.sol\":5034:5044  _msgSender */\n      tag_92\n        /* \"contracts/Test_contract.sol\":5034:5046  _msgSender() */\n      jump\t// in\n    tag_136:\n        /* \"contracts/Test_contract.sol\":5023:5046  owner() == _msgSender() */\n      0xffffffffffffffffffffffffffffffffffffffff\n      and\n        /* \"contracts/Test_contract.sol\":5023:5030  owner() */\n      tag_137\n        /* \"contracts/Test_contract.sol\":5023:5028  owner */\n      tag_56\n        /* \"contracts/Test_contract.sol\":5023:5030  owner() */\n      jump\t// in\n    tag_137:\n        /* \"contracts/Test_contract.sol\":5023:5046  owner() == _msgSender() */\n      0xffffffffffffffffffffffffffffffffffffffff\n      and\n      eq\n        /* \"contracts/Test_contract.sol\":5015:5083  require(owner() == _msgSender(), \"Ownable: caller is not the owner\") */\n      tag_138\n      jumpi\n      mload(0x40)\n      0x08c379a000000000000000000000000000000000000000000000000000000000\n      dup2\n      mstore\n      0x04\n      add\n      tag_139\n      swap1\n      tag_115\n      jump\t// in\n    tag_139:\n      mload(0x40)\n      dup1\n      swap2\n      sub\n      swap1\n      revert\n    tag_138:\n        /* \"contracts/Test_contract.sol\":5812:5813  0 */\n      0x00\n        /* \"contracts/Test_contract.sol\":5792:5814  newOwner != address(0) */\n      0xffffffffffffffffffffffffffffffffffffffff\n      and\n        /* \"contracts/Test_contract.sol\":5792:5800  newOwner */\n      dup2\n        /* \"contracts/Test_contract.sol\":5792:5814  newOwner != address(0) */\n      0xffffffffffffffffffffffffffffffffffffffff\n      and\n      eq\n      iszero\n        /* \"contracts/Test_contract.sol\":5784:5857  require(newOwner != address(0), \"Ownable: new owner is the zero address\") */\n      tag_141\n      jumpi\n      mload(0x40)\n      0x08c379a000000000000000000000000000000000000000000000000000000000\n      dup2\n      mstore\n      0x04\n      add\n      tag_142\n      swap1\n      tag_143\n      jump\t// in\n    tag_142:\n      mload(0x40)\n      dup1\n      swap2\n      sub\n      swap1\n      revert\n    tag_141:\n        /* \"contracts/Test_contract.sol\":5868:5887  _setOwner(newOwner) */\n      tag_144\n        /* \"contracts/Test_contract.sol\":5878:5886  newOwner */\n      dup2\n        /* \"contracts/Test_contract.sol\":5868:5877  _setOwner */\n      tag_118\n        /* \"contracts/Test_contract.sol\":5868:5887  _setOwner(newOwner) */\n      jump\t// in\n    tag_144:\n        /* \"contracts/Test_contract.sol\":5703:5895  function transferOwnership(address newOwner) public virtual onlyOwner {\r... */\n      pop\n      jump\t// out\n        /* \"contracts/Test_contract.sol\":13907:13942  uint256 public constant VERSION = 1 */\n    tag_79:\n        /* \"contracts/Test_contract.sol\":13941:13942  1 */\n      0x01\n        /* \"contracts/Test_contract.sol\":13907:13942  uint256 public constant VERSION = 1 */\n      dup2\n      jump\t// out\n        /* \"contracts/Test_contract.sol\":8889:8987  function add(uint256 a, uint256 b) internal pure returns (uint256) {\r... */\n    tag_81:\n        /* \"contracts/Test_contract.sol\":8947:8954  uint256 */\n      0x00\n        /* \"contracts/Test_contract.sol\":8978:8979  b */\n      dup2\n        /* \"contracts/Test_contract.sol\":8974:8975  a */\n      dup4\n        /* \"contracts/Test_contract.sol\":8974:8979  a + b */\n      tag_146\n      swap2\n      swap1\n      tag_147\n      jump\t// in\n    tag_146:\n        /* \"contracts/Test_contract.sol\":8967:8979  return a + b */\n      swap1\n      pop\n        /* \"contracts/Test_contract.sol\":8889:8987  function add(uint256 a, uint256 b) internal pure returns (uint256) {\r... */\n      swap3\n      swap2\n      pop\n      pop\n      jump\t// out\n        /* \"contracts/Test_contract.sol\":3521:3619  function _msgSender() internal view virtual returns (address) {\r... */\n    tag_92:\n        /* \"contracts/Test_contract.sol\":3574:3581  address */\n      0x00\n        /* \"contracts/Test_contract.sol\":3601:3611  msg.sender */\n      caller\n        /* \"contracts/Test_contract.sol\":3594:3611  return msg.sender */\n      swap1\n      pop\n        /* \"contracts/Test_contract.sol\":3521:3619  function _msgSender() internal view virtual returns (address) {\r... */\n      swap1\n      jump\t// out\n        /* \"contracts/Test_contract.sol\":22683:23063  function _approve(\r... */\n    tag_93:\n        /* \"contracts/Test_contract.sol\":22836:22837  0 */\n      0x00\n        /* \"contracts/Test_contract.sol\":22819:22838  owner != address(0) */\n      0xffffffffffffffffffffffffffffffffffffffff\n      and\n        /* \"contracts/Test_contract.sol\":22819:22824  owner */\n      dup4\n        /* \"contracts/Test_contract.sol\":22819:22838  owner != address(0) */\n      0xffffffffffffffffffffffffffffffffffffffff\n      and\n      eq\n      iszero\n        /* \"contracts/Test_contract.sol\":22811:22879  require(owner != address(0), \"ERC20: approve from the zero address\") */\n      tag_150\n      jumpi\n      mload(0x40)\n      0x08c379a000000000000000000000000000000000000000000000000000000000\n      dup2\n      mstore\n      0x04\n      add\n      tag_151\n      swap1\n      tag_152\n      jump\t// in\n    tag_151:\n      mload(0x40)\n      dup1\n      swap2\n      sub\n      swap1\n      revert\n    tag_150:\n        /* \"contracts/Test_contract.sol\":22917:22918  0 */\n      0x00\n        /* \"contracts/Test_contract.sol\":22898:22919  spender != address(0) */\n      0xffffffffffffffffffffffffffffffffffffffff\n      and\n        /* \"contracts/Test_contract.sol\":22898:22905  spender */\n      dup3\n        /* \"contracts/Test_contract.sol\":22898:22919  spender != address(0) */\n      0xffffffffffffffffffffffffffffffffffffffff\n      and\n      eq\n      iszero\n        /* \"contracts/Test_contract.sol\":22890:22958  require(spender != address(0), \"ERC20: approve to the zero address\") */\n      tag_153\n      jumpi\n      mload(0x40)\n      0x08c379a000000000000000000000000000000000000000000000000000000000\n      dup2\n      mstore\n      0x04\n      add\n      tag_154\n      swap1\n      tag_155\n      jump\t// in\n    tag_154:\n      mload(0x40)\n      dup1\n      swap2\n      sub\n      swap1\n      revert\n    tag_153:\n        /* \"contracts/Test_contract.sol\":23001:23007  amount */\n      dup1\n        /* \"contracts/Test_contract.sol\":22971:22982  _allowances */\n      0x02\n        /* \"contracts/Test_contract.sol\":22971:22989  _allowances[owner] */\n      0x00\n        /* \"contracts/Test_contract.sol\":22983:22988  owner */\n      dup6\n        /* \"contracts/Test_contract.sol\":22971:22989  _allowances[owner] */\n      0xffffffffffffffffffffffffffffffffffffffff\n      and\n      0xffffffffffffffffffffffffffffffffffffffff\n      and\n      dup2\n      mstore\n      0x20\n      add\n      swap1\n      dup2\n      mstore\n      0x20\n      add\n      0x00\n      keccak256\n        /* \"contracts/Test_contract.sol\":22971:22998  _allowances[owner][spender] */\n      0x00\n        /* \"contracts/Test_contract.sol\":22990:22997  spender */\n      dup5\n        /* \"contracts/Test_contract.sol\":22971:22998  _allowances[owner][spender] */\n      0xffffffffffffffffffffffffffffffffffffffff\n      and\n      0xffffffffffffffffffffffffffffffffffffffff\n      and\n      dup2\n      mstore\n      0x20\n      add\n      swap1\n      dup2\n      mstore\n      0x20\n      add\n      0x00\n      keccak256\n        /* \"contracts/Test_contract.sol\":22971:23007  _allowances[owner][spender] = amount */\n      dup2\n      swap1\n      sstore\n      pop\n        /* \"contracts/Test_contract.sol\":23039:23046  spender */\n      dup2\n        /* \"contracts/Test_contract.sol\":23023:23055  Approval(owner, spender, amount) */\n      0xffffffffffffffffffffffffffffffffffffffff\n      and\n        /* \"contracts/Test_contract.sol\":23032:23037  owner */\n      dup4\n        /* \"contracts/Test_contract.sol\":23023:23055  Approval(owner, spender, amount) */\n      0xffffffffffffffffffffffffffffffffffffffff\n      and\n      0x8c5be1e5ebec7d5bd14f71427d1e84f3dd0314c0f7b2291e5b200ac8c7c3b925\n        /* \"contracts/Test_contract.sol\":23048:23054  amount */\n      dup4\n        /* \"contracts/Test_contract.sol\":23023:23055  Approval(owner, spender, amount) */\n      mload(0x40)\n      tag_156\n      swap2\n      swap1\n      tag_34\n      jump\t// in\n    tag_156:\n      mload(0x40)\n      dup1\n      swap2\n      sub\n      swap1\n      log3\n        /* \"contracts/Test_contract.sol\":22683:23063  function _approve(\r... */\n      pop\n      pop\n      pop\n      jump\t// out\n        /* \"contracts/Test_contract.sol\":20187:20797  function _transfer(\r... */\n    tag_97:\n        /* \"contracts/Test_contract.sol\":20345:20346  0 */\n      0x00\n        /* \"contracts/Test_contract.sol\":20327:20347  sender != address(0) */\n      0xffffffffffffffffffffffffffffffffffffffff\n      and\n        /* \"contracts/Test_contract.sol\":20327:20333  sender */\n      dup4\n        /* \"contracts/Test_contract.sol\":20327:20347  sender != address(0) */\n      0xffffffffffffffffffffffffffffffffffffffff\n      and\n      eq\n      iszero\n        /* \"contracts/Test_contract.sol\":20319:20389  require(sender != address(0), \"ERC20: transfer from the zero address\") */\n      tag_158\n      jumpi\n      mload(0x40)\n      0x08c379a000000000000000000000000000000000000000000000000000000000\n      dup2\n      mstore\n      0x04\n      add\n      tag_159\n      swap1\n      tag_160\n      jump\t// in\n    tag_159:\n      mload(0x40)\n      dup1\n      swap2\n      sub\n      swap1\n      revert\n    tag_158:\n        /* \"contracts/Test_contract.sol\":20429:20430  0 */\n      0x00\n        /* \"contracts/Test_contract.sol\":20408:20431  recipient != address(0) */\n      0xffffffffffffffffffffffffffffffffffffffff\n      and\n        /* \"contracts/Test_contract.sol\":20408:20417  recipient */\n      dup3\n        /* \"contracts/Test_contract.sol\":20408:20431  recipient != address(0) */\n      0xffffffffffffffffffffffffffffffffffffffff\n      and\n      eq\n      iszero\n        /* \"contracts/Test_contract.sol\":20400:20471  require(recipient != address(0), \"ERC20: transfer to the zero address\") */\n      tag_161\n      jumpi\n      mload(0x40)\n      0x08c379a000000000000000000000000000000000000000000000000000000000\n      dup2\n      mstore\n      0x04\n      add\n      tag_162\n      swap1\n      tag_163\n      jump\t// in\n    tag_162:\n      mload(0x40)\n      dup1\n      swap2\n      sub\n      swap1\n      revert\n    tag_161:\n        /* \"contracts/Test_contract.sol\":20484:20531  _beforeTokenTransfer(sender, recipient, amount) */\n      tag_164\n        /* \"contracts/Test_contract.sol\":20505:20511  sender */\n      dup4\n        /* \"contracts/Test_contract.sol\":20513:20522  recipient */\n      dup4\n        /* \"contracts/Test_contract.sol\":20524:20530  amount */\n      dup4\n        /* \"contracts/Test_contract.sol\":20484:20504  _beforeTokenTransfer */\n      tag_165\n        /* \"contracts/Test_contract.sol\":20484:20531  _beforeTokenTransfer(sender, recipient, amount) */\n      jump\t// in\n    tag_164:\n        /* \"contracts/Test_contract.sol\":20564:20672  _balances[sender].sub(\r... */\n      tag_166\n        /* \"contracts/Test_contract.sol\":20600:20606  amount */\n      dup2\n        /* \"contracts/Test_contract.sol\":20564:20672  _balances[sender].sub(\r... */\n      mload(0x40)\n      dup1\n      0x60\n      add\n      0x40\n      mstore\n      dup1\n      0x26\n      dup2\n      mstore\n      0x20\n      add\n      data_4107e8a8b9e94bf8ff83080ddec1c0bffe897ebc2241b89d44f66b3d274088b6\n      0x26\n      swap2\n      codecopy\n        /* \"contracts/Test_contract.sol\":20564:20573  _balances */\n      0x01\n        /* \"contracts/Test_contract.sol\":20564:20581  _balances[sender] */\n      0x00\n        /* \"contracts/Test_contract.sol\":20574:20580  sender */\n      dup8\n        /* \"contracts/Test_contract.sol\":20564:20581  _balances[sender] */\n      0xffffffffffffffffffffffffffffffffffffffff\n      and\n      0xffffffffffffffffffffffffffffffffffffffff\n      and\n      dup2\n      mstore\n      0x20\n      add\n      swap1\n      dup2\n      mstore\n      0x20\n      add\n      0x00\n      keccak256\n      sload\n        /* \"contracts/Test_contract.sol\":20564:20585  _balances[sender].sub */\n      tag_102\n      swap1\n        /* \"contracts/Test_contract.sol\":20564:20672  _balances[sender].sub(\r... */\n      swap3\n      swap2\n      swap1\n      0xffffffff\n      and\n      jump\t// in\n    tag_166:\n        /* \"contracts/Test_contract.sol\":20544:20553  _balances */\n      0x01\n        /* \"contracts/Test_contract.sol\":20544:20561  _balances[sender] */\n      0x00\n        /* \"contracts/Test_contract.sol\":20554:20560  sender */\n      dup6\n        /* \"contracts/Test_contract.sol\":20544:20561  _balances[sender] */\n      0xffffffffffffffffffffffffffffffffffffffff\n      and\n      0xffffffffffffffffffffffffffffffffffffffff\n      and\n      dup2\n      mstore\n      0x20\n      add\n      swap1\n      dup2\n      mstore\n      0x20\n      add\n      0x00\n      keccak256\n        /* \"contracts/Test_contract.sol\":20544:20672  _balances[sender] = _balances[sender].sub(\r... */\n      dup2\n      swap1\n      sstore\n      pop\n        /* \"contracts/Test_contract.sol\":20706:20738  _balances[recipient].add(amount) */\n      tag_167\n        /* \"contracts/Test_contract.sol\":20731:20737  amount */\n      dup2\n        /* \"contracts/Test_contract.sol\":20706:20715  _balances */\n      0x01\n        /* \"contracts/Test_contract.sol\":20706:20726  _balances[recipient] */\n      0x00\n        /* \"contracts/Test_contract.sol\":20716:20725  recipient */\n      dup6\n        /* \"contracts/Test_contract.sol\":20706:20726  _balances[recipient] */\n      0xffffffffffffffffffffffffffffffffffffffff\n      and\n      0xffffffffffffffffffffffffffffffffffffffff\n      and\n      dup2\n      mstore\n      0x20\n      add\n      swap1\n      dup2\n      mstore\n      0x20\n      add\n      0x00\n      keccak256\n      sload\n        /* \"contracts/Test_contract.sol\":20706:20730  _balances[recipient].add */\n      tag_81\n      swap1\n        /* \"contracts/Test_contract.sol\":20706:20738  _balances[recipient].add(amount) */\n      swap2\n      swap1\n      0xffffffff\n      and\n      jump\t// in\n    tag_167:\n        /* \"contracts/Test_contract.sol\":20683:20692  _balances */\n      0x01\n        /* \"contracts/Test_contract.sol\":20683:20703  _balances[recipient] */\n      0x00\n        /* \"contracts/Test_contract.sol\":20693:20702  recipient */\n      dup5\n        /* \"contracts/Test_contract.sol\":20683:20703  _balances[recipient] */\n      0xffffffffffffffffffffffffffffffffffffffff\n      and\n      0xffffffffffffffffffffffffffffffffffffffff\n      and\n      dup2\n      mstore\n      0x20\n      add\n      swap1\n      dup2\n      mstore\n      0x20\n      add\n      0x00\n      keccak256\n        /* \"contracts/Test_contract.sol\":20683:20738  _balances[recipient] = _balances[recipient].add(amount) */\n      dup2\n      swap1\n      sstore\n      pop\n        /* \"contracts/Test_contract.sol\":20771:20780  recipient */\n      dup2\n        /* \"contracts/Test_contract.sol\":20754:20789  Transfer(sender, recipient, amount) */\n      0xffffffffffffffffffffffffffffffffffffffff\n      and\n        /* \"contracts/Test_contract.sol\":20763:20769  sender */\n      dup4\n        /* \"contracts/Test_contract.sol\":20754:20789  Transfer(sender, recipient, amount) */\n      0xffffffffffffffffffffffffffffffffffffffff\n      and\n      0xddf252ad1be2c89b69c2b068fc378daa952ba7f163c4a11628f55a4df523b3ef\n        /* \"contracts/Test_contract.sol\":20782:20788  amount */\n      dup4\n        /* \"contracts/Test_contract.sol\":20754:20789  Transfer(sender, recipient, amount) */\n      mload(0x40)\n      tag_168\n      swap2\n      swap1\n      tag_34\n      jump\t// in\n    tag_168:\n      mload(0x40)\n      dup1\n      swap2\n      sub\n      swap1\n      log3\n        /* \"contracts/Test_contract.sol\":20187:20797  function _transfer(\r... */\n      pop\n      pop\n      pop\n      jump\t// out\n        /* \"contracts/Test_contract.sol\":11168:11408  function sub(\r... */\n    tag_102:\n        /* \"contracts/Test_contract.sol\":11288:11295  uint256 */\n      0x00\n        /* \"contracts/Test_contract.sol\":11346:11347  a */\n      dup4\n        /* \"contracts/Test_contract.sol\":11341:11342  b */\n      dup4\n        /* \"contracts/Test_contract.sol\":11341:11347  b <= a */\n      gt\n      iszero\n        /* \"contracts/Test_contract.sol\":11349:11361  errorMessage */\n      dup3\n        /* \"contracts/Test_contract.sol\":11333:11362  require(b <= a, errorMessage) */\n      swap1\n      tag_170\n      jumpi\n      mload(0x40)\n      0x08c379a000000000000000000000000000000000000000000000000000000000\n      dup2\n      mstore\n      0x04\n      add\n      tag_171\n      swap2\n      swap1\n      tag_24\n      jump\t// in\n    tag_171:\n      mload(0x40)\n      dup1\n      swap2\n      sub\n      swap1\n      revert\n    tag_170:\n      pop\n        /* \"contracts/Test_contract.sol\":11388:11389  b */\n      dup3\n        /* \"contracts/Test_contract.sol\":11384:11385  a */\n      dup5\n        /* \"contracts/Test_contract.sol\":11384:11389  a - b */\n      sub\n        /* \"contracts/Test_contract.sol\":11377:11389  return a - b */\n      swap1\n      pop\n        /* \"contracts/Test_contract.sol\":11168:11408  function sub(\r... */\n      swap4\n      swap3\n      pop\n      pop\n      pop\n      jump\t// out\n        /* \"contracts/Test_contract.sol\":5903:6076  function _setOwner(address newOwner) private {\r... */\n    tag_118:\n        /* \"contracts/Test_contract.sol\":5959:5975  address oldOwner */\n      0x00\n        /* \"contracts/Test_contract.sol\":5978:5984  _owner */\n      dup1\n      0x00\n      swap1\n      sload\n      swap1\n      0x0100\n      exp\n      swap1\n      div\n      0xffffffffffffffffffffffffffffffffffffffff\n      and\n        /* \"contracts/Test_contract.sol\":5959:5984  address oldOwner = _owner */\n      swap1\n      pop\n        /* \"contracts/Test_contract.sol\":6004:6012  newOwner */\n      dup2\n        /* \"contracts/Test_contract.sol\":5995:6001  _owner */\n      0x00\n      dup1\n        /* \"contracts/Test_contract.sol\":5995:6012  _owner = newOwner */\n      0x0100\n      exp\n      dup2\n      sload\n      dup2\n      0xffffffffffffffffffffffffffffffffffffffff\n      mul\n      not\n      and\n      swap1\n      dup4\n      0xffffffffffffffffffffffffffffffffffffffff\n      and\n      mul\n      or\n      swap1\n      sstore\n      pop\n        /* \"contracts/Test_contract.sol\":6059:6067  newOwner */\n      dup2\n        /* \"contracts/Test_contract.sol\":6028:6068  OwnershipTransferred(oldOwner, newOwner) */\n      0xffffffffffffffffffffffffffffffffffffffff\n      and\n        /* \"contracts/Test_contract.sol\":6049:6057  oldOwner */\n      dup2\n        /* \"contracts/Test_contract.sol\":6028:6068  OwnershipTransferred(oldOwner, newOwner) */\n      0xffffffffffffffffffffffffffffffffffffffff\n      and\n      0x8be0079c531659141344cd1fd0a4f28419497f9722a3daafe3b4186f6b6457e0\n      mload(0x40)\n      mload(0x40)\n      dup1\n      swap2\n      sub\n      swap1\n      log3\n        /* \"contracts/Test_contract.sol\":5903:6076  function _setOwner(address newOwner) private {\r... */\n      pop\n      pop\n      jump\t// out\n        /* \"contracts/Test_contract.sol\":24096:24221  function _beforeTokenTransfer(\r... */\n    tag_165:\n      pop\n      pop\n      pop\n      jump\t// out\n        /* \"#utility.yul\":7:146   */\n    tag_175:\n        /* \"#utility.yul\":53:58   */\n      0x00\n        /* \"#utility.yul\":91:97   */\n      dup2\n        /* \"#utility.yul\":78:98   */\n      calldataload\n        /* \"#utility.yul\":69:98   */\n      swap1\n      pop\n        /* \"#utility.yul\":107:140   */\n      tag_177\n        /* \"#utility.yul\":134:139   */\n      dup2\n        /* \"#utility.yul\":107:140   */\n      tag_178\n      jump\t// in\n    tag_177:\n        /* \"#utility.yul\":59:146   */\n      swap3\n      swap2\n      pop\n      pop\n      jump\t// out\n        /* \"#utility.yul\":152:291   */\n    tag_179:\n        /* \"#utility.yul\":198:203   */\n      0x00\n        /* \"#utility.yul\":236:242   */\n      dup2\n        /* \"#utility.yul\":223:243   */\n      calldataload\n        /* \"#utility.yul\":214:243   */\n      swap1\n      pop\n        /* \"#utility.yul\":252:285   */\n      tag_181\n        /* \"#utility.yul\":279:284   */\n      dup2\n        /* \"#utility.yul\":252:285   */\n      tag_182\n      jump\t// in\n    tag_181:\n        /* \"#utility.yul\":204:291   */\n      swap3\n      swap2\n      pop\n      pop\n      jump\t// out\n        /* \"#utility.yul\":297:559   */\n    tag_50:\n        /* \"#utility.yul\":356:362   */\n      0x00\n        /* \"#utility.yul\":405:407   */\n      0x20\n        /* \"#utility.yul\":393:402   */\n      dup3\n        /* \"#utility.yul\":384:391   */\n      dup5\n        /* \"#utility.yul\":380:403   */\n      sub\n        /* \"#utility.yul\":376:408   */\n      slt\n        /* \"#utility.yul\":373:375   */\n      iszero\n      tag_184\n      jumpi\n        /* \"#utility.yul\":421:422   */\n      0x00\n        /* \"#utility.yul\":418:419   */\n      dup1\n        /* \"#utility.yul\":411:423   */\n      revert\n        /* \"#utility.yul\":373:375   */\n    tag_184:\n        /* \"#utility.yul\":464:465   */\n      0x00\n        /* \"#utility.yul\":489:542   */\n      tag_185\n        /* \"#utility.yul\":534:541   */\n      dup5\n        /* \"#utility.yul\":525:531   */\n      dup3\n        /* \"#utility.yul\":514:523   */\n      dup6\n        /* \"#utility.yul\":510:532   */\n      add\n        /* \"#utility.yul\":489:542   */\n      tag_175\n      jump\t// in\n    tag_185:\n        /* \"#utility.yul\":479:542   */\n      swap2\n      pop\n        /* \"#utility.yul\":435:552   */\n      pop\n        /* \"#utility.yul\":363:559   */\n      swap3\n      swap2\n      pop\n      pop\n      jump\t// out\n        /* \"#utility.yul\":565:972   */\n    tag_72:\n        /* \"#utility.yul\":633:639   */\n      0x00\n        /* \"#utility.yul\":641:647   */\n      dup1\n        /* \"#utility.yul\":690:692   */\n      0x40\n        /* \"#utility.yul\":678:687   */\n      dup4\n        /* \"#utility.yul\":669:676   */\n      dup6\n        /* \"#utility.yul\":665:688   */\n      sub\n        /* \"#utility.yul\":661:693   */\n      slt\n        /* \"#utility.yul\":658:660   */\n      iszero\n      tag_187\n      jumpi\n        /* \"#utility.yul\":706:707   */\n      0x00\n        /* \"#utility.yul\":703:704   */\n      dup1\n        /* \"#utility.yul\":696:708   */\n      revert\n        /* \"#utility.yul\":658:660   */\n    tag_187:\n        /* \"#utility.yul\":749:750   */\n      0x00\n        /* \"#utility.yul\":774:827   */\n      tag_188\n        /* \"#utility.yul\":819:826   */\n      dup6\n        /* \"#utility.yul\":810:816   */\n      dup3\n        /* \"#utility.yul\":799:808   */\n      dup7\n        /* \"#utility.yul\":795:817   */\n      add\n        /* \"#utility.yul\":774:827   */\n      tag_175\n      jump\t// in\n    tag_188:\n        /* \"#utility.yul\":764:827   */\n      swap3\n      pop\n        /* \"#utility.yul\":720:837   */\n      pop\n        /* \"#utility.yul\":876:878   */\n      0x20\n        /* \"#utility.yul\":902:955   */\n      tag_189\n        /* \"#utility.yul\":947:954   */\n      dup6\n        /* \"#utility.yul\":938:944   */\n      dup3\n        /* \"#utility.yul\":927:936   */\n      dup7\n        /* \"#utility.yul\":923:945   */\n      add\n        /* \"#utility.yul\":902:955   */\n      tag_175\n      jump\t// in\n    tag_189:\n        /* \"#utility.yul\":892:955   */\n      swap2\n      pop\n        /* \"#utility.yul\":847:965   */\n      pop\n        /* \"#utility.yul\":648:972   */\n      swap3\n      pop\n      swap3\n      swap1\n      pop\n      jump\t// out\n        /* \"#utility.yul\":978:1530   */\n    tag_37:\n        /* \"#utility.yul\":1055:1061   */\n      0x00\n        /* \"#utility.yul\":1063:1069   */\n      dup1\n        /* \"#utility.yul\":1071:1077   */\n      0x00\n        /* \"#utility.yul\":1120:1122   */\n      0x60\n        /* \"#utility.yul\":1108:1117   */\n      dup5\n        /* \"#utility.yul\":1099:1106   */\n      dup7\n        /* \"#utility.yul\":1095:1118   */\n      sub\n        /* \"#utility.yul\":1091:1123   */\n      slt\n        /* \"#utility.yul\":1088:1090   */\n      iszero\n      tag_191\n      jumpi\n        /* \"#utility.yul\":1136:1137   */\n      0x00\n        /* \"#utility.yul\":1133:1134   */\n      dup1\n        /* \"#utility.yul\":1126:1138   */\n      revert\n        /* \"#utility.yul\":1088:1090   */\n    tag_191:\n        /* \"#utility.yul\":1179:1180   */\n      0x00\n        /* \"#utility.yul\":1204:1257   */\n      tag_192\n        /* \"#utility.yul\":1249:1256   */\n      dup7\n        /* \"#utility.yul\":1240:1246   */\n      dup3\n        /* \"#utility.yul\":1229:1238   */\n      dup8\n        /* \"#utility.yul\":1225:1247   */\n      add\n        /* \"#utility.yul\":1204:1257   */\n      tag_175\n      jump\t// in\n    tag_192:\n        /* \"#utility.yul\":1194:1257   */\n      swap4\n      pop\n        /* \"#utility.yul\":1150:1267   */\n      pop\n        /* \"#utility.yul\":1306:1308   */\n      0x20\n        /* \"#utility.yul\":1332:1385   */\n      tag_193\n        /* \"#utility.yul\":1377:1384   */\n      dup7\n        /* \"#utility.yul\":1368:1374   */\n      dup3\n        /* \"#utility.yul\":1357:1366   */\n      dup8\n        /* \"#utility.yul\":1353:1375   */\n      add\n        /* \"#utility.yul\":1332:1385   */\n      tag_175\n      jump\t// in\n    tag_193:\n        /* \"#utility.yul\":1322:1385   */\n      swap3\n      pop\n        /* \"#utility.yul\":1277:1395   */\n      pop\n        /* \"#utility.yul\":1434:1436   */\n      0x40\n        /* \"#utility.yul\":1460:1513   */\n      tag_194\n        /* \"#utility.yul\":1505:1512   */\n      dup7\n        /* \"#utility.yul\":1496:1502   */\n      dup3\n        /* \"#utility.yul\":1485:1494   */\n      dup8\n        /* \"#utility.yul\":1481:1503   */\n      add\n        /* \"#utility.yul\":1460:1513   */\n      tag_179\n      jump\t// in\n    tag_194:\n        /* \"#utility.yul\":1450:1513   */\n      swap2\n      pop\n        /* \"#utility.yul\":1405:1523   */\n      pop\n        /* \"#utility.yul\":1078:1530   */\n      swap3\n      pop\n      swap3\n      pop\n      swap3\n      jump\t// out\n        /* \"#utility.yul\":1536:1943   */\n    tag_27:\n        /* \"#utility.yul\":1604:1610   */\n      0x00\n        /* \"#utility.yul\":1612:1618   */\n      dup1\n        /* \"#utility.yul\":1661:1663   */\n      0x40\n        /* \"#utility.yul\":1649:1658   */\n      dup4\n        /* \"#utility.yul\":1640:1647   */\n      dup6\n        /* \"#utility.yul\":1636:1659   */\n      sub\n        /* \"#utility.yul\":1632:1664   */\n      slt\n        /* \"#utility.yul\":1629:1631   */\n      iszero\n      tag_196\n      jumpi\n        /* \"#utility.yul\":1677:1678   */\n      0x00\n        /* \"#utility.yul\":1674:1675   */\n      dup1\n        /* \"#utility.yul\":1667:1679   */\n      revert\n        /* \"#utility.yul\":1629:1631   */\n    tag_196:\n        /* \"#utility.yul\":1720:1721   */\n      0x00\n        /* \"#utility.yul\":1745:1798   */\n      tag_197\n        /* \"#utility.yul\":1790:1797   */\n      dup6\n        /* \"#utility.yul\":1781:1787   */\n      dup3\n        /* \"#utility.yul\":1770:1779   */\n      dup7\n        /* \"#utility.yul\":1766:1788   */\n      add\n        /* \"#utility.yul\":1745:1798   */\n      tag_175\n      jump\t// in\n    tag_197:\n        /* \"#utility.yul\":1735:1798   */\n      swap3\n      pop\n        /* \"#utility.yul\":1691:1808   */\n      pop\n        /* \"#utility.yul\":1847:1849   */\n      0x20\n        /* \"#utility.yul\":1873:1926   */\n      tag_198\n        /* \"#utility.yul\":1918:1925   */\n      dup6\n        /* \"#utility.yul\":1909:1915   */\n      dup3\n        /* \"#utility.yul\":1898:1907   */\n      dup7\n        /* \"#utility.yul\":1894:1916   */\n      add\n        /* \"#utility.yul\":1873:1926   */\n      tag_179\n      jump\t// in\n    tag_198:\n        /* \"#utility.yul\":1863:1926   */\n      swap2\n      pop\n        /* \"#utility.yul\":1818:1936   */\n      pop\n        /* \"#utility.yul\":1619:1943   */\n      swap3\n      pop\n      swap3\n      swap1\n      pop\n      jump\t// out\n        /* \"#utility.yul\":1949:2067   */\n    tag_199:\n        /* \"#utility.yul\":2036:2060   */\n      tag_201\n        /* \"#utility.yul\":2054:2059   */\n      dup2\n        /* \"#utility.yul\":2036:2060   */\n      tag_202\n      jump\t// in\n    tag_201:\n        /* \"#utility.yul\":2031:2034   */\n      dup3\n        /* \"#utility.yul\":2024:2061   */\n      mstore\n        /* \"#utility.yul\":2014:2067   */\n      pop\n      pop\n      jump\t// out\n        /* \"#utility.yul\":2073:2182   */\n    tag_203:\n        /* \"#utility.yul\":2154:2175   */\n      tag_205\n        /* \"#utility.yul\":2169:2174   */\n      dup2\n        /* \"#utility.yul\":2154:2175   */\n      tag_206\n      jump\t// in\n    tag_205:\n        /* \"#utility.yul\":2149:2152   */\n      dup3\n        /* \"#utility.yul\":2142:2176   */\n      mstore\n        /* \"#utility.yul\":2132:2182   */\n      pop\n      pop\n      jump\t// out\n        /* \"#utility.yul\":2188:2552   */\n    tag_207:\n        /* \"#utility.yul\":2276:2279   */\n      0x00\n        /* \"#utility.yul\":2304:2343   */\n      tag_209\n        /* \"#utility.yul\":2337:2342   */\n      dup3\n        /* \"#utility.yul\":2304:2343   */\n      tag_210\n      jump\t// in\n    tag_209:\n        /* \"#utility.yul\":2359:2430   */\n      tag_211\n        /* \"#utility.yul\":2423:2429   */\n      dup2\n        /* \"#utility.yul\":2418:2421   */\n      dup6\n        /* \"#utility.yul\":2359:2430   */\n      tag_212\n      jump\t// in\n    tag_211:\n        /* \"#utility.yul\":2352:2430   */\n      swap4\n      pop\n        /* \"#utility.yul\":2439:2491   */\n      tag_213\n        /* \"#utility.yul\":2484:2490   */\n      dup2\n        /* \"#utility.yul\":2479:2482   */\n      dup6\n        /* \"#utility.yul\":2472:2476   */\n      0x20\n        /* \"#utility.yul\":2465:2470   */\n      dup7\n        /* \"#utility.yul\":2461:2477   */\n      add\n        /* \"#utility.yul\":2439:2491   */\n      tag_214\n      jump\t// in\n    tag_213:\n        /* \"#utility.yul\":2516:2545   */\n      tag_215\n        /* \"#utility.yul\":2538:2544   */\n      dup2\n        /* \"#utility.yul\":2516:2545   */\n      tag_216\n      jump\t// in\n    tag_215:\n        /* \"#utility.yul\":2511:2514   */\n      dup5\n        /* \"#utility.yul\":2507:2546   */\n      add\n        /* \"#utility.yul\":2500:2546   */\n      swap2\n      pop\n        /* \"#utility.yul\":2280:2552   */\n      pop\n      swap3\n      swap2\n      pop\n      pop\n      jump\t// out\n        /* \"#utility.yul\":2558:2924   */\n    tag_217:\n        /* \"#utility.yul\":2700:2703   */\n      0x00\n        /* \"#utility.yul\":2721:2788   */\n      tag_219\n        /* \"#utility.yul\":2785:2787   */\n      0x23\n        /* \"#utility.yul\":2780:2783   */\n      dup4\n        /* \"#utility.yul\":2721:2788   */\n      tag_212\n      jump\t// in\n    tag_219:\n        /* \"#utility.yul\":2714:2788   */\n      swap2\n      pop\n        /* \"#utility.yul\":2797:2890   */\n      tag_220\n        /* \"#utility.yul\":2886:2889   */\n      dup3\n        /* \"#utility.yul\":2797:2890   */\n      tag_221\n      jump\t// in\n    tag_220:\n        /* \"#utility.yul\":2915:2917   */\n      0x40\n        /* \"#utility.yul\":2910:2913   */\n      dup3\n        /* \"#utility.yul\":2906:2918   */\n      add\n        /* \"#utility.yul\":2899:2918   */\n      swap1\n      pop\n        /* \"#utility.yul\":2704:2924   */\n      swap2\n      swap1\n      pop\n      jump\t// out\n        /* \"#utility.yul\":2930:3296   */\n    tag_222:\n        /* \"#utility.yul\":3072:3075   */\n      0x00\n        /* \"#utility.yul\":3093:3160   */\n      tag_224\n        /* \"#utility.yul\":3157:3159   */\n      0x26\n        /* \"#utility.yul\":3152:3155   */\n      dup4\n        /* \"#utility.yul\":3093:3160   */\n      tag_212\n      jump\t// in\n    tag_224:\n        /* \"#utility.yul\":3086:3160   */\n      swap2\n      pop\n        /* \"#utility.yul\":3169:3262   */\n      tag_225\n        /* \"#utility.yul\":3258:3261   */\n      dup3\n        /* \"#utility.yul\":3169:3262   */\n      tag_226\n      jump\t// in\n    tag_225:\n        /* \"#utility.yul\":3287:3289   */\n      0x40\n        /* \"#utility.yul\":3282:3285   */\n      dup3\n        /* \"#utility.yul\":3278:3290   */\n      add\n        /* \"#utility.yul\":3271:3290   */\n      swap1\n      pop\n        /* \"#utility.yul\":3076:3296   */\n      swap2\n      swap1\n      pop\n      jump\t// out\n        /* \"#utility.yul\":3302:3668   */\n    tag_227:\n        /* \"#utility.yul\":3444:3447   */\n      0x00\n        /* \"#utility.yul\":3465:3532   */\n      tag_229\n        /* \"#utility.yul\":3529:3531   */\n      0x22\n        /* \"#utility.yul\":3524:3527   */\n      dup4\n        /* \"#utility.yul\":3465:3532   */\n      tag_212\n      jump\t// in\n    tag_229:\n        /* \"#utility.yul\":3458:3532   */\n      swap2\n      pop\n        /* \"#utility.yul\":3541:3634   */\n      tag_230\n        /* \"#utility.yul\":3630:3633   */\n      dup3\n        /* \"#utility.yul\":3541:3634   */\n      tag_231\n      jump\t// in\n    tag_230:\n        /* \"#utility.yul\":3659:3661   */\n      0x40\n        /* \"#utility.yul\":3654:3657   */\n      dup3\n        /* \"#utility.yul\":3650:3662   */\n      add\n        /* \"#utility.yul\":3643:3662   */\n      swap1\n      pop\n        /* \"#utility.yul\":3448:3668   */\n      swap2\n      swap1\n      pop\n      jump\t// out\n        /* \"#utility.yul\":3674:4040   */\n    tag_232:\n        /* \"#utility.yul\":3816:3819   */\n      0x00\n        /* \"#utility.yul\":3837:3904   */\n      tag_234\n        /* \"#utility.yul\":3901:3903   */\n      0x20\n        /* \"#utility.yul\":3896:3899   */\n      dup4\n        /* \"#utility.yul\":3837:3904   */\n      tag_212\n      jump\t// in\n    tag_234:\n        /* \"#utility.yul\":3830:3904   */\n      swap2\n      pop\n        /* \"#utility.yul\":3913:4006   */\n      tag_235\n        /* \"#utility.yul\":4002:4005   */\n      dup3\n        /* \"#utility.yul\":3913:4006   */\n      tag_236\n      jump\t// in\n    tag_235:\n        /* \"#utility.yul\":4031:4033   */\n      0x20\n        /* \"#utility.yul\":4026:4029   */\n      dup3\n        /* \"#utility.yul\":4022:4034   */\n      add\n        /* \"#utility.yul\":4015:4034   */\n      swap1\n      pop\n        /* \"#utility.yul\":3820:4040   */\n      swap2\n      swap1\n      pop\n      jump\t// out\n        /* \"#utility.yul\":4046:4412   */\n    tag_237:\n        /* \"#utility.yul\":4188:4191   */\n      0x00\n        /* \"#utility.yul\":4209:4276   */\n      tag_239\n        /* \"#utility.yul\":4273:4275   */\n      0x25\n        /* \"#utility.yul\":4268:4271   */\n      dup4\n        /* \"#utility.yul\":4209:4276   */\n      tag_212\n      jump\t// in\n    tag_239:\n        /* \"#utility.yul\":4202:4276   */\n      swap2\n      pop\n        /* \"#utility.yul\":4285:4378   */\n      tag_240\n        /* \"#utility.yul\":4374:4377   */\n      dup3\n        /* \"#utility.yul\":4285:4378   */\n      tag_241\n      jump\t// in\n    tag_240:\n        /* \"#utility.yul\":4403:4405   */\n      0x40\n        /* \"#utility.yul\":4398:4401   */\n      dup3\n        /* \"#utility.yul\":4394:4406   */\n      add\n        /* \"#utility.yul\":4387:4406   */\n      swap1\n      pop\n        /* \"#utility.yul\":4192:4412   */\n      swap2\n      swap1\n      pop\n      jump\t// out\n        /* \"#utility.yul\":4418:4784   */\n    tag_242:\n        /* \"#utility.yul\":4560:4563   */\n      0x00\n        /* \"#utility.yul\":4581:4648   */\n      tag_244\n        /* \"#utility.yul\":4645:4647   */\n      0x24\n        /* \"#utility.yul\":4640:4643   */\n      dup4\n        /* \"#utility.yul\":4581:4648   */\n      tag_212\n      jump\t// in\n    tag_244:\n        /* \"#utility.yul\":4574:4648   */\n      swap2\n      pop\n        /* \"#utility.yul\":4657:4750   */\n      tag_245\n        /* \"#utility.yul\":4746:4749   */\n      dup3\n        /* \"#utility.yul\":4657:4750   */\n      tag_246\n      jump\t// in\n    tag_245:\n        /* \"#utility.yul\":4775:4777   */\n      0x40\n        /* \"#utility.yul\":4770:4773   */\n      dup3\n        /* \"#utility.yul\":4766:4778   */\n      add\n        /* \"#utility.yul\":4759:4778   */\n      swap1\n      pop\n        /* \"#utility.yul\":4564:4784   */\n      swap2\n      swap1\n      pop\n      jump\t// out\n        /* \"#utility.yul\":4790:4908   */\n    tag_247:\n        /* \"#utility.yul\":4877:4901   */\n      tag_249\n        /* \"#utility.yul\":4895:4900   */\n      dup2\n        /* \"#utility.yul\":4877:4901   */\n      tag_250\n      jump\t// in\n    tag_249:\n        /* \"#utility.yul\":4872:4875   */\n      dup3\n        /* \"#utility.yul\":4865:4902   */\n      mstore\n        /* \"#utility.yul\":4855:4908   */\n      pop\n      pop\n      jump\t// out\n        /* \"#utility.yul\":4914:5026   */\n    tag_251:\n        /* \"#utility.yul\":4997:5019   */\n      tag_253\n        /* \"#utility.yul\":5013:5018   */\n      dup2\n        /* \"#utility.yul\":4997:5019   */\n      tag_254\n      jump\t// in\n    tag_253:\n        /* \"#utility.yul\":4992:4995   */\n      dup3\n        /* \"#utility.yul\":4985:5020   */\n      mstore\n        /* \"#utility.yul\":4975:5026   */\n      pop\n      pop\n      jump\t// out\n        /* \"#utility.yul\":5032:5254   */\n    tag_58:\n        /* \"#utility.yul\":5125:5129   */\n      0x00\n        /* \"#utility.yul\":5163:5165   */\n      0x20\n        /* \"#utility.yul\":5152:5161   */\n      dup3\n        /* \"#utility.yul\":5148:5166   */\n      add\n        /* \"#utility.yul\":5140:5166   */\n      swap1\n      pop\n        /* \"#utility.yul\":5176:5247   */\n      tag_256\n        /* \"#utility.yul\":5244:5245   */\n      0x00\n        /* \"#utility.yul\":5233:5242   */\n      dup4\n        /* \"#utility.yul\":5229:5246   */\n      add\n        /* \"#utility.yul\":5220:5226   */\n      dup5\n        /* \"#utility.yul\":5176:5247   */\n      tag_199\n      jump\t// in\n    tag_256:\n        /* \"#utility.yul\":5130:5254   */\n      swap3\n      swap2\n      pop\n      pop\n      jump\t// out\n        /* \"#utility.yul\":5260:5470   */\n    tag_30:\n        /* \"#utility.yul\":5347:5351   */\n      0x00\n        /* \"#utility.yul\":5385:5387   */\n      0x20\n        /* \"#utility.yul\":5374:5383   */\n      dup3\n        /* \"#utility.yul\":5370:5388   */\n      add\n        /* \"#utility.yul\":5362:5388   */\n      swap1\n      pop\n        /* \"#utility.yul\":5398:5463   */\n      tag_258\n        /* \"#utility.yul\":5460:5461   */\n      0x00\n        /* \"#utility.yul\":5449:5458   */\n      dup4\n        /* \"#utility.yul\":5445:5462   */\n      add\n        /* \"#utility.yul\":5436:5442   */\n      dup5\n        /* \"#utility.yul\":5398:5463   */\n      tag_203\n      jump\t// in\n    tag_258:\n        /* \"#utility.yul\":5352:5470   */\n      swap3\n      swap2\n      pop\n      pop\n      jump\t// out\n        /* \"#utility.yul\":5476:5789   */\n    tag_24:\n        /* \"#utility.yul\":5589:5593   */\n      0x00\n        /* \"#utility.yul\":5627:5629   */\n      0x20\n        /* \"#utility.yul\":5616:5625   */\n      dup3\n        /* \"#utility.yul\":5612:5630   */\n      add\n        /* \"#utility.yul\":5604:5630   */\n      swap1\n      pop\n        /* \"#utility.yul\":5676:5685   */\n      dup2\n        /* \"#utility.yul\":5670:5674   */\n      dup2\n        /* \"#utility.yul\":5666:5686   */\n      sub\n        /* \"#utility.yul\":5662:5663   */\n      0x00\n        /* \"#utility.yul\":5651:5660   */\n      dup4\n        /* \"#utility.yul\":5647:5664   */\n      add\n        /* \"#utility.yul\":5640:5687   */\n      mstore\n        /* \"#utility.yul\":5704:5782   */\n      tag_260\n        /* \"#utility.yul\":5777:5781   */\n      dup2\n        /* \"#utility.yul\":5768:5774   */\n      dup5\n        /* \"#utility.yul\":5704:5782   */\n      tag_207\n      jump\t// in\n    tag_260:\n        /* \"#utility.yul\":5696:5782   */\n      swap1\n      pop\n        /* \"#utility.yul\":5594:5789   */\n      swap3\n      swap2\n      pop\n      pop\n      jump\t// out\n        /* \"#utility.yul\":5795:6214   */\n    tag_163:\n        /* \"#utility.yul\":5961:5965   */\n      0x00\n        /* \"#utility.yul\":5999:6001   */\n      0x20\n        /* \"#utility.yul\":5988:5997   */\n      dup3\n        /* \"#utility.yul\":5984:6002   */\n      add\n        /* \"#utility.yul\":5976:6002   */\n      swap1\n      pop\n        /* \"#utility.yul\":6048:6057   */\n      dup2\n        /* \"#utility.yul\":6042:6046   */\n      dup2\n        /* \"#utility.yul\":6038:6058   */\n      sub\n        /* \"#utility.yul\":6034:6035   */\n      0x00\n        /* \"#utility.yul\":6023:6032   */\n      dup4\n        /* \"#utility.yul\":6019:6036   */\n      add\n        /* \"#utility.yul\":6012:6059   */\n      mstore\n        /* \"#utility.yul\":6076:6207   */\n      tag_262\n        /* \"#utility.yul\":6202:6206   */\n      dup2\n        /* \"#utility.yul\":6076:6207   */\n      tag_217\n      jump\t// in\n    tag_262:\n        /* \"#utility.yul\":6068:6207   */\n      swap1\n      pop\n        /* \"#utility.yul\":5966:6214   */\n      swap2\n      swap1\n      pop\n      jump\t// out\n        /* \"#utility.yul\":6220:6639   */\n    tag_143:\n        /* \"#utility.yul\":6386:6390   */\n      0x00\n        /* \"#utility.yul\":6424:6426   */\n      0x20\n        /* \"#utility.yul\":6413:6422   */\n      dup3\n        /* \"#utility.yul\":6409:6427   */\n      add\n        /* \"#utility.yul\":6401:6427   */\n      swap1\n      pop\n        /* \"#utility.yul\":6473:6482   */\n      dup2\n        /* \"#utility.yul\":6467:6471   */\n      dup2\n        /* \"#utility.yul\":6463:6483   */\n      sub\n        /* \"#utility.yul\":6459:6460   */\n      0x00\n        /* \"#utility.yul\":6448:6457   */\n      dup4\n        /* \"#utility.yul\":6444:6461   */\n      add\n        /* \"#utility.yul\":6437:6484   */\n      mstore\n        /* \"#utility.yul\":6501:6632   */\n      tag_264\n        /* \"#utility.yul\":6627:6631   */\n      dup2\n        /* \"#utility.yul\":6501:6632   */\n      tag_222\n      jump\t// in\n    tag_264:\n        /* \"#utility.yul\":6493:6632   */\n      swap1\n      pop\n        /* \"#utility.yul\":6391:6639   */\n      swap2\n      swap1\n      pop\n      jump\t// out\n        /* \"#utility.yul\":6645:7064   */\n    tag_155:\n        /* \"#utility.yul\":6811:6815   */\n      0x00\n        /* \"#utility.yul\":6849:6851   */\n      0x20\n        /* \"#utility.yul\":6838:6847   */\n      dup3\n        /* \"#utility.yul\":6834:6852   */\n      add\n        /* \"#utility.yul\":6826:6852   */\n      swap1\n      pop\n        /* \"#utility.yul\":6898:6907   */\n      dup2\n        /* \"#utility.yul\":6892:6896   */\n      dup2\n        /* \"#utility.yul\":6888:6908   */\n      sub\n        /* \"#utility.yul\":6884:6885   */\n      0x00\n        /* \"#utility.yul\":6873:6882   */\n      dup4\n        /* \"#utility.yul\":6869:6886   */\n      add\n        /* \"#utility.yul\":6862:6909   */\n      mstore\n        /* \"#utility.yul\":6926:7057   */\n      tag_266\n        /* \"#utility.yul\":7052:7056   */\n      dup2\n        /* \"#utility.yul\":6926:7057   */\n      tag_227\n      jump\t// in\n    tag_266:\n        /* \"#utility.yul\":6918:7057   */\n      swap1\n      pop\n        /* \"#utility.yul\":6816:7064   */\n      swap2\n      swap1\n      pop\n      jump\t// out\n        /* \"#utility.yul\":7070:7489   */\n    tag_115:\n        /* \"#utility.yul\":7236:7240   */\n      0x00\n        /* \"#utility.yul\":7274:7276   */\n      0x20\n        /* \"#utility.yul\":7263:7272   */\n      dup3\n        /* \"#utility.yul\":7259:7277   */\n      add\n        /* \"#utility.yul\":7251:7277   */\n      swap1\n      pop\n        /* \"#utility.yul\":7323:7332   */\n      dup2\n        /* \"#utility.yul\":7317:7321   */\n      dup2\n        /* \"#utility.yul\":7313:7333   */\n      sub\n        /* \"#utility.yul\":7309:7310   */\n      0x00\n        /* \"#utility.yul\":7298:7307   */\n      dup4\n        /* \"#utility.yul\":7294:7311   */\n      add\n        /* \"#utility.yul\":7287:7334   */\n      mstore\n        /* \"#utility.yul\":7351:7482   */\n      tag_268\n        /* \"#utility.yul\":7477:7481   */\n      dup2\n        /* \"#utility.yul\":7351:7482   */\n      tag_232\n      jump\t// in\n    tag_268:\n        /* \"#utility.yul\":7343:7482   */\n      swap1\n      pop\n        /* \"#utility.yul\":7241:7489   */\n      swap2\n      swap1\n      pop\n      jump\t// out\n        /* \"#utility.yul\":7495:7914   */\n    tag_160:\n        /* \"#utility.yul\":7661:7665   */\n      0x00\n        /* \"#utility.yul\":7699:7701   */\n      0x20\n        /* \"#utility.yul\":7688:7697   */\n      dup3\n        /* \"#utility.yul\":7684:7702   */\n      add\n        /* \"#utility.yul\":7676:7702   */\n      swap1\n      pop\n        /* \"#utility.yul\":7748:7757   */\n      dup2\n        /* \"#utility.yul\":7742:7746   */\n      dup2\n        /* \"#utility.yul\":7738:7758   */\n      sub\n        /* \"#utility.yul\":7734:7735   */\n      0x00\n        /* \"#utility.yul\":7723:7732   */\n      dup4\n        /* \"#utility.yul\":7719:7736   */\n      add\n        /* \"#utility.yul\":7712:7759   */\n      mstore\n        /* \"#utility.yul\":7776:7907   */\n      tag_270\n        /* \"#utility.yul\":7902:7906   */\n      dup2\n        /* \"#utility.yul\":7776:7907   */\n      tag_237\n      jump\t// in\n    tag_270:\n        /* \"#utility.yul\":7768:7907   */\n      swap1\n      pop\n        /* \"#utility.yul\":7666:7914   */\n      swap2\n      swap1\n      pop\n      jump\t// out\n        /* \"#utility.yul\":7920:8339   */\n    tag_152:\n        /* \"#utility.yul\":8086:8090   */\n      0x00\n        /* \"#utility.yul\":8124:8126   */\n      0x20\n        /* \"#utility.yul\":8113:8122   */\n      dup3\n        /* \"#utility.yul\":8109:8127   */\n      add\n        /* \"#utility.yul\":8101:8127   */\n      swap1\n      pop\n        /* \"#utility.yul\":8173:8182   */\n      dup2\n        /* \"#utility.yul\":8167:8171   */\n      dup2\n        /* \"#utility.yul\":8163:8183   */\n      sub\n        /* \"#utility.yul\":8159:8160   */\n      0x00\n        /* \"#utility.yul\":8148:8157   */\n      dup4\n        /* \"#utility.yul\":8144:8161   */\n      add\n        /* \"#utility.yul\":8137:8184   */\n      mstore\n        /* \"#utility.yul\":8201:8332   */\n      tag_272\n        /* \"#utility.yul\":8327:8331   */\n      dup2\n        /* \"#utility.yul\":8201:8332   */\n      tag_242\n      jump\t// in\n    tag_272:\n        /* \"#utility.yul\":8193:8332   */\n      swap1\n      pop\n        /* \"#utility.yul\":8091:8339   */\n      swap2\n      swap1\n      pop\n      jump\t// out\n        /* \"#utility.yul\":8345:8567   */\n    tag_34:\n        /* \"#utility.yul\":8438:8442   */\n      0x00\n        /* \"#utility.yul\":8476:8478   */\n      0x20\n        /* \"#utility.yul\":8465:8474   */\n      dup3\n        /* \"#utility.yul\":8461:8479   */\n      add\n        /* \"#utility.yul\":8453:8479   */\n      swap1\n      pop\n        /* \"#utility.yul\":8489:8560   */\n      tag_274\n        /* \"#utility.yul\":8557:8558   */\n      0x00\n        /* \"#utility.yul\":8546:8555   */\n      dup4\n        /* \"#utility.yul\":8542:8559   */\n      add\n        /* \"#utility.yul\":8533:8539   */\n      dup5\n        /* \"#utility.yul\":8489:8560   */\n      tag_247\n      jump\t// in\n    tag_274:\n        /* \"#utility.yul\":8443:8567   */\n      swap3\n      swap2\n      pop\n      pop\n      jump\t// out\n        /* \"#utility.yul\":8573:8787   */\n    tag_43:\n        /* \"#utility.yul\":8662:8666   */\n      0x00\n        /* \"#utility.yul\":8700:8702   */\n      0x20\n        /* \"#utility.yul\":8689:8698   */\n      dup3\n        /* \"#utility.yul\":8685:8703   */\n      add\n        /* \"#utility.yul\":8677:8703   */\n      swap1\n      pop\n        /* \"#utility.yul\":8713:8780   */\n      tag_276\n        /* \"#utility.yul\":8777:8778   */\n      0x00\n        /* \"#utility.yul\":8766:8775   */\n      dup4\n        /* \"#utility.yul\":8762:8779   */\n      add\n        /* \"#utility.yul\":8753:8759   */\n      dup5\n        /* \"#utility.yul\":8713:8780   */\n      tag_251\n      jump\t// in\n    tag_276:\n        /* \"#utility.yul\":8667:8787   */\n      swap3\n      swap2\n      pop\n      pop\n      jump\t// out\n        /* \"#utility.yul\":8793:8892   */\n    tag_210:\n        /* \"#utility.yul\":8845:8851   */\n      0x00\n        /* \"#utility.yul\":8879:8884   */\n      dup2\n        /* \"#utility.yul\":8873:8885   */\n      mload\n        /* \"#utility.yul\":8863:8885   */\n      swap1\n      pop\n        /* \"#utility.yul\":8852:8892   */\n      swap2\n      swap1\n      pop\n      jump\t// out\n        /* \"#utility.yul\":8898:9067   */\n    tag_212:\n        /* \"#utility.yul\":8982:8993   */\n      0x00\n        /* \"#utility.yul\":9016:9022   */\n      dup3\n        /* \"#utility.yul\":9011:9014   */\n      dup3\n        /* \"#utility.yul\":9004:9023   */\n      mstore\n        /* \"#utility.yul\":9056:9060   */\n      0x20\n        /* \"#utility.yul\":9051:9054   */\n      dup3\n        /* \"#utility.yul\":9047:9061   */\n      add\n        /* \"#utility.yul\":9032:9061   */\n      swap1\n      pop\n        /* \"#utility.yul\":8994:9067   */\n      swap3\n      swap2\n      pop\n      pop\n      jump\t// out\n        /* \"#utility.yul\":9073:9378   */\n    tag_147:\n        /* \"#utility.yul\":9113:9116   */\n      0x00\n        /* \"#utility.yul\":9132:9152   */\n      tag_280\n        /* \"#utility.yul\":9150:9151   */\n      dup3\n        /* \"#utility.yul\":9132:9152   */\n      tag_250\n      jump\t// in\n    tag_280:\n        /* \"#utility.yul\":9127:9152   */\n      swap2\n      pop\n        /* \"#utility.yul\":9166:9186   */\n      tag_281\n        /* \"#utility.yul\":9184:9185   */\n      dup4\n        /* \"#utility.yul\":9166:9186   */\n      tag_250\n      jump\t// in\n    tag_281:\n        /* \"#utility.yul\":9161:9186   */\n      swap3\n      pop\n        /* \"#utility.yul\":9320:9321   */\n      dup3\n        /* \"#utility.yul\":9252:9318   */\n      0xffffffffffffffffffffffffffffffffffffffffffffffffffffffffffffffff\n        /* \"#utility.yul\":9248:9322   */\n      sub\n        /* \"#utility.yul\":9245:9246   */\n      dup3\n        /* \"#utility.yul\":9242:9323   */\n      gt\n        /* \"#utility.yul\":9239:9241   */\n      iszero\n      tag_282\n      jumpi\n        /* \"#utility.yul\":9326:9344   */\n      tag_283\n      tag_284\n      jump\t// in\n    tag_283:\n        /* \"#utility.yul\":9239:9241   */\n    tag_282:\n        /* \"#utility.yul\":9370:9371   */\n      dup3\n        /* \"#utility.yul\":9367:9368   */\n      dup3\n        /* \"#utility.yul\":9363:9372   */\n      add\n        /* \"#utility.yul\":9356:9372   */\n      swap1\n      pop\n        /* \"#utility.yul\":9117:9378   */\n      swap3\n      swap2\n      pop\n      pop\n      jump\t// out\n        /* \"#utility.yul\":9384:9480   */\n    tag_202:\n        /* \"#utility.yul\":9421:9428   */\n      0x00\n        /* \"#utility.yul\":9450:9474   */\n      tag_286\n        /* \"#utility.yul\":9468:9473   */\n      dup3\n        /* \"#utility.yul\":9450:9474   */\n      tag_287\n      jump\t// in\n    tag_286:\n        /* \"#utility.yul\":9439:9474   */\n      swap1\n      pop\n        /* \"#utility.yul\":9429:9480   */\n      swap2\n      swap1\n      pop\n      jump\t// out\n        /* \"#utility.yul\":9486:9576   */\n    tag_206:\n        /* \"#utility.yul\":9520:9527   */\n      0x00\n        /* \"#utility.yul\":9563:9568   */\n      dup2\n        /* \"#utility.yul\":9556:9569   */\n      iszero\n        /* \"#utility.yul\":9549:9570   */\n      iszero\n        /* \"#utility.yul\":9538:9570   */\n      swap1\n      pop\n        /* \"#utility.yul\":9528:9576   */\n      swap2\n      swap1\n      pop\n      jump\t// out\n        /* \"#utility.yul\":9582:9708   */\n    tag_287:\n        /* \"#utility.yul\":9619:9626   */\n      0x00\n        /* \"#utility.yul\":9659:9701   */\n      0xffffffffffffffffffffffffffffffffffffffff\n        /* \"#utility.yul\":9652:9657   */\n      dup3\n        /* \"#utility.yul\":9648:9702   */\n      and\n        /* \"#utility.yul\":9637:9702   */\n      swap1\n      pop\n        /* \"#utility.yul\":9627:9708   */\n      swap2\n      swap1\n      pop\n      jump\t// out\n        /* \"#utility.yul\":9714:9791   */\n    tag_250:\n        /* \"#utility.yul\":9751:9758   */\n      0x00\n        /* \"#utility.yul\":9780:9785   */\n      dup2\n        /* \"#utility.yul\":9769:9785   */\n      swap1\n      pop\n        /* \"#utility.yul\":9759:9791   */\n      swap2\n      swap1\n      pop\n      jump\t// out\n        /* \"#utility.yul\":9797:9883   */\n    tag_254:\n        /* \"#utility.yul\":9832:9839   */\n      0x00\n        /* \"#utility.yul\":9872:9876   */\n      0xff\n        /* \"#utility.yul\":9865:9870   */\n      dup3\n        /* \"#utility.yul\":9861:9877   */\n      and\n        /* \"#utility.yul\":9850:9877   */\n      swap1\n      pop\n        /* \"#utility.yul\":9840:9883   */\n      swap2\n      swap1\n      pop\n      jump\t// out\n        /* \"#utility.yul\":9889:10196   */\n    tag_214:\n        /* \"#utility.yul\":9957:9958   */\n      0x00\n        /* \"#utility.yul\":9967:10080   */\n    tag_293:\n        /* \"#utility.yul\":9981:9987   */\n      dup4\n        /* \"#utility.yul\":9978:9979   */\n      dup2\n        /* \"#utility.yul\":9975:9988   */\n      lt\n        /* \"#utility.yul\":9967:10080   */\n      iszero\n      tag_295\n      jumpi\n        /* \"#utility.yul\":10066:10067   */\n      dup1\n        /* \"#utility.yul\":10061:10064   */\n      dup3\n        /* \"#utility.yul\":10057:10068   */\n      add\n        /* \"#utility.yul\":10051:10069   */\n      mload\n        /* \"#utility.yul\":10047:10048   */\n      dup2\n        /* \"#utility.yul\":10042:10045   */\n      dup5\n        /* \"#utility.yul\":10038:10049   */\n      add\n        /* \"#utility.yul\":10031:10070   */\n      mstore\n        /* \"#utility.yul\":10003:10005   */\n      0x20\n        /* \"#utility.yul\":10000:10001   */\n      dup2\n        /* \"#utility.yul\":9996:10006   */\n      add\n        /* \"#utility.yul\":9991:10006   */\n      swap1\n      pop\n        /* \"#utility.yul\":9967:10080   */\n      jump(tag_293)\n    tag_295:\n        /* \"#utility.yul\":10098:10104   */\n      dup4\n        /* \"#utility.yul\":10095:10096   */\n      dup2\n        /* \"#utility.yul\":10092:10105   */\n      gt\n        /* \"#utility.yul\":10089:10091   */\n      iszero\n      tag_296\n      jumpi\n        /* \"#utility.yul\":10178:10179   */\n      0x00\n        /* \"#utility.yul\":10169:10175   */\n      dup5\n        /* \"#utility.yul\":10164:10167   */\n      dup5\n        /* \"#utility.yul\":10160:10176   */\n      add\n        /* \"#utility.yul\":10153:10180   */\n      mstore\n        /* \"#utility.yul\":10089:10091   */\n    tag_296:\n        /* \"#utility.yul\":9938:10196   */\n      pop\n      pop\n      pop\n      pop\n      jump\t// out\n        /* \"#utility.yul\":10202:10522   */\n    tag_84:\n        /* \"#utility.yul\":10246:10252   */\n      0x00\n        /* \"#utility.yul\":10283:10284   */\n      0x02\n        /* \"#utility.yul\":10277:10281   */\n      dup3\n        /* \"#utility.yul\":10273:10285   */\n      div\n        /* \"#utility.yul\":10263:10285   */\n      swap1\n      pop\n        /* \"#utility.yul\":10330:10331   */\n      0x01\n        /* \"#utility.yul\":10324:10328   */\n      dup3\n        /* \"#utility.yul\":10320:10332   */\n      and\n        /* \"#utility.yul\":10351:10369   */\n      dup1\n        /* \"#utility.yul\":10341:10343   */\n      tag_298\n      jumpi\n        /* \"#utility.yul\":10407:10411   */\n      0x7f\n        /* \"#utility.yul\":10399:10405   */\n      dup3\n        /* \"#utility.yul\":10395:10412   */\n      and\n        /* \"#utility.yul\":10385:10412   */\n      swap2\n      pop\n        /* \"#utility.yul\":10341:10343   */\n    tag_298:\n        /* \"#utility.yul\":10469:10471   */\n      0x20\n        /* \"#utility.yul\":10461:10467   */\n      dup3\n        /* \"#utility.yul\":10458:10472   */\n      lt\n        /* \"#utility.yul\":10438:10456   */\n      dup2\n        /* \"#utility.yul\":10435:10473   */\n      eq\n        /* \"#utility.yul\":10432:10434   */\n      iszero\n      tag_299\n      jumpi\n        /* \"#utility.yul\":10488:10506   */\n      tag_300\n      tag_301\n      jump\t// in\n    tag_300:\n        /* \"#utility.yul\":10432:10434   */\n    tag_299:\n        /* \"#utility.yul\":10253:10522   */\n      pop\n      swap2\n      swap1\n      pop\n      jump\t// out\n        /* \"#utility.yul\":10528:10708   */\n    tag_284:\n        /* \"#utility.yul\":10576:10653   */\n      0x4e487b7100000000000000000000000000000000000000000000000000000000\n        /* \"#utility.yul\":10573:10574   */\n      0x00\n        /* \"#utility.yul\":10566:10654   */\n      mstore\n        /* \"#utility.yul\":10673:10677   */\n      0x11\n        /* \"#utility.yul\":10670:10671   */\n      0x04\n        /* \"#utility.yul\":10663:10678   */\n      mstore\n        /* \"#utility.yul\":10697:10701   */\n      0x24\n        /* \"#utility.yul\":10694:10695   */\n      0x00\n        /* \"#utility.yul\":10687:10702   */\n      revert\n        /* \"#utility.yul\":10714:10894   */\n    tag_301:\n        /* \"#utility.yul\":10762:10839   */\n      0x4e487b7100000000000000000000000000000000000000000000000000000000\n        /* \"#utility.yul\":10759:10760   */\n      0x00\n        /* \"#utility.yul\":10752:10840   */\n      mstore\n        /* \"#utility.yul\":10859:10863   */\n      0x22\n        /* \"#utility.yul\":10856:10857   */\n      0x04\n        /* \"#utility.yul\":10849:10864   */\n      mstore\n        /* \"#utility.yul\":10883:10887   */\n      0x24\n        /* \"#utility.yul\":10880:10881   */\n      0x00\n        /* \"#utility.yul\":10873:10888   */\n      revert\n        /* \"#utility.yul\":10900:11002   */\n    tag_216:\n        /* \"#utility.yul\":10941:10947   */\n      0x00\n        /* \"#utility.yul\":10992:10994   */\n      0x1f\n        /* \"#utility.yul\":10988:10995   */\n      not\n        /* \"#utility.yul\":10983:10985   */\n      0x1f\n        /* \"#utility.yul\":10976:10981   */\n      dup4\n        /* \"#utility.yul\":10972:10986   */\n      add\n        /* \"#utility.yul\":10968:10996   */\n      and\n        /* \"#utility.yul\":10958:10996   */\n      swap1\n      pop\n        /* \"#utility.yul\":10948:11002   */\n      swap2\n      swap1\n      pop\n      jump\t// out\n        /* \"#utility.yul\":11008:11230   */\n    tag_221:\n        /* \"#utility.yul\":11148:11182   */\n      0x45524332303a207472616e7366657220746f20746865207a65726f2061646472\n        /* \"#utility.yul\":11144:11145   */\n      0x00\n        /* \"#utility.yul\":11136:11142   */\n      dup3\n        /* \"#utility.yul\":11132:11146   */\n      add\n        /* \"#utility.yul\":11125:11183   */\n      mstore\n        /* \"#utility.yul\":11217:11222   */\n      0x6573730000000000000000000000000000000000000000000000000000000000\n        /* \"#utility.yul\":11212:11214   */\n      0x20\n        /* \"#utility.yul\":11204:11210   */\n      dup3\n        /* \"#utility.yul\":11200:11215   */\n      add\n        /* \"#utility.yul\":11193:11223   */\n      mstore\n        /* \"#utility.yul\":11114:11230   */\n      pop\n      jump\t// out\n        /* \"#utility.yul\":11236:11461   */\n    tag_226:\n        /* \"#utility.yul\":11376:11410   */\n      0x4f776e61626c653a206e6577206f776e657220697320746865207a65726f2061\n        /* \"#utility.yul\":11372:11373   */\n      0x00\n        /* \"#utility.yul\":11364:11370   */\n      dup3\n        /* \"#utility.yul\":11360:11374   */\n      add\n        /* \"#utility.yul\":11353:11411   */\n      mstore\n        /* \"#utility.yul\":11445:11453   */\n      0x6464726573730000000000000000000000000000000000000000000000000000\n        /* \"#utility.yul\":11440:11442   */\n      0x20\n        /* \"#utility.yul\":11432:11438   */\n      dup3\n        /* \"#utility.yul\":11428:11443   */\n      add\n        /* \"#utility.yul\":11421:11454   */\n      mstore\n        /* \"#utility.yul\":11342:11461   */\n      pop\n      jump\t// out\n        /* \"#utility.yul\":11467:11688   */\n    tag_231:\n        /* \"#utility.yul\":11607:11641   */\n      0x45524332303a20617070726f766520746f20746865207a65726f206164647265\n        /* \"#utility.yul\":11603:11604   */\n      0x00\n        /* \"#utility.yul\":11595:11601   */\n      dup3\n        /* \"#utility.yul\":11591:11605   */\n      add\n        /* \"#utility.yul\":11584:11642   */\n      mstore\n        /* \"#utility.yul\":11676:11680   */\n      0x7373000000000000000000000000000000000000000000000000000000000000\n        /* \"#utility.yul\":11671:11673   */\n      0x20\n        /* \"#utility.yul\":11663:11669   */\n      dup3\n        /* \"#utility.yul\":11659:11674   */\n      add\n        /* \"#utility.yul\":11652:11681   */\n      mstore\n        /* \"#utility.yul\":11573:11688   */\n      pop\n      jump\t// out\n        /* \"#utility.yul\":11694:11876   */\n    tag_236:\n        /* \"#utility.yul\":11834:11868   */\n      0x4f776e61626c653a2063616c6c6572206973206e6f7420746865206f776e6572\n        /* \"#utility.yul\":11830:11831   */\n      0x00\n        /* \"#utility.yul\":11822:11828   */\n      dup3\n        /* \"#utility.yul\":11818:11832   */\n      add\n        /* \"#utility.yul\":11811:11869   */\n      mstore\n        /* \"#utility.yul\":11800:11876   */\n      pop\n      jump\t// out\n        /* \"#utility.yul\":11882:12106   */\n    tag_241:\n        /* \"#utility.yul\":12022:12056   */\n      0x45524332303a207472616e736665722066726f6d20746865207a65726f206164\n        /* \"#utility.yul\":12018:12019   */\n      0x00\n        /* \"#utility.yul\":12010:12016   */\n      dup3\n        /* \"#utility.yul\":12006:12020   */\n      add\n        /* \"#utility.yul\":11999:12057   */\n      mstore\n        /* \"#utility.yul\":12091:12098   */\n      0x6472657373000000000000000000000000000000000000000000000000000000\n        /* \"#utility.yul\":12086:12088   */\n      0x20\n        /* \"#utility.yul\":12078:12084   */\n      dup3\n        /* \"#utility.yul\":12074:12089   */\n      add\n        /* \"#utility.yul\":12067:12099   */\n      mstore\n        /* \"#utility.yul\":11988:12106   */\n      pop\n      jump\t// out\n        /* \"#utility.yul\":12112:12335   */\n    tag_246:\n        /* \"#utility.yul\":12252:12286   */\n      0x45524332303a20617070726f76652066726f6d20746865207a65726f20616464\n        /* \"#utility.yul\":12248:12249   */\n      0x00\n        /* \"#utility.yul\":12240:12246   */\n      dup3\n        /* \"#utility.yul\":12236:12250   */\n      add\n        /* \"#utility.yul\":12229:12287   */\n      mstore\n        /* \"#utility.yul\":12321:12327   */\n      0x7265737300000000000000000000000000000000000000000000000000000000\n        /* \"#utility.yul\":12316:12318   */\n      0x20\n        /* \"#utility.yul\":12308:12314   */\n      dup3\n        /* \"#utility.yul\":12304:12319   */\n      add\n        /* \"#utility.yul\":12297:12328   */\n      mstore\n        /* \"#utility.yul\":12218:12335   */\n      pop\n      jump\t// out\n        /* \"#utility.yul\":12341:12463   */\n    tag_178:\n        /* \"#utility.yul\":12414:12438   */\n      tag_312\n        /* \"#utility.yul\":12432:12437   */\n      dup2\n        /* \"#utility.yul\":12414:12438   */\n      tag_202\n      jump\t// in\n    tag_312:\n        /* \"#utility.yul\":12407:12412   */\n      dup2\n        /* \"#utility.yul\":12404:12439   */\n      eq\n        /* \"#utility.yul\":12394:12396   */\n      tag_313\n      jumpi\n        /* \"#utility.yul\":12453:12454   */\n      0x00\n        /* \"#utility.yul\":12450:12451   */\n      dup1\n        /* \"#utility.yul\":12443:12455   */\n      revert\n        /* \"#utility.yul\":12394:12396   */\n    tag_313:\n        /* \"#utility.yul\":12384:12463   */\n      pop\n      jump\t// out\n        /* \"#utility.yul\":12469:12591   */\n    tag_182:\n        /* \"#utility.yul\":12542:12566   */\n      tag_315\n        /* \"#utility.yul\":12560:12565   */\n      dup2\n        /* \"#utility.yul\":12542:12566   */\n      tag_250\n      jump\t// in\n    tag_315:\n        /* \"#utility.yul\":12535:12540   */\n      dup2\n        /* \"#utility.yul\":12532:12567   */\n      eq\n        /* \"#utility.yul\":12522:12524   */\n      tag_316\n      jumpi\n        /* \"#utility.yul\":12581:12582   */\n      0x00\n        /* \"#utility.yul\":12578:12579   */\n      dup1\n        /* \"#utility.yul\":12571:12583   */\n      revert\n        /* \"#utility.yul\":12522:12524   */\n    tag_316:\n        /* \"#utility.yul\":12512:12591   */\n      pop\n      jump\t// out\n    stop\n    data_4107e8a8b9e94bf8ff83080ddec1c0bffe897ebc2241b89d44f66b3d274088b6 45524332303a207472616e7366657220616d6f756e7420657863656564732062616c616e6365\n    data_974d1b4421da69cc60b481194f0dad36a5bb4e23da810da7a7fb30cdba178330 45524332303a207472616e7366657220616d6f756e74206578636565647320616c6c6f77616e6365\n    data_f8b476f7d28209d77d4a4ac1fe36b9f8259aa1bb6bddfa6e89de7e51615cf8a8 45524332303a2064656372656173656420616c6c6f77616e63652062656c6f77207a65726f\n\n    auxdata: 0xa26469706673582212204cf8e9ea22a9bcddafb602ba21260b55471f51334baf6b99eab31482390bd03364736f6c63430008040033\n}\n",
				"bytecode": {
					"linkReferences": {},
					"object": "6080604052604051620020923803806200209283398181016040528101906200002991906200054e565b620000496200003d6200013b60201b60201c565b6200014360201b60201c565b836003908051906020019062000061929190620003fe565b5082600490805190602001906200007a929190620003fe565b5081600560006101000a81548160ff021916908360ff160217905550620000b7620000aa6200020760201b60201c565b826200023060201b60201c565b3073ffffffffffffffffffffffffffffffffffffffff16620000de6200020760201b60201c565b73ffffffffffffffffffffffffffffffffffffffff167f56358b41df5fa59f5639228f0930994cbdde383c8a8fd74e06c04e1deebe3562600060016040516200012992919062000635565b60405180910390a35050505062000991565b600033905090565b60008060009054906101000a900473ffffffffffffffffffffffffffffffffffffffff169050816000806101000a81548173ffffffffffffffffffffffffffffffffffffffff021916908373ffffffffffffffffffffffffffffffffffffffff1602179055508173ffffffffffffffffffffffffffffffffffffffff168173ffffffffffffffffffffffffffffffffffffffff167f8be0079c531659141344cd1fd0a4f28419497f9722a3daafe3b4186f6b6457e060405160405180910390a35050565b60008060009054906101000a900473ffffffffffffffffffffffffffffffffffffffff16905090565b600073ffffffffffffffffffffffffffffffffffffffff168273ffffffffffffffffffffffffffffffffffffffff161415620002a3576040517f08c379a00000000000000000000000000000000000000000000000000000000081526004016200029a9062000662565b60405180910390fd5b620002b760008383620003e160201b60201c565b620002d381600654620003e660201b6200097c1790919060201c565b6006819055506200033281600160008573ffffffffffffffffffffffffffffffffffffffff1673ffffffffffffffffffffffffffffffffffffffff16815260200190815260200160002054620003e660201b6200097c1790919060201c565b600160008473ffffffffffffffffffffffffffffffffffffffff1673ffffffffffffffffffffffffffffffffffffffff168152602001908152602001600020819055508173ffffffffffffffffffffffffffffffffffffffff16600073ffffffffffffffffffffffffffffffffffffffff167fddf252ad1be2c89b69c2b068fc378daa952ba7f163c4a11628f55a4df523b3ef83604051620003d5919062000684565b60405180910390a35050565b505050565b60008183620003f6919062000711565b905092915050565b8280546200040c90620007e4565b90600052602060002090601f0160209004810192826200043057600085556200047c565b82601f106200044b57805160ff19168380011785556200047c565b828001600101855582156200047c579182015b828111156200047b5782518255916020019190600101906200045e565b5b5090506200048b91906200048f565b5090565b5b80821115620004aa57600081600090555060010162000490565b5090565b6000620004c5620004bf84620006ca565b620006a1565b905082815260208101848484011115620004de57600080fd5b620004eb848285620007ae565b509392505050565b600082601f8301126200050557600080fd5b815162000517848260208601620004ae565b91505092915050565b60008151905062000531816200095d565b92915050565b600081519050620005488162000977565b92915050565b600080600080608085870312156200056557600080fd5b600085015167ffffffffffffffff8111156200058057600080fd5b6200058e87828801620004f3565b945050602085015167ffffffffffffffff811115620005ac57600080fd5b620005ba87828801620004f3565b9350506040620005cd8782880162000537565b9250506060620005e08782880162000520565b91505092959194509250565b620005f7816200079a565b82525050565b60006200060c601f8362000700565b915062000619826200091d565b602082019050919050565b6200062f8162000783565b82525050565b60006040820190506200064c6000830185620005ec565b6200065b602083018462000624565b9392505050565b600060208201905081810360008301526200067d81620005fd565b9050919050565b60006020820190506200069b600083018462000624565b92915050565b6000620006ad620006c0565b9050620006bb82826200081a565b919050565b6000604051905090565b600067ffffffffffffffff821115620006e857620006e7620008dd565b5b620006f3826200090c565b9050602081019050919050565b600082825260208201905092915050565b60006200071e8262000783565b91506200072b8362000783565b9250827fffffffffffffffffffffffffffffffffffffffffffffffffffffffffffffffff0382111562000763576200076262000850565b5b828201905092915050565b60008190506200077e8262000946565b919050565b6000819050919050565b600060ff82169050919050565b6000620007a7826200076e565b9050919050565b60005b83811015620007ce578082015181840152602081019050620007b1565b83811115620007de576000848401525b50505050565b60006002820490506001821680620007fd57607f821691505b60208210811415620008145762000813620008ae565b5b50919050565b62000825826200090c565b810181811067ffffffffffffffff82111715620008475762000846620008dd565b5b80604052505050565b7f4e487b7100000000000000000000000000000000000000000000000000000000600052601160045260246000fd5b7f4e487b7100000000000000000000000000000000000000000000000000000000600052602160045260246000fd5b7f4e487b7100000000000000000000000000000000000000000000000000000000600052602260045260246000fd5b7f4e487b7100000000000000000000000000000000000000000000000000000000600052604160045260246000fd5b6000601f19601f8301169050919050565b7f45524332303a206d696e7420746f20746865207a65726f206164647265737300600082015250565b600881106200095a57620009596200087f565b5b50565b620009688162000783565b81146200097457600080fd5b50565b62000982816200078d565b81146200098e57600080fd5b50565b6116f180620009a16000396000f3fe608060405234801561001057600080fd5b50600436106100f55760003560e01c8063715018a611610097578063a9059cbb11610066578063a9059cbb1461028a578063dd62ed3e146102ba578063f2fde38b146102ea578063ffa1ad7414610306576100f5565b8063715018a6146102145780638da5cb5b1461021e57806395d89b411461023c578063a457c2d71461025a576100f5565b806323b872dd116100d357806323b872dd14610166578063313ce5671461019657806339509351146101b457806370a08231146101e4576100f5565b806306fdde03146100fa578063095ea7b31461011857806318160ddd14610148575b600080fd5b610102610324565b60405161010f91906111b3565b60405180910390f35b610132600480360381019061012d9190610ffa565b6103b6565b60405161013f9190611198565b60405180910390f35b6101506103d4565b60405161015d9190611295565b60405180910390f35b610180600480360381019061017b9190610fab565b6103de565b60405161018d9190611198565b60405180910390f35b61019e6104b7565b6040516101ab91906112b0565b60405180910390f35b6101ce60048036038101906101c99190610ffa565b6104ce565b6040516101db9190611198565b60405180910390f35b6101fe60048036038101906101f99190610f46565b610581565b60405161020b9190611295565b60405180910390f35b61021c6105ca565b005b610226610652565b604051610233919061117d565b60405180910390f35b61024461067b565b60405161025191906111b3565b60405180910390f35b610274600480360381019061026f9190610ffa565b61070d565b6040516102819190611198565b60405180910390f35b6102a4600480360381019061029f9190610ffa565b6107da565b6040516102b19190611198565b60405180910390f35b6102d460048036038101906102cf9190610f6f565b6107f8565b6040516102e19190611295565b60405180910390f35b61030460048036038101906102ff9190610f46565b61087f565b005b61030e610977565b60405161031b9190611295565b60405180910390f35b606060038054610333906113c5565b80601f016020809104026020016040519081016040528092919081815260200182805461035f906113c5565b80156103ac5780601f10610381576101008083540402835291602001916103ac565b820191906000526020600020905b81548152906001019060200180831161038f57829003601f168201915b5050505050905090565b60006103ca6103c3610992565b848461099a565b6001905092915050565b6000600654905090565b60006103eb848484610b65565b6104ac846103f7610992565b6104a78560405180606001604052806028815260200161166f60289139600260008b73ffffffffffffffffffffffffffffffffffffffff1673ffffffffffffffffffffffffffffffffffffffff168152602001908152602001600020600061045d610992565b73ffffffffffffffffffffffffffffffffffffffff1673ffffffffffffffffffffffffffffffffffffffff16815260200190815260200160002054610dfe9092919063ffffffff16565b61099a565b600190509392505050565b6000600560009054906101000a900460ff16905090565b60006105776104db610992565b8461057285600260006104ec610992565b73ffffffffffffffffffffffffffffffffffffffff1673ffffffffffffffffffffffffffffffffffffffff16815260200190815260200160002060008973ffffffffffffffffffffffffffffffffffffffff1673ffffffffffffffffffffffffffffffffffffffff1681526020019081526020016000205461097c90919063ffffffff16565b61099a565b6001905092915050565b6000600160008373ffffffffffffffffffffffffffffffffffffffff1673ffffffffffffffffffffffffffffffffffffffff168152602001908152602001600020549050919050565b6105d2610992565b73ffffffffffffffffffffffffffffffffffffffff166105f0610652565b73ffffffffffffffffffffffffffffffffffffffff1614610646576040517f08c379a000000000000000000000000000000000000000000000000000000000815260040161063d90611235565b60405180910390fd5b6106506000610e53565b565b60008060009054906101000a900473ffffffffffffffffffffffffffffffffffffffff16905090565b60606004805461068a906113c5565b80601f01602080910402602001604051908101604052809291908181526020018280546106b6906113c5565b80156107035780601f106106d857610100808354040283529160200191610703565b820191906000526020600020905b8154815290600101906020018083116106e657829003601f168201915b5050505050905090565b60006107d061071a610992565b846107cb856040518060600160405280602581526020016116976025913960026000610744610992565b73ffffffffffffffffffffffffffffffffffffffff1673ffffffffffffffffffffffffffffffffffffffff16815260200190815260200160002060008a73ffffffffffffffffffffffffffffffffffffffff1673ffffffffffffffffffffffffffffffffffffffff16815260200190815260200160002054610dfe9092919063ffffffff16565b61099a565b6001905092915050565b60006107ee6107e7610992565b8484610b65565b6001905092915050565b6000600260008473ffffffffffffffffffffffffffffffffffffffff1673ffffffffffffffffffffffffffffffffffffffff16815260200190815260200160002060008373ffffffffffffffffffffffffffffffffffffffff1673ffffffffffffffffffffffffffffffffffffffff16815260200190815260200160002054905092915050565b610887610992565b73ffffffffffffffffffffffffffffffffffffffff166108a5610652565b73ffffffffffffffffffffffffffffffffffffffff16146108fb576040517f08c379a00000000000000000000000000000000000000000000000000000000081526004016108f290611235565b60405180910390fd5b600073ffffffffffffffffffffffffffffffffffffffff168173ffffffffffffffffffffffffffffffffffffffff16141561096b576040517f08c379a0000000000000000000000000000000000000000000000000000000008152600401610962906111f5565b60405180910390fd5b61097481610e53565b50565b600181565b6000818361098a91906112e7565b905092915050565b600033905090565b600073ffffffffffffffffffffffffffffffffffffffff168373ffffffffffffffffffffffffffffffffffffffff161415610a0a576040517f08c379a0000000000000000000000000000000000000000000000000000000008152600401610a0190611275565b60405180910390fd5b600073ffffffffffffffffffffffffffffffffffffffff168273ffffffffffffffffffffffffffffffffffffffff161415610a7a576040517f08c379a0000000000000000000000000000000000000000000000000000000008152600401610a7190611215565b60405180910390fd5b80600260008573ffffffffffffffffffffffffffffffffffffffff1673ffffffffffffffffffffffffffffffffffffffff16815260200190815260200160002060008473ffffffffffffffffffffffffffffffffffffffff1673ffffffffffffffffffffffffffffffffffffffff168152602001908152602001600020819055508173ffffffffffffffffffffffffffffffffffffffff168373ffffffffffffffffffffffffffffffffffffffff167f8c5be1e5ebec7d5bd14f71427d1e84f3dd0314c0f7b2291e5b200ac8c7c3b92583604051610b589190611295565b60405180910390a3505050565b600073ffffffffffffffffffffffffffffffffffffffff168373ffffffffffffffffffffffffffffffffffffffff161415610bd5576040517f08c379a0000000000000000000000000000000000000000000000000000000008152600401610bcc90611255565b60405180910390fd5b600073ffffffffffffffffffffffffffffffffffffffff168273ffffffffffffffffffffffffffffffffffffffff161415610c45576040517f08c379a0000000000000000000000000000000000000000000000000000000008152600401610c3c906111d5565b60405180910390fd5b610c50838383610f17565b610cbc8160405180606001604052806026815260200161164960269139600160008773ffffffffffffffffffffffffffffffffffffffff1673ffffffffffffffffffffffffffffffffffffffff16815260200190815260200160002054610dfe9092919063ffffffff16565b600160008573ffffffffffffffffffffffffffffffffffffffff1673ffffffffffffffffffffffffffffffffffffffff16815260200190815260200160002081905550610d5181600160008573ffffffffffffffffffffffffffffffffffffffff1673ffffffffffffffffffffffffffffffffffffffff1681526020019081526020016000205461097c90919063ffffffff16565b600160008473ffffffffffffffffffffffffffffffffffffffff1673ffffffffffffffffffffffffffffffffffffffff168152602001908152602001600020819055508173ffffffffffffffffffffffffffffffffffffffff168373ffffffffffffffffffffffffffffffffffffffff167fddf252ad1be2c89b69c2b068fc378daa952ba7f163c4a11628f55a4df523b3ef83604051610df19190611295565b60405180910390a3505050565b6000838311158290610e46576040517f08c379a0000000000000000000000000000000000000000000000000000000008152600401610e3d91906111b3565b60405180910390fd5b5082840390509392505050565b60008060009054906101000a900473ffffffffffffffffffffffffffffffffffffffff169050816000806101000a81548173ffffffffffffffffffffffffffffffffffffffff021916908373ffffffffffffffffffffffffffffffffffffffff1602179055508173ffffffffffffffffffffffffffffffffffffffff168173ffffffffffffffffffffffffffffffffffffffff167f8be0079c531659141344cd1fd0a4f28419497f9722a3daafe3b4186f6b6457e060405160405180910390a35050565b505050565b600081359050610f2b8161161a565b92915050565b600081359050610f4081611631565b92915050565b600060208284031215610f5857600080fd5b6000610f6684828501610f1c565b91505092915050565b60008060408385031215610f8257600080fd5b6000610f9085828601610f1c565b9250506020610fa185828601610f1c565b9150509250929050565b600080600060608486031215610fc057600080fd5b6000610fce86828701610f1c565b9350506020610fdf86828701610f1c565b9250506040610ff086828701610f31565b9150509250925092565b6000806040838503121561100d57600080fd5b600061101b85828601610f1c565b925050602061102c85828601610f31565b9150509250929050565b61103f8161133d565b82525050565b61104e8161134f565b82525050565b600061105f826112cb565b61106981856112d6565b9350611079818560208601611392565b61108281611455565b840191505092915050565b600061109a6023836112d6565b91506110a582611466565b604082019050919050565b60006110bd6026836112d6565b91506110c8826114b5565b604082019050919050565b60006110e06022836112d6565b91506110eb82611504565b604082019050919050565b60006111036020836112d6565b915061110e82611553565b602082019050919050565b60006111266025836112d6565b91506111318261157c565b604082019050919050565b60006111496024836112d6565b9150611154826115cb565b604082019050919050565b6111688161137b565b82525050565b61117781611385565b82525050565b60006020820190506111926000830184611036565b92915050565b60006020820190506111ad6000830184611045565b92915050565b600060208201905081810360008301526111cd8184611054565b905092915050565b600060208201905081810360008301526111ee8161108d565b9050919050565b6000602082019050818103600083015261120e816110b0565b9050919050565b6000602082019050818103600083015261122e816110d3565b9050919050565b6000602082019050818103600083015261124e816110f6565b9050919050565b6000602082019050818103600083015261126e81611119565b9050919050565b6000602082019050818103600083015261128e8161113c565b9050919050565b60006020820190506112aa600083018461115f565b92915050565b60006020820190506112c5600083018461116e565b92915050565b600081519050919050565b600082825260208201905092915050565b60006112f28261137b565b91506112fd8361137b565b9250827fffffffffffffffffffffffffffffffffffffffffffffffffffffffffffffffff03821115611332576113316113f7565b5b828201905092915050565b60006113488261135b565b9050919050565b60008115159050919050565b600073ffffffffffffffffffffffffffffffffffffffff82169050919050565b6000819050919050565b600060ff82169050919050565b60005b838110156113b0578082015181840152602081019050611395565b838111156113bf576000848401525b50505050565b600060028204905060018216806113dd57607f821691505b602082108114156113f1576113f0611426565b5b50919050565b7f4e487b7100000000000000000000000000000000000000000000000000000000600052601160045260246000fd5b7f4e487b7100000000000000000000000000000000000000000000000000000000600052602260045260246000fd5b6000601f19601f8301169050919050565b7f45524332303a207472616e7366657220746f20746865207a65726f206164647260008201527f6573730000000000000000000000000000000000000000000000000000000000602082015250565b7f4f776e61626c653a206e6577206f776e657220697320746865207a65726f206160008201527f6464726573730000000000000000000000000000000000000000000000000000602082015250565b7f45524332303a20617070726f766520746f20746865207a65726f20616464726560008201527f7373000000000000000000000000000000000000000000000000000000000000602082015250565b7f4f776e61626c653a2063616c6c6572206973206e6f7420746865206f776e6572600082015250565b7f45524332303a207472616e736665722066726f6d20746865207a65726f20616460008201527f6472657373000000000000000000000000000000000000000000000000000000602082015250565b7f45524332303a20617070726f76652066726f6d20746865207a65726f2061646460008201527f7265737300000000000000000000000000000000000000000000000000000000602082015250565b6116238161133d565b811461162e57600080fd5b50565b61163a8161137b565b811461164557600080fd5b5056fe45524332303a207472616e7366657220616d6f756e7420657863656564732062616c616e636545524332303a207472616e7366657220616d6f756e74206578636565647320616c6c6f77616e636545524332303a2064656372656173656420616c6c6f77616e63652062656c6f77207a65726fa26469706673582212204cf8e9ea22a9bcddafb602ba21260b55471f51334baf6b99eab31482390bd03364736f6c63430008040033",
					"opcodes": "PUSH1 0x80 PUSH1 0x40 MSTORE PUSH1 0x40 MLOAD PUSH3 0x2092 CODESIZE SUB DUP1 PUSH3 0x2092 DUP4 CODECOPY DUP2 DUP2 ADD PUSH1 0x40 MSTORE DUP2 ADD SWAP1 PUSH3 0x29 SWAP2 SWAP1 PUSH3 0x54E JUMP JUMPDEST PUSH3 0x49 PUSH3 0x3D PUSH3 0x13B PUSH1 0x20 SHL PUSH1 0x20 SHR JUMP JUMPDEST PUSH3 0x143 PUSH1 0x20 SHL PUSH1 0x20 SHR JUMP JUMPDEST DUP4 PUSH1 0x3 SWAP1 DUP1 MLOAD SWAP1 PUSH1 0x20 ADD SWAP1 PUSH3 0x61 SWAP3 SWAP2 SWAP1 PUSH3 0x3FE JUMP JUMPDEST POP DUP3 PUSH1 0x4 SWAP1 DUP1 MLOAD SWAP1 PUSH1 0x20 ADD SWAP1 PUSH3 0x7A SWAP3 SWAP2 SWAP1 PUSH3 0x3FE JUMP JUMPDEST POP DUP2 PUSH1 0x5 PUSH1 0x0 PUSH2 0x100 EXP DUP2 SLOAD DUP2 PUSH1 0xFF MUL NOT AND SWAP1 DUP4 PUSH1 0xFF AND MUL OR SWAP1 SSTORE POP PUSH3 0xB7 PUSH3 0xAA PUSH3 0x207 PUSH1 0x20 SHL PUSH1 0x20 SHR JUMP JUMPDEST DUP3 PUSH3 0x230 PUSH1 0x20 SHL PUSH1 0x20 SHR JUMP JUMPDEST ADDRESS PUSH20 0xFFFFFFFFFFFFFFFFFFFFFFFFFFFFFFFFFFFFFFFF AND PUSH3 0xDE PUSH3 0x207 PUSH1 0x20 SHL PUSH1 0x20 SHR JUMP JUMPDEST PUSH20 0xFFFFFFFFFFFFFFFFFFFFFFFFFFFFFFFFFFFFFFFF AND PUSH32 0x56358B41DF5FA59F5639228F0930994CBDDE383C8A8FD74E06C04E1DEEBE3562 PUSH1 0x0 PUSH1 0x1 PUSH1 0x40 MLOAD PUSH3 0x129 SWAP3 SWAP2 SWAP1 PUSH3 0x635 JUMP JUMPDEST PUSH1 0x40 MLOAD DUP1 SWAP2 SUB SWAP1 LOG3 POP POP POP POP PUSH3 0x991 JUMP JUMPDEST PUSH1 0x0 CALLER SWAP1 POP SWAP1 JUMP JUMPDEST PUSH1 0x0 DUP1 PUSH1 0x0 SWAP1 SLOAD SWAP1 PUSH2 0x100 EXP SWAP1 DIV PUSH20 0xFFFFFFFFFFFFFFFFFFFFFFFFFFFFFFFFFFFFFFFF AND SWAP1 POP DUP2 PUSH1 0x0 DUP1 PUSH2 0x100 EXP DUP2 SLOAD DUP2 PUSH20 0xFFFFFFFFFFFFFFFFFFFFFFFFFFFFFFFFFFFFFFFF MUL NOT AND SWAP1 DUP4 PUSH20 0xFFFFFFFFFFFFFFFFFFFFFFFFFFFFFFFFFFFFFFFF AND MUL OR SWAP1 SSTORE POP DUP2 PUSH20 0xFFFFFFFFFFFFFFFFFFFFFFFFFFFFFFFFFFFFFFFF AND DUP2 PUSH20 0xFFFFFFFFFFFFFFFFFFFFFFFFFFFFFFFFFFFFFFFF AND PUSH32 0x8BE0079C531659141344CD1FD0A4F28419497F9722A3DAAFE3B4186F6B6457E0 PUSH1 0x40 MLOAD PUSH1 0x40 MLOAD DUP1 SWAP2 SUB SWAP1 LOG3 POP POP JUMP JUMPDEST PUSH1 0x0 DUP1 PUSH1 0x0 SWAP1 SLOAD SWAP1 PUSH2 0x100 EXP SWAP1 DIV PUSH20 0xFFFFFFFFFFFFFFFFFFFFFFFFFFFFFFFFFFFFFFFF AND SWAP1 POP SWAP1 JUMP JUMPDEST PUSH1 0x0 PUSH20 0xFFFFFFFFFFFFFFFFFFFFFFFFFFFFFFFFFFFFFFFF AND DUP3 PUSH20 0xFFFFFFFFFFFFFFFFFFFFFFFFFFFFFFFFFFFFFFFF AND EQ ISZERO PUSH3 0x2A3 JUMPI PUSH1 0x40 MLOAD PUSH32 0x8C379A000000000000000000000000000000000000000000000000000000000 DUP2 MSTORE PUSH1 0x4 ADD PUSH3 0x29A SWAP1 PUSH3 0x662 JUMP JUMPDEST PUSH1 0x40 MLOAD DUP1 SWAP2 SUB SWAP1 REVERT JUMPDEST PUSH3 0x2B7 PUSH1 0x0 DUP4 DUP4 PUSH3 0x3E1 PUSH1 0x20 SHL PUSH1 0x20 SHR JUMP JUMPDEST PUSH3 0x2D3 DUP2 PUSH1 0x6 SLOAD PUSH3 0x3E6 PUSH1 0x20 SHL PUSH3 0x97C OR SWAP1 SWAP2 SWAP1 PUSH1 0x20 SHR JUMP JUMPDEST PUSH1 0x6 DUP2 SWAP1 SSTORE POP PUSH3 0x332 DUP2 PUSH1 0x1 PUSH1 0x0 DUP6 PUSH20 0xFFFFFFFFFFFFFFFFFFFFFFFFFFFFFFFFFFFFFFFF AND PUSH20 0xFFFFFFFFFFFFFFFFFFFFFFFFFFFFFFFFFFFFFFFF AND DUP2 MSTORE PUSH1 0x20 ADD SWAP1 DUP2 MSTORE PUSH1 0x20 ADD PUSH1 0x0 KECCAK256 SLOAD PUSH3 0x3E6 PUSH1 0x20 SHL PUSH3 0x97C OR SWAP1 SWAP2 SWAP1 PUSH1 0x20 SHR JUMP JUMPDEST PUSH1 0x1 PUSH1 0x0 DUP5 PUSH20 0xFFFFFFFFFFFFFFFFFFFFFFFFFFFFFFFFFFFFFFFF AND PUSH20 0xFFFFFFFFFFFFFFFFFFFFFFFFFFFFFFFFFFFFFFFF AND DUP2 MSTORE PUSH1 0x20 ADD SWAP1 DUP2 MSTORE PUSH1 0x20 ADD PUSH1 0x0 KECCAK256 DUP2 SWAP1 SSTORE POP DUP2 PUSH20 0xFFFFFFFFFFFFFFFFFFFFFFFFFFFFFFFFFFFFFFFF AND PUSH1 0x0 PUSH20 0xFFFFFFFFFFFFFFFFFFFFFFFFFFFFFFFFFFFFFFFF AND PUSH32 0xDDF252AD1BE2C89B69C2B068FC378DAA952BA7F163C4A11628F55A4DF523B3EF DUP4 PUSH1 0x40 MLOAD PUSH3 0x3D5 SWAP2 SWAP1 PUSH3 0x684 JUMP JUMPDEST PUSH1 0x40 MLOAD DUP1 SWAP2 SUB SWAP1 LOG3 POP POP JUMP JUMPDEST POP POP POP JUMP JUMPDEST PUSH1 0x0 DUP2 DUP4 PUSH3 0x3F6 SWAP2 SWAP1 PUSH3 0x711 JUMP JUMPDEST SWAP1 POP SWAP3 SWAP2 POP POP JUMP JUMPDEST DUP3 DUP1 SLOAD PUSH3 0x40C SWAP1 PUSH3 0x7E4 JUMP JUMPDEST SWAP1 PUSH1 0x0 MSTORE PUSH1 0x20 PUSH1 0x0 KECCAK256 SWAP1 PUSH1 0x1F ADD PUSH1 0x20 SWAP1 DIV DUP2 ADD SWAP3 DUP3 PUSH3 0x430 JUMPI PUSH1 0x0 DUP6 SSTORE PUSH3 0x47C JUMP JUMPDEST DUP3 PUSH1 0x1F LT PUSH3 0x44B JUMPI DUP1 MLOAD PUSH1 0xFF NOT AND DUP4 DUP1 ADD OR DUP6 SSTORE PUSH3 0x47C JUMP JUMPDEST DUP3 DUP1 ADD PUSH1 0x1 ADD DUP6 SSTORE DUP3 ISZERO PUSH3 0x47C JUMPI SWAP2 DUP3 ADD JUMPDEST DUP3 DUP2 GT ISZERO PUSH3 0x47B JUMPI DUP3 MLOAD DUP3 SSTORE SWAP2 PUSH1 0x20 ADD SWAP2 SWAP1 PUSH1 0x1 ADD SWAP1 PUSH3 0x45E JUMP JUMPDEST JUMPDEST POP SWAP1 POP PUSH3 0x48B SWAP2 SWAP1 PUSH3 0x48F JUMP JUMPDEST POP SWAP1 JUMP JUMPDEST JUMPDEST DUP1 DUP3 GT ISZERO PUSH3 0x4AA JUMPI PUSH1 0x0 DUP2 PUSH1 0x0 SWAP1 SSTORE POP PUSH1 0x1 ADD PUSH3 0x490 JUMP JUMPDEST POP SWAP1 JUMP JUMPDEST PUSH1 0x0 PUSH3 0x4C5 PUSH3 0x4BF DUP5 PUSH3 0x6CA JUMP JUMPDEST PUSH3 0x6A1 JUMP JUMPDEST SWAP1 POP DUP3 DUP2 MSTORE PUSH1 0x20 DUP2 ADD DUP5 DUP5 DUP5 ADD GT ISZERO PUSH3 0x4DE JUMPI PUSH1 0x0 DUP1 REVERT JUMPDEST PUSH3 0x4EB DUP5 DUP3 DUP6 PUSH3 0x7AE JUMP JUMPDEST POP SWAP4 SWAP3 POP POP POP JUMP JUMPDEST PUSH1 0x0 DUP3 PUSH1 0x1F DUP4 ADD SLT PUSH3 0x505 JUMPI PUSH1 0x0 DUP1 REVERT JUMPDEST DUP2 MLOAD PUSH3 0x517 DUP5 DUP3 PUSH1 0x20 DUP7 ADD PUSH3 0x4AE JUMP JUMPDEST SWAP2 POP POP SWAP3 SWAP2 POP POP JUMP JUMPDEST PUSH1 0x0 DUP2 MLOAD SWAP1 POP PUSH3 0x531 DUP2 PUSH3 0x95D JUMP JUMPDEST SWAP3 SWAP2 POP POP JUMP JUMPDEST PUSH1 0x0 DUP2 MLOAD SWAP1 POP PUSH3 0x548 DUP2 PUSH3 0x977 JUMP JUMPDEST SWAP3 SWAP2 POP POP JUMP JUMPDEST PUSH1 0x0 DUP1 PUSH1 0x0 DUP1 PUSH1 0x80 DUP6 DUP8 SUB SLT ISZERO PUSH3 0x565 JUMPI PUSH1 0x0 DUP1 REVERT JUMPDEST PUSH1 0x0 DUP6 ADD MLOAD PUSH8 0xFFFFFFFFFFFFFFFF DUP2 GT ISZERO PUSH3 0x580 JUMPI PUSH1 0x0 DUP1 REVERT JUMPDEST PUSH3 0x58E DUP8 DUP3 DUP9 ADD PUSH3 0x4F3 JUMP JUMPDEST SWAP5 POP POP PUSH1 0x20 DUP6 ADD MLOAD PUSH8 0xFFFFFFFFFFFFFFFF DUP2 GT ISZERO PUSH3 0x5AC JUMPI PUSH1 0x0 DUP1 REVERT JUMPDEST PUSH3 0x5BA DUP8 DUP3 DUP9 ADD PUSH3 0x4F3 JUMP JUMPDEST SWAP4 POP POP PUSH1 0x40 PUSH3 0x5CD DUP8 DUP3 DUP9 ADD PUSH3 0x537 JUMP JUMPDEST SWAP3 POP POP PUSH1 0x60 PUSH3 0x5E0 DUP8 DUP3 DUP9 ADD PUSH3 0x520 JUMP JUMPDEST SWAP2 POP POP SWAP3 SWAP6 SWAP2 SWAP5 POP SWAP3 POP JUMP JUMPDEST PUSH3 0x5F7 DUP2 PUSH3 0x79A JUMP JUMPDEST DUP3 MSTORE POP POP JUMP JUMPDEST PUSH1 0x0 PUSH3 0x60C PUSH1 0x1F DUP4 PUSH3 0x700 JUMP JUMPDEST SWAP2 POP PUSH3 0x619 DUP3 PUSH3 0x91D JUMP JUMPDEST PUSH1 0x20 DUP3 ADD SWAP1 POP SWAP2 SWAP1 POP JUMP JUMPDEST PUSH3 0x62F DUP2 PUSH3 0x783 JUMP JUMPDEST DUP3 MSTORE POP POP JUMP JUMPDEST PUSH1 0x0 PUSH1 0x40 DUP3 ADD SWAP1 POP PUSH3 0x64C PUSH1 0x0 DUP4 ADD DUP6 PUSH3 0x5EC JUMP JUMPDEST PUSH3 0x65B PUSH1 0x20 DUP4 ADD DUP5 PUSH3 0x624 JUMP JUMPDEST SWAP4 SWAP3 POP POP POP JUMP JUMPDEST PUSH1 0x0 PUSH1 0x20 DUP3 ADD SWAP1 POP DUP2 DUP2 SUB PUSH1 0x0 DUP4 ADD MSTORE PUSH3 0x67D DUP2 PUSH3 0x5FD JUMP JUMPDEST SWAP1 POP SWAP2 SWAP1 POP JUMP JUMPDEST PUSH1 0x0 PUSH1 0x20 DUP3 ADD SWAP1 POP PUSH3 0x69B PUSH1 0x0 DUP4 ADD DUP5 PUSH3 0x624 JUMP JUMPDEST SWAP3 SWAP2 POP POP JUMP JUMPDEST PUSH1 0x0 PUSH3 0x6AD PUSH3 0x6C0 JUMP JUMPDEST SWAP1 POP PUSH3 0x6BB DUP3 DUP3 PUSH3 0x81A JUMP JUMPDEST SWAP2 SWAP1 POP JUMP JUMPDEST PUSH1 0x0 PUSH1 0x40 MLOAD SWAP1 POP SWAP1 JUMP JUMPDEST PUSH1 0x0 PUSH8 0xFFFFFFFFFFFFFFFF DUP3 GT ISZERO PUSH3 0x6E8 JUMPI PUSH3 0x6E7 PUSH3 0x8DD JUMP JUMPDEST JUMPDEST PUSH3 0x6F3 DUP3 PUSH3 0x90C JUMP JUMPDEST SWAP1 POP PUSH1 0x20 DUP2 ADD SWAP1 POP SWAP2 SWAP1 POP JUMP JUMPDEST PUSH1 0x0 DUP3 DUP3 MSTORE PUSH1 0x20 DUP3 ADD SWAP1 POP SWAP3 SWAP2 POP POP JUMP JUMPDEST PUSH1 0x0 PUSH3 0x71E DUP3 PUSH3 0x783 JUMP JUMPDEST SWAP2 POP PUSH3 0x72B DUP4 PUSH3 0x783 JUMP JUMPDEST SWAP3 POP DUP3 PUSH32 0xFFFFFFFFFFFFFFFFFFFFFFFFFFFFFFFFFFFFFFFFFFFFFFFFFFFFFFFFFFFFFFFF SUB DUP3 GT ISZERO PUSH3 0x763 JUMPI PUSH3 0x762 PUSH3 0x850 JUMP JUMPDEST JUMPDEST DUP3 DUP3 ADD SWAP1 POP SWAP3 SWAP2 POP POP JUMP JUMPDEST PUSH1 0x0 DUP2 SWAP1 POP PUSH3 0x77E DUP3 PUSH3 0x946 JUMP JUMPDEST SWAP2 SWAP1 POP JUMP JUMPDEST PUSH1 0x0 DUP2 SWAP1 POP SWAP2 SWAP1 POP JUMP JUMPDEST PUSH1 0x0 PUSH1 0xFF DUP3 AND SWAP1 POP SWAP2 SWAP1 POP JUMP JUMPDEST PUSH1 0x0 PUSH3 0x7A7 DUP3 PUSH3 0x76E JUMP JUMPDEST SWAP1 POP SWAP2 SWAP1 POP JUMP JUMPDEST PUSH1 0x0 JUMPDEST DUP4 DUP2 LT ISZERO PUSH3 0x7CE JUMPI DUP1 DUP3 ADD MLOAD DUP2 DUP5 ADD MSTORE PUSH1 0x20 DUP2 ADD SWAP1 POP PUSH3 0x7B1 JUMP JUMPDEST DUP4 DUP2 GT ISZERO PUSH3 0x7DE JUMPI PUSH1 0x0 DUP5 DUP5 ADD MSTORE JUMPDEST POP POP POP POP JUMP JUMPDEST PUSH1 0x0 PUSH1 0x2 DUP3 DIV SWAP1 POP PUSH1 0x1 DUP3 AND DUP1 PUSH3 0x7FD JUMPI PUSH1 0x7F DUP3 AND SWAP2 POP JUMPDEST PUSH1 0x20 DUP3 LT DUP2 EQ ISZERO PUSH3 0x814 JUMPI PUSH3 0x813 PUSH3 0x8AE JUMP JUMPDEST JUMPDEST POP SWAP2 SWAP1 POP JUMP JUMPDEST PUSH3 0x825 DUP3 PUSH3 0x90C JUMP JUMPDEST DUP2 ADD DUP2 DUP2 LT PUSH8 0xFFFFFFFFFFFFFFFF DUP3 GT OR ISZERO PUSH3 0x847 JUMPI PUSH3 0x846 PUSH3 0x8DD JUMP JUMPDEST JUMPDEST DUP1 PUSH1 0x40 MSTORE POP POP POP JUMP JUMPDEST PUSH32 0x4E487B7100000000000000000000000000000000000000000000000000000000 PUSH1 0x0 MSTORE PUSH1 0x11 PUSH1 0x4 MSTORE PUSH1 0x24 PUSH1 0x0 REVERT JUMPDEST PUSH32 0x4E487B7100000000000000000000000000000000000000000000000000000000 PUSH1 0x0 MSTORE PUSH1 0x21 PUSH1 0x4 MSTORE PUSH1 0x24 PUSH1 0x0 REVERT JUMPDEST PUSH32 0x4E487B7100000000000000000000000000000000000000000000000000000000 PUSH1 0x0 MSTORE PUSH1 0x22 PUSH1 0x4 MSTORE PUSH1 0x24 PUSH1 0x0 REVERT JUMPDEST PUSH32 0x4E487B7100000000000000000000000000000000000000000000000000000000 PUSH1 0x0 MSTORE PUSH1 0x41 PUSH1 0x4 MSTORE PUSH1 0x24 PUSH1 0x0 REVERT JUMPDEST PUSH1 0x0 PUSH1 0x1F NOT PUSH1 0x1F DUP4 ADD AND SWAP1 POP SWAP2 SWAP1 POP JUMP JUMPDEST PUSH32 0x45524332303A206D696E7420746F20746865207A65726F206164647265737300 PUSH1 0x0 DUP3 ADD MSTORE POP JUMP JUMPDEST PUSH1 0x8 DUP2 LT PUSH3 0x95A JUMPI PUSH3 0x959 PUSH3 0x87F JUMP JUMPDEST JUMPDEST POP JUMP JUMPDEST PUSH3 0x968 DUP2 PUSH3 0x783 JUMP JUMPDEST DUP2 EQ PUSH3 0x974 JUMPI PUSH1 0x0 DUP1 REVERT JUMPDEST POP JUMP JUMPDEST PUSH3 0x982 DUP2 PUSH3 0x78D JUMP JUMPDEST DUP2 EQ PUSH3 0x98E JUMPI PUSH1 0x0 DUP1 REVERT JUMPDEST POP JUMP JUMPDEST PUSH2 0x16F1 DUP1 PUSH3 0x9A1 PUSH1 0x0 CODECOPY PUSH1 0x0 RETURN INVALID PUSH1 0x80 PUSH1 0x40 MSTORE CALLVALUE DUP1 ISZERO PUSH2 0x10 JUMPI PUSH1 0x0 DUP1 REVERT JUMPDEST POP PUSH1 0x4 CALLDATASIZE LT PUSH2 0xF5 JUMPI PUSH1 0x0 CALLDATALOAD PUSH1 0xE0 SHR DUP1 PUSH4 0x715018A6 GT PUSH2 0x97 JUMPI DUP1 PUSH4 0xA9059CBB GT PUSH2 0x66 JUMPI DUP1 PUSH4 0xA9059CBB EQ PUSH2 0x28A JUMPI DUP1 PUSH4 0xDD62ED3E EQ PUSH2 0x2BA JUMPI DUP1 PUSH4 0xF2FDE38B EQ PUSH2 0x2EA JUMPI DUP1 PUSH4 0xFFA1AD74 EQ PUSH2 0x306 JUMPI PUSH2 0xF5 JUMP JUMPDEST DUP1 PUSH4 0x715018A6 EQ PUSH2 0x214 JUMPI DUP1 PUSH4 0x8DA5CB5B EQ PUSH2 0x21E JUMPI DUP1 PUSH4 0x95D89B41 EQ PUSH2 0x23C JUMPI DUP1 PUSH4 0xA457C2D7 EQ PUSH2 0x25A JUMPI PUSH2 0xF5 JUMP JUMPDEST DUP1 PUSH4 0x23B872DD GT PUSH2 0xD3 JUMPI DUP1 PUSH4 0x23B872DD EQ PUSH2 0x166 JUMPI DUP1 PUSH4 0x313CE567 EQ PUSH2 0x196 JUMPI DUP1 PUSH4 0x39509351 EQ PUSH2 0x1B4 JUMPI DUP1 PUSH4 0x70A08231 EQ PUSH2 0x1E4 JUMPI PUSH2 0xF5 JUMP JUMPDEST DUP1 PUSH4 0x6FDDE03 EQ PUSH2 0xFA JUMPI DUP1 PUSH4 0x95EA7B3 EQ PUSH2 0x118 JUMPI DUP1 PUSH4 0x18160DDD EQ PUSH2 0x148 JUMPI JUMPDEST PUSH1 0x0 DUP1 REVERT JUMPDEST PUSH2 0x102 PUSH2 0x324 JUMP JUMPDEST PUSH1 0x40 MLOAD PUSH2 0x10F SWAP2 SWAP1 PUSH2 0x11B3 JUMP JUMPDEST PUSH1 0x40 MLOAD DUP1 SWAP2 SUB SWAP1 RETURN JUMPDEST PUSH2 0x132 PUSH1 0x4 DUP1 CALLDATASIZE SUB DUP2 ADD SWAP1 PUSH2 0x12D SWAP2 SWAP1 PUSH2 0xFFA JUMP JUMPDEST PUSH2 0x3B6 JUMP JUMPDEST PUSH1 0x40 MLOAD PUSH2 0x13F SWAP2 SWAP1 PUSH2 0x1198 JUMP JUMPDEST PUSH1 0x40 MLOAD DUP1 SWAP2 SUB SWAP1 RETURN JUMPDEST PUSH2 0x150 PUSH2 0x3D4 JUMP JUMPDEST PUSH1 0x40 MLOAD PUSH2 0x15D SWAP2 SWAP1 PUSH2 0x1295 JUMP JUMPDEST PUSH1 0x40 MLOAD DUP1 SWAP2 SUB SWAP1 RETURN JUMPDEST PUSH2 0x180 PUSH1 0x4 DUP1 CALLDATASIZE SUB DUP2 ADD SWAP1 PUSH2 0x17B SWAP2 SWAP1 PUSH2 0xFAB JUMP JUMPDEST PUSH2 0x3DE JUMP JUMPDEST PUSH1 0x40 MLOAD PUSH2 0x18D SWAP2 SWAP1 PUSH2 0x1198 JUMP JUMPDEST PUSH1 0x40 MLOAD DUP1 SWAP2 SUB SWAP1 RETURN JUMPDEST PUSH2 0x19E PUSH2 0x4B7 JUMP JUMPDEST PUSH1 0x40 MLOAD PUSH2 0x1AB SWAP2 SWAP1 PUSH2 0x12B0 JUMP JUMPDEST PUSH1 0x40 MLOAD DUP1 SWAP2 SUB SWAP1 RETURN JUMPDEST PUSH2 0x1CE PUSH1 0x4 DUP1 CALLDATASIZE SUB DUP2 ADD SWAP1 PUSH2 0x1C9 SWAP2 SWAP1 PUSH2 0xFFA JUMP JUMPDEST PUSH2 0x4CE JUMP JUMPDEST PUSH1 0x40 MLOAD PUSH2 0x1DB SWAP2 SWAP1 PUSH2 0x1198 JUMP JUMPDEST PUSH1 0x40 MLOAD DUP1 SWAP2 SUB SWAP1 RETURN JUMPDEST PUSH2 0x1FE PUSH1 0x4 DUP1 CALLDATASIZE SUB DUP2 ADD SWAP1 PUSH2 0x1F9 SWAP2 SWAP1 PUSH2 0xF46 JUMP JUMPDEST PUSH2 0x581 JUMP JUMPDEST PUSH1 0x40 MLOAD PUSH2 0x20B SWAP2 SWAP1 PUSH2 0x1295 JUMP JUMPDEST PUSH1 0x40 MLOAD DUP1 SWAP2 SUB SWAP1 RETURN JUMPDEST PUSH2 0x21C PUSH2 0x5CA JUMP JUMPDEST STOP JUMPDEST PUSH2 0x226 PUSH2 0x652 JUMP JUMPDEST PUSH1 0x40 MLOAD PUSH2 0x233 SWAP2 SWAP1 PUSH2 0x117D JUMP JUMPDEST PUSH1 0x40 MLOAD DUP1 SWAP2 SUB SWAP1 RETURN JUMPDEST PUSH2 0x244 PUSH2 0x67B JUMP JUMPDEST PUSH1 0x40 MLOAD PUSH2 0x251 SWAP2 SWAP1 PUSH2 0x11B3 JUMP JUMPDEST PUSH1 0x40 MLOAD DUP1 SWAP2 SUB SWAP1 RETURN JUMPDEST PUSH2 0x274 PUSH1 0x4 DUP1 CALLDATASIZE SUB DUP2 ADD SWAP1 PUSH2 0x26F SWAP2 SWAP1 PUSH2 0xFFA JUMP JUMPDEST PUSH2 0x70D JUMP JUMPDEST PUSH1 0x40 MLOAD PUSH2 0x281 SWAP2 SWAP1 PUSH2 0x1198 JUMP JUMPDEST PUSH1 0x40 MLOAD DUP1 SWAP2 SUB SWAP1 RETURN JUMPDEST PUSH2 0x2A4 PUSH1 0x4 DUP1 CALLDATASIZE SUB DUP2 ADD SWAP1 PUSH2 0x29F SWAP2 SWAP1 PUSH2 0xFFA JUMP JUMPDEST PUSH2 0x7DA JUMP JUMPDEST PUSH1 0x40 MLOAD PUSH2 0x2B1 SWAP2 SWAP1 PUSH2 0x1198 JUMP JUMPDEST PUSH1 0x40 MLOAD DUP1 SWAP2 SUB SWAP1 RETURN JUMPDEST PUSH2 0x2D4 PUSH1 0x4 DUP1 CALLDATASIZE SUB DUP2 ADD SWAP1 PUSH2 0x2CF SWAP2 SWAP1 PUSH2 0xF6F JUMP JUMPDEST PUSH2 0x7F8 JUMP JUMPDEST PUSH1 0x40 MLOAD PUSH2 0x2E1 SWAP2 SWAP1 PUSH2 0x1295 JUMP JUMPDEST PUSH1 0x40 MLOAD DUP1 SWAP2 SUB SWAP1 RETURN JUMPDEST PUSH2 0x304 PUSH1 0x4 DUP1 CALLDATASIZE SUB DUP2 ADD SWAP1 PUSH2 0x2FF SWAP2 SWAP1 PUSH2 0xF46 JUMP JUMPDEST PUSH2 0x87F JUMP JUMPDEST STOP JUMPDEST PUSH2 0x30E PUSH2 0x977 JUMP JUMPDEST PUSH1 0x40 MLOAD PUSH2 0x31B SWAP2 SWAP1 PUSH2 0x1295 JUMP JUMPDEST PUSH1 0x40 MLOAD DUP1 SWAP2 SUB SWAP1 RETURN JUMPDEST PUSH1 0x60 PUSH1 0x3 DUP1 SLOAD PUSH2 0x333 SWAP1 PUSH2 0x13C5 JUMP JUMPDEST DUP1 PUSH1 0x1F ADD PUSH1 0x20 DUP1 SWAP2 DIV MUL PUSH1 0x20 ADD PUSH1 0x40 MLOAD SWAP1 DUP2 ADD PUSH1 0x40 MSTORE DUP1 SWAP3 SWAP2 SWAP1 DUP2 DUP2 MSTORE PUSH1 0x20 ADD DUP3 DUP1 SLOAD PUSH2 0x35F SWAP1 PUSH2 0x13C5 JUMP JUMPDEST DUP1 ISZERO PUSH2 0x3AC JUMPI DUP1 PUSH1 0x1F LT PUSH2 0x381 JUMPI PUSH2 0x100 DUP1 DUP4 SLOAD DIV MUL DUP4 MSTORE SWAP2 PUSH1 0x20 ADD SWAP2 PUSH2 0x3AC JUMP JUMPDEST DUP3 ADD SWAP2 SWAP1 PUSH1 0x0 MSTORE PUSH1 0x20 PUSH1 0x0 KECCAK256 SWAP1 JUMPDEST DUP2 SLOAD DUP2 MSTORE SWAP1 PUSH1 0x1 ADD SWAP1 PUSH1 0x20 ADD DUP1 DUP4 GT PUSH2 0x38F JUMPI DUP3 SWAP1 SUB PUSH1 0x1F AND DUP3 ADD SWAP2 JUMPDEST POP POP POP POP POP SWAP1 POP SWAP1 JUMP JUMPDEST PUSH1 0x0 PUSH2 0x3CA PUSH2 0x3C3 PUSH2 0x992 JUMP JUMPDEST DUP5 DUP5 PUSH2 0x99A JUMP JUMPDEST PUSH1 0x1 SWAP1 POP SWAP3 SWAP2 POP POP JUMP JUMPDEST PUSH1 0x0 PUSH1 0x6 SLOAD SWAP1 POP SWAP1 JUMP JUMPDEST PUSH1 0x0 PUSH2 0x3EB DUP5 DUP5 DUP5 PUSH2 0xB65 JUMP JUMPDEST PUSH2 0x4AC DUP5 PUSH2 0x3F7 PUSH2 0x992 JUMP JUMPDEST PUSH2 0x4A7 DUP6 PUSH1 0x40 MLOAD DUP1 PUSH1 0x60 ADD PUSH1 0x40 MSTORE DUP1 PUSH1 0x28 DUP2 MSTORE PUSH1 0x20 ADD PUSH2 0x166F PUSH1 0x28 SWAP2 CODECOPY PUSH1 0x2 PUSH1 0x0 DUP12 PUSH20 0xFFFFFFFFFFFFFFFFFFFFFFFFFFFFFFFFFFFFFFFF AND PUSH20 0xFFFFFFFFFFFFFFFFFFFFFFFFFFFFFFFFFFFFFFFF AND DUP2 MSTORE PUSH1 0x20 ADD SWAP1 DUP2 MSTORE PUSH1 0x20 ADD PUSH1 0x0 KECCAK256 PUSH1 0x0 PUSH2 0x45D PUSH2 0x992 JUMP JUMPDEST PUSH20 0xFFFFFFFFFFFFFFFFFFFFFFFFFFFFFFFFFFFFFFFF AND PUSH20 0xFFFFFFFFFFFFFFFFFFFFFFFFFFFFFFFFFFFFFFFF AND DUP2 MSTORE PUSH1 0x20 ADD SWAP1 DUP2 MSTORE PUSH1 0x20 ADD PUSH1 0x0 KECCAK256 SLOAD PUSH2 0xDFE SWAP1 SWAP3 SWAP2 SWAP1 PUSH4 0xFFFFFFFF AND JUMP JUMPDEST PUSH2 0x99A JUMP JUMPDEST PUSH1 0x1 SWAP1 POP SWAP4 SWAP3 POP POP POP JUMP JUMPDEST PUSH1 0x0 PUSH1 0x5 PUSH1 0x0 SWAP1 SLOAD SWAP1 PUSH2 0x100 EXP SWAP1 DIV PUSH1 0xFF AND SWAP1 POP SWAP1 JUMP JUMPDEST PUSH1 0x0 PUSH2 0x577 PUSH2 0x4DB PUSH2 0x992 JUMP JUMPDEST DUP5 PUSH2 0x572 DUP6 PUSH1 0x2 PUSH1 0x0 PUSH2 0x4EC PUSH2 0x992 JUMP JUMPDEST PUSH20 0xFFFFFFFFFFFFFFFFFFFFFFFFFFFFFFFFFFFFFFFF AND PUSH20 0xFFFFFFFFFFFFFFFFFFFFFFFFFFFFFFFFFFFFFFFF AND DUP2 MSTORE PUSH1 0x20 ADD SWAP1 DUP2 MSTORE PUSH1 0x20 ADD PUSH1 0x0 KECCAK256 PUSH1 0x0 DUP10 PUSH20 0xFFFFFFFFFFFFFFFFFFFFFFFFFFFFFFFFFFFFFFFF AND PUSH20 0xFFFFFFFFFFFFFFFFFFFFFFFFFFFFFFFFFFFFFFFF AND DUP2 MSTORE PUSH1 0x20 ADD SWAP1 DUP2 MSTORE PUSH1 0x20 ADD PUSH1 0x0 KECCAK256 SLOAD PUSH2 0x97C SWAP1 SWAP2 SWAP1 PUSH4 0xFFFFFFFF AND JUMP JUMPDEST PUSH2 0x99A JUMP JUMPDEST PUSH1 0x1 SWAP1 POP SWAP3 SWAP2 POP POP JUMP JUMPDEST PUSH1 0x0 PUSH1 0x1 PUSH1 0x0 DUP4 PUSH20 0xFFFFFFFFFFFFFFFFFFFFFFFFFFFFFFFFFFFFFFFF AND PUSH20 0xFFFFFFFFFFFFFFFFFFFFFFFFFFFFFFFFFFFFFFFF AND DUP2 MSTORE PUSH1 0x20 ADD SWAP1 DUP2 MSTORE PUSH1 0x20 ADD PUSH1 0x0 KECCAK256 SLOAD SWAP1 POP SWAP2 SWAP1 POP JUMP JUMPDEST PUSH2 0x5D2 PUSH2 0x992 JUMP JUMPDEST PUSH20 0xFFFFFFFFFFFFFFFFFFFFFFFFFFFFFFFFFFFFFFFF AND PUSH2 0x5F0 PUSH2 0x652 JUMP JUMPDEST PUSH20 0xFFFFFFFFFFFFFFFFFFFFFFFFFFFFFFFFFFFFFFFF AND EQ PUSH2 0x646 JUMPI PUSH1 0x40 MLOAD PUSH32 0x8C379A000000000000000000000000000000000000000000000000000000000 DUP2 MSTORE PUSH1 0x4 ADD PUSH2 0x63D SWAP1 PUSH2 0x1235 JUMP JUMPDEST PUSH1 0x40 MLOAD DUP1 SWAP2 SUB SWAP1 REVERT JUMPDEST PUSH2 0x650 PUSH1 0x0 PUSH2 0xE53 JUMP JUMPDEST JUMP JUMPDEST PUSH1 0x0 DUP1 PUSH1 0x0 SWAP1 SLOAD SWAP1 PUSH2 0x100 EXP SWAP1 DIV PUSH20 0xFFFFFFFFFFFFFFFFFFFFFFFFFFFFFFFFFFFFFFFF AND SWAP1 POP SWAP1 JUMP JUMPDEST PUSH1 0x60 PUSH1 0x4 DUP1 SLOAD PUSH2 0x68A SWAP1 PUSH2 0x13C5 JUMP JUMPDEST DUP1 PUSH1 0x1F ADD PUSH1 0x20 DUP1 SWAP2 DIV MUL PUSH1 0x20 ADD PUSH1 0x40 MLOAD SWAP1 DUP2 ADD PUSH1 0x40 MSTORE DUP1 SWAP3 SWAP2 SWAP1 DUP2 DUP2 MSTORE PUSH1 0x20 ADD DUP3 DUP1 SLOAD PUSH2 0x6B6 SWAP1 PUSH2 0x13C5 JUMP JUMPDEST DUP1 ISZERO PUSH2 0x703 JUMPI DUP1 PUSH1 0x1F LT PUSH2 0x6D8 JUMPI PUSH2 0x100 DUP1 DUP4 SLOAD DIV MUL DUP4 MSTORE SWAP2 PUSH1 0x20 ADD SWAP2 PUSH2 0x703 JUMP JUMPDEST DUP3 ADD SWAP2 SWAP1 PUSH1 0x0 MSTORE PUSH1 0x20 PUSH1 0x0 KECCAK256 SWAP1 JUMPDEST DUP2 SLOAD DUP2 MSTORE SWAP1 PUSH1 0x1 ADD SWAP1 PUSH1 0x20 ADD DUP1 DUP4 GT PUSH2 0x6E6 JUMPI DUP3 SWAP1 SUB PUSH1 0x1F AND DUP3 ADD SWAP2 JUMPDEST POP POP POP POP POP SWAP1 POP SWAP1 JUMP JUMPDEST PUSH1 0x0 PUSH2 0x7D0 PUSH2 0x71A PUSH2 0x992 JUMP JUMPDEST DUP5 PUSH2 0x7CB DUP6 PUSH1 0x40 MLOAD DUP1 PUSH1 0x60 ADD PUSH1 0x40 MSTORE DUP1 PUSH1 0x25 DUP2 MSTORE PUSH1 0x20 ADD PUSH2 0x1697 PUSH1 0x25 SWAP2 CODECOPY PUSH1 0x2 PUSH1 0x0 PUSH2 0x744 PUSH2 0x992 JUMP JUMPDEST PUSH20 0xFFFFFFFFFFFFFFFFFFFFFFFFFFFFFFFFFFFFFFFF AND PUSH20 0xFFFFFFFFFFFFFFFFFFFFFFFFFFFFFFFFFFFFFFFF AND DUP2 MSTORE PUSH1 0x20 ADD SWAP1 DUP2 MSTORE PUSH1 0x20 ADD PUSH1 0x0 KECCAK256 PUSH1 0x0 DUP11 PUSH20 0xFFFFFFFFFFFFFFFFFFFFFFFFFFFFFFFFFFFFFFFF AND PUSH20 0xFFFFFFFFFFFFFFFFFFFFFFFFFFFFFFFFFFFFFFFF AND DUP2 MSTORE PUSH1 0x20 ADD SWAP1 DUP2 MSTORE PUSH1 0x20 ADD PUSH1 0x0 KECCAK256 SLOAD PUSH2 0xDFE SWAP1 SWAP3 SWAP2 SWAP1 PUSH4 0xFFFFFFFF AND JUMP JUMPDEST PUSH2 0x99A JUMP JUMPDEST PUSH1 0x1 SWAP1 POP SWAP3 SWAP2 POP POP JUMP JUMPDEST PUSH1 0x0 PUSH2 0x7EE PUSH2 0x7E7 PUSH2 0x992 JUMP JUMPDEST DUP5 DUP5 PUSH2 0xB65 JUMP JUMPDEST PUSH1 0x1 SWAP1 POP SWAP3 SWAP2 POP POP JUMP JUMPDEST PUSH1 0x0 PUSH1 0x2 PUSH1 0x0 DUP5 PUSH20 0xFFFFFFFFFFFFFFFFFFFFFFFFFFFFFFFFFFFFFFFF AND PUSH20 0xFFFFFFFFFFFFFFFFFFFFFFFFFFFFFFFFFFFFFFFF AND DUP2 MSTORE PUSH1 0x20 ADD SWAP1 DUP2 MSTORE PUSH1 0x20 ADD PUSH1 0x0 KECCAK256 PUSH1 0x0 DUP4 PUSH20 0xFFFFFFFFFFFFFFFFFFFFFFFFFFFFFFFFFFFFFFFF AND PUSH20 0xFFFFFFFFFFFFFFFFFFFFFFFFFFFFFFFFFFFFFFFF AND DUP2 MSTORE PUSH1 0x20 ADD SWAP1 DUP2 MSTORE PUSH1 0x20 ADD PUSH1 0x0 KECCAK256 SLOAD SWAP1 POP SWAP3 SWAP2 POP POP JUMP JUMPDEST PUSH2 0x887 PUSH2 0x992 JUMP JUMPDEST PUSH20 0xFFFFFFFFFFFFFFFFFFFFFFFFFFFFFFFFFFFFFFFF AND PUSH2 0x8A5 PUSH2 0x652 JUMP JUMPDEST PUSH20 0xFFFFFFFFFFFFFFFFFFFFFFFFFFFFFFFFFFFFFFFF AND EQ PUSH2 0x8FB JUMPI PUSH1 0x40 MLOAD PUSH32 0x8C379A000000000000000000000000000000000000000000000000000000000 DUP2 MSTORE PUSH1 0x4 ADD PUSH2 0x8F2 SWAP1 PUSH2 0x1235 JUMP JUMPDEST PUSH1 0x40 MLOAD DUP1 SWAP2 SUB SWAP1 REVERT JUMPDEST PUSH1 0x0 PUSH20 0xFFFFFFFFFFFFFFFFFFFFFFFFFFFFFFFFFFFFFFFF AND DUP2 PUSH20 0xFFFFFFFFFFFFFFFFFFFFFFFFFFFFFFFFFFFFFFFF AND EQ ISZERO PUSH2 0x96B JUMPI PUSH1 0x40 MLOAD PUSH32 0x8C379A000000000000000000000000000000000000000000000000000000000 DUP2 MSTORE PUSH1 0x4 ADD PUSH2 0x962 SWAP1 PUSH2 0x11F5 JUMP JUMPDEST PUSH1 0x40 MLOAD DUP1 SWAP2 SUB SWAP1 REVERT JUMPDEST PUSH2 0x974 DUP2 PUSH2 0xE53 JUMP JUMPDEST POP JUMP JUMPDEST PUSH1 0x1 DUP2 JUMP JUMPDEST PUSH1 0x0 DUP2 DUP4 PUSH2 0x98A SWAP2 SWAP1 PUSH2 0x12E7 JUMP JUMPDEST SWAP1 POP SWAP3 SWAP2 POP POP JUMP JUMPDEST PUSH1 0x0 CALLER SWAP1 POP SWAP1 JUMP JUMPDEST PUSH1 0x0 PUSH20 0xFFFFFFFFFFFFFFFFFFFFFFFFFFFFFFFFFFFFFFFF AND DUP4 PUSH20 0xFFFFFFFFFFFFFFFFFFFFFFFFFFFFFFFFFFFFFFFF AND EQ ISZERO PUSH2 0xA0A JUMPI PUSH1 0x40 MLOAD PUSH32 0x8C379A000000000000000000000000000000000000000000000000000000000 DUP2 MSTORE PUSH1 0x4 ADD PUSH2 0xA01 SWAP1 PUSH2 0x1275 JUMP JUMPDEST PUSH1 0x40 MLOAD DUP1 SWAP2 SUB SWAP1 REVERT JUMPDEST PUSH1 0x0 PUSH20 0xFFFFFFFFFFFFFFFFFFFFFFFFFFFFFFFFFFFFFFFF AND DUP3 PUSH20 0xFFFFFFFFFFFFFFFFFFFFFFFFFFFFFFFFFFFFFFFF AND EQ ISZERO PUSH2 0xA7A JUMPI PUSH1 0x40 MLOAD PUSH32 0x8C379A000000000000000000000000000000000000000000000000000000000 DUP2 MSTORE PUSH1 0x4 ADD PUSH2 0xA71 SWAP1 PUSH2 0x1215 JUMP JUMPDEST PUSH1 0x40 MLOAD DUP1 SWAP2 SUB SWAP1 REVERT JUMPDEST DUP1 PUSH1 0x2 PUSH1 0x0 DUP6 PUSH20 0xFFFFFFFFFFFFFFFFFFFFFFFFFFFFFFFFFFFFFFFF AND PUSH20 0xFFFFFFFFFFFFFFFFFFFFFFFFFFFFFFFFFFFFFFFF AND DUP2 MSTORE PUSH1 0x20 ADD SWAP1 DUP2 MSTORE PUSH1 0x20 ADD PUSH1 0x0 KECCAK256 PUSH1 0x0 DUP5 PUSH20 0xFFFFFFFFFFFFFFFFFFFFFFFFFFFFFFFFFFFFFFFF AND PUSH20 0xFFFFFFFFFFFFFFFFFFFFFFFFFFFFFFFFFFFFFFFF AND DUP2 MSTORE PUSH1 0x20 ADD SWAP1 DUP2 MSTORE PUSH1 0x20 ADD PUSH1 0x0 KECCAK256 DUP2 SWAP1 SSTORE POP DUP2 PUSH20 0xFFFFFFFFFFFFFFFFFFFFFFFFFFFFFFFFFFFFFFFF AND DUP4 PUSH20 0xFFFFFFFFFFFFFFFFFFFFFFFFFFFFFFFFFFFFFFFF AND PUSH32 0x8C5BE1E5EBEC7D5BD14F71427D1E84F3DD0314C0F7B2291E5B200AC8C7C3B925 DUP4 PUSH1 0x40 MLOAD PUSH2 0xB58 SWAP2 SWAP1 PUSH2 0x1295 JUMP JUMPDEST PUSH1 0x40 MLOAD DUP1 SWAP2 SUB SWAP1 LOG3 POP POP POP JUMP JUMPDEST PUSH1 0x0 PUSH20 0xFFFFFFFFFFFFFFFFFFFFFFFFFFFFFFFFFFFFFFFF AND DUP4 PUSH20 0xFFFFFFFFFFFFFFFFFFFFFFFFFFFFFFFFFFFFFFFF AND EQ ISZERO PUSH2 0xBD5 JUMPI PUSH1 0x40 MLOAD PUSH32 0x8C379A000000000000000000000000000000000000000000000000000000000 DUP2 MSTORE PUSH1 0x4 ADD PUSH2 0xBCC SWAP1 PUSH2 0x1255 JUMP JUMPDEST PUSH1 0x40 MLOAD DUP1 SWAP2 SUB SWAP1 REVERT JUMPDEST PUSH1 0x0 PUSH20 0xFFFFFFFFFFFFFFFFFFFFFFFFFFFFFFFFFFFFFFFF AND DUP3 PUSH20 0xFFFFFFFFFFFFFFFFFFFFFFFFFFFFFFFFFFFFFFFF AND EQ ISZERO PUSH2 0xC45 JUMPI PUSH1 0x40 MLOAD PUSH32 0x8C379A000000000000000000000000000000000000000000000000000000000 DUP2 MSTORE PUSH1 0x4 ADD PUSH2 0xC3C SWAP1 PUSH2 0x11D5 JUMP JUMPDEST PUSH1 0x40 MLOAD DUP1 SWAP2 SUB SWAP1 REVERT JUMPDEST PUSH2 0xC50 DUP4 DUP4 DUP4 PUSH2 0xF17 JUMP JUMPDEST PUSH2 0xCBC DUP2 PUSH1 0x40 MLOAD DUP1 PUSH1 0x60 ADD PUSH1 0x40 MSTORE DUP1 PUSH1 0x26 DUP2 MSTORE PUSH1 0x20 ADD PUSH2 0x1649 PUSH1 0x26 SWAP2 CODECOPY PUSH1 0x1 PUSH1 0x0 DUP8 PUSH20 0xFFFFFFFFFFFFFFFFFFFFFFFFFFFFFFFFFFFFFFFF AND PUSH20 0xFFFFFFFFFFFFFFFFFFFFFFFFFFFFFFFFFFFFFFFF AND DUP2 MSTORE PUSH1 0x20 ADD SWAP1 DUP2 MSTORE PUSH1 0x20 ADD PUSH1 0x0 KECCAK256 SLOAD PUSH2 0xDFE SWAP1 SWAP3 SWAP2 SWAP1 PUSH4 0xFFFFFFFF AND JUMP JUMPDEST PUSH1 0x1 PUSH1 0x0 DUP6 PUSH20 0xFFFFFFFFFFFFFFFFFFFFFFFFFFFFFFFFFFFFFFFF AND PUSH20 0xFFFFFFFFFFFFFFFFFFFFFFFFFFFFFFFFFFFFFFFF AND DUP2 MSTORE PUSH1 0x20 ADD SWAP1 DUP2 MSTORE PUSH1 0x20 ADD PUSH1 0x0 KECCAK256 DUP2 SWAP1 SSTORE POP PUSH2 0xD51 DUP2 PUSH1 0x1 PUSH1 0x0 DUP6 PUSH20 0xFFFFFFFFFFFFFFFFFFFFFFFFFFFFFFFFFFFFFFFF AND PUSH20 0xFFFFFFFFFFFFFFFFFFFFFFFFFFFFFFFFFFFFFFFF AND DUP2 MSTORE PUSH1 0x20 ADD SWAP1 DUP2 MSTORE PUSH1 0x20 ADD PUSH1 0x0 KECCAK256 SLOAD PUSH2 0x97C SWAP1 SWAP2 SWAP1 PUSH4 0xFFFFFFFF AND JUMP JUMPDEST PUSH1 0x1 PUSH1 0x0 DUP5 PUSH20 0xFFFFFFFFFFFFFFFFFFFFFFFFFFFFFFFFFFFFFFFF AND PUSH20 0xFFFFFFFFFFFFFFFFFFFFFFFFFFFFFFFFFFFFFFFF AND DUP2 MSTORE PUSH1 0x20 ADD SWAP1 DUP2 MSTORE PUSH1 0x20 ADD PUSH1 0x0 KECCAK256 DUP2 SWAP1 SSTORE POP DUP2 PUSH20 0xFFFFFFFFFFFFFFFFFFFFFFFFFFFFFFFFFFFFFFFF AND DUP4 PUSH20 0xFFFFFFFFFFFFFFFFFFFFFFFFFFFFFFFFFFFFFFFF AND PUSH32 0xDDF252AD1BE2C89B69C2B068FC378DAA952BA7F163C4A11628F55A4DF523B3EF DUP4 PUSH1 0x40 MLOAD PUSH2 0xDF1 SWAP2 SWAP1 PUSH2 0x1295 JUMP JUMPDEST PUSH1 0x40 MLOAD DUP1 SWAP2 SUB SWAP1 LOG3 POP POP POP JUMP JUMPDEST PUSH1 0x0 DUP4 DUP4 GT ISZERO DUP3 SWAP1 PUSH2 0xE46 JUMPI PUSH1 0x40 MLOAD PUSH32 0x8C379A000000000000000000000000000000000000000000000000000000000 DUP2 MSTORE PUSH1 0x4 ADD PUSH2 0xE3D SWAP2 SWAP1 PUSH2 0x11B3 JUMP JUMPDEST PUSH1 0x40 MLOAD DUP1 SWAP2 SUB SWAP1 REVERT JUMPDEST POP DUP3 DUP5 SUB SWAP1 POP SWAP4 SWAP3 POP POP POP JUMP JUMPDEST PUSH1 0x0 DUP1 PUSH1 0x0 SWAP1 SLOAD SWAP1 PUSH2 0x100 EXP SWAP1 DIV PUSH20 0xFFFFFFFFFFFFFFFFFFFFFFFFFFFFFFFFFFFFFFFF AND SWAP1 POP DUP2 PUSH1 0x0 DUP1 PUSH2 0x100 EXP DUP2 SLOAD DUP2 PUSH20 0xFFFFFFFFFFFFFFFFFFFFFFFFFFFFFFFFFFFFFFFF MUL NOT AND SWAP1 DUP4 PUSH20 0xFFFFFFFFFFFFFFFFFFFFFFFFFFFFFFFFFFFFFFFF AND MUL OR SWAP1 SSTORE POP DUP2 PUSH20 0xFFFFFFFFFFFFFFFFFFFFFFFFFFFFFFFFFFFFFFFF AND DUP2 PUSH20 0xFFFFFFFFFFFFFFFFFFFFFFFFFFFFFFFFFFFFFFFF AND PUSH32 0x8BE0079C531659141344CD1FD0A4F28419497F9722A3DAAFE3B4186F6B6457E0 PUSH1 0x40 MLOAD PUSH1 0x40 MLOAD DUP1 SWAP2 SUB SWAP1 LOG3 POP POP JUMP JUMPDEST POP POP POP JUMP JUMPDEST PUSH1 0x0 DUP2 CALLDATALOAD SWAP1 POP PUSH2 0xF2B DUP2 PUSH2 0x161A JUMP JUMPDEST SWAP3 SWAP2 POP POP JUMP JUMPDEST PUSH1 0x0 DUP2 CALLDATALOAD SWAP1 POP PUSH2 0xF40 DUP2 PUSH2 0x1631 JUMP JUMPDEST SWAP3 SWAP2 POP POP JUMP JUMPDEST PUSH1 0x0 PUSH1 0x20 DUP3 DUP5 SUB SLT ISZERO PUSH2 0xF58 JUMPI PUSH1 0x0 DUP1 REVERT JUMPDEST PUSH1 0x0 PUSH2 0xF66 DUP5 DUP3 DUP6 ADD PUSH2 0xF1C JUMP JUMPDEST SWAP2 POP POP SWAP3 SWAP2 POP POP JUMP JUMPDEST PUSH1 0x0 DUP1 PUSH1 0x40 DUP4 DUP6 SUB SLT ISZERO PUSH2 0xF82 JUMPI PUSH1 0x0 DUP1 REVERT JUMPDEST PUSH1 0x0 PUSH2 0xF90 DUP6 DUP3 DUP7 ADD PUSH2 0xF1C JUMP JUMPDEST SWAP3 POP POP PUSH1 0x20 PUSH2 0xFA1 DUP6 DUP3 DUP7 ADD PUSH2 0xF1C JUMP JUMPDEST SWAP2 POP POP SWAP3 POP SWAP3 SWAP1 POP JUMP JUMPDEST PUSH1 0x0 DUP1 PUSH1 0x0 PUSH1 0x60 DUP5 DUP7 SUB SLT ISZERO PUSH2 0xFC0 JUMPI PUSH1 0x0 DUP1 REVERT JUMPDEST PUSH1 0x0 PUSH2 0xFCE DUP7 DUP3 DUP8 ADD PUSH2 0xF1C JUMP JUMPDEST SWAP4 POP POP PUSH1 0x20 PUSH2 0xFDF DUP7 DUP3 DUP8 ADD PUSH2 0xF1C JUMP JUMPDEST SWAP3 POP POP PUSH1 0x40 PUSH2 0xFF0 DUP7 DUP3 DUP8 ADD PUSH2 0xF31 JUMP JUMPDEST SWAP2 POP POP SWAP3 POP SWAP3 POP SWAP3 JUMP JUMPDEST PUSH1 0x0 DUP1 PUSH1 0x40 DUP4 DUP6 SUB SLT ISZERO PUSH2 0x100D JUMPI PUSH1 0x0 DUP1 REVERT JUMPDEST PUSH1 0x0 PUSH2 0x101B DUP6 DUP3 DUP7 ADD PUSH2 0xF1C JUMP JUMPDEST SWAP3 POP POP PUSH1 0x20 PUSH2 0x102C DUP6 DUP3 DUP7 ADD PUSH2 0xF31 JUMP JUMPDEST SWAP2 POP POP SWAP3 POP SWAP3 SWAP1 POP JUMP JUMPDEST PUSH2 0x103F DUP2 PUSH2 0x133D JUMP JUMPDEST DUP3 MSTORE POP POP JUMP JUMPDEST PUSH2 0x104E DUP2 PUSH2 0x134F JUMP JUMPDEST DUP3 MSTORE POP POP JUMP JUMPDEST PUSH1 0x0 PUSH2 0x105F DUP3 PUSH2 0x12CB JUMP JUMPDEST PUSH2 0x1069 DUP2 DUP6 PUSH2 0x12D6 JUMP JUMPDEST SWAP4 POP PUSH2 0x1079 DUP2 DUP6 PUSH1 0x20 DUP7 ADD PUSH2 0x1392 JUMP JUMPDEST PUSH2 0x1082 DUP2 PUSH2 0x1455 JUMP JUMPDEST DUP5 ADD SWAP2 POP POP SWAP3 SWAP2 POP POP JUMP JUMPDEST PUSH1 0x0 PUSH2 0x109A PUSH1 0x23 DUP4 PUSH2 0x12D6 JUMP JUMPDEST SWAP2 POP PUSH2 0x10A5 DUP3 PUSH2 0x1466 JUMP JUMPDEST PUSH1 0x40 DUP3 ADD SWAP1 POP SWAP2 SWAP1 POP JUMP JUMPDEST PUSH1 0x0 PUSH2 0x10BD PUSH1 0x26 DUP4 PUSH2 0x12D6 JUMP JUMPDEST SWAP2 POP PUSH2 0x10C8 DUP3 PUSH2 0x14B5 JUMP JUMPDEST PUSH1 0x40 DUP3 ADD SWAP1 POP SWAP2 SWAP1 POP JUMP JUMPDEST PUSH1 0x0 PUSH2 0x10E0 PUSH1 0x22 DUP4 PUSH2 0x12D6 JUMP JUMPDEST SWAP2 POP PUSH2 0x10EB DUP3 PUSH2 0x1504 JUMP JUMPDEST PUSH1 0x40 DUP3 ADD SWAP1 POP SWAP2 SWAP1 POP JUMP JUMPDEST PUSH1 0x0 PUSH2 0x1103 PUSH1 0x20 DUP4 PUSH2 0x12D6 JUMP JUMPDEST SWAP2 POP PUSH2 0x110E DUP3 PUSH2 0x1553 JUMP JUMPDEST PUSH1 0x20 DUP3 ADD SWAP1 POP SWAP2 SWAP1 POP JUMP JUMPDEST PUSH1 0x0 PUSH2 0x1126 PUSH1 0x25 DUP4 PUSH2 0x12D6 JUMP JUMPDEST SWAP2 POP PUSH2 0x1131 DUP3 PUSH2 0x157C JUMP JUMPDEST PUSH1 0x40 DUP3 ADD SWAP1 POP SWAP2 SWAP1 POP JUMP JUMPDEST PUSH1 0x0 PUSH2 0x1149 PUSH1 0x24 DUP4 PUSH2 0x12D6 JUMP JUMPDEST SWAP2 POP PUSH2 0x1154 DUP3 PUSH2 0x15CB JUMP JUMPDEST PUSH1 0x40 DUP3 ADD SWAP1 POP SWAP2 SWAP1 POP JUMP JUMPDEST PUSH2 0x1168 DUP2 PUSH2 0x137B JUMP JUMPDEST DUP3 MSTORE POP POP JUMP JUMPDEST PUSH2 0x1177 DUP2 PUSH2 0x1385 JUMP JUMPDEST DUP3 MSTORE POP POP JUMP JUMPDEST PUSH1 0x0 PUSH1 0x20 DUP3 ADD SWAP1 POP PUSH2 0x1192 PUSH1 0x0 DUP4 ADD DUP5 PUSH2 0x1036 JUMP JUMPDEST SWAP3 SWAP2 POP POP JUMP JUMPDEST PUSH1 0x0 PUSH1 0x20 DUP3 ADD SWAP1 POP PUSH2 0x11AD PUSH1 0x0 DUP4 ADD DUP5 PUSH2 0x1045 JUMP JUMPDEST SWAP3 SWAP2 POP POP JUMP JUMPDEST PUSH1 0x0 PUSH1 0x20 DUP3 ADD SWAP1 POP DUP2 DUP2 SUB PUSH1 0x0 DUP4 ADD MSTORE PUSH2 0x11CD DUP2 DUP5 PUSH2 0x1054 JUMP JUMPDEST SWAP1 POP SWAP3 SWAP2 POP POP JUMP JUMPDEST PUSH1 0x0 PUSH1 0x20 DUP3 ADD SWAP1 POP DUP2 DUP2 SUB PUSH1 0x0 DUP4 ADD MSTORE PUSH2 0x11EE DUP2 PUSH2 0x108D JUMP JUMPDEST SWAP1 POP SWAP2 SWAP1 POP JUMP JUMPDEST PUSH1 0x0 PUSH1 0x20 DUP3 ADD SWAP1 POP DUP2 DUP2 SUB PUSH1 0x0 DUP4 ADD MSTORE PUSH2 0x120E DUP2 PUSH2 0x10B0 JUMP JUMPDEST SWAP1 POP SWAP2 SWAP1 POP JUMP JUMPDEST PUSH1 0x0 PUSH1 0x20 DUP3 ADD SWAP1 POP DUP2 DUP2 SUB PUSH1 0x0 DUP4 ADD MSTORE PUSH2 0x122E DUP2 PUSH2 0x10D3 JUMP JUMPDEST SWAP1 POP SWAP2 SWAP1 POP JUMP JUMPDEST PUSH1 0x0 PUSH1 0x20 DUP3 ADD SWAP1 POP DUP2 DUP2 SUB PUSH1 0x0 DUP4 ADD MSTORE PUSH2 0x124E DUP2 PUSH2 0x10F6 JUMP JUMPDEST SWAP1 POP SWAP2 SWAP1 POP JUMP JUMPDEST PUSH1 0x0 PUSH1 0x20 DUP3 ADD SWAP1 POP DUP2 DUP2 SUB PUSH1 0x0 DUP4 ADD MSTORE PUSH2 0x126E DUP2 PUSH2 0x1119 JUMP JUMPDEST SWAP1 POP SWAP2 SWAP1 POP JUMP JUMPDEST PUSH1 0x0 PUSH1 0x20 DUP3 ADD SWAP1 POP DUP2 DUP2 SUB PUSH1 0x0 DUP4 ADD MSTORE PUSH2 0x128E DUP2 PUSH2 0x113C JUMP JUMPDEST SWAP1 POP SWAP2 SWAP1 POP JUMP JUMPDEST PUSH1 0x0 PUSH1 0x20 DUP3 ADD SWAP1 POP PUSH2 0x12AA PUSH1 0x0 DUP4 ADD DUP5 PUSH2 0x115F JUMP JUMPDEST SWAP3 SWAP2 POP POP JUMP JUMPDEST PUSH1 0x0 PUSH1 0x20 DUP3 ADD SWAP1 POP PUSH2 0x12C5 PUSH1 0x0 DUP4 ADD DUP5 PUSH2 0x116E JUMP JUMPDEST SWAP3 SWAP2 POP POP JUMP JUMPDEST PUSH1 0x0 DUP2 MLOAD SWAP1 POP SWAP2 SWAP1 POP JUMP JUMPDEST PUSH1 0x0 DUP3 DUP3 MSTORE PUSH1 0x20 DUP3 ADD SWAP1 POP SWAP3 SWAP2 POP POP JUMP JUMPDEST PUSH1 0x0 PUSH2 0x12F2 DUP3 PUSH2 0x137B JUMP JUMPDEST SWAP2 POP PUSH2 0x12FD DUP4 PUSH2 0x137B JUMP JUMPDEST SWAP3 POP DUP3 PUSH32 0xFFFFFFFFFFFFFFFFFFFFFFFFFFFFFFFFFFFFFFFFFFFFFFFFFFFFFFFFFFFFFFFF SUB DUP3 GT ISZERO PUSH2 0x1332 JUMPI PUSH2 0x1331 PUSH2 0x13F7 JUMP JUMPDEST JUMPDEST DUP3 DUP3 ADD SWAP1 POP SWAP3 SWAP2 POP POP JUMP JUMPDEST PUSH1 0x0 PUSH2 0x1348 DUP3 PUSH2 0x135B JUMP JUMPDEST SWAP1 POP SWAP2 SWAP1 POP JUMP JUMPDEST PUSH1 0x0 DUP2 ISZERO ISZERO SWAP1 POP SWAP2 SWAP1 POP JUMP JUMPDEST PUSH1 0x0 PUSH20 0xFFFFFFFFFFFFFFFFFFFFFFFFFFFFFFFFFFFFFFFF DUP3 AND SWAP1 POP SWAP2 SWAP1 POP JUMP JUMPDEST PUSH1 0x0 DUP2 SWAP1 POP SWAP2 SWAP1 POP JUMP JUMPDEST PUSH1 0x0 PUSH1 0xFF DUP3 AND SWAP1 POP SWAP2 SWAP1 POP JUMP JUMPDEST PUSH1 0x0 JUMPDEST DUP4 DUP2 LT ISZERO PUSH2 0x13B0 JUMPI DUP1 DUP3 ADD MLOAD DUP2 DUP5 ADD MSTORE PUSH1 0x20 DUP2 ADD SWAP1 POP PUSH2 0x1395 JUMP JUMPDEST DUP4 DUP2 GT ISZERO PUSH2 0x13BF JUMPI PUSH1 0x0 DUP5 DUP5 ADD MSTORE JUMPDEST POP POP POP POP JUMP JUMPDEST PUSH1 0x0 PUSH1 0x2 DUP3 DIV SWAP1 POP PUSH1 0x1 DUP3 AND DUP1 PUSH2 0x13DD JUMPI PUSH1 0x7F DUP3 AND SWAP2 POP JUMPDEST PUSH1 0x20 DUP3 LT DUP2 EQ ISZERO PUSH2 0x13F1 JUMPI PUSH2 0x13F0 PUSH2 0x1426 JUMP JUMPDEST JUMPDEST POP SWAP2 SWAP1 POP JUMP JUMPDEST PUSH32 0x4E487B7100000000000000000000000000000000000000000000000000000000 PUSH1 0x0 MSTORE PUSH1 0x11 PUSH1 0x4 MSTORE PUSH1 0x24 PUSH1 0x0 REVERT JUMPDEST PUSH32 0x4E487B7100000000000000000000000000000000000000000000000000000000 PUSH1 0x0 MSTORE PUSH1 0x22 PUSH1 0x4 MSTORE PUSH1 0x24 PUSH1 0x0 REVERT JUMPDEST PUSH1 0x0 PUSH1 0x1F NOT PUSH1 0x1F DUP4 ADD AND SWAP1 POP SWAP2 SWAP1 POP JUMP JUMPDEST PUSH32 0x45524332303A207472616E7366657220746F20746865207A65726F2061646472 PUSH1 0x0 DUP3 ADD MSTORE PUSH32 0x6573730000000000000000000000000000000000000000000000000000000000 PUSH1 0x20 DUP3 ADD MSTORE POP JUMP JUMPDEST PUSH32 0x4F776E61626C653A206E6577206F776E657220697320746865207A65726F2061 PUSH1 0x0 DUP3 ADD MSTORE PUSH32 0x6464726573730000000000000000000000000000000000000000000000000000 PUSH1 0x20 DUP3 ADD MSTORE POP JUMP JUMPDEST PUSH32 0x45524332303A20617070726F766520746F20746865207A65726F206164647265 PUSH1 0x0 DUP3 ADD MSTORE PUSH32 0x7373000000000000000000000000000000000000000000000000000000000000 PUSH1 0x20 DUP3 ADD MSTORE POP JUMP JUMPDEST PUSH32 0x4F776E61626C653A2063616C6C6572206973206E6F7420746865206F776E6572 PUSH1 0x0 DUP3 ADD MSTORE POP JUMP JUMPDEST PUSH32 0x45524332303A207472616E736665722066726F6D20746865207A65726F206164 PUSH1 0x0 DUP3 ADD MSTORE PUSH32 0x6472657373000000000000000000000000000000000000000000000000000000 PUSH1 0x20 DUP3 ADD MSTORE POP JUMP JUMPDEST PUSH32 0x45524332303A20617070726F76652066726F6D20746865207A65726F20616464 PUSH1 0x0 DUP3 ADD MSTORE PUSH32 0x7265737300000000000000000000000000000000000000000000000000000000 PUSH1 0x20 DUP3 ADD MSTORE POP JUMP JUMPDEST PUSH2 0x1623 DUP2 PUSH2 0x133D JUMP JUMPDEST DUP2 EQ PUSH2 0x162E JUMPI PUSH1 0x0 DUP1 REVERT JUMPDEST POP JUMP JUMPDEST PUSH2 0x163A DUP2 PUSH2 0x137B JUMP JUMPDEST DUP2 EQ PUSH2 0x1645 JUMPI PUSH1 0x0 DUP1 REVERT JUMPDEST POP JUMP INVALID GASLIMIT MSTORE NUMBER ORIGIN ADDRESS GASPRICE KECCAK256 PUSH21 0x72616E7366657220616D6F756E7420657863656564 PUSH20 0x2062616C616E636545524332303A207472616E73 PUSH7 0x657220616D6F75 PUSH15 0x74206578636565647320616C6C6F77 PUSH2 0x6E63 PUSH6 0x45524332303A KECCAK256 PUSH5 0x6563726561 PUSH20 0x656420616C6C6F77616E63652062656C6F77207A PUSH6 0x726FA2646970 PUSH7 0x73582212204CF8 0xE9 0xEA 0x22 0xA9 0xBC 0xDD 0xAF 0xB6 MUL 0xBA 0x21 0x26 SIGNEXTEND SSTORE SELFBALANCE 0x1F MLOAD CALLER 0x4B 0xAF PUSH12 0x99EAB31482390BD03364736F PUSH13 0x63430008040033000000000000 "
				},
				"gasEstimates": {
					"creation": {
						"codeDepositCost": "1174600",
						"executionCost": "infinite",
						"totalCost": "infinite"
					},
					"external": {
						"VERSION()": "417",
						"allowance(address,address)": "infinite",
						"approve(address,uint256)": "infinite",
						"balanceOf(address)": "1630",
						"decimals()": "1224",
						"decreaseAllowance(address,uint256)": "infinite",
						"increaseAllowance(address,uint256)": "infinite",
						"name()": "infinite",
						"owner()": "1267",
						"renounceOwnership()": "24397",
						"symbol()": "infinite",
						"totalSupply()": "1205",
						"transfer(address,uint256)": "infinite",
						"transferFrom(address,address,uint256)": "infinite",
						"transferOwnership(address)": "24789"
					},
					"internal": {
						"_approve(address,address,uint256)": "infinite",
						"_beforeTokenTransfer(address,address,uint256)": "15",
						"_burn(address,uint256)": "infinite",
						"_mint(address,uint256)": "infinite",
						"_setupDecimals(uint8)": "infinite",
						"_transfer(address,address,uint256)": "infinite"
					}
				},
				"methodIdentifiers": {
					"VERSION()": "ffa1ad74",
					"allowance(address,address)": "dd62ed3e",
					"approve(address,uint256)": "095ea7b3",
					"balanceOf(address)": "70a08231",
					"decimals()": "313ce567",
					"decreaseAllowance(address,uint256)": "a457c2d7",
					"increaseAllowance(address,uint256)": "39509351",
					"name()": "06fdde03",
					"owner()": "8da5cb5b",
					"renounceOwnership()": "715018a6",
					"symbol()": "95d89b41",
					"totalSupply()": "18160ddd",
					"transfer(address,uint256)": "a9059cbb",
					"transferFrom(address,address,uint256)": "23b872dd",
					"transferOwnership(address)": "f2fde38b"
				}
			},
			"storageLayout": {
				"storage": [
					{
						"astId": 101,
						"contract": "contracts/Test_contract.sol:StandardToken",
						"label": "_owner",
						"offset": 0,
						"slot": "0",
						"type": "t_address"
					},
					{
						"astId": 545,
						"contract": "contracts/Test_contract.sol:StandardToken",
						"label": "_balances",
						"offset": 0,
						"slot": "1",
						"type": "t_mapping(t_address,t_uint256)"
					},
					{
						"astId": 551,
						"contract": "contracts/Test_contract.sol:StandardToken",
						"label": "_allowances",
						"offset": 0,
						"slot": "2",
						"type": "t_mapping(t_address,t_mapping(t_address,t_uint256))"
					},
					{
						"astId": 553,
						"contract": "contracts/Test_contract.sol:StandardToken",
						"label": "_name",
						"offset": 0,
						"slot": "3",
						"type": "t_string_storage"
					},
					{
						"astId": 555,
						"contract": "contracts/Test_contract.sol:StandardToken",
						"label": "_symbol",
						"offset": 0,
						"slot": "4",
						"type": "t_string_storage"
					},
					{
						"astId": 557,
						"contract": "contracts/Test_contract.sol:StandardToken",
						"label": "_decimals",
						"offset": 0,
						"slot": "5",
						"type": "t_uint8"
					},
					{
						"astId": 559,
						"contract": "contracts/Test_contract.sol:StandardToken",
						"label": "_totalSupply",
						"offset": 0,
						"slot": "6",
						"type": "t_uint256"
					}
				],
				"types": {
					"t_address": {
						"encoding": "inplace",
						"label": "address",
						"numberOfBytes": "20"
					},
					"t_mapping(t_address,t_mapping(t_address,t_uint256))": {
						"encoding": "mapping",
						"key": "t_address",
						"label": "mapping(address => mapping(address => uint256))",
						"numberOfBytes": "32",
						"value": "t_mapping(t_address,t_uint256)"
					},
					"t_mapping(t_address,t_uint256)": {
						"encoding": "mapping",
						"key": "t_address",
						"label": "mapping(address => uint256)",
						"numberOfBytes": "32",
						"value": "t_uint256"
					},
					"t_string_storage": {
						"encoding": "bytes",
						"label": "string",
						"numberOfBytes": "32"
					},
					"t_uint256": {
						"encoding": "inplace",
						"label": "uint256",
						"numberOfBytes": "32"
					},
					"t_uint8": {
						"encoding": "inplace",
						"label": "uint8",
						"numberOfBytes": "1"
					}
				}
			},
			"userdoc": {
				"kind": "user",
				"methods": {},
				"version": 1
			}
		}
	}
}