{
	"contracts/OPTB/Token_Distribution/TokenDistribution_1_0_0.sol": {
		"MCPDistribution": {
			"abi": [
				{
					"inputs": [
						{
							"internalType": "address",
							"name": "_mcpToken",
							"type": "address"
						},
						{
							"internalType": "address",
							"name": "initialOwner",
							"type": "address"
						}
					],
					"stateMutability": "nonpayable",
					"type": "constructor"
				},
				{
					"inputs": [
						{
							"internalType": "address",
							"name": "owner",
							"type": "address"
						}
					],
					"name": "OwnableInvalidOwner",
					"type": "error"
				},
				{
					"inputs": [
						{
							"internalType": "address",
							"name": "account",
							"type": "address"
						}
					],
					"name": "OwnableUnauthorizedAccount",
					"type": "error"
				},
				{
					"anonymous": false,
					"inputs": [],
					"name": "ContractDestroyed",
					"type": "event"
				},
				{
					"anonymous": false,
					"inputs": [
						{
							"indexed": true,
							"internalType": "address",
							"name": "previousOwner",
							"type": "address"
						},
						{
							"indexed": true,
							"internalType": "address",
							"name": "newOwner",
							"type": "address"
						}
					],
					"name": "OwnershipTransferred",
					"type": "event"
				},
				{
					"anonymous": false,
					"inputs": [
						{
							"indexed": true,
							"internalType": "address",
							"name": "stakeholder",
							"type": "address"
						},
						{
							"indexed": false,
							"internalType": "uint256",
							"name": "percentage",
							"type": "uint256"
						}
					],
					"name": "StakeholderAdded",
					"type": "event"
				},
				{
					"anonymous": false,
					"inputs": [
						{
							"indexed": false,
							"internalType": "uint256",
							"name": "amount",
							"type": "uint256"
						}
					],
					"name": "TokensDistributed",
					"type": "event"
				},
				{
					"inputs": [
						{
							"internalType": "address",
							"name": "_stakeholder",
							"type": "address"
						},
						{
							"internalType": "uint256",
							"name": "_percentage",
							"type": "uint256"
						}
					],
					"name": "addStakeholder",
					"outputs": [],
					"stateMutability": "nonpayable",
					"type": "function"
				},
				{
					"inputs": [],
					"name": "approvalCount",
					"outputs": [
						{
							"internalType": "uint256",
							"name": "",
							"type": "uint256"
						}
					],
					"stateMutability": "view",
					"type": "function"
				},
				{
					"inputs": [],
					"name": "approveDistribution",
					"outputs": [],
					"stateMutability": "nonpayable",
					"type": "function"
				},
				{
					"inputs": [],
					"name": "contractBalance",
					"outputs": [
						{
							"internalType": "uint256",
							"name": "",
							"type": "uint256"
						}
					],
					"stateMutability": "view",
					"type": "function"
				},
				{
					"inputs": [],
					"name": "destroyVotes",
					"outputs": [
						{
							"internalType": "uint256",
							"name": "",
							"type": "uint256"
						}
					],
					"stateMutability": "view",
					"type": "function"
				},
				{
					"inputs": [],
					"name": "distributeTokens",
					"outputs": [],
					"stateMutability": "nonpayable",
					"type": "function"
				},
				{
					"inputs": [],
					"name": "mcpToken",
					"outputs": [
						{
							"internalType": "contract IERC20",
							"name": "",
							"type": "address"
						}
					],
					"stateMutability": "view",
					"type": "function"
				},
				{
					"inputs": [],
					"name": "owner",
					"outputs": [
						{
							"internalType": "address",
							"name": "",
							"type": "address"
						}
					],
					"stateMutability": "view",
					"type": "function"
				},
				{
					"inputs": [],
					"name": "renounceOwnership",
					"outputs": [],
					"stateMutability": "nonpayable",
					"type": "function"
				},
				{
					"inputs": [
						{
							"internalType": "uint256",
							"name": "",
							"type": "uint256"
						}
					],
					"name": "stakeholderList",
					"outputs": [
						{
							"internalType": "address",
							"name": "",
							"type": "address"
						}
					],
					"stateMutability": "view",
					"type": "function"
				},
				{
					"inputs": [
						{
							"internalType": "address",
							"name": "",
							"type": "address"
						}
					],
					"name": "stakeholders",
					"outputs": [
						{
							"internalType": "uint256",
							"name": "percentage",
							"type": "uint256"
						},
						{
							"internalType": "bool",
							"name": "exists",
							"type": "bool"
						},
						{
							"internalType": "bool",
							"name": "approved",
							"type": "bool"
						},
						{
							"internalType": "bool",
							"name": "votedToDestroy",
							"type": "bool"
						}
					],
					"stateMutability": "view",
					"type": "function"
				},
				{
					"inputs": [],
					"name": "totalPercentage",
					"outputs": [
						{
							"internalType": "uint256",
							"name": "",
							"type": "uint256"
						}
					],
					"stateMutability": "view",
					"type": "function"
				},
				{
					"inputs": [
						{
							"internalType": "address",
							"name": "newOwner",
							"type": "address"
						}
					],
					"name": "transferOwnership",
					"outputs": [],
					"stateMutability": "nonpayable",
					"type": "function"
				},
				{
					"inputs": [],
					"name": "voteToDestroy",
					"outputs": [],
					"stateMutability": "nonpayable",
					"type": "function"
				}
			],
			"devdoc": {
				"errors": {
					"OwnableInvalidOwner(address)": [
						{
							"details": "The owner is not a valid owner account. (eg. `address(0)`)"
						}
					],
					"OwnableUnauthorizedAccount(address)": [
						{
							"details": "The caller account is not authorized to perform an operation."
						}
					]
				},
				"kind": "dev",
				"methods": {
					"owner()": {
						"details": "Returns the address of the current owner."
					},
					"renounceOwnership()": {
						"details": "Leaves the contract without owner. It will not be possible to call `onlyOwner` functions. Can only be called by the current owner. NOTE: Renouncing ownership will leave the contract without an owner, thereby disabling any functionality that is only available to the owner."
					},
					"transferOwnership(address)": {
						"details": "Transfers ownership of the contract to a new account (`newOwner`). Can only be called by the current owner."
					}
				},
				"version": 1
			},
			"evm": {
				"assembly": "    /* \"contracts/OPTB/Token_Distribution/TokenDistribution_1_0_0.sol\":204:3302  contract MCPDistribution is Ownable {... */\n  mstore(0x40, 0x80)\n    /* \"contracts/OPTB/Token_Distribution/TokenDistribution_1_0_0.sol\":933:1055  constructor(address _mcpToken, address initialOwner) Ownable(initialOwner) {... */\n  callvalue\n  dup1\n  iszero\n  tag_1\n  jumpi\n  revert(0x00, 0x00)\ntag_1:\n  pop\n  mload(0x40)\n  sub(codesize, bytecodeSize)\n  dup1\n  bytecodeSize\n  dup4\n  codecopy\n  dup2\n  dup2\n  add\n  0x40\n  mstore\n  dup2\n  add\n  swap1\n  tag_2\n  swap2\n  swap1\n  tag_3\n  jump\t// in\ntag_2:\n    /* \"contracts/OPTB/Token_Distribution/TokenDistribution_1_0_0.sol\":994:1006  initialOwner */\n  dup1\n    /* \"@openzeppelin/contracts/access/Ownable.sol\":1297:1298  0 */\n  0x00\n    /* \"@openzeppelin/contracts/access/Ownable.sol\":1273:1299  initialOwner == address(0) */\n  0xffffffffffffffffffffffffffffffffffffffff\n  and\n    /* \"@openzeppelin/contracts/access/Ownable.sol\":1273:1285  initialOwner */\n  dup2\n    /* \"@openzeppelin/contracts/access/Ownable.sol\":1273:1299  initialOwner == address(0) */\n  0xffffffffffffffffffffffffffffffffffffffff\n  and\n  sub\n    /* \"@openzeppelin/contracts/access/Ownable.sol\":1269:1364  if (initialOwner == address(0)) {... */\n  tag_7\n  jumpi\n    /* \"@openzeppelin/contracts/access/Ownable.sol\":1350:1351  0 */\n  0x00\n    /* \"@openzeppelin/contracts/access/Ownable.sol\":1322:1353  OwnableInvalidOwner(address(0)) */\n  mload(0x40)\n  0x1e4fbdf700000000000000000000000000000000000000000000000000000000\n  dup2\n  mstore\n  0x04\n  add\n  tag_8\n  swap2\n  swap1\n  tag_9\n  jump\t// in\ntag_8:\n  mload(0x40)\n  dup1\n  swap2\n  sub\n  swap1\n  revert\n    /* \"@openzeppelin/contracts/access/Ownable.sol\":1269:1364  if (initialOwner == address(0)) {... */\ntag_7:\n    /* \"@openzeppelin/contracts/access/Ownable.sol\":1373:1405  _transferOwnership(initialOwner) */\n  tag_10\n    /* \"@openzeppelin/contracts/access/Ownable.sol\":1392:1404  initialOwner */\n  dup2\n    /* \"@openzeppelin/contracts/access/Ownable.sol\":1373:1391  _transferOwnership */\n  shl(0x20, tag_11)\n    /* \"@openzeppelin/contracts/access/Ownable.sol\":1373:1405  _transferOwnership(initialOwner) */\n  0x20\n  shr\n  jump\t// in\ntag_10:\n    /* \"@openzeppelin/contracts/access/Ownable.sol\":1225:1412  constructor(address initialOwner) {... */\n  pop\n    /* \"contracts/OPTB/Token_Distribution/TokenDistribution_1_0_0.sol\":1037:1046  _mcpToken */\n  dup2\n    /* \"contracts/OPTB/Token_Distribution/TokenDistribution_1_0_0.sol\":1019:1027  mcpToken */\n  0x01\n  0x00\n    /* \"contracts/OPTB/Token_Distribution/TokenDistribution_1_0_0.sol\":1019:1047  mcpToken = IERC20(_mcpToken) */\n  0x0100\n  exp\n  dup2\n  sload\n  dup2\n  0xffffffffffffffffffffffffffffffffffffffff\n  mul\n  not\n  and\n  swap1\n  dup4\n  0xffffffffffffffffffffffffffffffffffffffff\n  and\n  mul\n  or\n  swap1\n  sstore\n  pop\n    /* \"contracts/OPTB/Token_Distribution/TokenDistribution_1_0_0.sol\":933:1055  constructor(address _mcpToken, address initialOwner) Ownable(initialOwner) {... */\n  pop\n  pop\n    /* \"contracts/OPTB/Token_Distribution/TokenDistribution_1_0_0.sol\":204:3302  contract MCPDistribution is Ownable {... */\n  jump(tag_13)\n    /* \"@openzeppelin/contracts/access/Ownable.sol\":2912:3099  function _transferOwnership(address newOwner) internal virtual {... */\ntag_11:\n    /* \"@openzeppelin/contracts/access/Ownable.sol\":2985:3001  address oldOwner */\n  0x00\n    /* \"@openzeppelin/contracts/access/Ownable.sol\":3004:3010  _owner */\n  0x00\n  0x00\n  swap1\n  sload\n  swap1\n  0x0100\n  exp\n  swap1\n  div\n  0xffffffffffffffffffffffffffffffffffffffff\n  and\n    /* \"@openzeppelin/contracts/access/Ownable.sol\":2985:3010  address oldOwner = _owner */\n  swap1\n  pop\n    /* \"@openzeppelin/contracts/access/Ownable.sol\":3029:3037  newOwner */\n  dup2\n    /* \"@openzeppelin/contracts/access/Ownable.sol\":3020:3026  _owner */\n  0x00\n  0x00\n    /* \"@openzeppelin/contracts/access/Ownable.sol\":3020:3037  _owner = newOwner */\n  0x0100\n  exp\n  dup2\n  sload\n  dup2\n  0xffffffffffffffffffffffffffffffffffffffff\n  mul\n  not\n  and\n  swap1\n  dup4\n  0xffffffffffffffffffffffffffffffffffffffff\n  and\n  mul\n  or\n  swap1\n  sstore\n  pop\n    /* \"@openzeppelin/contracts/access/Ownable.sol\":3083:3091  newOwner */\n  dup2\n    /* \"@openzeppelin/contracts/access/Ownable.sol\":3052:3092  OwnershipTransferred(oldOwner, newOwner) */\n  0xffffffffffffffffffffffffffffffffffffffff\n  and\n    /* \"@openzeppelin/contracts/access/Ownable.sol\":3073:3081  oldOwner */\n  dup2\n    /* \"@openzeppelin/contracts/access/Ownable.sol\":3052:3092  OwnershipTransferred(oldOwner, newOwner) */\n  0xffffffffffffffffffffffffffffffffffffffff\n  and\n  0x8be0079c531659141344cd1fd0a4f28419497f9722a3daafe3b4186f6b6457e0\n  mload(0x40)\n  mload(0x40)\n  dup1\n  swap2\n  sub\n  swap1\n  log3\n    /* \"@openzeppelin/contracts/access/Ownable.sol\":2975:3099  {... */\n  pop\n    /* \"@openzeppelin/contracts/access/Ownable.sol\":2912:3099  function _transferOwnership(address newOwner) internal virtual {... */\n  pop\n  jump\t// out\n    /* \"#utility.yul\":88:205   */\ntag_16:\n    /* \"#utility.yul\":197:198   */\n  0x00\n    /* \"#utility.yul\":194:195   */\n  0x00\n    /* \"#utility.yul\":187:199   */\n  revert\n    /* \"#utility.yul\":334:460   */\ntag_18:\n    /* \"#utility.yul\":371:378   */\n  0x00\n    /* \"#utility.yul\":411:453   */\n  0xffffffffffffffffffffffffffffffffffffffff\n    /* \"#utility.yul\":404:409   */\n  dup3\n    /* \"#utility.yul\":400:454   */\n  and\n    /* \"#utility.yul\":389:454   */\n  swap1\n  pop\n    /* \"#utility.yul\":334:460   */\n  swap2\n  swap1\n  pop\n  jump\t// out\n    /* \"#utility.yul\":466:562   */\ntag_19:\n    /* \"#utility.yul\":503:510   */\n  0x00\n    /* \"#utility.yul\":532:556   */\n  tag_29\n    /* \"#utility.yul\":550:555   */\n  dup3\n    /* \"#utility.yul\":532:556   */\n  tag_18\n  jump\t// in\ntag_29:\n    /* \"#utility.yul\":521:556   */\n  swap1\n  pop\n    /* \"#utility.yul\":466:562   */\n  swap2\n  swap1\n  pop\n  jump\t// out\n    /* \"#utility.yul\":568:690   */\ntag_20:\n    /* \"#utility.yul\":641:665   */\n  tag_31\n    /* \"#utility.yul\":659:664   */\n  dup2\n    /* \"#utility.yul\":641:665   */\n  tag_19\n  jump\t// in\ntag_31:\n    /* \"#utility.yul\":634:639   */\n  dup2\n    /* \"#utility.yul\":631:666   */\n  eq\n    /* \"#utility.yul\":621:684   */\n  tag_32\n  jumpi\n    /* \"#utility.yul\":680:681   */\n  0x00\n    /* \"#utility.yul\":677:678   */\n  0x00\n    /* \"#utility.yul\":670:682   */\n  revert\n    /* \"#utility.yul\":621:684   */\ntag_32:\n    /* \"#utility.yul\":568:690   */\n  pop\n  jump\t// out\n    /* \"#utility.yul\":696:839   */\ntag_21:\n    /* \"#utility.yul\":753:758   */\n  0x00\n    /* \"#utility.yul\":784:790   */\n  dup2\n    /* \"#utility.yul\":778:791   */\n  mload\n    /* \"#utility.yul\":769:791   */\n  swap1\n  pop\n    /* \"#utility.yul\":800:833   */\n  tag_34\n    /* \"#utility.yul\":827:832   */\n  dup2\n    /* \"#utility.yul\":800:833   */\n  tag_20\n  jump\t// in\ntag_34:\n    /* \"#utility.yul\":696:839   */\n  swap3\n  swap2\n  pop\n  pop\n  jump\t// out\n    /* \"#utility.yul\":845:1352   */\ntag_3:\n    /* \"#utility.yul\":924:930   */\n  0x00\n    /* \"#utility.yul\":932:938   */\n  0x00\n    /* \"#utility.yul\":981:983   */\n  0x40\n    /* \"#utility.yul\":969:978   */\n  dup4\n    /* \"#utility.yul\":960:967   */\n  dup6\n    /* \"#utility.yul\":956:979   */\n  sub\n    /* \"#utility.yul\":952:984   */\n  slt\n    /* \"#utility.yul\":949:1068   */\n  iszero\n  tag_36\n  jumpi\n    /* \"#utility.yul\":987:1066   */\n  tag_37\n  tag_16\n  jump\t// in\ntag_37:\n    /* \"#utility.yul\":949:1068   */\ntag_36:\n    /* \"#utility.yul\":1107:1108   */\n  0x00\n    /* \"#utility.yul\":1132:1196   */\n  tag_38\n    /* \"#utility.yul\":1188:1195   */\n  dup6\n    /* \"#utility.yul\":1179:1185   */\n  dup3\n    /* \"#utility.yul\":1168:1177   */\n  dup7\n    /* \"#utility.yul\":1164:1186   */\n  add\n    /* \"#utility.yul\":1132:1196   */\n  tag_21\n  jump\t// in\ntag_38:\n    /* \"#utility.yul\":1122:1196   */\n  swap3\n  pop\n    /* \"#utility.yul\":1078:1206   */\n  pop\n    /* \"#utility.yul\":1245:1247   */\n  0x20\n    /* \"#utility.yul\":1271:1335   */\n  tag_39\n    /* \"#utility.yul\":1327:1334   */\n  dup6\n    /* \"#utility.yul\":1318:1324   */\n  dup3\n    /* \"#utility.yul\":1307:1316   */\n  dup7\n    /* \"#utility.yul\":1303:1325   */\n  add\n    /* \"#utility.yul\":1271:1335   */\n  tag_21\n  jump\t// in\ntag_39:\n    /* \"#utility.yul\":1261:1335   */\n  swap2\n  pop\n    /* \"#utility.yul\":1216:1345   */\n  pop\n    /* \"#utility.yul\":845:1352   */\n  swap3\n  pop\n  swap3\n  swap1\n  pop\n  jump\t// out\n    /* \"#utility.yul\":1358:1476   */\ntag_22:\n    /* \"#utility.yul\":1445:1469   */\n  tag_41\n    /* \"#utility.yul\":1463:1468   */\n  dup2\n    /* \"#utility.yul\":1445:1469   */\n  tag_19\n  jump\t// in\ntag_41:\n    /* \"#utility.yul\":1440:1443   */\n  dup3\n    /* \"#utility.yul\":1433:1470   */\n  mstore\n    /* \"#utility.yul\":1358:1476   */\n  pop\n  pop\n  jump\t// out\n    /* \"#utility.yul\":1482:1704   */\ntag_9:\n    /* \"#utility.yul\":1575:1579   */\n  0x00\n    /* \"#utility.yul\":1613:1615   */\n  0x20\n    /* \"#utility.yul\":1602:1611   */\n  dup3\n    /* \"#utility.yul\":1598:1616   */\n  add\n    /* \"#utility.yul\":1590:1616   */\n  swap1\n  pop\n    /* \"#utility.yul\":1626:1697   */\n  tag_43\n    /* \"#utility.yul\":1694:1695   */\n  0x00\n    /* \"#utility.yul\":1683:1692   */\n  dup4\n    /* \"#utility.yul\":1679:1696   */\n  add\n    /* \"#utility.yul\":1670:1676   */\n  dup5\n    /* \"#utility.yul\":1626:1697   */\n  tag_22\n  jump\t// in\ntag_43:\n    /* \"#utility.yul\":1482:1704   */\n  swap3\n  swap2\n  pop\n  pop\n  jump\t// out\n    /* \"contracts/OPTB/Token_Distribution/TokenDistribution_1_0_0.sol\":204:3302  contract MCPDistribution is Ownable {... */\ntag_13:\n  dataSize(sub_0)\n  dup1\n  dataOffset(sub_0)\n  0x00\n  codecopy\n  0x00\n  return\nstop\n\nsub_0: assembly {\n        /* \"contracts/OPTB/Token_Distribution/TokenDistribution_1_0_0.sol\":204:3302  contract MCPDistribution is Ownable {... */\n      mstore(0x40, 0x80)\n      callvalue\n      dup1\n      iszero\n      tag_1\n      jumpi\n      revert(0x00, 0x00)\n    tag_1:\n      pop\n      jumpi(tag_2, lt(calldatasize, 0x04))\n      shr(0xe0, calldataload(0x00))\n      dup1\n      0x9aec312e\n      gt\n      tag_17\n      jumpi\n      dup1\n      0xd44a0e61\n      gt\n      tag_18\n      jumpi\n      dup1\n      0xd44a0e61\n      eq\n      tag_13\n      jumpi\n      dup1\n      0xe320f576\n      eq\n      tag_14\n      jumpi\n      dup1\n      0xec611c29\n      eq\n      tag_15\n      jumpi\n      dup1\n      0xf2fde38b\n      eq\n      tag_16\n      jumpi\n      jump(tag_2)\n    tag_18:\n      dup1\n      0x9aec312e\n      eq\n      tag_10\n      jumpi\n      dup1\n      0xaeee40fe\n      eq\n      tag_11\n      jumpi\n      dup1\n      0xc07cfca9\n      eq\n      tag_12\n      jumpi\n      jump(tag_2)\n    tag_17:\n      dup1\n      0x8b34c207\n      gt\n      tag_19\n      jumpi\n      dup1\n      0x8b34c207\n      eq\n      tag_6\n      jumpi\n      dup1\n      0x8b7afe2e\n      eq\n      tag_7\n      jumpi\n      dup1\n      0x8da5cb5b\n      eq\n      tag_8\n      jumpi\n      dup1\n      0x9ab1b484\n      eq\n      tag_9\n      jumpi\n      jump(tag_2)\n    tag_19:\n      dup1\n      0x0fdbd14c\n      eq\n      tag_3\n      jumpi\n      dup1\n      0x6884d0a6\n      eq\n      tag_4\n      jumpi\n      dup1\n      0x715018a6\n      eq\n      tag_5\n      jumpi\n    tag_2:\n      revert(0x00, 0x00)\n        /* \"contracts/OPTB/Token_Distribution/TokenDistribution_1_0_0.sol\":2871:3297  function voteToDestroy() public onlyStakeholder {... */\n    tag_3:\n      tag_20\n      tag_21\n      jump\t// in\n    tag_20:\n      stop\n        /* \"contracts/OPTB/Token_Distribution/TokenDistribution_1_0_0.sol\":704:732  uint256 public approvalCount */\n    tag_4:\n      tag_22\n      tag_23\n      jump\t// in\n    tag_22:\n      mload(0x40)\n      tag_24\n      swap2\n      swap1\n      tag_25\n      jump\t// in\n    tag_24:\n      mload(0x40)\n      dup1\n      swap2\n      sub\n      swap1\n      return\n        /* \"@openzeppelin/contracts/access/Ownable.sol\":2293:2394  function renounceOwnership() public virtual onlyOwner {... */\n    tag_5:\n      tag_26\n      tag_27\n      jump\t// in\n    tag_26:\n      stop\n        /* \"contracts/OPTB/Token_Distribution/TokenDistribution_1_0_0.sol\":739:766  uint256 public destroyVotes */\n    tag_6:\n      tag_28\n      tag_29\n      jump\t// in\n    tag_28:\n      mload(0x40)\n      tag_30\n      swap2\n      swap1\n      tag_25\n      jump\t// in\n    tag_30:\n      mload(0x40)\n      dup1\n      swap2\n      sub\n      swap1\n      return\n        /* \"contracts/OPTB/Token_Distribution/TokenDistribution_1_0_0.sol\":2747:2863  function contractBalance() public view returns (uint256) {... */\n    tag_7:\n      tag_31\n      tag_32\n      jump\t// in\n    tag_31:\n      mload(0x40)\n      tag_33\n      swap2\n      swap1\n      tag_25\n      jump\t// in\n    tag_33:\n      mload(0x40)\n      dup1\n      swap2\n      sub\n      swap1\n      return\n        /* \"@openzeppelin/contracts/access/Ownable.sol\":1638:1723  function owner() public view virtual returns (address) {... */\n    tag_8:\n      tag_34\n      tag_35\n      jump\t// in\n    tag_34:\n      mload(0x40)\n      tag_36\n      swap2\n      swap1\n      tag_37\n      jump\t// in\n    tag_36:\n      mload(0x40)\n      dup1\n      swap2\n      sub\n      swap1\n      return\n        /* \"contracts/OPTB/Token_Distribution/TokenDistribution_1_0_0.sol\":2026:2739  function distributeTokens() public onlyOwner {... */\n    tag_9:\n      tag_38\n      tag_39\n      jump\t// in\n    tag_38:\n      stop\n        /* \"contracts/OPTB/Token_Distribution/TokenDistribution_1_0_0.sol\":1190:1795  function addStakeholder(address _stakeholder, uint256 _percentage) public onlyOwner {... */\n    tag_10:\n      tag_40\n      0x04\n      dup1\n      calldatasize\n      sub\n      dup2\n      add\n      swap1\n      tag_41\n      swap2\n      swap1\n      tag_42\n      jump\t// in\n    tag_41:\n      tag_43\n      jump\t// in\n    tag_40:\n      stop\n        /* \"contracts/OPTB/Token_Distribution/TokenDistribution_1_0_0.sol\":247:269  IERC20 public mcpToken */\n    tag_11:\n      tag_44\n      tag_45\n      jump\t// in\n    tag_44:\n      mload(0x40)\n      tag_46\n      swap2\n      swap1\n      tag_47\n      jump\t// in\n    tag_46:\n      mload(0x40)\n      dup1\n      swap2\n      sub\n      swap1\n      return\n        /* \"contracts/OPTB/Token_Distribution/TokenDistribution_1_0_0.sol\":570:621  mapping(address => Stakeholder) public stakeholders */\n    tag_12:\n      tag_48\n      0x04\n      dup1\n      calldatasize\n      sub\n      dup2\n      add\n      swap1\n      tag_49\n      swap2\n      swap1\n      tag_50\n      jump\t// in\n    tag_49:\n      tag_51\n      jump\t// in\n    tag_48:\n      mload(0x40)\n      tag_52\n      swap5\n      swap4\n      swap3\n      swap2\n      swap1\n      tag_53\n      jump\t// in\n    tag_52:\n      mload(0x40)\n      dup1\n      swap2\n      sub\n      swap1\n      return\n        /* \"contracts/OPTB/Token_Distribution/TokenDistribution_1_0_0.sol\":667:697  uint256 public totalPercentage */\n    tag_13:\n      tag_54\n      tag_55\n      jump\t// in\n    tag_54:\n      mload(0x40)\n      tag_56\n      swap2\n      swap1\n      tag_25\n      jump\t// in\n    tag_56:\n      mload(0x40)\n      dup1\n      swap2\n      sub\n      swap1\n      return\n        /* \"contracts/OPTB/Token_Distribution/TokenDistribution_1_0_0.sol\":628:660  address[] public stakeholderList */\n    tag_14:\n      tag_57\n      0x04\n      dup1\n      calldatasize\n      sub\n      dup2\n      add\n      swap1\n      tag_58\n      swap2\n      swap1\n      tag_59\n      jump\t// in\n    tag_58:\n      tag_60\n      jump\t// in\n    tag_57:\n      mload(0x40)\n      tag_61\n      swap2\n      swap1\n      tag_37\n      jump\t// in\n    tag_61:\n      mload(0x40)\n      dup1\n      swap2\n      sub\n      swap1\n      return\n        /* \"contracts/OPTB/Token_Distribution/TokenDistribution_1_0_0.sol\":1803:2018  function approveDistribution() public onlyStakeholder {... */\n    tag_15:\n      tag_62\n      tag_63\n      jump\t// in\n    tag_62:\n      stop\n        /* \"@openzeppelin/contracts/access/Ownable.sol\":2543:2758  function transferOwnership(address newOwner) public virtual onlyOwner {... */\n    tag_16:\n      tag_64\n      0x04\n      dup1\n      calldatasize\n      sub\n      dup2\n      add\n      swap1\n      tag_65\n      swap2\n      swap1\n      tag_50\n      jump\t// in\n    tag_65:\n      tag_66\n      jump\t// in\n    tag_64:\n      stop\n        /* \"contracts/OPTB/Token_Distribution/TokenDistribution_1_0_0.sol\":2871:3297  function voteToDestroy() public onlyStakeholder {... */\n    tag_21:\n        /* \"contracts/OPTB/Token_Distribution/TokenDistribution_1_0_0.sol\":1109:1121  stakeholders */\n      0x02\n        /* \"contracts/OPTB/Token_Distribution/TokenDistribution_1_0_0.sol\":1109:1133  stakeholders[msg.sender] */\n      0x00\n        /* \"contracts/OPTB/Token_Distribution/TokenDistribution_1_0_0.sol\":1122:1132  msg.sender */\n      caller\n        /* \"contracts/OPTB/Token_Distribution/TokenDistribution_1_0_0.sol\":1109:1133  stakeholders[msg.sender] */\n      0xffffffffffffffffffffffffffffffffffffffff\n      and\n      0xffffffffffffffffffffffffffffffffffffffff\n      and\n      dup2\n      mstore\n      0x20\n      add\n      swap1\n      dup2\n      mstore\n      0x20\n      add\n      0x00\n      keccak256\n        /* \"contracts/OPTB/Token_Distribution/TokenDistribution_1_0_0.sol\":1109:1140  stakeholders[msg.sender].exists */\n      0x01\n      add\n      0x00\n      swap1\n      sload\n      swap1\n      0x0100\n      exp\n      swap1\n      div\n      0xff\n      and\n        /* \"contracts/OPTB/Token_Distribution/TokenDistribution_1_0_0.sol\":1101:1162  require(stakeholders[msg.sender].exists, \"Not a stakeholder\") */\n      tag_68\n      jumpi\n      mload(0x40)\n      0x08c379a000000000000000000000000000000000000000000000000000000000\n      dup2\n      mstore\n      0x04\n      add\n      tag_69\n      swap1\n      tag_70\n      jump\t// in\n    tag_69:\n      mload(0x40)\n      dup1\n      swap2\n      sub\n      swap1\n      revert\n    tag_68:\n        /* \"contracts/OPTB/Token_Distribution/TokenDistribution_1_0_0.sol\":2939:2951  stakeholders */\n      0x02\n        /* \"contracts/OPTB/Token_Distribution/TokenDistribution_1_0_0.sol\":2939:2963  stakeholders[msg.sender] */\n      0x00\n        /* \"contracts/OPTB/Token_Distribution/TokenDistribution_1_0_0.sol\":2952:2962  msg.sender */\n      caller\n        /* \"contracts/OPTB/Token_Distribution/TokenDistribution_1_0_0.sol\":2939:2963  stakeholders[msg.sender] */\n      0xffffffffffffffffffffffffffffffffffffffff\n      and\n      0xffffffffffffffffffffffffffffffffffffffff\n      and\n      dup2\n      mstore\n      0x20\n      add\n      swap1\n      dup2\n      mstore\n      0x20\n      add\n      0x00\n      keccak256\n        /* \"contracts/OPTB/Token_Distribution/TokenDistribution_1_0_0.sol\":2939:2978  stakeholders[msg.sender].votedToDestroy */\n      0x01\n      add\n      0x02\n      swap1\n      sload\n      swap1\n      0x0100\n      exp\n      swap1\n      div\n      0xff\n      and\n        /* \"contracts/OPTB/Token_Distribution/TokenDistribution_1_0_0.sol\":2938:2978  !stakeholders[msg.sender].votedToDestroy */\n      iszero\n        /* \"contracts/OPTB/Token_Distribution/TokenDistribution_1_0_0.sol\":2930:2996  require(!stakeholders[msg.sender].votedToDestroy, \"Already voted\") */\n      tag_72\n      jumpi\n      mload(0x40)\n      0x08c379a000000000000000000000000000000000000000000000000000000000\n      dup2\n      mstore\n      0x04\n      add\n      tag_73\n      swap1\n      tag_74\n      jump\t// in\n    tag_73:\n      mload(0x40)\n      dup1\n      swap2\n      sub\n      swap1\n      revert\n    tag_72:\n        /* \"contracts/OPTB/Token_Distribution/TokenDistribution_1_0_0.sol\":3059:3063  true */\n      0x01\n        /* \"contracts/OPTB/Token_Distribution/TokenDistribution_1_0_0.sol\":3017:3029  stakeholders */\n      0x02\n        /* \"contracts/OPTB/Token_Distribution/TokenDistribution_1_0_0.sol\":3017:3041  stakeholders[msg.sender] */\n      0x00\n        /* \"contracts/OPTB/Token_Distribution/TokenDistribution_1_0_0.sol\":3030:3040  msg.sender */\n      caller\n        /* \"contracts/OPTB/Token_Distribution/TokenDistribution_1_0_0.sol\":3017:3041  stakeholders[msg.sender] */\n      0xffffffffffffffffffffffffffffffffffffffff\n      and\n      0xffffffffffffffffffffffffffffffffffffffff\n      and\n      dup2\n      mstore\n      0x20\n      add\n      swap1\n      dup2\n      mstore\n      0x20\n      add\n      0x00\n      keccak256\n        /* \"contracts/OPTB/Token_Distribution/TokenDistribution_1_0_0.sol\":3017:3056  stakeholders[msg.sender].votedToDestroy */\n      0x01\n      add\n      0x02\n        /* \"contracts/OPTB/Token_Distribution/TokenDistribution_1_0_0.sol\":3017:3063  stakeholders[msg.sender].votedToDestroy = true */\n      0x0100\n      exp\n      dup2\n      sload\n      dup2\n      0xff\n      mul\n      not\n      and\n      swap1\n      dup4\n      iszero\n      iszero\n      mul\n      or\n      swap1\n      sstore\n      pop\n        /* \"contracts/OPTB/Token_Distribution/TokenDistribution_1_0_0.sol\":3074:3086  destroyVotes */\n      0x06\n      0x00\n        /* \"contracts/OPTB/Token_Distribution/TokenDistribution_1_0_0.sol\":3074:3088  destroyVotes++ */\n      dup2\n      sload\n      dup1\n      swap3\n      swap2\n      swap1\n      tag_75\n      swap1\n      tag_76\n      jump\t// in\n    tag_75:\n      swap2\n      swap1\n      pop\n      sstore\n      pop\n        /* \"contracts/OPTB/Token_Distribution/TokenDistribution_1_0_0.sol\":3145:3146  2 */\n      0x02\n        /* \"contracts/OPTB/Token_Distribution/TokenDistribution_1_0_0.sol\":3120:3135  stakeholderList */\n      0x03\n        /* \"contracts/OPTB/Token_Distribution/TokenDistribution_1_0_0.sol\":3120:3142  stakeholderList.length */\n      dup1\n      sload\n      swap1\n      pop\n        /* \"contracts/OPTB/Token_Distribution/TokenDistribution_1_0_0.sol\":3120:3146  stakeholderList.length / 2 */\n      tag_77\n      swap2\n      swap1\n      tag_78\n      jump\t// in\n    tag_77:\n        /* \"contracts/OPTB/Token_Distribution/TokenDistribution_1_0_0.sol\":3105:3117  destroyVotes */\n      sload(0x06)\n        /* \"contracts/OPTB/Token_Distribution/TokenDistribution_1_0_0.sol\":3105:3146  destroyVotes > stakeholderList.length / 2 */\n      gt\n        /* \"contracts/OPTB/Token_Distribution/TokenDistribution_1_0_0.sol\":3101:3290  if (destroyVotes > stakeholderList.length / 2) {... */\n      iszero\n      tag_79\n      jumpi\n        /* \"contracts/OPTB/Token_Distribution/TokenDistribution_1_0_0.sol\":3168:3187  ContractDestroyed() */\n      0xde03921ed85499a33a8a7c878de268d59d2b7839e9fbd415ff4ab0ff18483a6f\n      mload(0x40)\n      mload(0x40)\n      dup1\n      swap2\n      sub\n      swap1\n      log1\n        /* \"contracts/OPTB/Token_Distribution/TokenDistribution_1_0_0.sol\":3223:3230  owner() */\n      tag_80\n        /* \"contracts/OPTB/Token_Distribution/TokenDistribution_1_0_0.sol\":3223:3228  owner */\n      tag_35\n        /* \"contracts/OPTB/Token_Distribution/TokenDistribution_1_0_0.sol\":3223:3230  owner() */\n      jump\t// in\n    tag_80:\n        /* \"contracts/OPTB/Token_Distribution/TokenDistribution_1_0_0.sol\":3202:3232  selfdestruct(payable(owner())) */\n      0xffffffffffffffffffffffffffffffffffffffff\n      and\n      selfdestruct\n        /* \"contracts/OPTB/Token_Distribution/TokenDistribution_1_0_0.sol\":3101:3290  if (destroyVotes > stakeholderList.length / 2) {... */\n    tag_79:\n        /* \"contracts/OPTB/Token_Distribution/TokenDistribution_1_0_0.sol\":2871:3297  function voteToDestroy() public onlyStakeholder {... */\n      jump\t// out\n        /* \"contracts/OPTB/Token_Distribution/TokenDistribution_1_0_0.sol\":704:732  uint256 public approvalCount */\n    tag_23:\n      sload(0x05)\n      dup2\n      jump\t// out\n        /* \"@openzeppelin/contracts/access/Ownable.sol\":2293:2394  function renounceOwnership() public virtual onlyOwner {... */\n    tag_27:\n        /* \"@openzeppelin/contracts/access/Ownable.sol\":1531:1544  _checkOwner() */\n      tag_82\n        /* \"@openzeppelin/contracts/access/Ownable.sol\":1531:1542  _checkOwner */\n      tag_83\n        /* \"@openzeppelin/contracts/access/Ownable.sol\":1531:1544  _checkOwner() */\n      jump\t// in\n    tag_82:\n        /* \"@openzeppelin/contracts/access/Ownable.sol\":2357:2387  _transferOwnership(address(0)) */\n      tag_85\n        /* \"@openzeppelin/contracts/access/Ownable.sol\":2384:2385  0 */\n      0x00\n        /* \"@openzeppelin/contracts/access/Ownable.sol\":2357:2375  _transferOwnership */\n      tag_86\n        /* \"@openzeppelin/contracts/access/Ownable.sol\":2357:2387  _transferOwnership(address(0)) */\n      jump\t// in\n    tag_85:\n        /* \"@openzeppelin/contracts/access/Ownable.sol\":2293:2394  function renounceOwnership() public virtual onlyOwner {... */\n      jump\t// out\n        /* \"contracts/OPTB/Token_Distribution/TokenDistribution_1_0_0.sol\":739:766  uint256 public destroyVotes */\n    tag_29:\n      sload(0x06)\n      dup2\n      jump\t// out\n        /* \"contracts/OPTB/Token_Distribution/TokenDistribution_1_0_0.sol\":2747:2863  function contractBalance() public view returns (uint256) {... */\n    tag_32:\n        /* \"contracts/OPTB/Token_Distribution/TokenDistribution_1_0_0.sol\":2795:2802  uint256 */\n      0x00\n        /* \"contracts/OPTB/Token_Distribution/TokenDistribution_1_0_0.sol\":2822:2830  mcpToken */\n      0x01\n      0x00\n      swap1\n      sload\n      swap1\n      0x0100\n      exp\n      swap1\n      div\n      0xffffffffffffffffffffffffffffffffffffffff\n      and\n        /* \"contracts/OPTB/Token_Distribution/TokenDistribution_1_0_0.sol\":2822:2840  mcpToken.balanceOf */\n      0xffffffffffffffffffffffffffffffffffffffff\n      and\n      0x70a08231\n        /* \"contracts/OPTB/Token_Distribution/TokenDistribution_1_0_0.sol\":2849:2853  this */\n      address\n        /* \"contracts/OPTB/Token_Distribution/TokenDistribution_1_0_0.sol\":2822:2855  mcpToken.balanceOf(address(this)) */\n      mload(0x40)\n      dup3\n      0xffffffff\n      and\n      0xe0\n      shl\n      dup2\n      mstore\n      0x04\n      add\n      tag_88\n      swap2\n      swap1\n      tag_37\n      jump\t// in\n    tag_88:\n      0x20\n      mload(0x40)\n      dup1\n      dup4\n      sub\n      dup2\n      dup7\n      gas\n      staticcall\n      iszero\n      dup1\n      iszero\n      tag_90\n      jumpi\n      returndatacopy(0x00, 0x00, returndatasize)\n      revert(0x00, returndatasize)\n    tag_90:\n      pop\n      pop\n      pop\n      pop\n      mload(0x40)\n      returndatasize\n      not(0x1f)\n      0x1f\n      dup3\n      add\n      and\n      dup3\n      add\n      dup1\n      0x40\n      mstore\n      pop\n      dup2\n      add\n      swap1\n      tag_91\n      swap2\n      swap1\n      tag_92\n      jump\t// in\n    tag_91:\n        /* \"contracts/OPTB/Token_Distribution/TokenDistribution_1_0_0.sol\":2815:2855  return mcpToken.balanceOf(address(this)) */\n      swap1\n      pop\n        /* \"contracts/OPTB/Token_Distribution/TokenDistribution_1_0_0.sol\":2747:2863  function contractBalance() public view returns (uint256) {... */\n      swap1\n      jump\t// out\n        /* \"@openzeppelin/contracts/access/Ownable.sol\":1638:1723  function owner() public view virtual returns (address) {... */\n    tag_35:\n        /* \"@openzeppelin/contracts/access/Ownable.sol\":1684:1691  address */\n      0x00\n        /* \"@openzeppelin/contracts/access/Ownable.sol\":1710:1716  _owner */\n      0x00\n      0x00\n      swap1\n      sload\n      swap1\n      0x0100\n      exp\n      swap1\n      div\n      0xffffffffffffffffffffffffffffffffffffffff\n      and\n        /* \"@openzeppelin/contracts/access/Ownable.sol\":1703:1716  return _owner */\n      swap1\n      pop\n        /* \"@openzeppelin/contracts/access/Ownable.sol\":1638:1723  function owner() public view virtual returns (address) {... */\n      swap1\n      jump\t// out\n        /* \"contracts/OPTB/Token_Distribution/TokenDistribution_1_0_0.sol\":2026:2739  function distributeTokens() public onlyOwner {... */\n    tag_39:\n        /* \"@openzeppelin/contracts/access/Ownable.sol\":1531:1544  _checkOwner() */\n      tag_95\n        /* \"@openzeppelin/contracts/access/Ownable.sol\":1531:1542  _checkOwner */\n      tag_83\n        /* \"@openzeppelin/contracts/access/Ownable.sol\":1531:1544  _checkOwner() */\n      jump\t// in\n    tag_95:\n        /* \"contracts/OPTB/Token_Distribution/TokenDistribution_1_0_0.sol\":2107:2122  stakeholderList */\n      0x03\n        /* \"contracts/OPTB/Token_Distribution/TokenDistribution_1_0_0.sol\":2107:2129  stakeholderList.length */\n      dup1\n      sload\n      swap1\n      pop\n        /* \"contracts/OPTB/Token_Distribution/TokenDistribution_1_0_0.sol\":2090:2103  approvalCount */\n      sload(0x05)\n        /* \"contracts/OPTB/Token_Distribution/TokenDistribution_1_0_0.sol\":2090:2129  approvalCount == stakeholderList.length */\n      eq\n        /* \"contracts/OPTB/Token_Distribution/TokenDistribution_1_0_0.sol\":2082:2163  require(approvalCount == stakeholderList.length, \"All stakeholders must approve\") */\n      tag_97\n      jumpi\n      mload(0x40)\n      0x08c379a000000000000000000000000000000000000000000000000000000000\n      dup2\n      mstore\n      0x04\n      add\n      tag_98\n      swap1\n      tag_99\n      jump\t// in\n    tag_98:\n      mload(0x40)\n      dup1\n      swap2\n      sub\n      swap1\n      revert\n    tag_97:\n        /* \"contracts/OPTB/Token_Distribution/TokenDistribution_1_0_0.sol\":2176:2191  uint256 balance */\n      0x00\n        /* \"contracts/OPTB/Token_Distribution/TokenDistribution_1_0_0.sol\":2194:2202  mcpToken */\n      0x01\n      0x00\n      swap1\n      sload\n      swap1\n      0x0100\n      exp\n      swap1\n      div\n      0xffffffffffffffffffffffffffffffffffffffff\n      and\n        /* \"contracts/OPTB/Token_Distribution/TokenDistribution_1_0_0.sol\":2194:2212  mcpToken.balanceOf */\n      0xffffffffffffffffffffffffffffffffffffffff\n      and\n      0x70a08231\n        /* \"contracts/OPTB/Token_Distribution/TokenDistribution_1_0_0.sol\":2221:2225  this */\n      address\n        /* \"contracts/OPTB/Token_Distribution/TokenDistribution_1_0_0.sol\":2194:2227  mcpToken.balanceOf(address(this)) */\n      mload(0x40)\n      dup3\n      0xffffffff\n      and\n      0xe0\n      shl\n      dup2\n      mstore\n      0x04\n      add\n      tag_100\n      swap2\n      swap1\n      tag_37\n      jump\t// in\n    tag_100:\n      0x20\n      mload(0x40)\n      dup1\n      dup4\n      sub\n      dup2\n      dup7\n      gas\n      staticcall\n      iszero\n      dup1\n      iszero\n      tag_102\n      jumpi\n      returndatacopy(0x00, 0x00, returndatasize)\n      revert(0x00, returndatasize)\n    tag_102:\n      pop\n      pop\n      pop\n      pop\n      mload(0x40)\n      returndatasize\n      not(0x1f)\n      0x1f\n      dup3\n      add\n      and\n      dup3\n      add\n      dup1\n      0x40\n      mstore\n      pop\n      dup2\n      add\n      swap1\n      tag_103\n      swap2\n      swap1\n      tag_92\n      jump\t// in\n    tag_103:\n        /* \"contracts/OPTB/Token_Distribution/TokenDistribution_1_0_0.sol\":2176:2227  uint256 balance = mcpToken.balanceOf(address(this)) */\n      swap1\n      pop\n        /* \"contracts/OPTB/Token_Distribution/TokenDistribution_1_0_0.sol\":2256:2257  0 */\n      0x00\n        /* \"contracts/OPTB/Token_Distribution/TokenDistribution_1_0_0.sol\":2246:2253  balance */\n      dup2\n        /* \"contracts/OPTB/Token_Distribution/TokenDistribution_1_0_0.sol\":2246:2257  balance > 0 */\n      gt\n        /* \"contracts/OPTB/Token_Distribution/TokenDistribution_1_0_0.sol\":2238:2285  require(balance > 0, \"No tokens to distribute\") */\n      tag_104\n      jumpi\n      mload(0x40)\n      0x08c379a000000000000000000000000000000000000000000000000000000000\n      dup2\n      mstore\n      0x04\n      add\n      tag_105\n      swap1\n      tag_106\n      jump\t// in\n    tag_105:\n      mload(0x40)\n      dup1\n      swap2\n      sub\n      swap1\n      revert\n    tag_104:\n        /* \"contracts/OPTB/Token_Distribution/TokenDistribution_1_0_0.sol\":2303:2312  uint256 i */\n      0x00\n        /* \"contracts/OPTB/Token_Distribution/TokenDistribution_1_0_0.sol\":2315:2316  0 */\n      0x00\n        /* \"contracts/OPTB/Token_Distribution/TokenDistribution_1_0_0.sol\":2303:2316  uint256 i = 0 */\n      swap1\n      pop\n        /* \"contracts/OPTB/Token_Distribution/TokenDistribution_1_0_0.sol\":2298:2660  for (uint256 i = 0; i < stakeholderList.length; i++) {... */\n    tag_107:\n        /* \"contracts/OPTB/Token_Distribution/TokenDistribution_1_0_0.sol\":2322:2337  stakeholderList */\n      0x03\n        /* \"contracts/OPTB/Token_Distribution/TokenDistribution_1_0_0.sol\":2322:2344  stakeholderList.length */\n      dup1\n      sload\n      swap1\n      pop\n        /* \"contracts/OPTB/Token_Distribution/TokenDistribution_1_0_0.sol\":2318:2319  i */\n      dup2\n        /* \"contracts/OPTB/Token_Distribution/TokenDistribution_1_0_0.sol\":2318:2344  i < stakeholderList.length */\n      lt\n        /* \"contracts/OPTB/Token_Distribution/TokenDistribution_1_0_0.sol\":2298:2660  for (uint256 i = 0; i < stakeholderList.length; i++) {... */\n      iszero\n      tag_108\n      jumpi\n        /* \"contracts/OPTB/Token_Distribution/TokenDistribution_1_0_0.sol\":2366:2385  address stakeholder */\n      0x00\n        /* \"contracts/OPTB/Token_Distribution/TokenDistribution_1_0_0.sol\":2388:2403  stakeholderList */\n      0x03\n        /* \"contracts/OPTB/Token_Distribution/TokenDistribution_1_0_0.sol\":2404:2405  i */\n      dup3\n        /* \"contracts/OPTB/Token_Distribution/TokenDistribution_1_0_0.sol\":2388:2406  stakeholderList[i] */\n      dup2\n      sload\n      dup2\n      lt\n      tag_110\n      jumpi\n      tag_111\n      tag_112\n      jump\t// in\n    tag_111:\n    tag_110:\n      swap1\n      0x00\n      mstore\n      keccak256(0x00, 0x20)\n      add\n      0x00\n      swap1\n      sload\n      swap1\n      0x0100\n      exp\n      swap1\n      div\n      0xffffffffffffffffffffffffffffffffffffffff\n      and\n        /* \"contracts/OPTB/Token_Distribution/TokenDistribution_1_0_0.sol\":2366:2406  address stakeholder = stakeholderList[i] */\n      swap1\n      pop\n        /* \"contracts/OPTB/Token_Distribution/TokenDistribution_1_0_0.sol\":2421:2435  uint256 amount */\n      0x00\n        /* \"contracts/OPTB/Token_Distribution/TokenDistribution_1_0_0.sol\":2489:2492  100 */\n      0x64\n        /* \"contracts/OPTB/Token_Distribution/TokenDistribution_1_0_0.sol\":2449:2461  stakeholders */\n      0x02\n        /* \"contracts/OPTB/Token_Distribution/TokenDistribution_1_0_0.sol\":2449:2474  stakeholders[stakeholder] */\n      0x00\n        /* \"contracts/OPTB/Token_Distribution/TokenDistribution_1_0_0.sol\":2462:2473  stakeholder */\n      dup5\n        /* \"contracts/OPTB/Token_Distribution/TokenDistribution_1_0_0.sol\":2449:2474  stakeholders[stakeholder] */\n      0xffffffffffffffffffffffffffffffffffffffff\n      and\n      0xffffffffffffffffffffffffffffffffffffffff\n      and\n      dup2\n      mstore\n      0x20\n      add\n      swap1\n      dup2\n      mstore\n      0x20\n      add\n      0x00\n      keccak256\n        /* \"contracts/OPTB/Token_Distribution/TokenDistribution_1_0_0.sol\":2449:2485  stakeholders[stakeholder].percentage */\n      0x00\n      add\n      sload\n        /* \"contracts/OPTB/Token_Distribution/TokenDistribution_1_0_0.sol\":2439:2446  balance */\n      dup6\n        /* \"contracts/OPTB/Token_Distribution/TokenDistribution_1_0_0.sol\":2439:2485  balance * stakeholders[stakeholder].percentage */\n      tag_114\n      swap2\n      swap1\n      tag_115\n      jump\t// in\n    tag_114:\n        /* \"contracts/OPTB/Token_Distribution/TokenDistribution_1_0_0.sol\":2438:2492  (balance * stakeholders[stakeholder].percentage) / 100 */\n      tag_116\n      swap2\n      swap1\n      tag_78\n      jump\t// in\n    tag_116:\n        /* \"contracts/OPTB/Token_Distribution/TokenDistribution_1_0_0.sol\":2421:2492  uint256 amount = (balance * stakeholders[stakeholder].percentage) / 100 */\n      swap1\n      pop\n        /* \"contracts/OPTB/Token_Distribution/TokenDistribution_1_0_0.sol\":2515:2523  mcpToken */\n      0x01\n      0x00\n      swap1\n      sload\n      swap1\n      0x0100\n      exp\n      swap1\n      div\n      0xffffffffffffffffffffffffffffffffffffffff\n      and\n        /* \"contracts/OPTB/Token_Distribution/TokenDistribution_1_0_0.sol\":2515:2532  mcpToken.transfer */\n      0xffffffffffffffffffffffffffffffffffffffff\n      and\n      0xa9059cbb\n        /* \"contracts/OPTB/Token_Distribution/TokenDistribution_1_0_0.sol\":2533:2544  stakeholder */\n      dup4\n        /* \"contracts/OPTB/Token_Distribution/TokenDistribution_1_0_0.sol\":2546:2552  amount */\n      dup4\n        /* \"contracts/OPTB/Token_Distribution/TokenDistribution_1_0_0.sol\":2515:2553  mcpToken.transfer(stakeholder, amount) */\n      mload(0x40)\n      dup4\n      0xffffffff\n      and\n      0xe0\n      shl\n      dup2\n      mstore\n      0x04\n      add\n      tag_117\n      swap3\n      swap2\n      swap1\n      tag_118\n      jump\t// in\n    tag_117:\n      0x20\n      mload(0x40)\n      dup1\n      dup4\n      sub\n      dup2\n      0x00\n      dup8\n      gas\n      call\n      iszero\n      dup1\n      iszero\n      tag_120\n      jumpi\n      returndatacopy(0x00, 0x00, returndatasize)\n      revert(0x00, returndatasize)\n    tag_120:\n      pop\n      pop\n      pop\n      pop\n      mload(0x40)\n      returndatasize\n      not(0x1f)\n      0x1f\n      dup3\n      add\n      and\n      dup3\n      add\n      dup1\n      0x40\n      mstore\n      pop\n      dup2\n      add\n      swap1\n      tag_121\n      swap2\n      swap1\n      tag_122\n      jump\t// in\n    tag_121:\n        /* \"contracts/OPTB/Token_Distribution/TokenDistribution_1_0_0.sol\":2507:2573  require(mcpToken.transfer(stakeholder, amount), \"Transfer failed\") */\n      tag_123\n      jumpi\n      mload(0x40)\n      0x08c379a000000000000000000000000000000000000000000000000000000000\n      dup2\n      mstore\n      0x04\n      add\n      tag_124\n      swap1\n      tag_125\n      jump\t// in\n    tag_124:\n      mload(0x40)\n      dup1\n      swap2\n      sub\n      swap1\n      revert\n    tag_123:\n        /* \"contracts/OPTB/Token_Distribution/TokenDistribution_1_0_0.sol\":2625:2630  false */\n      0x00\n        /* \"contracts/OPTB/Token_Distribution/TokenDistribution_1_0_0.sol\":2588:2600  stakeholders */\n      0x02\n        /* \"contracts/OPTB/Token_Distribution/TokenDistribution_1_0_0.sol\":2588:2613  stakeholders[stakeholder] */\n      0x00\n        /* \"contracts/OPTB/Token_Distribution/TokenDistribution_1_0_0.sol\":2601:2612  stakeholder */\n      dup5\n        /* \"contracts/OPTB/Token_Distribution/TokenDistribution_1_0_0.sol\":2588:2613  stakeholders[stakeholder] */\n      0xffffffffffffffffffffffffffffffffffffffff\n      and\n      0xffffffffffffffffffffffffffffffffffffffff\n      and\n      dup2\n      mstore\n      0x20\n      add\n      swap1\n      dup2\n      mstore\n      0x20\n      add\n      0x00\n      keccak256\n        /* \"contracts/OPTB/Token_Distribution/TokenDistribution_1_0_0.sol\":2588:2622  stakeholders[stakeholder].approved */\n      0x01\n      add\n      0x01\n        /* \"contracts/OPTB/Token_Distribution/TokenDistribution_1_0_0.sol\":2588:2630  stakeholders[stakeholder].approved = false */\n      0x0100\n      exp\n      dup2\n      sload\n      dup2\n      0xff\n      mul\n      not\n      and\n      swap1\n      dup4\n      iszero\n      iszero\n      mul\n      or\n      swap1\n      sstore\n      pop\n        /* \"contracts/OPTB/Token_Distribution/TokenDistribution_1_0_0.sol\":2351:2660  {... */\n      pop\n      pop\n        /* \"contracts/OPTB/Token_Distribution/TokenDistribution_1_0_0.sol\":2346:2349  i++ */\n      dup1\n      dup1\n      0x01\n      add\n      swap2\n      pop\n      pop\n        /* \"contracts/OPTB/Token_Distribution/TokenDistribution_1_0_0.sol\":2298:2660  for (uint256 i = 0; i < stakeholderList.length; i++) {... */\n      jump(tag_107)\n    tag_108:\n      pop\n        /* \"contracts/OPTB/Token_Distribution/TokenDistribution_1_0_0.sol\":2688:2689  0 */\n      0x00\n        /* \"contracts/OPTB/Token_Distribution/TokenDistribution_1_0_0.sol\":2672:2685  approvalCount */\n      0x05\n        /* \"contracts/OPTB/Token_Distribution/TokenDistribution_1_0_0.sol\":2672:2689  approvalCount = 0 */\n      dup2\n      swap1\n      sstore\n      pop\n        /* \"contracts/OPTB/Token_Distribution/TokenDistribution_1_0_0.sol\":2705:2731  TokensDistributed(balance) */\n      0xe931a2ade2ca5ad4fb6fc001fa5a3d7f2d8c05b601e8322cba7e5f513512314d\n        /* \"contracts/OPTB/Token_Distribution/TokenDistribution_1_0_0.sol\":2723:2730  balance */\n      dup2\n        /* \"contracts/OPTB/Token_Distribution/TokenDistribution_1_0_0.sol\":2705:2731  TokensDistributed(balance) */\n      mload(0x40)\n      tag_126\n      swap2\n      swap1\n      tag_25\n      jump\t// in\n    tag_126:\n      mload(0x40)\n      dup1\n      swap2\n      sub\n      swap1\n      log1\n        /* \"contracts/OPTB/Token_Distribution/TokenDistribution_1_0_0.sol\":2071:2739  {... */\n      pop\n        /* \"contracts/OPTB/Token_Distribution/TokenDistribution_1_0_0.sol\":2026:2739  function distributeTokens() public onlyOwner {... */\n      jump\t// out\n        /* \"contracts/OPTB/Token_Distribution/TokenDistribution_1_0_0.sol\":1190:1795  function addStakeholder(address _stakeholder, uint256 _percentage) public onlyOwner {... */\n    tag_43:\n        /* \"@openzeppelin/contracts/access/Ownable.sol\":1531:1544  _checkOwner() */\n      tag_128\n        /* \"@openzeppelin/contracts/access/Ownable.sol\":1531:1542  _checkOwner */\n      tag_83\n        /* \"@openzeppelin/contracts/access/Ownable.sol\":1531:1544  _checkOwner() */\n      jump\t// in\n    tag_128:\n        /* \"contracts/OPTB/Token_Distribution/TokenDistribution_1_0_0.sol\":1294:1306  stakeholders */\n      0x02\n        /* \"contracts/OPTB/Token_Distribution/TokenDistribution_1_0_0.sol\":1294:1320  stakeholders[_stakeholder] */\n      0x00\n        /* \"contracts/OPTB/Token_Distribution/TokenDistribution_1_0_0.sol\":1307:1319  _stakeholder */\n      dup4\n        /* \"contracts/OPTB/Token_Distribution/TokenDistribution_1_0_0.sol\":1294:1320  stakeholders[_stakeholder] */\n      0xffffffffffffffffffffffffffffffffffffffff\n      and\n      0xffffffffffffffffffffffffffffffffffffffff\n      and\n      dup2\n      mstore\n      0x20\n      add\n      swap1\n      dup2\n      mstore\n      0x20\n      add\n      0x00\n      keccak256\n        /* \"contracts/OPTB/Token_Distribution/TokenDistribution_1_0_0.sol\":1294:1327  stakeholders[_stakeholder].exists */\n      0x01\n      add\n      0x00\n      swap1\n      sload\n      swap1\n      0x0100\n      exp\n      swap1\n      div\n      0xff\n      and\n        /* \"contracts/OPTB/Token_Distribution/TokenDistribution_1_0_0.sol\":1293:1327  !stakeholders[_stakeholder].exists */\n      iszero\n        /* \"contracts/OPTB/Token_Distribution/TokenDistribution_1_0_0.sol\":1285:1353  require(!stakeholders[_stakeholder].exists, \"Already a stakeholder\") */\n      tag_130\n      jumpi\n      mload(0x40)\n      0x08c379a000000000000000000000000000000000000000000000000000000000\n      dup2\n      mstore\n      0x04\n      add\n      tag_131\n      swap1\n      tag_132\n      jump\t// in\n    tag_131:\n      mload(0x40)\n      dup1\n      swap2\n      sub\n      swap1\n      revert\n    tag_130:\n        /* \"contracts/OPTB/Token_Distribution/TokenDistribution_1_0_0.sol\":1405:1408  100 */\n      0x64\n        /* \"contracts/OPTB/Token_Distribution/TokenDistribution_1_0_0.sol\":1390:1401  _percentage */\n      dup2\n        /* \"contracts/OPTB/Token_Distribution/TokenDistribution_1_0_0.sol\":1372:1387  totalPercentage */\n      sload(0x04)\n        /* \"contracts/OPTB/Token_Distribution/TokenDistribution_1_0_0.sol\":1372:1401  totalPercentage + _percentage */\n      tag_133\n      swap2\n      swap1\n      tag_134\n      jump\t// in\n    tag_133:\n        /* \"contracts/OPTB/Token_Distribution/TokenDistribution_1_0_0.sol\":1372:1408  totalPercentage + _percentage <= 100 */\n      gt\n      iszero\n        /* \"contracts/OPTB/Token_Distribution/TokenDistribution_1_0_0.sol\":1364:1441  require(totalPercentage + _percentage <= 100, \"Total percentage exceeds 100\") */\n      tag_135\n      jumpi\n      mload(0x40)\n      0x08c379a000000000000000000000000000000000000000000000000000000000\n      dup2\n      mstore\n      0x04\n      add\n      tag_136\n      swap1\n      tag_137\n      jump\t// in\n    tag_136:\n      mload(0x40)\n      dup1\n      swap2\n      sub\n      swap1\n      revert\n    tag_135:\n        /* \"contracts/OPTB/Token_Distribution/TokenDistribution_1_0_0.sol\":1483:1638  Stakeholder({... */\n      mload(0x40)\n      dup1\n      0x80\n      add\n      0x40\n      mstore\n      dup1\n        /* \"contracts/OPTB/Token_Distribution/TokenDistribution_1_0_0.sol\":1522:1533  _percentage */\n      dup3\n        /* \"contracts/OPTB/Token_Distribution/TokenDistribution_1_0_0.sol\":1483:1638  Stakeholder({... */\n      dup2\n      mstore\n      0x20\n      add\n        /* \"contracts/OPTB/Token_Distribution/TokenDistribution_1_0_0.sol\":1556:1560  true */\n      0x01\n        /* \"contracts/OPTB/Token_Distribution/TokenDistribution_1_0_0.sol\":1483:1638  Stakeholder({... */\n      iszero\n      iszero\n      dup2\n      mstore\n      0x20\n      add\n        /* \"contracts/OPTB/Token_Distribution/TokenDistribution_1_0_0.sol\":1585:1590  false */\n      0x00\n        /* \"contracts/OPTB/Token_Distribution/TokenDistribution_1_0_0.sol\":1483:1638  Stakeholder({... */\n      iszero\n      iszero\n      dup2\n      mstore\n      0x20\n      add\n        /* \"contracts/OPTB/Token_Distribution/TokenDistribution_1_0_0.sol\":1621:1626  false */\n      0x00\n        /* \"contracts/OPTB/Token_Distribution/TokenDistribution_1_0_0.sol\":1483:1638  Stakeholder({... */\n      iszero\n      iszero\n      dup2\n      mstore\n      pop\n        /* \"contracts/OPTB/Token_Distribution/TokenDistribution_1_0_0.sol\":1454:1466  stakeholders */\n      0x02\n        /* \"contracts/OPTB/Token_Distribution/TokenDistribution_1_0_0.sol\":1454:1480  stakeholders[_stakeholder] */\n      0x00\n        /* \"contracts/OPTB/Token_Distribution/TokenDistribution_1_0_0.sol\":1467:1479  _stakeholder */\n      dup5\n        /* \"contracts/OPTB/Token_Distribution/TokenDistribution_1_0_0.sol\":1454:1480  stakeholders[_stakeholder] */\n      0xffffffffffffffffffffffffffffffffffffffff\n      and\n      0xffffffffffffffffffffffffffffffffffffffff\n      and\n      dup2\n      mstore\n      0x20\n      add\n      swap1\n      dup2\n      mstore\n      0x20\n      add\n      0x00\n      keccak256\n        /* \"contracts/OPTB/Token_Distribution/TokenDistribution_1_0_0.sol\":1454:1638  stakeholders[_stakeholder] = Stakeholder({... */\n      0x00\n      dup3\n      add\n      mload\n      dup2\n      0x00\n      add\n      sstore\n      0x20\n      dup3\n      add\n      mload\n      dup2\n      0x01\n      add\n      exp(0x0100, 0x00)\n      dup2\n      sload\n      dup2\n      0xff\n      mul\n      not\n      and\n      swap1\n      dup4\n      iszero\n      iszero\n      mul\n      or\n      swap1\n      sstore\n      pop\n      0x40\n      dup3\n      add\n      mload\n      dup2\n      0x01\n      add\n      exp(0x0100, 0x01)\n      dup2\n      sload\n      dup2\n      0xff\n      mul\n      not\n      and\n      swap1\n      dup4\n      iszero\n      iszero\n      mul\n      or\n      swap1\n      sstore\n      pop\n      0x60\n      dup3\n      add\n      mload\n      dup2\n      0x01\n      add\n      exp(0x0100, 0x02)\n      dup2\n      sload\n      dup2\n      0xff\n      mul\n      not\n      and\n      swap1\n      dup4\n      iszero\n      iszero\n      mul\n      or\n      swap1\n      sstore\n      pop\n      swap1\n      pop\n      pop\n        /* \"contracts/OPTB/Token_Distribution/TokenDistribution_1_0_0.sol\":1651:1666  stakeholderList */\n      0x03\n        /* \"contracts/OPTB/Token_Distribution/TokenDistribution_1_0_0.sol\":1672:1684  _stakeholder */\n      dup3\n        /* \"contracts/OPTB/Token_Distribution/TokenDistribution_1_0_0.sol\":1651:1685  stakeholderList.push(_stakeholder) */\n      swap1\n      dup1\n      0x01\n      dup2\n      sload\n      add\n      dup1\n      dup3\n      sstore\n      dup1\n      swap2\n      pop\n      pop\n      0x01\n      swap1\n      sub\n      swap1\n      0x00\n      mstore\n      keccak256(0x00, 0x20)\n      add\n      0x00\n      swap1\n      swap2\n      swap1\n      swap2\n      swap1\n      swap2\n      0x0100\n      exp\n      dup2\n      sload\n      dup2\n      0xffffffffffffffffffffffffffffffffffffffff\n      mul\n      not\n      and\n      swap1\n      dup4\n      0xffffffffffffffffffffffffffffffffffffffff\n      and\n      mul\n      or\n      swap1\n      sstore\n      pop\n        /* \"contracts/OPTB/Token_Distribution/TokenDistribution_1_0_0.sol\":1715:1726  _percentage */\n      dup1\n        /* \"contracts/OPTB/Token_Distribution/TokenDistribution_1_0_0.sol\":1696:1711  totalPercentage */\n      0x04\n      0x00\n        /* \"contracts/OPTB/Token_Distribution/TokenDistribution_1_0_0.sol\":1696:1726  totalPercentage += _percentage */\n      dup3\n      dup3\n      sload\n      tag_139\n      swap2\n      swap1\n      tag_134\n      jump\t// in\n    tag_139:\n      swap3\n      pop\n      pop\n      dup2\n      swap1\n      sstore\n      pop\n        /* \"contracts/OPTB/Token_Distribution/TokenDistribution_1_0_0.sol\":1761:1773  _stakeholder */\n      dup2\n        /* \"contracts/OPTB/Token_Distribution/TokenDistribution_1_0_0.sol\":1744:1787  StakeholderAdded(_stakeholder, _percentage) */\n      0xffffffffffffffffffffffffffffffffffffffff\n      and\n      0x120bfdd311a35c23d43060f2ed5044e464ade4940f2f49f164ab6e0b32eb8336\n        /* \"contracts/OPTB/Token_Distribution/TokenDistribution_1_0_0.sol\":1775:1786  _percentage */\n      dup3\n        /* \"contracts/OPTB/Token_Distribution/TokenDistribution_1_0_0.sol\":1744:1787  StakeholderAdded(_stakeholder, _percentage) */\n      mload(0x40)\n      tag_140\n      swap2\n      swap1\n      tag_25\n      jump\t// in\n    tag_140:\n      mload(0x40)\n      dup1\n      swap2\n      sub\n      swap1\n      log2\n        /* \"contracts/OPTB/Token_Distribution/TokenDistribution_1_0_0.sol\":1190:1795  function addStakeholder(address _stakeholder, uint256 _percentage) public onlyOwner {... */\n      pop\n      pop\n      jump\t// out\n        /* \"contracts/OPTB/Token_Distribution/TokenDistribution_1_0_0.sol\":247:269  IERC20 public mcpToken */\n    tag_45:\n      0x01\n      0x00\n      swap1\n      sload\n      swap1\n      0x0100\n      exp\n      swap1\n      div\n      0xffffffffffffffffffffffffffffffffffffffff\n      and\n      dup2\n      jump\t// out\n        /* \"contracts/OPTB/Token_Distribution/TokenDistribution_1_0_0.sol\":570:621  mapping(address => Stakeholder) public stakeholders */\n    tag_51:\n      mstore(0x20, 0x02)\n      dup1\n      0x00\n      mstore\n      keccak256(0x00, 0x40)\n      0x00\n      swap2\n      pop\n      swap1\n      pop\n      dup1\n      0x00\n      add\n      sload\n      swap1\n      dup1\n      0x01\n      add\n      0x00\n      swap1\n      sload\n      swap1\n      0x0100\n      exp\n      swap1\n      div\n      0xff\n      and\n      swap1\n      dup1\n      0x01\n      add\n      0x01\n      swap1\n      sload\n      swap1\n      0x0100\n      exp\n      swap1\n      div\n      0xff\n      and\n      swap1\n      dup1\n      0x01\n      add\n      0x02\n      swap1\n      sload\n      swap1\n      0x0100\n      exp\n      swap1\n      div\n      0xff\n      and\n      swap1\n      pop\n      dup5\n      jump\t// out\n        /* \"contracts/OPTB/Token_Distribution/TokenDistribution_1_0_0.sol\":667:697  uint256 public totalPercentage */\n    tag_55:\n      sload(0x04)\n      dup2\n      jump\t// out\n        /* \"contracts/OPTB/Token_Distribution/TokenDistribution_1_0_0.sol\":628:660  address[] public stakeholderList */\n    tag_60:\n      0x03\n      dup2\n      dup2\n      sload\n      dup2\n      lt\n      tag_141\n      jumpi\n      0x00\n      dup1\n      revert\n    tag_141:\n      swap1\n      0x00\n      mstore\n      keccak256(0x00, 0x20)\n      add\n      0x00\n      swap2\n      pop\n      sload\n      swap1\n      0x0100\n      exp\n      swap1\n      div\n      0xffffffffffffffffffffffffffffffffffffffff\n      and\n      dup2\n      jump\t// out\n        /* \"contracts/OPTB/Token_Distribution/TokenDistribution_1_0_0.sol\":1803:2018  function approveDistribution() public onlyStakeholder {... */\n    tag_63:\n        /* \"contracts/OPTB/Token_Distribution/TokenDistribution_1_0_0.sol\":1109:1121  stakeholders */\n      0x02\n        /* \"contracts/OPTB/Token_Distribution/TokenDistribution_1_0_0.sol\":1109:1133  stakeholders[msg.sender] */\n      0x00\n        /* \"contracts/OPTB/Token_Distribution/TokenDistribution_1_0_0.sol\":1122:1132  msg.sender */\n      caller\n        /* \"contracts/OPTB/Token_Distribution/TokenDistribution_1_0_0.sol\":1109:1133  stakeholders[msg.sender] */\n      0xffffffffffffffffffffffffffffffffffffffff\n      and\n      0xffffffffffffffffffffffffffffffffffffffff\n      and\n      dup2\n      mstore\n      0x20\n      add\n      swap1\n      dup2\n      mstore\n      0x20\n      add\n      0x00\n      keccak256\n        /* \"contracts/OPTB/Token_Distribution/TokenDistribution_1_0_0.sol\":1109:1140  stakeholders[msg.sender].exists */\n      0x01\n      add\n      0x00\n      swap1\n      sload\n      swap1\n      0x0100\n      exp\n      swap1\n      div\n      0xff\n      and\n        /* \"contracts/OPTB/Token_Distribution/TokenDistribution_1_0_0.sol\":1101:1162  require(stakeholders[msg.sender].exists, \"Not a stakeholder\") */\n      tag_144\n      jumpi\n      mload(0x40)\n      0x08c379a000000000000000000000000000000000000000000000000000000000\n      dup2\n      mstore\n      0x04\n      add\n      tag_145\n      swap1\n      tag_70\n      jump\t// in\n    tag_145:\n      mload(0x40)\n      dup1\n      swap2\n      sub\n      swap1\n      revert\n    tag_144:\n        /* \"contracts/OPTB/Token_Distribution/TokenDistribution_1_0_0.sol\":1877:1889  stakeholders */\n      0x02\n        /* \"contracts/OPTB/Token_Distribution/TokenDistribution_1_0_0.sol\":1877:1901  stakeholders[msg.sender] */\n      0x00\n        /* \"contracts/OPTB/Token_Distribution/TokenDistribution_1_0_0.sol\":1890:1900  msg.sender */\n      caller\n        /* \"contracts/OPTB/Token_Distribution/TokenDistribution_1_0_0.sol\":1877:1901  stakeholders[msg.sender] */\n      0xffffffffffffffffffffffffffffffffffffffff\n      and\n      0xffffffffffffffffffffffffffffffffffffffff\n      and\n      dup2\n      mstore\n      0x20\n      add\n      swap1\n      dup2\n      mstore\n      0x20\n      add\n      0x00\n      keccak256\n        /* \"contracts/OPTB/Token_Distribution/TokenDistribution_1_0_0.sol\":1877:1910  stakeholders[msg.sender].approved */\n      0x01\n      add\n      0x01\n      swap1\n      sload\n      swap1\n      0x0100\n      exp\n      swap1\n      div\n      0xff\n      and\n        /* \"contracts/OPTB/Token_Distribution/TokenDistribution_1_0_0.sol\":1876:1910  !stakeholders[msg.sender].approved */\n      iszero\n        /* \"contracts/OPTB/Token_Distribution/TokenDistribution_1_0_0.sol\":1868:1931  require(!stakeholders[msg.sender].approved, \"Already approved\") */\n      tag_147\n      jumpi\n      mload(0x40)\n      0x08c379a000000000000000000000000000000000000000000000000000000000\n      dup2\n      mstore\n      0x04\n      add\n      tag_148\n      swap1\n      tag_149\n      jump\t// in\n    tag_148:\n      mload(0x40)\n      dup1\n      swap2\n      sub\n      swap1\n      revert\n    tag_147:\n        /* \"contracts/OPTB/Token_Distribution/TokenDistribution_1_0_0.sol\":1980:1984  true */\n      0x01\n        /* \"contracts/OPTB/Token_Distribution/TokenDistribution_1_0_0.sol\":1944:1956  stakeholders */\n      0x02\n        /* \"contracts/OPTB/Token_Distribution/TokenDistribution_1_0_0.sol\":1944:1968  stakeholders[msg.sender] */\n      0x00\n        /* \"contracts/OPTB/Token_Distribution/TokenDistribution_1_0_0.sol\":1957:1967  msg.sender */\n      caller\n        /* \"contracts/OPTB/Token_Distribution/TokenDistribution_1_0_0.sol\":1944:1968  stakeholders[msg.sender] */\n      0xffffffffffffffffffffffffffffffffffffffff\n      and\n      0xffffffffffffffffffffffffffffffffffffffff\n      and\n      dup2\n      mstore\n      0x20\n      add\n      swap1\n      dup2\n      mstore\n      0x20\n      add\n      0x00\n      keccak256\n        /* \"contracts/OPTB/Token_Distribution/TokenDistribution_1_0_0.sol\":1944:1977  stakeholders[msg.sender].approved */\n      0x01\n      add\n      0x01\n        /* \"contracts/OPTB/Token_Distribution/TokenDistribution_1_0_0.sol\":1944:1984  stakeholders[msg.sender].approved = true */\n      0x0100\n      exp\n      dup2\n      sload\n      dup2\n      0xff\n      mul\n      not\n      and\n      swap1\n      dup4\n      iszero\n      iszero\n      mul\n      or\n      swap1\n      sstore\n      pop\n        /* \"contracts/OPTB/Token_Distribution/TokenDistribution_1_0_0.sol\":1995:2008  approvalCount */\n      0x05\n      0x00\n        /* \"contracts/OPTB/Token_Distribution/TokenDistribution_1_0_0.sol\":1995:2010  approvalCount++ */\n      dup2\n      sload\n      dup1\n      swap3\n      swap2\n      swap1\n      tag_150\n      swap1\n      tag_76\n      jump\t// in\n    tag_150:\n      swap2\n      swap1\n      pop\n      sstore\n      pop\n        /* \"contracts/OPTB/Token_Distribution/TokenDistribution_1_0_0.sol\":1803:2018  function approveDistribution() public onlyStakeholder {... */\n      jump\t// out\n        /* \"@openzeppelin/contracts/access/Ownable.sol\":2543:2758  function transferOwnership(address newOwner) public virtual onlyOwner {... */\n    tag_66:\n        /* \"@openzeppelin/contracts/access/Ownable.sol\":1531:1544  _checkOwner() */\n      tag_152\n        /* \"@openzeppelin/contracts/access/Ownable.sol\":1531:1542  _checkOwner */\n      tag_83\n        /* \"@openzeppelin/contracts/access/Ownable.sol\":1531:1544  _checkOwner() */\n      jump\t// in\n    tag_152:\n        /* \"@openzeppelin/contracts/access/Ownable.sol\":2647:2648  0 */\n      0x00\n        /* \"@openzeppelin/contracts/access/Ownable.sol\":2627:2649  newOwner == address(0) */\n      0xffffffffffffffffffffffffffffffffffffffff\n      and\n        /* \"@openzeppelin/contracts/access/Ownable.sol\":2627:2635  newOwner */\n      dup2\n        /* \"@openzeppelin/contracts/access/Ownable.sol\":2627:2649  newOwner == address(0) */\n      0xffffffffffffffffffffffffffffffffffffffff\n      and\n      sub\n        /* \"@openzeppelin/contracts/access/Ownable.sol\":2623:2714  if (newOwner == address(0)) {... */\n      tag_154\n      jumpi\n        /* \"@openzeppelin/contracts/access/Ownable.sol\":2700:2701  0 */\n      0x00\n        /* \"@openzeppelin/contracts/access/Ownable.sol\":2672:2703  OwnableInvalidOwner(address(0)) */\n      mload(0x40)\n      0x1e4fbdf700000000000000000000000000000000000000000000000000000000\n      dup2\n      mstore\n      0x04\n      add\n      tag_155\n      swap2\n      swap1\n      tag_37\n      jump\t// in\n    tag_155:\n      mload(0x40)\n      dup1\n      swap2\n      sub\n      swap1\n      revert\n        /* \"@openzeppelin/contracts/access/Ownable.sol\":2623:2714  if (newOwner == address(0)) {... */\n    tag_154:\n        /* \"@openzeppelin/contracts/access/Ownable.sol\":2723:2751  _transferOwnership(newOwner) */\n      tag_156\n        /* \"@openzeppelin/contracts/access/Ownable.sol\":2742:2750  newOwner */\n      dup2\n        /* \"@openzeppelin/contracts/access/Ownable.sol\":2723:2741  _transferOwnership */\n      tag_86\n        /* \"@openzeppelin/contracts/access/Ownable.sol\":2723:2751  _transferOwnership(newOwner) */\n      jump\t// in\n    tag_156:\n        /* \"@openzeppelin/contracts/access/Ownable.sol\":2543:2758  function transferOwnership(address newOwner) public virtual onlyOwner {... */\n      pop\n      jump\t// out\n        /* \"@openzeppelin/contracts/access/Ownable.sol\":1796:1958  function _checkOwner() internal view virtual {... */\n    tag_83:\n        /* \"@openzeppelin/contracts/access/Ownable.sol\":1866:1878  _msgSender() */\n      tag_158\n        /* \"@openzeppelin/contracts/access/Ownable.sol\":1866:1876  _msgSender */\n      tag_159\n        /* \"@openzeppelin/contracts/access/Ownable.sol\":1866:1878  _msgSender() */\n      jump\t// in\n    tag_158:\n        /* \"@openzeppelin/contracts/access/Ownable.sol\":1855:1878  owner() != _msgSender() */\n      0xffffffffffffffffffffffffffffffffffffffff\n      and\n        /* \"@openzeppelin/contracts/access/Ownable.sol\":1855:1862  owner() */\n      tag_160\n        /* \"@openzeppelin/contracts/access/Ownable.sol\":1855:1860  owner */\n      tag_35\n        /* \"@openzeppelin/contracts/access/Ownable.sol\":1855:1862  owner() */\n      jump\t// in\n    tag_160:\n        /* \"@openzeppelin/contracts/access/Ownable.sol\":1855:1878  owner() != _msgSender() */\n      0xffffffffffffffffffffffffffffffffffffffff\n      and\n      eq\n        /* \"@openzeppelin/contracts/access/Ownable.sol\":1851:1952  if (owner() != _msgSender()) {... */\n      tag_161\n      jumpi\n        /* \"@openzeppelin/contracts/access/Ownable.sol\":1928:1940  _msgSender() */\n      tag_162\n        /* \"@openzeppelin/contracts/access/Ownable.sol\":1928:1938  _msgSender */\n      tag_159\n        /* \"@openzeppelin/contracts/access/Ownable.sol\":1928:1940  _msgSender() */\n      jump\t// in\n    tag_162:\n        /* \"@openzeppelin/contracts/access/Ownable.sol\":1901:1941  OwnableUnauthorizedAccount(_msgSender()) */\n      mload(0x40)\n      0x118cdaa700000000000000000000000000000000000000000000000000000000\n      dup2\n      mstore\n      0x04\n      add\n      tag_163\n      swap2\n      swap1\n      tag_37\n      jump\t// in\n    tag_163:\n      mload(0x40)\n      dup1\n      swap2\n      sub\n      swap1\n      revert\n        /* \"@openzeppelin/contracts/access/Ownable.sol\":1851:1952  if (owner() != _msgSender()) {... */\n    tag_161:\n        /* \"@openzeppelin/contracts/access/Ownable.sol\":1796:1958  function _checkOwner() internal view virtual {... */\n      jump\t// out\n        /* \"@openzeppelin/contracts/access/Ownable.sol\":2912:3099  function _transferOwnership(address newOwner) internal virtual {... */\n    tag_86:\n        /* \"@openzeppelin/contracts/access/Ownable.sol\":2985:3001  address oldOwner */\n      0x00\n        /* \"@openzeppelin/contracts/access/Ownable.sol\":3004:3010  _owner */\n      0x00\n      0x00\n      swap1\n      sload\n      swap1\n      0x0100\n      exp\n      swap1\n      div\n      0xffffffffffffffffffffffffffffffffffffffff\n      and\n        /* \"@openzeppelin/contracts/access/Ownable.sol\":2985:3010  address oldOwner = _owner */\n      swap1\n      pop\n        /* \"@openzeppelin/contracts/access/Ownable.sol\":3029:3037  newOwner */\n      dup2\n        /* \"@openzeppelin/contracts/access/Ownable.sol\":3020:3026  _owner */\n      0x00\n      0x00\n        /* \"@openzeppelin/contracts/access/Ownable.sol\":3020:3037  _owner = newOwner */\n      0x0100\n      exp\n      dup2\n      sload\n      dup2\n      0xffffffffffffffffffffffffffffffffffffffff\n      mul\n      not\n      and\n      swap1\n      dup4\n      0xffffffffffffffffffffffffffffffffffffffff\n      and\n      mul\n      or\n      swap1\n      sstore\n      pop\n        /* \"@openzeppelin/contracts/access/Ownable.sol\":3083:3091  newOwner */\n      dup2\n        /* \"@openzeppelin/contracts/access/Ownable.sol\":3052:3092  OwnershipTransferred(oldOwner, newOwner) */\n      0xffffffffffffffffffffffffffffffffffffffff\n      and\n        /* \"@openzeppelin/contracts/access/Ownable.sol\":3073:3081  oldOwner */\n      dup2\n        /* \"@openzeppelin/contracts/access/Ownable.sol\":3052:3092  OwnershipTransferred(oldOwner, newOwner) */\n      0xffffffffffffffffffffffffffffffffffffffff\n      and\n      0x8be0079c531659141344cd1fd0a4f28419497f9722a3daafe3b4186f6b6457e0\n      mload(0x40)\n      mload(0x40)\n      dup1\n      swap2\n      sub\n      swap1\n      log3\n        /* \"@openzeppelin/contracts/access/Ownable.sol\":2975:3099  {... */\n      pop\n        /* \"@openzeppelin/contracts/access/Ownable.sol\":2912:3099  function _transferOwnership(address newOwner) internal virtual {... */\n      pop\n      jump\t// out\n        /* \"@openzeppelin/contracts/utils/Context.sol\":656:752  function _msgSender() internal view virtual returns (address) {... */\n    tag_159:\n        /* \"@openzeppelin/contracts/utils/Context.sol\":709:716  address */\n      0x00\n        /* \"@openzeppelin/contracts/utils/Context.sol\":735:745  msg.sender */\n      caller\n        /* \"@openzeppelin/contracts/utils/Context.sol\":728:745  return msg.sender */\n      swap1\n      pop\n        /* \"@openzeppelin/contracts/utils/Context.sol\":656:752  function _msgSender() internal view virtual returns (address) {... */\n      swap1\n      jump\t// out\n        /* \"#utility.yul\":7:84   */\n    tag_166:\n        /* \"#utility.yul\":44:51   */\n      0x00\n        /* \"#utility.yul\":73:78   */\n      dup2\n        /* \"#utility.yul\":62:78   */\n      swap1\n      pop\n        /* \"#utility.yul\":7:84   */\n      swap2\n      swap1\n      pop\n      jump\t// out\n        /* \"#utility.yul\":90:208   */\n    tag_167:\n        /* \"#utility.yul\":177:201   */\n      tag_210\n        /* \"#utility.yul\":195:200   */\n      dup2\n        /* \"#utility.yul\":177:201   */\n      tag_166\n      jump\t// in\n    tag_210:\n        /* \"#utility.yul\":172:175   */\n      dup3\n        /* \"#utility.yul\":165:202   */\n      mstore\n        /* \"#utility.yul\":90:208   */\n      pop\n      pop\n      jump\t// out\n        /* \"#utility.yul\":214:436   */\n    tag_25:\n        /* \"#utility.yul\":307:311   */\n      0x00\n        /* \"#utility.yul\":345:347   */\n      0x20\n        /* \"#utility.yul\":334:343   */\n      dup3\n        /* \"#utility.yul\":330:348   */\n      add\n        /* \"#utility.yul\":322:348   */\n      swap1\n      pop\n        /* \"#utility.yul\":358:429   */\n      tag_212\n        /* \"#utility.yul\":426:427   */\n      0x00\n        /* \"#utility.yul\":415:424   */\n      dup4\n        /* \"#utility.yul\":411:428   */\n      add\n        /* \"#utility.yul\":402:408   */\n      dup5\n        /* \"#utility.yul\":358:429   */\n      tag_167\n      jump\t// in\n    tag_212:\n        /* \"#utility.yul\":214:436   */\n      swap3\n      swap2\n      pop\n      pop\n      jump\t// out\n        /* \"#utility.yul\":442:568   */\n    tag_168:\n        /* \"#utility.yul\":479:486   */\n      0x00\n        /* \"#utility.yul\":519:561   */\n      0xffffffffffffffffffffffffffffffffffffffff\n        /* \"#utility.yul\":512:517   */\n      dup3\n        /* \"#utility.yul\":508:562   */\n      and\n        /* \"#utility.yul\":497:562   */\n      swap1\n      pop\n        /* \"#utility.yul\":442:568   */\n      swap2\n      swap1\n      pop\n      jump\t// out\n        /* \"#utility.yul\":574:670   */\n    tag_169:\n        /* \"#utility.yul\":611:618   */\n      0x00\n        /* \"#utility.yul\":640:664   */\n      tag_215\n        /* \"#utility.yul\":658:663   */\n      dup3\n        /* \"#utility.yul\":640:664   */\n      tag_168\n      jump\t// in\n    tag_215:\n        /* \"#utility.yul\":629:664   */\n      swap1\n      pop\n        /* \"#utility.yul\":574:670   */\n      swap2\n      swap1\n      pop\n      jump\t// out\n        /* \"#utility.yul\":676:794   */\n    tag_170:\n        /* \"#utility.yul\":763:787   */\n      tag_217\n        /* \"#utility.yul\":781:786   */\n      dup2\n        /* \"#utility.yul\":763:787   */\n      tag_169\n      jump\t// in\n    tag_217:\n        /* \"#utility.yul\":758:761   */\n      dup3\n        /* \"#utility.yul\":751:788   */\n      mstore\n        /* \"#utility.yul\":676:794   */\n      pop\n      pop\n      jump\t// out\n        /* \"#utility.yul\":800:1022   */\n    tag_37:\n        /* \"#utility.yul\":893:897   */\n      0x00\n        /* \"#utility.yul\":931:933   */\n      0x20\n        /* \"#utility.yul\":920:929   */\n      dup3\n        /* \"#utility.yul\":916:934   */\n      add\n        /* \"#utility.yul\":908:934   */\n      swap1\n      pop\n        /* \"#utility.yul\":944:1015   */\n      tag_219\n        /* \"#utility.yul\":1012:1013   */\n      0x00\n        /* \"#utility.yul\":1001:1010   */\n      dup4\n        /* \"#utility.yul\":997:1014   */\n      add\n        /* \"#utility.yul\":988:994   */\n      dup5\n        /* \"#utility.yul\":944:1015   */\n      tag_170\n      jump\t// in\n    tag_219:\n        /* \"#utility.yul\":800:1022   */\n      swap3\n      swap2\n      pop\n      pop\n      jump\t// out\n        /* \"#utility.yul\":1109:1226   */\n    tag_172:\n        /* \"#utility.yul\":1218:1219   */\n      0x00\n        /* \"#utility.yul\":1215:1216   */\n      0x00\n        /* \"#utility.yul\":1208:1220   */\n      revert\n        /* \"#utility.yul\":1355:1477   */\n    tag_174:\n        /* \"#utility.yul\":1428:1452   */\n      tag_224\n        /* \"#utility.yul\":1446:1451   */\n      dup2\n        /* \"#utility.yul\":1428:1452   */\n      tag_169\n      jump\t// in\n    tag_224:\n        /* \"#utility.yul\":1421:1426   */\n      dup2\n        /* \"#utility.yul\":1418:1453   */\n      eq\n        /* \"#utility.yul\":1408:1471   */\n      tag_225\n      jumpi\n        /* \"#utility.yul\":1467:1468   */\n      0x00\n        /* \"#utility.yul\":1464:1465   */\n      0x00\n        /* \"#utility.yul\":1457:1469   */\n      revert\n        /* \"#utility.yul\":1408:1471   */\n    tag_225:\n        /* \"#utility.yul\":1355:1477   */\n      pop\n      jump\t// out\n        /* \"#utility.yul\":1483:1622   */\n    tag_175:\n        /* \"#utility.yul\":1529:1534   */\n      0x00\n        /* \"#utility.yul\":1567:1573   */\n      dup2\n        /* \"#utility.yul\":1554:1574   */\n      calldataload\n        /* \"#utility.yul\":1545:1574   */\n      swap1\n      pop\n        /* \"#utility.yul\":1583:1616   */\n      tag_227\n        /* \"#utility.yul\":1610:1615   */\n      dup2\n        /* \"#utility.yul\":1583:1616   */\n      tag_174\n      jump\t// in\n    tag_227:\n        /* \"#utility.yul\":1483:1622   */\n      swap3\n      swap2\n      pop\n      pop\n      jump\t// out\n        /* \"#utility.yul\":1628:1750   */\n    tag_176:\n        /* \"#utility.yul\":1701:1725   */\n      tag_229\n        /* \"#utility.yul\":1719:1724   */\n      dup2\n        /* \"#utility.yul\":1701:1725   */\n      tag_166\n      jump\t// in\n    tag_229:\n        /* \"#utility.yul\":1694:1699   */\n      dup2\n        /* \"#utility.yul\":1691:1726   */\n      eq\n        /* \"#utility.yul\":1681:1744   */\n      tag_230\n      jumpi\n        /* \"#utility.yul\":1740:1741   */\n      0x00\n        /* \"#utility.yul\":1737:1738   */\n      0x00\n        /* \"#utility.yul\":1730:1742   */\n      revert\n        /* \"#utility.yul\":1681:1744   */\n    tag_230:\n        /* \"#utility.yul\":1628:1750   */\n      pop\n      jump\t// out\n        /* \"#utility.yul\":1756:1895   */\n    tag_177:\n        /* \"#utility.yul\":1802:1807   */\n      0x00\n        /* \"#utility.yul\":1840:1846   */\n      dup2\n        /* \"#utility.yul\":1827:1847   */\n      calldataload\n        /* \"#utility.yul\":1818:1847   */\n      swap1\n      pop\n        /* \"#utility.yul\":1856:1889   */\n      tag_232\n        /* \"#utility.yul\":1883:1888   */\n      dup2\n        /* \"#utility.yul\":1856:1889   */\n      tag_176\n      jump\t// in\n    tag_232:\n        /* \"#utility.yul\":1756:1895   */\n      swap3\n      swap2\n      pop\n      pop\n      jump\t// out\n        /* \"#utility.yul\":1901:2375   */\n    tag_42:\n        /* \"#utility.yul\":1969:1975   */\n      0x00\n        /* \"#utility.yul\":1977:1983   */\n      0x00\n        /* \"#utility.yul\":2026:2028   */\n      0x40\n        /* \"#utility.yul\":2014:2023   */\n      dup4\n        /* \"#utility.yul\":2005:2012   */\n      dup6\n        /* \"#utility.yul\":2001:2024   */\n      sub\n        /* \"#utility.yul\":1997:2029   */\n      slt\n        /* \"#utility.yul\":1994:2113   */\n      iszero\n      tag_234\n      jumpi\n        /* \"#utility.yul\":2032:2111   */\n      tag_235\n      tag_172\n      jump\t// in\n    tag_235:\n        /* \"#utility.yul\":1994:2113   */\n    tag_234:\n        /* \"#utility.yul\":2152:2153   */\n      0x00\n        /* \"#utility.yul\":2177:2230   */\n      tag_236\n        /* \"#utility.yul\":2222:2229   */\n      dup6\n        /* \"#utility.yul\":2213:2219   */\n      dup3\n        /* \"#utility.yul\":2202:2211   */\n      dup7\n        /* \"#utility.yul\":2198:2220   */\n      add\n        /* \"#utility.yul\":2177:2230   */\n      tag_175\n      jump\t// in\n    tag_236:\n        /* \"#utility.yul\":2167:2230   */\n      swap3\n      pop\n        /* \"#utility.yul\":2123:2240   */\n      pop\n        /* \"#utility.yul\":2279:2281   */\n      0x20\n        /* \"#utility.yul\":2305:2358   */\n      tag_237\n        /* \"#utility.yul\":2350:2357   */\n      dup6\n        /* \"#utility.yul\":2341:2347   */\n      dup3\n        /* \"#utility.yul\":2330:2339   */\n      dup7\n        /* \"#utility.yul\":2326:2348   */\n      add\n        /* \"#utility.yul\":2305:2358   */\n      tag_177\n      jump\t// in\n    tag_237:\n        /* \"#utility.yul\":2295:2358   */\n      swap2\n      pop\n        /* \"#utility.yul\":2250:2368   */\n      pop\n        /* \"#utility.yul\":1901:2375   */\n      swap3\n      pop\n      swap3\n      swap1\n      pop\n      jump\t// out\n        /* \"#utility.yul\":2381:2441   */\n    tag_178:\n        /* \"#utility.yul\":2409:2412   */\n      0x00\n        /* \"#utility.yul\":2430:2435   */\n      dup2\n        /* \"#utility.yul\":2423:2435   */\n      swap1\n      pop\n        /* \"#utility.yul\":2381:2441   */\n      swap2\n      swap1\n      pop\n      jump\t// out\n        /* \"#utility.yul\":2447:2589   */\n    tag_179:\n        /* \"#utility.yul\":2497:2506   */\n      0x00\n        /* \"#utility.yul\":2530:2583   */\n      tag_240\n        /* \"#utility.yul\":2548:2582   */\n      tag_241\n        /* \"#utility.yul\":2557:2581   */\n      tag_242\n        /* \"#utility.yul\":2575:2580   */\n      dup5\n        /* \"#utility.yul\":2557:2581   */\n      tag_168\n      jump\t// in\n    tag_242:\n        /* \"#utility.yul\":2548:2582   */\n      tag_178\n      jump\t// in\n    tag_241:\n        /* \"#utility.yul\":2530:2583   */\n      tag_168\n      jump\t// in\n    tag_240:\n        /* \"#utility.yul\":2517:2583   */\n      swap1\n      pop\n        /* \"#utility.yul\":2447:2589   */\n      swap2\n      swap1\n      pop\n      jump\t// out\n        /* \"#utility.yul\":2595:2721   */\n    tag_180:\n        /* \"#utility.yul\":2645:2654   */\n      0x00\n        /* \"#utility.yul\":2678:2715   */\n      tag_244\n        /* \"#utility.yul\":2709:2714   */\n      dup3\n        /* \"#utility.yul\":2678:2715   */\n      tag_179\n      jump\t// in\n    tag_244:\n        /* \"#utility.yul\":2665:2715   */\n      swap1\n      pop\n        /* \"#utility.yul\":2595:2721   */\n      swap2\n      swap1\n      pop\n      jump\t// out\n        /* \"#utility.yul\":2727:2867   */\n    tag_181:\n        /* \"#utility.yul\":2791:2800   */\n      0x00\n        /* \"#utility.yul\":2824:2861   */\n      tag_246\n        /* \"#utility.yul\":2855:2860   */\n      dup3\n        /* \"#utility.yul\":2824:2861   */\n      tag_180\n      jump\t// in\n    tag_246:\n        /* \"#utility.yul\":2811:2861   */\n      swap1\n      pop\n        /* \"#utility.yul\":2727:2867   */\n      swap2\n      swap1\n      pop\n      jump\t// out\n        /* \"#utility.yul\":2873:3032   */\n    tag_182:\n        /* \"#utility.yul\":2974:3025   */\n      tag_248\n        /* \"#utility.yul\":3019:3024   */\n      dup2\n        /* \"#utility.yul\":2974:3025   */\n      tag_181\n      jump\t// in\n    tag_248:\n        /* \"#utility.yul\":2969:2972   */\n      dup3\n        /* \"#utility.yul\":2962:3026   */\n      mstore\n        /* \"#utility.yul\":2873:3032   */\n      pop\n      pop\n      jump\t// out\n        /* \"#utility.yul\":3038:3288   */\n    tag_47:\n        /* \"#utility.yul\":3145:3149   */\n      0x00\n        /* \"#utility.yul\":3183:3185   */\n      0x20\n        /* \"#utility.yul\":3172:3181   */\n      dup3\n        /* \"#utility.yul\":3168:3186   */\n      add\n        /* \"#utility.yul\":3160:3186   */\n      swap1\n      pop\n        /* \"#utility.yul\":3196:3281   */\n      tag_250\n        /* \"#utility.yul\":3278:3279   */\n      0x00\n        /* \"#utility.yul\":3267:3276   */\n      dup4\n        /* \"#utility.yul\":3263:3280   */\n      add\n        /* \"#utility.yul\":3254:3260   */\n      dup5\n        /* \"#utility.yul\":3196:3281   */\n      tag_182\n      jump\t// in\n    tag_250:\n        /* \"#utility.yul\":3038:3288   */\n      swap3\n      swap2\n      pop\n      pop\n      jump\t// out\n        /* \"#utility.yul\":3294:3623   */\n    tag_50:\n        /* \"#utility.yul\":3353:3359   */\n      0x00\n        /* \"#utility.yul\":3402:3404   */\n      0x20\n        /* \"#utility.yul\":3390:3399   */\n      dup3\n        /* \"#utility.yul\":3381:3388   */\n      dup5\n        /* \"#utility.yul\":3377:3400   */\n      sub\n        /* \"#utility.yul\":3373:3405   */\n      slt\n        /* \"#utility.yul\":3370:3489   */\n      iszero\n      tag_252\n      jumpi\n        /* \"#utility.yul\":3408:3487   */\n      tag_253\n      tag_172\n      jump\t// in\n    tag_253:\n        /* \"#utility.yul\":3370:3489   */\n    tag_252:\n        /* \"#utility.yul\":3528:3529   */\n      0x00\n        /* \"#utility.yul\":3553:3606   */\n      tag_254\n        /* \"#utility.yul\":3598:3605   */\n      dup5\n        /* \"#utility.yul\":3589:3595   */\n      dup3\n        /* \"#utility.yul\":3578:3587   */\n      dup6\n        /* \"#utility.yul\":3574:3596   */\n      add\n        /* \"#utility.yul\":3553:3606   */\n      tag_175\n      jump\t// in\n    tag_254:\n        /* \"#utility.yul\":3543:3606   */\n      swap2\n      pop\n        /* \"#utility.yul\":3499:3616   */\n      pop\n        /* \"#utility.yul\":3294:3623   */\n      swap3\n      swap2\n      pop\n      pop\n      jump\t// out\n        /* \"#utility.yul\":3629:3719   */\n    tag_183:\n        /* \"#utility.yul\":3663:3670   */\n      0x00\n        /* \"#utility.yul\":3706:3711   */\n      dup2\n        /* \"#utility.yul\":3699:3712   */\n      iszero\n        /* \"#utility.yul\":3692:3713   */\n      iszero\n        /* \"#utility.yul\":3681:3713   */\n      swap1\n      pop\n        /* \"#utility.yul\":3629:3719   */\n      swap2\n      swap1\n      pop\n      jump\t// out\n        /* \"#utility.yul\":3725:3834   */\n    tag_184:\n        /* \"#utility.yul\":3806:3827   */\n      tag_257\n        /* \"#utility.yul\":3821:3826   */\n      dup2\n        /* \"#utility.yul\":3806:3827   */\n      tag_183\n      jump\t// in\n    tag_257:\n        /* \"#utility.yul\":3801:3804   */\n      dup3\n        /* \"#utility.yul\":3794:3828   */\n      mstore\n        /* \"#utility.yul\":3725:3834   */\n      pop\n      pop\n      jump\t// out\n        /* \"#utility.yul\":3840:4357   */\n    tag_53:\n        /* \"#utility.yul\":3999:4003   */\n      0x00\n        /* \"#utility.yul\":4037:4040   */\n      0x80\n        /* \"#utility.yul\":4026:4035   */\n      dup3\n        /* \"#utility.yul\":4022:4041   */\n      add\n        /* \"#utility.yul\":4014:4041   */\n      swap1\n      pop\n        /* \"#utility.yul\":4051:4122   */\n      tag_259\n        /* \"#utility.yul\":4119:4120   */\n      0x00\n        /* \"#utility.yul\":4108:4117   */\n      dup4\n        /* \"#utility.yul\":4104:4121   */\n      add\n        /* \"#utility.yul\":4095:4101   */\n      dup8\n        /* \"#utility.yul\":4051:4122   */\n      tag_167\n      jump\t// in\n    tag_259:\n        /* \"#utility.yul\":4132:4198   */\n      tag_260\n        /* \"#utility.yul\":4194:4196   */\n      0x20\n        /* \"#utility.yul\":4183:4192   */\n      dup4\n        /* \"#utility.yul\":4179:4197   */\n      add\n        /* \"#utility.yul\":4170:4176   */\n      dup7\n        /* \"#utility.yul\":4132:4198   */\n      tag_184\n      jump\t// in\n    tag_260:\n        /* \"#utility.yul\":4208:4274   */\n      tag_261\n        /* \"#utility.yul\":4270:4272   */\n      0x40\n        /* \"#utility.yul\":4259:4268   */\n      dup4\n        /* \"#utility.yul\":4255:4273   */\n      add\n        /* \"#utility.yul\":4246:4252   */\n      dup6\n        /* \"#utility.yul\":4208:4274   */\n      tag_184\n      jump\t// in\n    tag_261:\n        /* \"#utility.yul\":4284:4350   */\n      tag_262\n        /* \"#utility.yul\":4346:4348   */\n      0x60\n        /* \"#utility.yul\":4335:4344   */\n      dup4\n        /* \"#utility.yul\":4331:4349   */\n      add\n        /* \"#utility.yul\":4322:4328   */\n      dup5\n        /* \"#utility.yul\":4284:4350   */\n      tag_184\n      jump\t// in\n    tag_262:\n        /* \"#utility.yul\":3840:4357   */\n      swap6\n      swap5\n      pop\n      pop\n      pop\n      pop\n      pop\n      jump\t// out\n        /* \"#utility.yul\":4363:4692   */\n    tag_59:\n        /* \"#utility.yul\":4422:4428   */\n      0x00\n        /* \"#utility.yul\":4471:4473   */\n      0x20\n        /* \"#utility.yul\":4459:4468   */\n      dup3\n        /* \"#utility.yul\":4450:4457   */\n      dup5\n        /* \"#utility.yul\":4446:4469   */\n      sub\n        /* \"#utility.yul\":4442:4474   */\n      slt\n        /* \"#utility.yul\":4439:4558   */\n      iszero\n      tag_264\n      jumpi\n        /* \"#utility.yul\":4477:4556   */\n      tag_265\n      tag_172\n      jump\t// in\n    tag_265:\n        /* \"#utility.yul\":4439:4558   */\n    tag_264:\n        /* \"#utility.yul\":4597:4598   */\n      0x00\n        /* \"#utility.yul\":4622:4675   */\n      tag_266\n        /* \"#utility.yul\":4667:4674   */\n      dup5\n        /* \"#utility.yul\":4658:4664   */\n      dup3\n        /* \"#utility.yul\":4647:4656   */\n      dup6\n        /* \"#utility.yul\":4643:4665   */\n      add\n        /* \"#utility.yul\":4622:4675   */\n      tag_177\n      jump\t// in\n    tag_266:\n        /* \"#utility.yul\":4612:4675   */\n      swap2\n      pop\n        /* \"#utility.yul\":4568:4685   */\n      pop\n        /* \"#utility.yul\":4363:4692   */\n      swap3\n      swap2\n      pop\n      pop\n      jump\t// out\n        /* \"#utility.yul\":4698:4867   */\n    tag_185:\n        /* \"#utility.yul\":4782:4793   */\n      0x00\n        /* \"#utility.yul\":4816:4822   */\n      dup3\n        /* \"#utility.yul\":4811:4814   */\n      dup3\n        /* \"#utility.yul\":4804:4823   */\n      mstore\n        /* \"#utility.yul\":4856:4860   */\n      0x20\n        /* \"#utility.yul\":4851:4854   */\n      dup3\n        /* \"#utility.yul\":4847:4861   */\n      add\n        /* \"#utility.yul\":4832:4861   */\n      swap1\n      pop\n        /* \"#utility.yul\":4698:4867   */\n      swap3\n      swap2\n      pop\n      pop\n      jump\t// out\n        /* \"#utility.yul\":4873:5040   */\n    tag_186:\n        /* \"#utility.yul\":5013:5032   */\n      0x4e6f742061207374616b65686f6c646572000000000000000000000000000000\n        /* \"#utility.yul\":5009:5010   */\n      0x00\n        /* \"#utility.yul\":5001:5007   */\n      dup3\n        /* \"#utility.yul\":4997:5011   */\n      add\n        /* \"#utility.yul\":4990:5033   */\n      mstore\n        /* \"#utility.yul\":4873:5040   */\n      pop\n      jump\t// out\n        /* \"#utility.yul\":5046:5412   */\n    tag_187:\n        /* \"#utility.yul\":5188:5191   */\n      0x00\n        /* \"#utility.yul\":5209:5276   */\n      tag_270\n        /* \"#utility.yul\":5273:5275   */\n      0x11\n        /* \"#utility.yul\":5268:5271   */\n      dup4\n        /* \"#utility.yul\":5209:5276   */\n      tag_185\n      jump\t// in\n    tag_270:\n        /* \"#utility.yul\":5202:5276   */\n      swap2\n      pop\n        /* \"#utility.yul\":5285:5378   */\n      tag_271\n        /* \"#utility.yul\":5374:5377   */\n      dup3\n        /* \"#utility.yul\":5285:5378   */\n      tag_186\n      jump\t// in\n    tag_271:\n        /* \"#utility.yul\":5403:5405   */\n      0x20\n        /* \"#utility.yul\":5398:5401   */\n      dup3\n        /* \"#utility.yul\":5394:5406   */\n      add\n        /* \"#utility.yul\":5387:5406   */\n      swap1\n      pop\n        /* \"#utility.yul\":5046:5412   */\n      swap2\n      swap1\n      pop\n      jump\t// out\n        /* \"#utility.yul\":5418:5837   */\n    tag_70:\n        /* \"#utility.yul\":5584:5588   */\n      0x00\n        /* \"#utility.yul\":5622:5624   */\n      0x20\n        /* \"#utility.yul\":5611:5620   */\n      dup3\n        /* \"#utility.yul\":5607:5625   */\n      add\n        /* \"#utility.yul\":5599:5625   */\n      swap1\n      pop\n        /* \"#utility.yul\":5671:5680   */\n      dup2\n        /* \"#utility.yul\":5665:5669   */\n      dup2\n        /* \"#utility.yul\":5661:5681   */\n      sub\n        /* \"#utility.yul\":5657:5658   */\n      0x00\n        /* \"#utility.yul\":5646:5655   */\n      dup4\n        /* \"#utility.yul\":5642:5659   */\n      add\n        /* \"#utility.yul\":5635:5682   */\n      mstore\n        /* \"#utility.yul\":5699:5830   */\n      tag_273\n        /* \"#utility.yul\":5825:5829   */\n      dup2\n        /* \"#utility.yul\":5699:5830   */\n      tag_187\n      jump\t// in\n    tag_273:\n        /* \"#utility.yul\":5691:5830   */\n      swap1\n      pop\n        /* \"#utility.yul\":5418:5837   */\n      swap2\n      swap1\n      pop\n      jump\t// out\n        /* \"#utility.yul\":5843:6006   */\n    tag_188:\n        /* \"#utility.yul\":5983:5998   */\n      0x416c726561647920766f74656400000000000000000000000000000000000000\n        /* \"#utility.yul\":5979:5980   */\n      0x00\n        /* \"#utility.yul\":5971:5977   */\n      dup3\n        /* \"#utility.yul\":5967:5981   */\n      add\n        /* \"#utility.yul\":5960:5999   */\n      mstore\n        /* \"#utility.yul\":5843:6006   */\n      pop\n      jump\t// out\n        /* \"#utility.yul\":6012:6378   */\n    tag_189:\n        /* \"#utility.yul\":6154:6157   */\n      0x00\n        /* \"#utility.yul\":6175:6242   */\n      tag_276\n        /* \"#utility.yul\":6239:6241   */\n      0x0d\n        /* \"#utility.yul\":6234:6237   */\n      dup4\n        /* \"#utility.yul\":6175:6242   */\n      tag_185\n      jump\t// in\n    tag_276:\n        /* \"#utility.yul\":6168:6242   */\n      swap2\n      pop\n        /* \"#utility.yul\":6251:6344   */\n      tag_277\n        /* \"#utility.yul\":6340:6343   */\n      dup3\n        /* \"#utility.yul\":6251:6344   */\n      tag_188\n      jump\t// in\n    tag_277:\n        /* \"#utility.yul\":6369:6371   */\n      0x20\n        /* \"#utility.yul\":6364:6367   */\n      dup3\n        /* \"#utility.yul\":6360:6372   */\n      add\n        /* \"#utility.yul\":6353:6372   */\n      swap1\n      pop\n        /* \"#utility.yul\":6012:6378   */\n      swap2\n      swap1\n      pop\n      jump\t// out\n        /* \"#utility.yul\":6384:6803   */\n    tag_74:\n        /* \"#utility.yul\":6550:6554   */\n      0x00\n        /* \"#utility.yul\":6588:6590   */\n      0x20\n        /* \"#utility.yul\":6577:6586   */\n      dup3\n        /* \"#utility.yul\":6573:6591   */\n      add\n        /* \"#utility.yul\":6565:6591   */\n      swap1\n      pop\n        /* \"#utility.yul\":6637:6646   */\n      dup2\n        /* \"#utility.yul\":6631:6635   */\n      dup2\n        /* \"#utility.yul\":6627:6647   */\n      sub\n        /* \"#utility.yul\":6623:6624   */\n      0x00\n        /* \"#utility.yul\":6612:6621   */\n      dup4\n        /* \"#utility.yul\":6608:6625   */\n      add\n        /* \"#utility.yul\":6601:6648   */\n      mstore\n        /* \"#utility.yul\":6665:6796   */\n      tag_279\n        /* \"#utility.yul\":6791:6795   */\n      dup2\n        /* \"#utility.yul\":6665:6796   */\n      tag_189\n      jump\t// in\n    tag_279:\n        /* \"#utility.yul\":6657:6796   */\n      swap1\n      pop\n        /* \"#utility.yul\":6384:6803   */\n      swap2\n      swap1\n      pop\n      jump\t// out\n        /* \"#utility.yul\":6809:6989   */\n    tag_190:\n        /* \"#utility.yul\":6857:6934   */\n      0x4e487b7100000000000000000000000000000000000000000000000000000000\n        /* \"#utility.yul\":6854:6855   */\n      0x00\n        /* \"#utility.yul\":6847:6935   */\n      mstore\n        /* \"#utility.yul\":6954:6958   */\n      0x11\n        /* \"#utility.yul\":6951:6952   */\n      0x04\n        /* \"#utility.yul\":6944:6959   */\n      mstore\n        /* \"#utility.yul\":6978:6982   */\n      0x24\n        /* \"#utility.yul\":6975:6976   */\n      0x00\n        /* \"#utility.yul\":6968:6983   */\n      revert\n        /* \"#utility.yul\":6995:7228   */\n    tag_76:\n        /* \"#utility.yul\":7034:7037   */\n      0x00\n        /* \"#utility.yul\":7057:7081   */\n      tag_282\n        /* \"#utility.yul\":7075:7080   */\n      dup3\n        /* \"#utility.yul\":7057:7081   */\n      tag_166\n      jump\t// in\n    tag_282:\n        /* \"#utility.yul\":7048:7081   */\n      swap2\n      pop\n        /* \"#utility.yul\":7103:7169   */\n      0xffffffffffffffffffffffffffffffffffffffffffffffffffffffffffffffff\n        /* \"#utility.yul\":7096:7101   */\n      dup3\n        /* \"#utility.yul\":7093:7170   */\n      sub\n        /* \"#utility.yul\":7090:7193   */\n      tag_283\n      jumpi\n        /* \"#utility.yul\":7173:7191   */\n      tag_284\n      tag_190\n      jump\t// in\n    tag_284:\n        /* \"#utility.yul\":7090:7193   */\n    tag_283:\n        /* \"#utility.yul\":7220:7221   */\n      0x01\n        /* \"#utility.yul\":7213:7218   */\n      dup3\n        /* \"#utility.yul\":7209:7222   */\n      add\n        /* \"#utility.yul\":7202:7222   */\n      swap1\n      pop\n        /* \"#utility.yul\":6995:7228   */\n      swap2\n      swap1\n      pop\n      jump\t// out\n        /* \"#utility.yul\":7234:7414   */\n    tag_191:\n        /* \"#utility.yul\":7282:7359   */\n      0x4e487b7100000000000000000000000000000000000000000000000000000000\n        /* \"#utility.yul\":7279:7280   */\n      0x00\n        /* \"#utility.yul\":7272:7360   */\n      mstore\n        /* \"#utility.yul\":7379:7383   */\n      0x12\n        /* \"#utility.yul\":7376:7377   */\n      0x04\n        /* \"#utility.yul\":7369:7384   */\n      mstore\n        /* \"#utility.yul\":7403:7407   */\n      0x24\n        /* \"#utility.yul\":7400:7401   */\n      0x00\n        /* \"#utility.yul\":7393:7408   */\n      revert\n        /* \"#utility.yul\":7420:7605   */\n    tag_78:\n        /* \"#utility.yul\":7460:7461   */\n      0x00\n        /* \"#utility.yul\":7477:7497   */\n      tag_287\n        /* \"#utility.yul\":7495:7496   */\n      dup3\n        /* \"#utility.yul\":7477:7497   */\n      tag_166\n      jump\t// in\n    tag_287:\n        /* \"#utility.yul\":7472:7497   */\n      swap2\n      pop\n        /* \"#utility.yul\":7511:7531   */\n      tag_288\n        /* \"#utility.yul\":7529:7530   */\n      dup4\n        /* \"#utility.yul\":7511:7531   */\n      tag_166\n      jump\t// in\n    tag_288:\n        /* \"#utility.yul\":7506:7531   */\n      swap3\n      pop\n        /* \"#utility.yul\":7550:7551   */\n      dup3\n        /* \"#utility.yul\":7540:7575   */\n      tag_289\n      jumpi\n        /* \"#utility.yul\":7555:7573   */\n      tag_290\n      tag_191\n      jump\t// in\n    tag_290:\n        /* \"#utility.yul\":7540:7575   */\n    tag_289:\n        /* \"#utility.yul\":7597:7598   */\n      dup3\n        /* \"#utility.yul\":7594:7595   */\n      dup3\n        /* \"#utility.yul\":7590:7599   */\n      div\n        /* \"#utility.yul\":7585:7599   */\n      swap1\n      pop\n        /* \"#utility.yul\":7420:7605   */\n      swap3\n      swap2\n      pop\n      pop\n      jump\t// out\n        /* \"#utility.yul\":7611:7754   */\n    tag_192:\n        /* \"#utility.yul\":7668:7673   */\n      0x00\n        /* \"#utility.yul\":7699:7705   */\n      dup2\n        /* \"#utility.yul\":7693:7706   */\n      mload\n        /* \"#utility.yul\":7684:7706   */\n      swap1\n      pop\n        /* \"#utility.yul\":7715:7748   */\n      tag_292\n        /* \"#utility.yul\":7742:7747   */\n      dup2\n        /* \"#utility.yul\":7715:7748   */\n      tag_176\n      jump\t// in\n    tag_292:\n        /* \"#utility.yul\":7611:7754   */\n      swap3\n      swap2\n      pop\n      pop\n      jump\t// out\n        /* \"#utility.yul\":7760:8111   */\n    tag_92:\n        /* \"#utility.yul\":7830:7836   */\n      0x00\n        /* \"#utility.yul\":7879:7881   */\n      0x20\n        /* \"#utility.yul\":7867:7876   */\n      dup3\n        /* \"#utility.yul\":7858:7865   */\n      dup5\n        /* \"#utility.yul\":7854:7877   */\n      sub\n        /* \"#utility.yul\":7850:7882   */\n      slt\n        /* \"#utility.yul\":7847:7966   */\n      iszero\n      tag_294\n      jumpi\n        /* \"#utility.yul\":7885:7964   */\n      tag_295\n      tag_172\n      jump\t// in\n    tag_295:\n        /* \"#utility.yul\":7847:7966   */\n    tag_294:\n        /* \"#utility.yul\":8005:8006   */\n      0x00\n        /* \"#utility.yul\":8030:8094   */\n      tag_296\n        /* \"#utility.yul\":8086:8093   */\n      dup5\n        /* \"#utility.yul\":8077:8083   */\n      dup3\n        /* \"#utility.yul\":8066:8075   */\n      dup6\n        /* \"#utility.yul\":8062:8084   */\n      add\n        /* \"#utility.yul\":8030:8094   */\n      tag_192\n      jump\t// in\n    tag_296:\n        /* \"#utility.yul\":8020:8094   */\n      swap2\n      pop\n        /* \"#utility.yul\":7976:8104   */\n      pop\n        /* \"#utility.yul\":7760:8111   */\n      swap3\n      swap2\n      pop\n      pop\n      jump\t// out\n        /* \"#utility.yul\":8117:8296   */\n    tag_193:\n        /* \"#utility.yul\":8257:8288   */\n      0x416c6c207374616b65686f6c64657273206d75737420617070726f7665000000\n        /* \"#utility.yul\":8253:8254   */\n      0x00\n        /* \"#utility.yul\":8245:8251   */\n      dup3\n        /* \"#utility.yul\":8241:8255   */\n      add\n        /* \"#utility.yul\":8234:8289   */\n      mstore\n        /* \"#utility.yul\":8117:8296   */\n      pop\n      jump\t// out\n        /* \"#utility.yul\":8302:8668   */\n    tag_194:\n        /* \"#utility.yul\":8444:8447   */\n      0x00\n        /* \"#utility.yul\":8465:8532   */\n      tag_299\n        /* \"#utility.yul\":8529:8531   */\n      0x1d\n        /* \"#utility.yul\":8524:8527   */\n      dup4\n        /* \"#utility.yul\":8465:8532   */\n      tag_185\n      jump\t// in\n    tag_299:\n        /* \"#utility.yul\":8458:8532   */\n      swap2\n      pop\n        /* \"#utility.yul\":8541:8634   */\n      tag_300\n        /* \"#utility.yul\":8630:8633   */\n      dup3\n        /* \"#utility.yul\":8541:8634   */\n      tag_193\n      jump\t// in\n    tag_300:\n        /* \"#utility.yul\":8659:8661   */\n      0x20\n        /* \"#utility.yul\":8654:8657   */\n      dup3\n        /* \"#utility.yul\":8650:8662   */\n      add\n        /* \"#utility.yul\":8643:8662   */\n      swap1\n      pop\n        /* \"#utility.yul\":8302:8668   */\n      swap2\n      swap1\n      pop\n      jump\t// out\n        /* \"#utility.yul\":8674:9093   */\n    tag_99:\n        /* \"#utility.yul\":8840:8844   */\n      0x00\n        /* \"#utility.yul\":8878:8880   */\n      0x20\n        /* \"#utility.yul\":8867:8876   */\n      dup3\n        /* \"#utility.yul\":8863:8881   */\n      add\n        /* \"#utility.yul\":8855:8881   */\n      swap1\n      pop\n        /* \"#utility.yul\":8927:8936   */\n      dup2\n        /* \"#utility.yul\":8921:8925   */\n      dup2\n        /* \"#utility.yul\":8917:8937   */\n      sub\n        /* \"#utility.yul\":8913:8914   */\n      0x00\n        /* \"#utility.yul\":8902:8911   */\n      dup4\n        /* \"#utility.yul\":8898:8915   */\n      add\n        /* \"#utility.yul\":8891:8938   */\n      mstore\n        /* \"#utility.yul\":8955:9086   */\n      tag_302\n        /* \"#utility.yul\":9081:9085   */\n      dup2\n        /* \"#utility.yul\":8955:9086   */\n      tag_194\n      jump\t// in\n    tag_302:\n        /* \"#utility.yul\":8947:9086   */\n      swap1\n      pop\n        /* \"#utility.yul\":8674:9093   */\n      swap2\n      swap1\n      pop\n      jump\t// out\n        /* \"#utility.yul\":9099:9272   */\n    tag_195:\n        /* \"#utility.yul\":9239:9264   */\n      0x4e6f20746f6b656e7320746f2064697374726962757465000000000000000000\n        /* \"#utility.yul\":9235:9236   */\n      0x00\n        /* \"#utility.yul\":9227:9233   */\n      dup3\n        /* \"#utility.yul\":9223:9237   */\n      add\n        /* \"#utility.yul\":9216:9265   */\n      mstore\n        /* \"#utility.yul\":9099:9272   */\n      pop\n      jump\t// out\n        /* \"#utility.yul\":9278:9644   */\n    tag_196:\n        /* \"#utility.yul\":9420:9423   */\n      0x00\n        /* \"#utility.yul\":9441:9508   */\n      tag_305\n        /* \"#utility.yul\":9505:9507   */\n      0x17\n        /* \"#utility.yul\":9500:9503   */\n      dup4\n        /* \"#utility.yul\":9441:9508   */\n      tag_185\n      jump\t// in\n    tag_305:\n        /* \"#utility.yul\":9434:9508   */\n      swap2\n      pop\n        /* \"#utility.yul\":9517:9610   */\n      tag_306\n        /* \"#utility.yul\":9606:9609   */\n      dup3\n        /* \"#utility.yul\":9517:9610   */\n      tag_195\n      jump\t// in\n    tag_306:\n        /* \"#utility.yul\":9635:9637   */\n      0x20\n        /* \"#utility.yul\":9630:9633   */\n      dup3\n        /* \"#utility.yul\":9626:9638   */\n      add\n        /* \"#utility.yul\":9619:9638   */\n      swap1\n      pop\n        /* \"#utility.yul\":9278:9644   */\n      swap2\n      swap1\n      pop\n      jump\t// out\n        /* \"#utility.yul\":9650:10069   */\n    tag_106:\n        /* \"#utility.yul\":9816:9820   */\n      0x00\n        /* \"#utility.yul\":9854:9856   */\n      0x20\n        /* \"#utility.yul\":9843:9852   */\n      dup3\n        /* \"#utility.yul\":9839:9857   */\n      add\n        /* \"#utility.yul\":9831:9857   */\n      swap1\n      pop\n        /* \"#utility.yul\":9903:9912   */\n      dup2\n        /* \"#utility.yul\":9897:9901   */\n      dup2\n        /* \"#utility.yul\":9893:9913   */\n      sub\n        /* \"#utility.yul\":9889:9890   */\n      0x00\n        /* \"#utility.yul\":9878:9887   */\n      dup4\n        /* \"#utility.yul\":9874:9891   */\n      add\n        /* \"#utility.yul\":9867:9914   */\n      mstore\n        /* \"#utility.yul\":9931:10062   */\n      tag_308\n        /* \"#utility.yul\":10057:10061   */\n      dup2\n        /* \"#utility.yul\":9931:10062   */\n      tag_196\n      jump\t// in\n    tag_308:\n        /* \"#utility.yul\":9923:10062   */\n      swap1\n      pop\n        /* \"#utility.yul\":9650:10069   */\n      swap2\n      swap1\n      pop\n      jump\t// out\n        /* \"#utility.yul\":10075:10255   */\n    tag_112:\n        /* \"#utility.yul\":10123:10200   */\n      0x4e487b7100000000000000000000000000000000000000000000000000000000\n        /* \"#utility.yul\":10120:10121   */\n      0x00\n        /* \"#utility.yul\":10113:10201   */\n      mstore\n        /* \"#utility.yul\":10220:10224   */\n      0x32\n        /* \"#utility.yul\":10217:10218   */\n      0x04\n        /* \"#utility.yul\":10210:10225   */\n      mstore\n        /* \"#utility.yul\":10244:10248   */\n      0x24\n        /* \"#utility.yul\":10241:10242   */\n      0x00\n        /* \"#utility.yul\":10234:10249   */\n      revert\n        /* \"#utility.yul\":10261:10671   */\n    tag_115:\n        /* \"#utility.yul\":10301:10308   */\n      0x00\n        /* \"#utility.yul\":10324:10344   */\n      tag_311\n        /* \"#utility.yul\":10342:10343   */\n      dup3\n        /* \"#utility.yul\":10324:10344   */\n      tag_166\n      jump\t// in\n    tag_311:\n        /* \"#utility.yul\":10319:10344   */\n      swap2\n      pop\n        /* \"#utility.yul\":10358:10378   */\n      tag_312\n        /* \"#utility.yul\":10376:10377   */\n      dup4\n        /* \"#utility.yul\":10358:10378   */\n      tag_166\n      jump\t// in\n    tag_312:\n        /* \"#utility.yul\":10353:10378   */\n      swap3\n      pop\n        /* \"#utility.yul\":10413:10414   */\n      dup3\n        /* \"#utility.yul\":10410:10411   */\n      dup3\n        /* \"#utility.yul\":10406:10415   */\n      mul\n        /* \"#utility.yul\":10435:10465   */\n      tag_313\n        /* \"#utility.yul\":10453:10464   */\n      dup2\n        /* \"#utility.yul\":10435:10465   */\n      tag_166\n      jump\t// in\n    tag_313:\n        /* \"#utility.yul\":10424:10465   */\n      swap2\n      pop\n        /* \"#utility.yul\":10614:10615   */\n      dup3\n        /* \"#utility.yul\":10605:10612   */\n      dup3\n        /* \"#utility.yul\":10601:10616   */\n      div\n        /* \"#utility.yul\":10598:10599   */\n      dup5\n        /* \"#utility.yul\":10595:10617   */\n      eq\n        /* \"#utility.yul\":10575:10576   */\n      dup4\n        /* \"#utility.yul\":10568:10577   */\n      iszero\n        /* \"#utility.yul\":10548:10631   */\n      or\n        /* \"#utility.yul\":10525:10664   */\n      tag_314\n      jumpi\n        /* \"#utility.yul\":10644:10662   */\n      tag_315\n      tag_190\n      jump\t// in\n    tag_315:\n        /* \"#utility.yul\":10525:10664   */\n    tag_314:\n        /* \"#utility.yul\":10309:10671   */\n      pop\n        /* \"#utility.yul\":10261:10671   */\n      swap3\n      swap2\n      pop\n      pop\n      jump\t// out\n        /* \"#utility.yul\":10677:11009   */\n    tag_118:\n        /* \"#utility.yul\":10798:10802   */\n      0x00\n        /* \"#utility.yul\":10836:10838   */\n      0x40\n        /* \"#utility.yul\":10825:10834   */\n      dup3\n        /* \"#utility.yul\":10821:10839   */\n      add\n        /* \"#utility.yul\":10813:10839   */\n      swap1\n      pop\n        /* \"#utility.yul\":10849:10920   */\n      tag_317\n        /* \"#utility.yul\":10917:10918   */\n      0x00\n        /* \"#utility.yul\":10906:10915   */\n      dup4\n        /* \"#utility.yul\":10902:10919   */\n      add\n        /* \"#utility.yul\":10893:10899   */\n      dup6\n        /* \"#utility.yul\":10849:10920   */\n      tag_170\n      jump\t// in\n    tag_317:\n        /* \"#utility.yul\":10930:11002   */\n      tag_318\n        /* \"#utility.yul\":10998:11000   */\n      0x20\n        /* \"#utility.yul\":10987:10996   */\n      dup4\n        /* \"#utility.yul\":10983:11001   */\n      add\n        /* \"#utility.yul\":10974:10980   */\n      dup5\n        /* \"#utility.yul\":10930:11002   */\n      tag_167\n      jump\t// in\n    tag_318:\n        /* \"#utility.yul\":10677:11009   */\n      swap4\n      swap3\n      pop\n      pop\n      pop\n      jump\t// out\n        /* \"#utility.yul\":11015:11131   */\n    tag_197:\n        /* \"#utility.yul\":11085:11106   */\n      tag_320\n        /* \"#utility.yul\":11100:11105   */\n      dup2\n        /* \"#utility.yul\":11085:11106   */\n      tag_183\n      jump\t// in\n    tag_320:\n        /* \"#utility.yul\":11078:11083   */\n      dup2\n        /* \"#utility.yul\":11075:11107   */\n      eq\n        /* \"#utility.yul\":11065:11125   */\n      tag_321\n      jumpi\n        /* \"#utility.yul\":11121:11122   */\n      0x00\n        /* \"#utility.yul\":11118:11119   */\n      0x00\n        /* \"#utility.yul\":11111:11123   */\n      revert\n        /* \"#utility.yul\":11065:11125   */\n    tag_321:\n        /* \"#utility.yul\":11015:11131   */\n      pop\n      jump\t// out\n        /* \"#utility.yul\":11137:11274   */\n    tag_198:\n        /* \"#utility.yul\":11191:11196   */\n      0x00\n        /* \"#utility.yul\":11222:11228   */\n      dup2\n        /* \"#utility.yul\":11216:11229   */\n      mload\n        /* \"#utility.yul\":11207:11229   */\n      swap1\n      pop\n        /* \"#utility.yul\":11238:11268   */\n      tag_323\n        /* \"#utility.yul\":11262:11267   */\n      dup2\n        /* \"#utility.yul\":11238:11268   */\n      tag_197\n      jump\t// in\n    tag_323:\n        /* \"#utility.yul\":11137:11274   */\n      swap3\n      swap2\n      pop\n      pop\n      jump\t// out\n        /* \"#utility.yul\":11280:11625   */\n    tag_122:\n        /* \"#utility.yul\":11347:11353   */\n      0x00\n        /* \"#utility.yul\":11396:11398   */\n      0x20\n        /* \"#utility.yul\":11384:11393   */\n      dup3\n        /* \"#utility.yul\":11375:11382   */\n      dup5\n        /* \"#utility.yul\":11371:11394   */\n      sub\n        /* \"#utility.yul\":11367:11399   */\n      slt\n        /* \"#utility.yul\":11364:11483   */\n      iszero\n      tag_325\n      jumpi\n        /* \"#utility.yul\":11402:11481   */\n      tag_326\n      tag_172\n      jump\t// in\n    tag_326:\n        /* \"#utility.yul\":11364:11483   */\n    tag_325:\n        /* \"#utility.yul\":11522:11523   */\n      0x00\n        /* \"#utility.yul\":11547:11608   */\n      tag_327\n        /* \"#utility.yul\":11600:11607   */\n      dup5\n        /* \"#utility.yul\":11591:11597   */\n      dup3\n        /* \"#utility.yul\":11580:11589   */\n      dup6\n        /* \"#utility.yul\":11576:11598   */\n      add\n        /* \"#utility.yul\":11547:11608   */\n      tag_198\n      jump\t// in\n    tag_327:\n        /* \"#utility.yul\":11537:11608   */\n      swap2\n      pop\n        /* \"#utility.yul\":11493:11618   */\n      pop\n        /* \"#utility.yul\":11280:11625   */\n      swap3\n      swap2\n      pop\n      pop\n      jump\t// out\n        /* \"#utility.yul\":11631:11796   */\n    tag_199:\n        /* \"#utility.yul\":11771:11788   */\n      0x5472616e73666572206661696c65640000000000000000000000000000000000\n        /* \"#utility.yul\":11767:11768   */\n      0x00\n        /* \"#utility.yul\":11759:11765   */\n      dup3\n        /* \"#utility.yul\":11755:11769   */\n      add\n        /* \"#utility.yul\":11748:11789   */\n      mstore\n        /* \"#utility.yul\":11631:11796   */\n      pop\n      jump\t// out\n        /* \"#utility.yul\":11802:12168   */\n    tag_200:\n        /* \"#utility.yul\":11944:11947   */\n      0x00\n        /* \"#utility.yul\":11965:12032   */\n      tag_330\n        /* \"#utility.yul\":12029:12031   */\n      0x0f\n        /* \"#utility.yul\":12024:12027   */\n      dup4\n        /* \"#utility.yul\":11965:12032   */\n      tag_185\n      jump\t// in\n    tag_330:\n        /* \"#utility.yul\":11958:12032   */\n      swap2\n      pop\n        /* \"#utility.yul\":12041:12134   */\n      tag_331\n        /* \"#utility.yul\":12130:12133   */\n      dup3\n        /* \"#utility.yul\":12041:12134   */\n      tag_199\n      jump\t// in\n    tag_331:\n        /* \"#utility.yul\":12159:12161   */\n      0x20\n        /* \"#utility.yul\":12154:12157   */\n      dup3\n        /* \"#utility.yul\":12150:12162   */\n      add\n        /* \"#utility.yul\":12143:12162   */\n      swap1\n      pop\n        /* \"#utility.yul\":11802:12168   */\n      swap2\n      swap1\n      pop\n      jump\t// out\n        /* \"#utility.yul\":12174:12593   */\n    tag_125:\n        /* \"#utility.yul\":12340:12344   */\n      0x00\n        /* \"#utility.yul\":12378:12380   */\n      0x20\n        /* \"#utility.yul\":12367:12376   */\n      dup3\n        /* \"#utility.yul\":12363:12381   */\n      add\n        /* \"#utility.yul\":12355:12381   */\n      swap1\n      pop\n        /* \"#utility.yul\":12427:12436   */\n      dup2\n        /* \"#utility.yul\":12421:12425   */\n      dup2\n        /* \"#utility.yul\":12417:12437   */\n      sub\n        /* \"#utility.yul\":12413:12414   */\n      0x00\n        /* \"#utility.yul\":12402:12411   */\n      dup4\n        /* \"#utility.yul\":12398:12415   */\n      add\n        /* \"#utility.yul\":12391:12438   */\n      mstore\n        /* \"#utility.yul\":12455:12586   */\n      tag_333\n        /* \"#utility.yul\":12581:12585   */\n      dup2\n        /* \"#utility.yul\":12455:12586   */\n      tag_200\n      jump\t// in\n    tag_333:\n        /* \"#utility.yul\":12447:12586   */\n      swap1\n      pop\n        /* \"#utility.yul\":12174:12593   */\n      swap2\n      swap1\n      pop\n      jump\t// out\n        /* \"#utility.yul\":12599:12770   */\n    tag_201:\n        /* \"#utility.yul\":12739:12762   */\n      0x416c72656164792061207374616b65686f6c6465720000000000000000000000\n        /* \"#utility.yul\":12735:12736   */\n      0x00\n        /* \"#utility.yul\":12727:12733   */\n      dup3\n        /* \"#utility.yul\":12723:12737   */\n      add\n        /* \"#utility.yul\":12716:12763   */\n      mstore\n        /* \"#utility.yul\":12599:12770   */\n      pop\n      jump\t// out\n        /* \"#utility.yul\":12776:13142   */\n    tag_202:\n        /* \"#utility.yul\":12918:12921   */\n      0x00\n        /* \"#utility.yul\":12939:13006   */\n      tag_336\n        /* \"#utility.yul\":13003:13005   */\n      0x15\n        /* \"#utility.yul\":12998:13001   */\n      dup4\n        /* \"#utility.yul\":12939:13006   */\n      tag_185\n      jump\t// in\n    tag_336:\n        /* \"#utility.yul\":12932:13006   */\n      swap2\n      pop\n        /* \"#utility.yul\":13015:13108   */\n      tag_337\n        /* \"#utility.yul\":13104:13107   */\n      dup3\n        /* \"#utility.yul\":13015:13108   */\n      tag_201\n      jump\t// in\n    tag_337:\n        /* \"#utility.yul\":13133:13135   */\n      0x20\n        /* \"#utility.yul\":13128:13131   */\n      dup3\n        /* \"#utility.yul\":13124:13136   */\n      add\n        /* \"#utility.yul\":13117:13136   */\n      swap1\n      pop\n        /* \"#utility.yul\":12776:13142   */\n      swap2\n      swap1\n      pop\n      jump\t// out\n        /* \"#utility.yul\":13148:13567   */\n    tag_132:\n        /* \"#utility.yul\":13314:13318   */\n      0x00\n        /* \"#utility.yul\":13352:13354   */\n      0x20\n        /* \"#utility.yul\":13341:13350   */\n      dup3\n        /* \"#utility.yul\":13337:13355   */\n      add\n        /* \"#utility.yul\":13329:13355   */\n      swap1\n      pop\n        /* \"#utility.yul\":13401:13410   */\n      dup2\n        /* \"#utility.yul\":13395:13399   */\n      dup2\n        /* \"#utility.yul\":13391:13411   */\n      sub\n        /* \"#utility.yul\":13387:13388   */\n      0x00\n        /* \"#utility.yul\":13376:13385   */\n      dup4\n        /* \"#utility.yul\":13372:13389   */\n      add\n        /* \"#utility.yul\":13365:13412   */\n      mstore\n        /* \"#utility.yul\":13429:13560   */\n      tag_339\n        /* \"#utility.yul\":13555:13559   */\n      dup2\n        /* \"#utility.yul\":13429:13560   */\n      tag_202\n      jump\t// in\n    tag_339:\n        /* \"#utility.yul\":13421:13560   */\n      swap1\n      pop\n        /* \"#utility.yul\":13148:13567   */\n      swap2\n      swap1\n      pop\n      jump\t// out\n        /* \"#utility.yul\":13573:13764   */\n    tag_134:\n        /* \"#utility.yul\":13613:13616   */\n      0x00\n        /* \"#utility.yul\":13632:13652   */\n      tag_341\n        /* \"#utility.yul\":13650:13651   */\n      dup3\n        /* \"#utility.yul\":13632:13652   */\n      tag_166\n      jump\t// in\n    tag_341:\n        /* \"#utility.yul\":13627:13652   */\n      swap2\n      pop\n        /* \"#utility.yul\":13666:13686   */\n      tag_342\n        /* \"#utility.yul\":13684:13685   */\n      dup4\n        /* \"#utility.yul\":13666:13686   */\n      tag_166\n      jump\t// in\n    tag_342:\n        /* \"#utility.yul\":13661:13686   */\n      swap3\n      pop\n        /* \"#utility.yul\":13709:13710   */\n      dup3\n        /* \"#utility.yul\":13706:13707   */\n      dup3\n        /* \"#utility.yul\":13702:13711   */\n      add\n        /* \"#utility.yul\":13695:13711   */\n      swap1\n      pop\n        /* \"#utility.yul\":13730:13733   */\n      dup1\n        /* \"#utility.yul\":13727:13728   */\n      dup3\n        /* \"#utility.yul\":13724:13734   */\n      gt\n        /* \"#utility.yul\":13721:13757   */\n      iszero\n      tag_343\n      jumpi\n        /* \"#utility.yul\":13737:13755   */\n      tag_344\n      tag_190\n      jump\t// in\n    tag_344:\n        /* \"#utility.yul\":13721:13757   */\n    tag_343:\n        /* \"#utility.yul\":13573:13764   */\n      swap3\n      swap2\n      pop\n      pop\n      jump\t// out\n        /* \"#utility.yul\":13770:13948   */\n    tag_203:\n        /* \"#utility.yul\":13910:13940   */\n      0x546f74616c2070657263656e7461676520657863656564732031303000000000\n        /* \"#utility.yul\":13906:13907   */\n      0x00\n        /* \"#utility.yul\":13898:13904   */\n      dup3\n        /* \"#utility.yul\":13894:13908   */\n      add\n        /* \"#utility.yul\":13887:13941   */\n      mstore\n        /* \"#utility.yul\":13770:13948   */\n      pop\n      jump\t// out\n        /* \"#utility.yul\":13954:14320   */\n    tag_204:\n        /* \"#utility.yul\":14096:14099   */\n      0x00\n        /* \"#utility.yul\":14117:14184   */\n      tag_347\n        /* \"#utility.yul\":14181:14183   */\n      0x1c\n        /* \"#utility.yul\":14176:14179   */\n      dup4\n        /* \"#utility.yul\":14117:14184   */\n      tag_185\n      jump\t// in\n    tag_347:\n        /* \"#utility.yul\":14110:14184   */\n      swap2\n      pop\n        /* \"#utility.yul\":14193:14286   */\n      tag_348\n        /* \"#utility.yul\":14282:14285   */\n      dup3\n        /* \"#utility.yul\":14193:14286   */\n      tag_203\n      jump\t// in\n    tag_348:\n        /* \"#utility.yul\":14311:14313   */\n      0x20\n        /* \"#utility.yul\":14306:14309   */\n      dup3\n        /* \"#utility.yul\":14302:14314   */\n      add\n        /* \"#utility.yul\":14295:14314   */\n      swap1\n      pop\n        /* \"#utility.yul\":13954:14320   */\n      swap2\n      swap1\n      pop\n      jump\t// out\n        /* \"#utility.yul\":14326:14745   */\n    tag_137:\n        /* \"#utility.yul\":14492:14496   */\n      0x00\n        /* \"#utility.yul\":14530:14532   */\n      0x20\n        /* \"#utility.yul\":14519:14528   */\n      dup3\n        /* \"#utility.yul\":14515:14533   */\n      add\n        /* \"#utility.yul\":14507:14533   */\n      swap1\n      pop\n        /* \"#utility.yul\":14579:14588   */\n      dup2\n        /* \"#utility.yul\":14573:14577   */\n      dup2\n        /* \"#utility.yul\":14569:14589   */\n      sub\n        /* \"#utility.yul\":14565:14566   */\n      0x00\n        /* \"#utility.yul\":14554:14563   */\n      dup4\n        /* \"#utility.yul\":14550:14567   */\n      add\n        /* \"#utility.yul\":14543:14590   */\n      mstore\n        /* \"#utility.yul\":14607:14738   */\n      tag_350\n        /* \"#utility.yul\":14733:14737   */\n      dup2\n        /* \"#utility.yul\":14607:14738   */\n      tag_204\n      jump\t// in\n    tag_350:\n        /* \"#utility.yul\":14599:14738   */\n      swap1\n      pop\n        /* \"#utility.yul\":14326:14745   */\n      swap2\n      swap1\n      pop\n      jump\t// out\n        /* \"#utility.yul\":14751:14917   */\n    tag_205:\n        /* \"#utility.yul\":14891:14909   */\n      0x416c726561647920617070726f76656400000000000000000000000000000000\n        /* \"#utility.yul\":14887:14888   */\n      0x00\n        /* \"#utility.yul\":14879:14885   */\n      dup3\n        /* \"#utility.yul\":14875:14889   */\n      add\n        /* \"#utility.yul\":14868:14910   */\n      mstore\n        /* \"#utility.yul\":14751:14917   */\n      pop\n      jump\t// out\n        /* \"#utility.yul\":14923:15289   */\n    tag_206:\n        /* \"#utility.yul\":15065:15068   */\n      0x00\n        /* \"#utility.yul\":15086:15153   */\n      tag_353\n        /* \"#utility.yul\":15150:15152   */\n      0x10\n        /* \"#utility.yul\":15145:15148   */\n      dup4\n        /* \"#utility.yul\":15086:15153   */\n      tag_185\n      jump\t// in\n    tag_353:\n        /* \"#utility.yul\":15079:15153   */\n      swap2\n      pop\n        /* \"#utility.yul\":15162:15255   */\n      tag_354\n        /* \"#utility.yul\":15251:15254   */\n      dup3\n        /* \"#utility.yul\":15162:15255   */\n      tag_205\n      jump\t// in\n    tag_354:\n        /* \"#utility.yul\":15280:15282   */\n      0x20\n        /* \"#utility.yul\":15275:15278   */\n      dup3\n        /* \"#utility.yul\":15271:15283   */\n      add\n        /* \"#utility.yul\":15264:15283   */\n      swap1\n      pop\n        /* \"#utility.yul\":14923:15289   */\n      swap2\n      swap1\n      pop\n      jump\t// out\n        /* \"#utility.yul\":15295:15714   */\n    tag_149:\n        /* \"#utility.yul\":15461:15465   */\n      0x00\n        /* \"#utility.yul\":15499:15501   */\n      0x20\n        /* \"#utility.yul\":15488:15497   */\n      dup3\n        /* \"#utility.yul\":15484:15502   */\n      add\n        /* \"#utility.yul\":15476:15502   */\n      swap1\n      pop\n        /* \"#utility.yul\":15548:15557   */\n      dup2\n        /* \"#utility.yul\":15542:15546   */\n      dup2\n        /* \"#utility.yul\":15538:15558   */\n      sub\n        /* \"#utility.yul\":15534:15535   */\n      0x00\n        /* \"#utility.yul\":15523:15532   */\n      dup4\n        /* \"#utility.yul\":15519:15536   */\n      add\n        /* \"#utility.yul\":15512:15559   */\n      mstore\n        /* \"#utility.yul\":15576:15707   */\n      tag_356\n        /* \"#utility.yul\":15702:15706   */\n      dup2\n        /* \"#utility.yul\":15576:15707   */\n      tag_206\n      jump\t// in\n    tag_356:\n        /* \"#utility.yul\":15568:15707   */\n      swap1\n      pop\n        /* \"#utility.yul\":15295:15714   */\n      swap2\n      swap1\n      pop\n      jump\t// out\n\n    auxdata: 0xa26469706673582212204c8a9f21d8a1b92e47c0b4742d3e45e1c757c671efae5b1ae003fcad7c831e9964736f6c634300081c0033\n}\n",
				"bytecode": {
					"linkReferences": {},
					"object": "608060405234801561000f575f5ffd5b506040516119b33803806119b383398181016040528101906100319190610218565b805f73ffffffffffffffffffffffffffffffffffffffff168173ffffffffffffffffffffffffffffffffffffffff16036100a2575f6040517f1e4fbdf70000000000000000000000000000000000000000000000000000000081526004016100999190610265565b60405180910390fd5b6100b1816100f960201b60201c565b508160015f6101000a81548173ffffffffffffffffffffffffffffffffffffffff021916908373ffffffffffffffffffffffffffffffffffffffff160217905550505061027e565b5f5f5f9054906101000a900473ffffffffffffffffffffffffffffffffffffffff169050815f5f6101000a81548173ffffffffffffffffffffffffffffffffffffffff021916908373ffffffffffffffffffffffffffffffffffffffff1602179055508173ffffffffffffffffffffffffffffffffffffffff168173ffffffffffffffffffffffffffffffffffffffff167f8be0079c531659141344cd1fd0a4f28419497f9722a3daafe3b4186f6b6457e060405160405180910390a35050565b5f5ffd5b5f73ffffffffffffffffffffffffffffffffffffffff82169050919050565b5f6101e7826101be565b9050919050565b6101f7816101dd565b8114610201575f5ffd5b50565b5f81519050610212816101ee565b92915050565b5f5f6040838503121561022e5761022d6101ba565b5b5f61023b85828601610204565b925050602061024c85828601610204565b9150509250929050565b61025f816101dd565b82525050565b5f6020820190506102785f830184610256565b92915050565b6117288061028b5f395ff3fe608060405234801561000f575f5ffd5b50600436106100e8575f3560e01c80639aec312e1161008a578063d44a0e6111610064578063d44a0e61146101ef578063e320f5761461020d578063ec611c291461023d578063f2fde38b14610247576100e8565b80639aec312e14610182578063aeee40fe1461019e578063c07cfca9146101bc576100e8565b80638b34c207116100c65780638b34c2071461011e5780638b7afe2e1461013c5780638da5cb5b1461015a5780639ab1b48414610178576100e8565b80630fdbd14c146100ec5780636884d0a6146100f6578063715018a614610114575b5f5ffd5b6100f4610263565b005b6100fe610456565b60405161010b9190610f47565b60405180910390f35b61011c61045c565b005b61012661046f565b6040516101339190610f47565b60405180910390f35b610144610475565b6040516101519190610f47565b60405180910390f35b610162610514565b60405161016f9190610f9f565b60405180910390f35b61018061053b565b005b61019c60048036038101906101979190611010565b610899565b005b6101a6610b18565b6040516101b391906110a9565b60405180910390f35b6101d660048036038101906101d191906110c2565b610b3d565b6040516101e69493929190611107565b60405180910390f35b6101f7610b8f565b6040516102049190610f47565b60405180910390f35b6102276004803603810190610222919061114a565b610b95565b6040516102349190610f9f565b60405180910390f35b610245610bd0565b005b610261600480360381019061025c91906110c2565b610d5c565b005b60025f3373ffffffffffffffffffffffffffffffffffffffff1673ffffffffffffffffffffffffffffffffffffffff1681526020019081526020015f206001015f9054906101000a900460ff166102ef576040517f08c379a00000000000000000000000000000000000000000000000000000000081526004016102e6906111cf565b60405180910390fd5b60025f3373ffffffffffffffffffffffffffffffffffffffff1673ffffffffffffffffffffffffffffffffffffffff1681526020019081526020015f2060010160029054906101000a900460ff161561037d576040517f08c379a000000000000000000000000000000000000000000000000000000000815260040161037490611237565b60405180910390fd5b600160025f3373ffffffffffffffffffffffffffffffffffffffff1673ffffffffffffffffffffffffffffffffffffffff1681526020019081526020015f2060010160026101000a81548160ff02191690831515021790555060065f8154809291906103e890611282565b919050555060026003805490506103ff91906112f6565b6006541115610454577fde03921ed85499a33a8a7c878de268d59d2b7839e9fbd415ff4ab0ff18483a6f60405160405180910390a161043c610514565b73ffffffffffffffffffffffffffffffffffffffff16ff5b565b60055481565b610464610de0565b61046d5f610e67565b565b60065481565b5f60015f9054906101000a900473ffffffffffffffffffffffffffffffffffffffff1673ffffffffffffffffffffffffffffffffffffffff166370a08231306040518263ffffffff1660e01b81526004016104d09190610f9f565b602060405180830381865afa1580156104eb573d5f5f3e3d5ffd5b505050506040513d601f19601f8201168201806040525081019061050f919061133a565b905090565b5f5f5f9054906101000a900473ffffffffffffffffffffffffffffffffffffffff16905090565b610543610de0565b6003805490506005541461058c576040517f08c379a0000000000000000000000000000000000000000000000000000000008152600401610583906113af565b60405180910390fd5b5f60015f9054906101000a900473ffffffffffffffffffffffffffffffffffffffff1673ffffffffffffffffffffffffffffffffffffffff166370a08231306040518263ffffffff1660e01b81526004016105e79190610f9f565b602060405180830381865afa158015610602573d5f5f3e3d5ffd5b505050506040513d601f19601f82011682018060405250810190610626919061133a565b90505f811161066a576040517f08c379a000000000000000000000000000000000000000000000000000000000815260040161066190611417565b60405180910390fd5b5f5f90505b600380549050811015610857575f6003828154811061069157610690611435565b5b905f5260205f20015f9054906101000a900473ffffffffffffffffffffffffffffffffffffffff1690505f606460025f8473ffffffffffffffffffffffffffffffffffffffff1673ffffffffffffffffffffffffffffffffffffffff1681526020019081526020015f205f0154856107099190611462565b61071391906112f6565b905060015f9054906101000a900473ffffffffffffffffffffffffffffffffffffffff1673ffffffffffffffffffffffffffffffffffffffff1663a9059cbb83836040518363ffffffff1660e01b81526004016107719291906114a3565b6020604051808303815f875af115801561078d573d5f5f3e3d5ffd5b505050506040513d601f19601f820116820180604052508101906107b191906114f4565b6107f0576040517f08c379a00000000000000000000000000000000000000000000000000000000081526004016107e790611569565b60405180910390fd5b5f60025f8473ffffffffffffffffffffffffffffffffffffffff1673ffffffffffffffffffffffffffffffffffffffff1681526020019081526020015f2060010160016101000a81548160ff0219169083151502179055505050808060010191505061066f565b505f6005819055507fe931a2ade2ca5ad4fb6fc001fa5a3d7f2d8c05b601e8322cba7e5f513512314d8160405161088e9190610f47565b60405180910390a150565b6108a1610de0565b60025f8373ffffffffffffffffffffffffffffffffffffffff1673ffffffffffffffffffffffffffffffffffffffff1681526020019081526020015f206001015f9054906101000a900460ff161561092e576040517f08c379a0000000000000000000000000000000000000000000000000000000008152600401610925906115d1565b60405180910390fd5b60648160045461093e91906115ef565b111561097f576040517f08c379a00000000000000000000000000000000000000000000000000000000081526004016109769061166c565b60405180910390fd5b60405180608001604052808281526020016001151581526020015f151581526020015f151581525060025f8473ffffffffffffffffffffffffffffffffffffffff1673ffffffffffffffffffffffffffffffffffffffff1681526020019081526020015f205f820151815f01556020820151816001015f6101000a81548160ff02191690831515021790555060408201518160010160016101000a81548160ff02191690831515021790555060608201518160010160026101000a81548160ff021916908315150217905550905050600382908060018154018082558091505060019003905f5260205f20015f9091909190916101000a81548173ffffffffffffffffffffffffffffffffffffffff021916908373ffffffffffffffffffffffffffffffffffffffff1602179055508060045f828254610abf91906115ef565b925050819055508173ffffffffffffffffffffffffffffffffffffffff167f120bfdd311a35c23d43060f2ed5044e464ade4940f2f49f164ab6e0b32eb833682604051610b0c9190610f47565b60405180910390a25050565b60015f9054906101000a900473ffffffffffffffffffffffffffffffffffffffff1681565b6002602052805f5260405f205f91509050805f015490806001015f9054906101000a900460ff16908060010160019054906101000a900460ff16908060010160029054906101000a900460ff16905084565b60045481565b60038181548110610ba4575f80fd5b905f5260205f20015f915054906101000a900473ffffffffffffffffffffffffffffffffffffffff1681565b60025f3373ffffffffffffffffffffffffffffffffffffffff1673ffffffffffffffffffffffffffffffffffffffff1681526020019081526020015f206001015f9054906101000a900460ff16610c5c576040517f08c379a0000000000000000000000000000000000000000000000000000000008152600401610c53906111cf565b60405180910390fd5b60025f3373ffffffffffffffffffffffffffffffffffffffff1673ffffffffffffffffffffffffffffffffffffffff1681526020019081526020015f2060010160019054906101000a900460ff1615610cea576040517f08c379a0000000000000000000000000000000000000000000000000000000008152600401610ce1906116d4565b60405180910390fd5b600160025f3373ffffffffffffffffffffffffffffffffffffffff1673ffffffffffffffffffffffffffffffffffffffff1681526020019081526020015f2060010160016101000a81548160ff02191690831515021790555060055f815480929190610d5590611282565b9190505550565b610d64610de0565b5f73ffffffffffffffffffffffffffffffffffffffff168173ffffffffffffffffffffffffffffffffffffffff1603610dd4575f6040517f1e4fbdf7000000000000000000000000000000000000000000000000000000008152600401610dcb9190610f9f565b60405180910390fd5b610ddd81610e67565b50565b610de8610f28565b73ffffffffffffffffffffffffffffffffffffffff16610e06610514565b73ffffffffffffffffffffffffffffffffffffffff1614610e6557610e29610f28565b6040517f118cdaa7000000000000000000000000000000000000000000000000000000008152600401610e5c9190610f9f565b60405180910390fd5b565b5f5f5f9054906101000a900473ffffffffffffffffffffffffffffffffffffffff169050815f5f6101000a81548173ffffffffffffffffffffffffffffffffffffffff021916908373ffffffffffffffffffffffffffffffffffffffff1602179055508173ffffffffffffffffffffffffffffffffffffffff168173ffffffffffffffffffffffffffffffffffffffff167f8be0079c531659141344cd1fd0a4f28419497f9722a3daafe3b4186f6b6457e060405160405180910390a35050565b5f33905090565b5f819050919050565b610f4181610f2f565b82525050565b5f602082019050610f5a5f830184610f38565b92915050565b5f73ffffffffffffffffffffffffffffffffffffffff82169050919050565b5f610f8982610f60565b9050919050565b610f9981610f7f565b82525050565b5f602082019050610fb25f830184610f90565b92915050565b5f5ffd5b610fc581610f7f565b8114610fcf575f5ffd5b50565b5f81359050610fe081610fbc565b92915050565b610fef81610f2f565b8114610ff9575f5ffd5b50565b5f8135905061100a81610fe6565b92915050565b5f5f6040838503121561102657611025610fb8565b5b5f61103385828601610fd2565b925050602061104485828601610ffc565b9150509250929050565b5f819050919050565b5f61107161106c61106784610f60565b61104e565b610f60565b9050919050565b5f61108282611057565b9050919050565b5f61109382611078565b9050919050565b6110a381611089565b82525050565b5f6020820190506110bc5f83018461109a565b92915050565b5f602082840312156110d7576110d6610fb8565b5b5f6110e484828501610fd2565b91505092915050565b5f8115159050919050565b611101816110ed565b82525050565b5f60808201905061111a5f830187610f38565b61112760208301866110f8565b61113460408301856110f8565b61114160608301846110f8565b95945050505050565b5f6020828403121561115f5761115e610fb8565b5b5f61116c84828501610ffc565b91505092915050565b5f82825260208201905092915050565b7f4e6f742061207374616b65686f6c6465720000000000000000000000000000005f82015250565b5f6111b9601183611175565b91506111c482611185565b602082019050919050565b5f6020820190508181035f8301526111e6816111ad565b9050919050565b7f416c726561647920766f746564000000000000000000000000000000000000005f82015250565b5f611221600d83611175565b915061122c826111ed565b602082019050919050565b5f6020820190508181035f83015261124e81611215565b9050919050565b7f4e487b71000000000000000000000000000000000000000000000000000000005f52601160045260245ffd5b5f61128c82610f2f565b91507fffffffffffffffffffffffffffffffffffffffffffffffffffffffffffffffff82036112be576112bd611255565b5b600182019050919050565b7f4e487b71000000000000000000000000000000000000000000000000000000005f52601260045260245ffd5b5f61130082610f2f565b915061130b83610f2f565b92508261131b5761131a6112c9565b5b828204905092915050565b5f8151905061133481610fe6565b92915050565b5f6020828403121561134f5761134e610fb8565b5b5f61135c84828501611326565b91505092915050565b7f416c6c207374616b65686f6c64657273206d75737420617070726f76650000005f82015250565b5f611399601d83611175565b91506113a482611365565b602082019050919050565b5f6020820190508181035f8301526113c68161138d565b9050919050565b7f4e6f20746f6b656e7320746f20646973747269627574650000000000000000005f82015250565b5f611401601783611175565b915061140c826113cd565b602082019050919050565b5f6020820190508181035f83015261142e816113f5565b9050919050565b7f4e487b71000000000000000000000000000000000000000000000000000000005f52603260045260245ffd5b5f61146c82610f2f565b915061147783610f2f565b925082820261148581610f2f565b9150828204841483151761149c5761149b611255565b5b5092915050565b5f6040820190506114b65f830185610f90565b6114c36020830184610f38565b9392505050565b6114d3816110ed565b81146114dd575f5ffd5b50565b5f815190506114ee816114ca565b92915050565b5f6020828403121561150957611508610fb8565b5b5f611516848285016114e0565b91505092915050565b7f5472616e73666572206661696c656400000000000000000000000000000000005f82015250565b5f611553600f83611175565b915061155e8261151f565b602082019050919050565b5f6020820190508181035f83015261158081611547565b9050919050565b7f416c72656164792061207374616b65686f6c64657200000000000000000000005f82015250565b5f6115bb601583611175565b91506115c682611587565b602082019050919050565b5f6020820190508181035f8301526115e8816115af565b9050919050565b5f6115f982610f2f565b915061160483610f2f565b925082820190508082111561161c5761161b611255565b5b92915050565b7f546f74616c2070657263656e74616765206578636565647320313030000000005f82015250565b5f611656601c83611175565b915061166182611622565b602082019050919050565b5f6020820190508181035f8301526116838161164a565b9050919050565b7f416c726561647920617070726f766564000000000000000000000000000000005f82015250565b5f6116be601083611175565b91506116c98261168a565b602082019050919050565b5f6020820190508181035f8301526116eb816116b2565b905091905056fea26469706673582212204c8a9f21d8a1b92e47c0b4742d3e45e1c757c671efae5b1ae003fcad7c831e9964736f6c634300081c0033",
					"opcodes": "PUSH1 0x80 PUSH1 0x40 MSTORE CALLVALUE DUP1 ISZERO PUSH2 0xF JUMPI PUSH0 PUSH0 REVERT JUMPDEST POP PUSH1 0x40 MLOAD PUSH2 0x19B3 CODESIZE SUB DUP1 PUSH2 0x19B3 DUP4 CODECOPY DUP2 DUP2 ADD PUSH1 0x40 MSTORE DUP2 ADD SWAP1 PUSH2 0x31 SWAP2 SWAP1 PUSH2 0x218 JUMP JUMPDEST DUP1 PUSH0 PUSH20 0xFFFFFFFFFFFFFFFFFFFFFFFFFFFFFFFFFFFFFFFF AND DUP2 PUSH20 0xFFFFFFFFFFFFFFFFFFFFFFFFFFFFFFFFFFFFFFFF AND SUB PUSH2 0xA2 JUMPI PUSH0 PUSH1 0x40 MLOAD PUSH32 0x1E4FBDF700000000000000000000000000000000000000000000000000000000 DUP2 MSTORE PUSH1 0x4 ADD PUSH2 0x99 SWAP2 SWAP1 PUSH2 0x265 JUMP JUMPDEST PUSH1 0x40 MLOAD DUP1 SWAP2 SUB SWAP1 REVERT JUMPDEST PUSH2 0xB1 DUP2 PUSH2 0xF9 PUSH1 0x20 SHL PUSH1 0x20 SHR JUMP JUMPDEST POP DUP2 PUSH1 0x1 PUSH0 PUSH2 0x100 EXP DUP2 SLOAD DUP2 PUSH20 0xFFFFFFFFFFFFFFFFFFFFFFFFFFFFFFFFFFFFFFFF MUL NOT AND SWAP1 DUP4 PUSH20 0xFFFFFFFFFFFFFFFFFFFFFFFFFFFFFFFFFFFFFFFF AND MUL OR SWAP1 SSTORE POP POP POP PUSH2 0x27E JUMP JUMPDEST PUSH0 PUSH0 PUSH0 SWAP1 SLOAD SWAP1 PUSH2 0x100 EXP SWAP1 DIV PUSH20 0xFFFFFFFFFFFFFFFFFFFFFFFFFFFFFFFFFFFFFFFF AND SWAP1 POP DUP2 PUSH0 PUSH0 PUSH2 0x100 EXP DUP2 SLOAD DUP2 PUSH20 0xFFFFFFFFFFFFFFFFFFFFFFFFFFFFFFFFFFFFFFFF MUL NOT AND SWAP1 DUP4 PUSH20 0xFFFFFFFFFFFFFFFFFFFFFFFFFFFFFFFFFFFFFFFF AND MUL OR SWAP1 SSTORE POP DUP2 PUSH20 0xFFFFFFFFFFFFFFFFFFFFFFFFFFFFFFFFFFFFFFFF AND DUP2 PUSH20 0xFFFFFFFFFFFFFFFFFFFFFFFFFFFFFFFFFFFFFFFF AND PUSH32 0x8BE0079C531659141344CD1FD0A4F28419497F9722A3DAAFE3B4186F6B6457E0 PUSH1 0x40 MLOAD PUSH1 0x40 MLOAD DUP1 SWAP2 SUB SWAP1 LOG3 POP POP JUMP JUMPDEST PUSH0 PUSH0 REVERT JUMPDEST PUSH0 PUSH20 0xFFFFFFFFFFFFFFFFFFFFFFFFFFFFFFFFFFFFFFFF DUP3 AND SWAP1 POP SWAP2 SWAP1 POP JUMP JUMPDEST PUSH0 PUSH2 0x1E7 DUP3 PUSH2 0x1BE JUMP JUMPDEST SWAP1 POP SWAP2 SWAP1 POP JUMP JUMPDEST PUSH2 0x1F7 DUP2 PUSH2 0x1DD JUMP JUMPDEST DUP2 EQ PUSH2 0x201 JUMPI PUSH0 PUSH0 REVERT JUMPDEST POP JUMP JUMPDEST PUSH0 DUP2 MLOAD SWAP1 POP PUSH2 0x212 DUP2 PUSH2 0x1EE JUMP JUMPDEST SWAP3 SWAP2 POP POP JUMP JUMPDEST PUSH0 PUSH0 PUSH1 0x40 DUP4 DUP6 SUB SLT ISZERO PUSH2 0x22E JUMPI PUSH2 0x22D PUSH2 0x1BA JUMP JUMPDEST JUMPDEST PUSH0 PUSH2 0x23B DUP6 DUP3 DUP7 ADD PUSH2 0x204 JUMP JUMPDEST SWAP3 POP POP PUSH1 0x20 PUSH2 0x24C DUP6 DUP3 DUP7 ADD PUSH2 0x204 JUMP JUMPDEST SWAP2 POP POP SWAP3 POP SWAP3 SWAP1 POP JUMP JUMPDEST PUSH2 0x25F DUP2 PUSH2 0x1DD JUMP JUMPDEST DUP3 MSTORE POP POP JUMP JUMPDEST PUSH0 PUSH1 0x20 DUP3 ADD SWAP1 POP PUSH2 0x278 PUSH0 DUP4 ADD DUP5 PUSH2 0x256 JUMP JUMPDEST SWAP3 SWAP2 POP POP JUMP JUMPDEST PUSH2 0x1728 DUP1 PUSH2 0x28B PUSH0 CODECOPY PUSH0 RETURN INVALID PUSH1 0x80 PUSH1 0x40 MSTORE CALLVALUE DUP1 ISZERO PUSH2 0xF JUMPI PUSH0 PUSH0 REVERT JUMPDEST POP PUSH1 0x4 CALLDATASIZE LT PUSH2 0xE8 JUMPI PUSH0 CALLDATALOAD PUSH1 0xE0 SHR DUP1 PUSH4 0x9AEC312E GT PUSH2 0x8A JUMPI DUP1 PUSH4 0xD44A0E61 GT PUSH2 0x64 JUMPI DUP1 PUSH4 0xD44A0E61 EQ PUSH2 0x1EF JUMPI DUP1 PUSH4 0xE320F576 EQ PUSH2 0x20D JUMPI DUP1 PUSH4 0xEC611C29 EQ PUSH2 0x23D JUMPI DUP1 PUSH4 0xF2FDE38B EQ PUSH2 0x247 JUMPI PUSH2 0xE8 JUMP JUMPDEST DUP1 PUSH4 0x9AEC312E EQ PUSH2 0x182 JUMPI DUP1 PUSH4 0xAEEE40FE EQ PUSH2 0x19E JUMPI DUP1 PUSH4 0xC07CFCA9 EQ PUSH2 0x1BC JUMPI PUSH2 0xE8 JUMP JUMPDEST DUP1 PUSH4 0x8B34C207 GT PUSH2 0xC6 JUMPI DUP1 PUSH4 0x8B34C207 EQ PUSH2 0x11E JUMPI DUP1 PUSH4 0x8B7AFE2E EQ PUSH2 0x13C JUMPI DUP1 PUSH4 0x8DA5CB5B EQ PUSH2 0x15A JUMPI DUP1 PUSH4 0x9AB1B484 EQ PUSH2 0x178 JUMPI PUSH2 0xE8 JUMP JUMPDEST DUP1 PUSH4 0xFDBD14C EQ PUSH2 0xEC JUMPI DUP1 PUSH4 0x6884D0A6 EQ PUSH2 0xF6 JUMPI DUP1 PUSH4 0x715018A6 EQ PUSH2 0x114 JUMPI JUMPDEST PUSH0 PUSH0 REVERT JUMPDEST PUSH2 0xF4 PUSH2 0x263 JUMP JUMPDEST STOP JUMPDEST PUSH2 0xFE PUSH2 0x456 JUMP JUMPDEST PUSH1 0x40 MLOAD PUSH2 0x10B SWAP2 SWAP1 PUSH2 0xF47 JUMP JUMPDEST PUSH1 0x40 MLOAD DUP1 SWAP2 SUB SWAP1 RETURN JUMPDEST PUSH2 0x11C PUSH2 0x45C JUMP JUMPDEST STOP JUMPDEST PUSH2 0x126 PUSH2 0x46F JUMP JUMPDEST PUSH1 0x40 MLOAD PUSH2 0x133 SWAP2 SWAP1 PUSH2 0xF47 JUMP JUMPDEST PUSH1 0x40 MLOAD DUP1 SWAP2 SUB SWAP1 RETURN JUMPDEST PUSH2 0x144 PUSH2 0x475 JUMP JUMPDEST PUSH1 0x40 MLOAD PUSH2 0x151 SWAP2 SWAP1 PUSH2 0xF47 JUMP JUMPDEST PUSH1 0x40 MLOAD DUP1 SWAP2 SUB SWAP1 RETURN JUMPDEST PUSH2 0x162 PUSH2 0x514 JUMP JUMPDEST PUSH1 0x40 MLOAD PUSH2 0x16F SWAP2 SWAP1 PUSH2 0xF9F JUMP JUMPDEST PUSH1 0x40 MLOAD DUP1 SWAP2 SUB SWAP1 RETURN JUMPDEST PUSH2 0x180 PUSH2 0x53B JUMP JUMPDEST STOP JUMPDEST PUSH2 0x19C PUSH1 0x4 DUP1 CALLDATASIZE SUB DUP2 ADD SWAP1 PUSH2 0x197 SWAP2 SWAP1 PUSH2 0x1010 JUMP JUMPDEST PUSH2 0x899 JUMP JUMPDEST STOP JUMPDEST PUSH2 0x1A6 PUSH2 0xB18 JUMP JUMPDEST PUSH1 0x40 MLOAD PUSH2 0x1B3 SWAP2 SWAP1 PUSH2 0x10A9 JUMP JUMPDEST PUSH1 0x40 MLOAD DUP1 SWAP2 SUB SWAP1 RETURN JUMPDEST PUSH2 0x1D6 PUSH1 0x4 DUP1 CALLDATASIZE SUB DUP2 ADD SWAP1 PUSH2 0x1D1 SWAP2 SWAP1 PUSH2 0x10C2 JUMP JUMPDEST PUSH2 0xB3D JUMP JUMPDEST PUSH1 0x40 MLOAD PUSH2 0x1E6 SWAP5 SWAP4 SWAP3 SWAP2 SWAP1 PUSH2 0x1107 JUMP JUMPDEST PUSH1 0x40 MLOAD DUP1 SWAP2 SUB SWAP1 RETURN JUMPDEST PUSH2 0x1F7 PUSH2 0xB8F JUMP JUMPDEST PUSH1 0x40 MLOAD PUSH2 0x204 SWAP2 SWAP1 PUSH2 0xF47 JUMP JUMPDEST PUSH1 0x40 MLOAD DUP1 SWAP2 SUB SWAP1 RETURN JUMPDEST PUSH2 0x227 PUSH1 0x4 DUP1 CALLDATASIZE SUB DUP2 ADD SWAP1 PUSH2 0x222 SWAP2 SWAP1 PUSH2 0x114A JUMP JUMPDEST PUSH2 0xB95 JUMP JUMPDEST PUSH1 0x40 MLOAD PUSH2 0x234 SWAP2 SWAP1 PUSH2 0xF9F JUMP JUMPDEST PUSH1 0x40 MLOAD DUP1 SWAP2 SUB SWAP1 RETURN JUMPDEST PUSH2 0x245 PUSH2 0xBD0 JUMP JUMPDEST STOP JUMPDEST PUSH2 0x261 PUSH1 0x4 DUP1 CALLDATASIZE SUB DUP2 ADD SWAP1 PUSH2 0x25C SWAP2 SWAP1 PUSH2 0x10C2 JUMP JUMPDEST PUSH2 0xD5C JUMP JUMPDEST STOP JUMPDEST PUSH1 0x2 PUSH0 CALLER PUSH20 0xFFFFFFFFFFFFFFFFFFFFFFFFFFFFFFFFFFFFFFFF AND PUSH20 0xFFFFFFFFFFFFFFFFFFFFFFFFFFFFFFFFFFFFFFFF AND DUP2 MSTORE PUSH1 0x20 ADD SWAP1 DUP2 MSTORE PUSH1 0x20 ADD PUSH0 KECCAK256 PUSH1 0x1 ADD PUSH0 SWAP1 SLOAD SWAP1 PUSH2 0x100 EXP SWAP1 DIV PUSH1 0xFF AND PUSH2 0x2EF JUMPI PUSH1 0x40 MLOAD PUSH32 0x8C379A000000000000000000000000000000000000000000000000000000000 DUP2 MSTORE PUSH1 0x4 ADD PUSH2 0x2E6 SWAP1 PUSH2 0x11CF JUMP JUMPDEST PUSH1 0x40 MLOAD DUP1 SWAP2 SUB SWAP1 REVERT JUMPDEST PUSH1 0x2 PUSH0 CALLER PUSH20 0xFFFFFFFFFFFFFFFFFFFFFFFFFFFFFFFFFFFFFFFF AND PUSH20 0xFFFFFFFFFFFFFFFFFFFFFFFFFFFFFFFFFFFFFFFF AND DUP2 MSTORE PUSH1 0x20 ADD SWAP1 DUP2 MSTORE PUSH1 0x20 ADD PUSH0 KECCAK256 PUSH1 0x1 ADD PUSH1 0x2 SWAP1 SLOAD SWAP1 PUSH2 0x100 EXP SWAP1 DIV PUSH1 0xFF AND ISZERO PUSH2 0x37D JUMPI PUSH1 0x40 MLOAD PUSH32 0x8C379A000000000000000000000000000000000000000000000000000000000 DUP2 MSTORE PUSH1 0x4 ADD PUSH2 0x374 SWAP1 PUSH2 0x1237 JUMP JUMPDEST PUSH1 0x40 MLOAD DUP1 SWAP2 SUB SWAP1 REVERT JUMPDEST PUSH1 0x1 PUSH1 0x2 PUSH0 CALLER PUSH20 0xFFFFFFFFFFFFFFFFFFFFFFFFFFFFFFFFFFFFFFFF AND PUSH20 0xFFFFFFFFFFFFFFFFFFFFFFFFFFFFFFFFFFFFFFFF AND DUP2 MSTORE PUSH1 0x20 ADD SWAP1 DUP2 MSTORE PUSH1 0x20 ADD PUSH0 KECCAK256 PUSH1 0x1 ADD PUSH1 0x2 PUSH2 0x100 EXP DUP2 SLOAD DUP2 PUSH1 0xFF MUL NOT AND SWAP1 DUP4 ISZERO ISZERO MUL OR SWAP1 SSTORE POP PUSH1 0x6 PUSH0 DUP2 SLOAD DUP1 SWAP3 SWAP2 SWAP1 PUSH2 0x3E8 SWAP1 PUSH2 0x1282 JUMP JUMPDEST SWAP2 SWAP1 POP SSTORE POP PUSH1 0x2 PUSH1 0x3 DUP1 SLOAD SWAP1 POP PUSH2 0x3FF SWAP2 SWAP1 PUSH2 0x12F6 JUMP JUMPDEST PUSH1 0x6 SLOAD GT ISZERO PUSH2 0x454 JUMPI PUSH32 0xDE03921ED85499A33A8A7C878DE268D59D2B7839E9FBD415FF4AB0FF18483A6F PUSH1 0x40 MLOAD PUSH1 0x40 MLOAD DUP1 SWAP2 SUB SWAP1 LOG1 PUSH2 0x43C PUSH2 0x514 JUMP JUMPDEST PUSH20 0xFFFFFFFFFFFFFFFFFFFFFFFFFFFFFFFFFFFFFFFF AND SELFDESTRUCT JUMPDEST JUMP JUMPDEST PUSH1 0x5 SLOAD DUP2 JUMP JUMPDEST PUSH2 0x464 PUSH2 0xDE0 JUMP JUMPDEST PUSH2 0x46D PUSH0 PUSH2 0xE67 JUMP JUMPDEST JUMP JUMPDEST PUSH1 0x6 SLOAD DUP2 JUMP JUMPDEST PUSH0 PUSH1 0x1 PUSH0 SWAP1 SLOAD SWAP1 PUSH2 0x100 EXP SWAP1 DIV PUSH20 0xFFFFFFFFFFFFFFFFFFFFFFFFFFFFFFFFFFFFFFFF AND PUSH20 0xFFFFFFFFFFFFFFFFFFFFFFFFFFFFFFFFFFFFFFFF AND PUSH4 0x70A08231 ADDRESS PUSH1 0x40 MLOAD DUP3 PUSH4 0xFFFFFFFF AND PUSH1 0xE0 SHL DUP2 MSTORE PUSH1 0x4 ADD PUSH2 0x4D0 SWAP2 SWAP1 PUSH2 0xF9F JUMP JUMPDEST PUSH1 0x20 PUSH1 0x40 MLOAD DUP1 DUP4 SUB DUP2 DUP7 GAS STATICCALL ISZERO DUP1 ISZERO PUSH2 0x4EB JUMPI RETURNDATASIZE PUSH0 PUSH0 RETURNDATACOPY RETURNDATASIZE PUSH0 REVERT JUMPDEST POP POP POP POP PUSH1 0x40 MLOAD RETURNDATASIZE PUSH1 0x1F NOT PUSH1 0x1F DUP3 ADD AND DUP3 ADD DUP1 PUSH1 0x40 MSTORE POP DUP2 ADD SWAP1 PUSH2 0x50F SWAP2 SWAP1 PUSH2 0x133A JUMP JUMPDEST SWAP1 POP SWAP1 JUMP JUMPDEST PUSH0 PUSH0 PUSH0 SWAP1 SLOAD SWAP1 PUSH2 0x100 EXP SWAP1 DIV PUSH20 0xFFFFFFFFFFFFFFFFFFFFFFFFFFFFFFFFFFFFFFFF AND SWAP1 POP SWAP1 JUMP JUMPDEST PUSH2 0x543 PUSH2 0xDE0 JUMP JUMPDEST PUSH1 0x3 DUP1 SLOAD SWAP1 POP PUSH1 0x5 SLOAD EQ PUSH2 0x58C JUMPI PUSH1 0x40 MLOAD PUSH32 0x8C379A000000000000000000000000000000000000000000000000000000000 DUP2 MSTORE PUSH1 0x4 ADD PUSH2 0x583 SWAP1 PUSH2 0x13AF JUMP JUMPDEST PUSH1 0x40 MLOAD DUP1 SWAP2 SUB SWAP1 REVERT JUMPDEST PUSH0 PUSH1 0x1 PUSH0 SWAP1 SLOAD SWAP1 PUSH2 0x100 EXP SWAP1 DIV PUSH20 0xFFFFFFFFFFFFFFFFFFFFFFFFFFFFFFFFFFFFFFFF AND PUSH20 0xFFFFFFFFFFFFFFFFFFFFFFFFFFFFFFFFFFFFFFFF AND PUSH4 0x70A08231 ADDRESS PUSH1 0x40 MLOAD DUP3 PUSH4 0xFFFFFFFF AND PUSH1 0xE0 SHL DUP2 MSTORE PUSH1 0x4 ADD PUSH2 0x5E7 SWAP2 SWAP1 PUSH2 0xF9F JUMP JUMPDEST PUSH1 0x20 PUSH1 0x40 MLOAD DUP1 DUP4 SUB DUP2 DUP7 GAS STATICCALL ISZERO DUP1 ISZERO PUSH2 0x602 JUMPI RETURNDATASIZE PUSH0 PUSH0 RETURNDATACOPY RETURNDATASIZE PUSH0 REVERT JUMPDEST POP POP POP POP PUSH1 0x40 MLOAD RETURNDATASIZE PUSH1 0x1F NOT PUSH1 0x1F DUP3 ADD AND DUP3 ADD DUP1 PUSH1 0x40 MSTORE POP DUP2 ADD SWAP1 PUSH2 0x626 SWAP2 SWAP1 PUSH2 0x133A JUMP JUMPDEST SWAP1 POP PUSH0 DUP2 GT PUSH2 0x66A JUMPI PUSH1 0x40 MLOAD PUSH32 0x8C379A000000000000000000000000000000000000000000000000000000000 DUP2 MSTORE PUSH1 0x4 ADD PUSH2 0x661 SWAP1 PUSH2 0x1417 JUMP JUMPDEST PUSH1 0x40 MLOAD DUP1 SWAP2 SUB SWAP1 REVERT JUMPDEST PUSH0 PUSH0 SWAP1 POP JUMPDEST PUSH1 0x3 DUP1 SLOAD SWAP1 POP DUP2 LT ISZERO PUSH2 0x857 JUMPI PUSH0 PUSH1 0x3 DUP3 DUP2 SLOAD DUP2 LT PUSH2 0x691 JUMPI PUSH2 0x690 PUSH2 0x1435 JUMP JUMPDEST JUMPDEST SWAP1 PUSH0 MSTORE PUSH1 0x20 PUSH0 KECCAK256 ADD PUSH0 SWAP1 SLOAD SWAP1 PUSH2 0x100 EXP SWAP1 DIV PUSH20 0xFFFFFFFFFFFFFFFFFFFFFFFFFFFFFFFFFFFFFFFF AND SWAP1 POP PUSH0 PUSH1 0x64 PUSH1 0x2 PUSH0 DUP5 PUSH20 0xFFFFFFFFFFFFFFFFFFFFFFFFFFFFFFFFFFFFFFFF AND PUSH20 0xFFFFFFFFFFFFFFFFFFFFFFFFFFFFFFFFFFFFFFFF AND DUP2 MSTORE PUSH1 0x20 ADD SWAP1 DUP2 MSTORE PUSH1 0x20 ADD PUSH0 KECCAK256 PUSH0 ADD SLOAD DUP6 PUSH2 0x709 SWAP2 SWAP1 PUSH2 0x1462 JUMP JUMPDEST PUSH2 0x713 SWAP2 SWAP1 PUSH2 0x12F6 JUMP JUMPDEST SWAP1 POP PUSH1 0x1 PUSH0 SWAP1 SLOAD SWAP1 PUSH2 0x100 EXP SWAP1 DIV PUSH20 0xFFFFFFFFFFFFFFFFFFFFFFFFFFFFFFFFFFFFFFFF AND PUSH20 0xFFFFFFFFFFFFFFFFFFFFFFFFFFFFFFFFFFFFFFFF AND PUSH4 0xA9059CBB DUP4 DUP4 PUSH1 0x40 MLOAD DUP4 PUSH4 0xFFFFFFFF AND PUSH1 0xE0 SHL DUP2 MSTORE PUSH1 0x4 ADD PUSH2 0x771 SWAP3 SWAP2 SWAP1 PUSH2 0x14A3 JUMP JUMPDEST PUSH1 0x20 PUSH1 0x40 MLOAD DUP1 DUP4 SUB DUP2 PUSH0 DUP8 GAS CALL ISZERO DUP1 ISZERO PUSH2 0x78D JUMPI RETURNDATASIZE PUSH0 PUSH0 RETURNDATACOPY RETURNDATASIZE PUSH0 REVERT JUMPDEST POP POP POP POP PUSH1 0x40 MLOAD RETURNDATASIZE PUSH1 0x1F NOT PUSH1 0x1F DUP3 ADD AND DUP3 ADD DUP1 PUSH1 0x40 MSTORE POP DUP2 ADD SWAP1 PUSH2 0x7B1 SWAP2 SWAP1 PUSH2 0x14F4 JUMP JUMPDEST PUSH2 0x7F0 JUMPI PUSH1 0x40 MLOAD PUSH32 0x8C379A000000000000000000000000000000000000000000000000000000000 DUP2 MSTORE PUSH1 0x4 ADD PUSH2 0x7E7 SWAP1 PUSH2 0x1569 JUMP JUMPDEST PUSH1 0x40 MLOAD DUP1 SWAP2 SUB SWAP1 REVERT JUMPDEST PUSH0 PUSH1 0x2 PUSH0 DUP5 PUSH20 0xFFFFFFFFFFFFFFFFFFFFFFFFFFFFFFFFFFFFFFFF AND PUSH20 0xFFFFFFFFFFFFFFFFFFFFFFFFFFFFFFFFFFFFFFFF AND DUP2 MSTORE PUSH1 0x20 ADD SWAP1 DUP2 MSTORE PUSH1 0x20 ADD PUSH0 KECCAK256 PUSH1 0x1 ADD PUSH1 0x1 PUSH2 0x100 EXP DUP2 SLOAD DUP2 PUSH1 0xFF MUL NOT AND SWAP1 DUP4 ISZERO ISZERO MUL OR SWAP1 SSTORE POP POP POP DUP1 DUP1 PUSH1 0x1 ADD SWAP2 POP POP PUSH2 0x66F JUMP JUMPDEST POP PUSH0 PUSH1 0x5 DUP2 SWAP1 SSTORE POP PUSH32 0xE931A2ADE2CA5AD4FB6FC001FA5A3D7F2D8C05B601E8322CBA7E5F513512314D DUP2 PUSH1 0x40 MLOAD PUSH2 0x88E SWAP2 SWAP1 PUSH2 0xF47 JUMP JUMPDEST PUSH1 0x40 MLOAD DUP1 SWAP2 SUB SWAP1 LOG1 POP JUMP JUMPDEST PUSH2 0x8A1 PUSH2 0xDE0 JUMP JUMPDEST PUSH1 0x2 PUSH0 DUP4 PUSH20 0xFFFFFFFFFFFFFFFFFFFFFFFFFFFFFFFFFFFFFFFF AND PUSH20 0xFFFFFFFFFFFFFFFFFFFFFFFFFFFFFFFFFFFFFFFF AND DUP2 MSTORE PUSH1 0x20 ADD SWAP1 DUP2 MSTORE PUSH1 0x20 ADD PUSH0 KECCAK256 PUSH1 0x1 ADD PUSH0 SWAP1 SLOAD SWAP1 PUSH2 0x100 EXP SWAP1 DIV PUSH1 0xFF AND ISZERO PUSH2 0x92E JUMPI PUSH1 0x40 MLOAD PUSH32 0x8C379A000000000000000000000000000000000000000000000000000000000 DUP2 MSTORE PUSH1 0x4 ADD PUSH2 0x925 SWAP1 PUSH2 0x15D1 JUMP JUMPDEST PUSH1 0x40 MLOAD DUP1 SWAP2 SUB SWAP1 REVERT JUMPDEST PUSH1 0x64 DUP2 PUSH1 0x4 SLOAD PUSH2 0x93E SWAP2 SWAP1 PUSH2 0x15EF JUMP JUMPDEST GT ISZERO PUSH2 0x97F JUMPI PUSH1 0x40 MLOAD PUSH32 0x8C379A000000000000000000000000000000000000000000000000000000000 DUP2 MSTORE PUSH1 0x4 ADD PUSH2 0x976 SWAP1 PUSH2 0x166C JUMP JUMPDEST PUSH1 0x40 MLOAD DUP1 SWAP2 SUB SWAP1 REVERT JUMPDEST PUSH1 0x40 MLOAD DUP1 PUSH1 0x80 ADD PUSH1 0x40 MSTORE DUP1 DUP3 DUP2 MSTORE PUSH1 0x20 ADD PUSH1 0x1 ISZERO ISZERO DUP2 MSTORE PUSH1 0x20 ADD PUSH0 ISZERO ISZERO DUP2 MSTORE PUSH1 0x20 ADD PUSH0 ISZERO ISZERO DUP2 MSTORE POP PUSH1 0x2 PUSH0 DUP5 PUSH20 0xFFFFFFFFFFFFFFFFFFFFFFFFFFFFFFFFFFFFFFFF AND PUSH20 0xFFFFFFFFFFFFFFFFFFFFFFFFFFFFFFFFFFFFFFFF AND DUP2 MSTORE PUSH1 0x20 ADD SWAP1 DUP2 MSTORE PUSH1 0x20 ADD PUSH0 KECCAK256 PUSH0 DUP3 ADD MLOAD DUP2 PUSH0 ADD SSTORE PUSH1 0x20 DUP3 ADD MLOAD DUP2 PUSH1 0x1 ADD PUSH0 PUSH2 0x100 EXP DUP2 SLOAD DUP2 PUSH1 0xFF MUL NOT AND SWAP1 DUP4 ISZERO ISZERO MUL OR SWAP1 SSTORE POP PUSH1 0x40 DUP3 ADD MLOAD DUP2 PUSH1 0x1 ADD PUSH1 0x1 PUSH2 0x100 EXP DUP2 SLOAD DUP2 PUSH1 0xFF MUL NOT AND SWAP1 DUP4 ISZERO ISZERO MUL OR SWAP1 SSTORE POP PUSH1 0x60 DUP3 ADD MLOAD DUP2 PUSH1 0x1 ADD PUSH1 0x2 PUSH2 0x100 EXP DUP2 SLOAD DUP2 PUSH1 0xFF MUL NOT AND SWAP1 DUP4 ISZERO ISZERO MUL OR SWAP1 SSTORE POP SWAP1 POP POP PUSH1 0x3 DUP3 SWAP1 DUP1 PUSH1 0x1 DUP2 SLOAD ADD DUP1 DUP3 SSTORE DUP1 SWAP2 POP POP PUSH1 0x1 SWAP1 SUB SWAP1 PUSH0 MSTORE PUSH1 0x20 PUSH0 KECCAK256 ADD PUSH0 SWAP1 SWAP2 SWAP1 SWAP2 SWAP1 SWAP2 PUSH2 0x100 EXP DUP2 SLOAD DUP2 PUSH20 0xFFFFFFFFFFFFFFFFFFFFFFFFFFFFFFFFFFFFFFFF MUL NOT AND SWAP1 DUP4 PUSH20 0xFFFFFFFFFFFFFFFFFFFFFFFFFFFFFFFFFFFFFFFF AND MUL OR SWAP1 SSTORE POP DUP1 PUSH1 0x4 PUSH0 DUP3 DUP3 SLOAD PUSH2 0xABF SWAP2 SWAP1 PUSH2 0x15EF JUMP JUMPDEST SWAP3 POP POP DUP2 SWAP1 SSTORE POP DUP2 PUSH20 0xFFFFFFFFFFFFFFFFFFFFFFFFFFFFFFFFFFFFFFFF AND PUSH32 0x120BFDD311A35C23D43060F2ED5044E464ADE4940F2F49F164AB6E0B32EB8336 DUP3 PUSH1 0x40 MLOAD PUSH2 0xB0C SWAP2 SWAP1 PUSH2 0xF47 JUMP JUMPDEST PUSH1 0x40 MLOAD DUP1 SWAP2 SUB SWAP1 LOG2 POP POP JUMP JUMPDEST PUSH1 0x1 PUSH0 SWAP1 SLOAD SWAP1 PUSH2 0x100 EXP SWAP1 DIV PUSH20 0xFFFFFFFFFFFFFFFFFFFFFFFFFFFFFFFFFFFFFFFF AND DUP2 JUMP JUMPDEST PUSH1 0x2 PUSH1 0x20 MSTORE DUP1 PUSH0 MSTORE PUSH1 0x40 PUSH0 KECCAK256 PUSH0 SWAP2 POP SWAP1 POP DUP1 PUSH0 ADD SLOAD SWAP1 DUP1 PUSH1 0x1 ADD PUSH0 SWAP1 SLOAD SWAP1 PUSH2 0x100 EXP SWAP1 DIV PUSH1 0xFF AND SWAP1 DUP1 PUSH1 0x1 ADD PUSH1 0x1 SWAP1 SLOAD SWAP1 PUSH2 0x100 EXP SWAP1 DIV PUSH1 0xFF AND SWAP1 DUP1 PUSH1 0x1 ADD PUSH1 0x2 SWAP1 SLOAD SWAP1 PUSH2 0x100 EXP SWAP1 DIV PUSH1 0xFF AND SWAP1 POP DUP5 JUMP JUMPDEST PUSH1 0x4 SLOAD DUP2 JUMP JUMPDEST PUSH1 0x3 DUP2 DUP2 SLOAD DUP2 LT PUSH2 0xBA4 JUMPI PUSH0 DUP1 REVERT JUMPDEST SWAP1 PUSH0 MSTORE PUSH1 0x20 PUSH0 KECCAK256 ADD PUSH0 SWAP2 POP SLOAD SWAP1 PUSH2 0x100 EXP SWAP1 DIV PUSH20 0xFFFFFFFFFFFFFFFFFFFFFFFFFFFFFFFFFFFFFFFF AND DUP2 JUMP JUMPDEST PUSH1 0x2 PUSH0 CALLER PUSH20 0xFFFFFFFFFFFFFFFFFFFFFFFFFFFFFFFFFFFFFFFF AND PUSH20 0xFFFFFFFFFFFFFFFFFFFFFFFFFFFFFFFFFFFFFFFF AND DUP2 MSTORE PUSH1 0x20 ADD SWAP1 DUP2 MSTORE PUSH1 0x20 ADD PUSH0 KECCAK256 PUSH1 0x1 ADD PUSH0 SWAP1 SLOAD SWAP1 PUSH2 0x100 EXP SWAP1 DIV PUSH1 0xFF AND PUSH2 0xC5C JUMPI PUSH1 0x40 MLOAD PUSH32 0x8C379A000000000000000000000000000000000000000000000000000000000 DUP2 MSTORE PUSH1 0x4 ADD PUSH2 0xC53 SWAP1 PUSH2 0x11CF JUMP JUMPDEST PUSH1 0x40 MLOAD DUP1 SWAP2 SUB SWAP1 REVERT JUMPDEST PUSH1 0x2 PUSH0 CALLER PUSH20 0xFFFFFFFFFFFFFFFFFFFFFFFFFFFFFFFFFFFFFFFF AND PUSH20 0xFFFFFFFFFFFFFFFFFFFFFFFFFFFFFFFFFFFFFFFF AND DUP2 MSTORE PUSH1 0x20 ADD SWAP1 DUP2 MSTORE PUSH1 0x20 ADD PUSH0 KECCAK256 PUSH1 0x1 ADD PUSH1 0x1 SWAP1 SLOAD SWAP1 PUSH2 0x100 EXP SWAP1 DIV PUSH1 0xFF AND ISZERO PUSH2 0xCEA JUMPI PUSH1 0x40 MLOAD PUSH32 0x8C379A000000000000000000000000000000000000000000000000000000000 DUP2 MSTORE PUSH1 0x4 ADD PUSH2 0xCE1 SWAP1 PUSH2 0x16D4 JUMP JUMPDEST PUSH1 0x40 MLOAD DUP1 SWAP2 SUB SWAP1 REVERT JUMPDEST PUSH1 0x1 PUSH1 0x2 PUSH0 CALLER PUSH20 0xFFFFFFFFFFFFFFFFFFFFFFFFFFFFFFFFFFFFFFFF AND PUSH20 0xFFFFFFFFFFFFFFFFFFFFFFFFFFFFFFFFFFFFFFFF AND DUP2 MSTORE PUSH1 0x20 ADD SWAP1 DUP2 MSTORE PUSH1 0x20 ADD PUSH0 KECCAK256 PUSH1 0x1 ADD PUSH1 0x1 PUSH2 0x100 EXP DUP2 SLOAD DUP2 PUSH1 0xFF MUL NOT AND SWAP1 DUP4 ISZERO ISZERO MUL OR SWAP1 SSTORE POP PUSH1 0x5 PUSH0 DUP2 SLOAD DUP1 SWAP3 SWAP2 SWAP1 PUSH2 0xD55 SWAP1 PUSH2 0x1282 JUMP JUMPDEST SWAP2 SWAP1 POP SSTORE POP JUMP JUMPDEST PUSH2 0xD64 PUSH2 0xDE0 JUMP JUMPDEST PUSH0 PUSH20 0xFFFFFFFFFFFFFFFFFFFFFFFFFFFFFFFFFFFFFFFF AND DUP2 PUSH20 0xFFFFFFFFFFFFFFFFFFFFFFFFFFFFFFFFFFFFFFFF AND SUB PUSH2 0xDD4 JUMPI PUSH0 PUSH1 0x40 MLOAD PUSH32 0x1E4FBDF700000000000000000000000000000000000000000000000000000000 DUP2 MSTORE PUSH1 0x4 ADD PUSH2 0xDCB SWAP2 SWAP1 PUSH2 0xF9F JUMP JUMPDEST PUSH1 0x40 MLOAD DUP1 SWAP2 SUB SWAP1 REVERT JUMPDEST PUSH2 0xDDD DUP2 PUSH2 0xE67 JUMP JUMPDEST POP JUMP JUMPDEST PUSH2 0xDE8 PUSH2 0xF28 JUMP JUMPDEST PUSH20 0xFFFFFFFFFFFFFFFFFFFFFFFFFFFFFFFFFFFFFFFF AND PUSH2 0xE06 PUSH2 0x514 JUMP JUMPDEST PUSH20 0xFFFFFFFFFFFFFFFFFFFFFFFFFFFFFFFFFFFFFFFF AND EQ PUSH2 0xE65 JUMPI PUSH2 0xE29 PUSH2 0xF28 JUMP JUMPDEST PUSH1 0x40 MLOAD PUSH32 0x118CDAA700000000000000000000000000000000000000000000000000000000 DUP2 MSTORE PUSH1 0x4 ADD PUSH2 0xE5C SWAP2 SWAP1 PUSH2 0xF9F JUMP JUMPDEST PUSH1 0x40 MLOAD DUP1 SWAP2 SUB SWAP1 REVERT JUMPDEST JUMP JUMPDEST PUSH0 PUSH0 PUSH0 SWAP1 SLOAD SWAP1 PUSH2 0x100 EXP SWAP1 DIV PUSH20 0xFFFFFFFFFFFFFFFFFFFFFFFFFFFFFFFFFFFFFFFF AND SWAP1 POP DUP2 PUSH0 PUSH0 PUSH2 0x100 EXP DUP2 SLOAD DUP2 PUSH20 0xFFFFFFFFFFFFFFFFFFFFFFFFFFFFFFFFFFFFFFFF MUL NOT AND SWAP1 DUP4 PUSH20 0xFFFFFFFFFFFFFFFFFFFFFFFFFFFFFFFFFFFFFFFF AND MUL OR SWAP1 SSTORE POP DUP2 PUSH20 0xFFFFFFFFFFFFFFFFFFFFFFFFFFFFFFFFFFFFFFFF AND DUP2 PUSH20 0xFFFFFFFFFFFFFFFFFFFFFFFFFFFFFFFFFFFFFFFF AND PUSH32 0x8BE0079C531659141344CD1FD0A4F28419497F9722A3DAAFE3B4186F6B6457E0 PUSH1 0x40 MLOAD PUSH1 0x40 MLOAD DUP1 SWAP2 SUB SWAP1 LOG3 POP POP JUMP JUMPDEST PUSH0 CALLER SWAP1 POP SWAP1 JUMP JUMPDEST PUSH0 DUP2 SWAP1 POP SWAP2 SWAP1 POP JUMP JUMPDEST PUSH2 0xF41 DUP2 PUSH2 0xF2F JUMP JUMPDEST DUP3 MSTORE POP POP JUMP JUMPDEST PUSH0 PUSH1 0x20 DUP3 ADD SWAP1 POP PUSH2 0xF5A PUSH0 DUP4 ADD DUP5 PUSH2 0xF38 JUMP JUMPDEST SWAP3 SWAP2 POP POP JUMP JUMPDEST PUSH0 PUSH20 0xFFFFFFFFFFFFFFFFFFFFFFFFFFFFFFFFFFFFFFFF DUP3 AND SWAP1 POP SWAP2 SWAP1 POP JUMP JUMPDEST PUSH0 PUSH2 0xF89 DUP3 PUSH2 0xF60 JUMP JUMPDEST SWAP1 POP SWAP2 SWAP1 POP JUMP JUMPDEST PUSH2 0xF99 DUP2 PUSH2 0xF7F JUMP JUMPDEST DUP3 MSTORE POP POP JUMP JUMPDEST PUSH0 PUSH1 0x20 DUP3 ADD SWAP1 POP PUSH2 0xFB2 PUSH0 DUP4 ADD DUP5 PUSH2 0xF90 JUMP JUMPDEST SWAP3 SWAP2 POP POP JUMP JUMPDEST PUSH0 PUSH0 REVERT JUMPDEST PUSH2 0xFC5 DUP2 PUSH2 0xF7F JUMP JUMPDEST DUP2 EQ PUSH2 0xFCF JUMPI PUSH0 PUSH0 REVERT JUMPDEST POP JUMP JUMPDEST PUSH0 DUP2 CALLDATALOAD SWAP1 POP PUSH2 0xFE0 DUP2 PUSH2 0xFBC JUMP JUMPDEST SWAP3 SWAP2 POP POP JUMP JUMPDEST PUSH2 0xFEF DUP2 PUSH2 0xF2F JUMP JUMPDEST DUP2 EQ PUSH2 0xFF9 JUMPI PUSH0 PUSH0 REVERT JUMPDEST POP JUMP JUMPDEST PUSH0 DUP2 CALLDATALOAD SWAP1 POP PUSH2 0x100A DUP2 PUSH2 0xFE6 JUMP JUMPDEST SWAP3 SWAP2 POP POP JUMP JUMPDEST PUSH0 PUSH0 PUSH1 0x40 DUP4 DUP6 SUB SLT ISZERO PUSH2 0x1026 JUMPI PUSH2 0x1025 PUSH2 0xFB8 JUMP JUMPDEST JUMPDEST PUSH0 PUSH2 0x1033 DUP6 DUP3 DUP7 ADD PUSH2 0xFD2 JUMP JUMPDEST SWAP3 POP POP PUSH1 0x20 PUSH2 0x1044 DUP6 DUP3 DUP7 ADD PUSH2 0xFFC JUMP JUMPDEST SWAP2 POP POP SWAP3 POP SWAP3 SWAP1 POP JUMP JUMPDEST PUSH0 DUP2 SWAP1 POP SWAP2 SWAP1 POP JUMP JUMPDEST PUSH0 PUSH2 0x1071 PUSH2 0x106C PUSH2 0x1067 DUP5 PUSH2 0xF60 JUMP JUMPDEST PUSH2 0x104E JUMP JUMPDEST PUSH2 0xF60 JUMP JUMPDEST SWAP1 POP SWAP2 SWAP1 POP JUMP JUMPDEST PUSH0 PUSH2 0x1082 DUP3 PUSH2 0x1057 JUMP JUMPDEST SWAP1 POP SWAP2 SWAP1 POP JUMP JUMPDEST PUSH0 PUSH2 0x1093 DUP3 PUSH2 0x1078 JUMP JUMPDEST SWAP1 POP SWAP2 SWAP1 POP JUMP JUMPDEST PUSH2 0x10A3 DUP2 PUSH2 0x1089 JUMP JUMPDEST DUP3 MSTORE POP POP JUMP JUMPDEST PUSH0 PUSH1 0x20 DUP3 ADD SWAP1 POP PUSH2 0x10BC PUSH0 DUP4 ADD DUP5 PUSH2 0x109A JUMP JUMPDEST SWAP3 SWAP2 POP POP JUMP JUMPDEST PUSH0 PUSH1 0x20 DUP3 DUP5 SUB SLT ISZERO PUSH2 0x10D7 JUMPI PUSH2 0x10D6 PUSH2 0xFB8 JUMP JUMPDEST JUMPDEST PUSH0 PUSH2 0x10E4 DUP5 DUP3 DUP6 ADD PUSH2 0xFD2 JUMP JUMPDEST SWAP2 POP POP SWAP3 SWAP2 POP POP JUMP JUMPDEST PUSH0 DUP2 ISZERO ISZERO SWAP1 POP SWAP2 SWAP1 POP JUMP JUMPDEST PUSH2 0x1101 DUP2 PUSH2 0x10ED JUMP JUMPDEST DUP3 MSTORE POP POP JUMP JUMPDEST PUSH0 PUSH1 0x80 DUP3 ADD SWAP1 POP PUSH2 0x111A PUSH0 DUP4 ADD DUP8 PUSH2 0xF38 JUMP JUMPDEST PUSH2 0x1127 PUSH1 0x20 DUP4 ADD DUP7 PUSH2 0x10F8 JUMP JUMPDEST PUSH2 0x1134 PUSH1 0x40 DUP4 ADD DUP6 PUSH2 0x10F8 JUMP JUMPDEST PUSH2 0x1141 PUSH1 0x60 DUP4 ADD DUP5 PUSH2 0x10F8 JUMP JUMPDEST SWAP6 SWAP5 POP POP POP POP POP JUMP JUMPDEST PUSH0 PUSH1 0x20 DUP3 DUP5 SUB SLT ISZERO PUSH2 0x115F JUMPI PUSH2 0x115E PUSH2 0xFB8 JUMP JUMPDEST JUMPDEST PUSH0 PUSH2 0x116C DUP5 DUP3 DUP6 ADD PUSH2 0xFFC JUMP JUMPDEST SWAP2 POP POP SWAP3 SWAP2 POP POP JUMP JUMPDEST PUSH0 DUP3 DUP3 MSTORE PUSH1 0x20 DUP3 ADD SWAP1 POP SWAP3 SWAP2 POP POP JUMP JUMPDEST PUSH32 0x4E6F742061207374616B65686F6C646572000000000000000000000000000000 PUSH0 DUP3 ADD MSTORE POP JUMP JUMPDEST PUSH0 PUSH2 0x11B9 PUSH1 0x11 DUP4 PUSH2 0x1175 JUMP JUMPDEST SWAP2 POP PUSH2 0x11C4 DUP3 PUSH2 0x1185 JUMP JUMPDEST PUSH1 0x20 DUP3 ADD SWAP1 POP SWAP2 SWAP1 POP JUMP JUMPDEST PUSH0 PUSH1 0x20 DUP3 ADD SWAP1 POP DUP2 DUP2 SUB PUSH0 DUP4 ADD MSTORE PUSH2 0x11E6 DUP2 PUSH2 0x11AD JUMP JUMPDEST SWAP1 POP SWAP2 SWAP1 POP JUMP JUMPDEST PUSH32 0x416C726561647920766F74656400000000000000000000000000000000000000 PUSH0 DUP3 ADD MSTORE POP JUMP JUMPDEST PUSH0 PUSH2 0x1221 PUSH1 0xD DUP4 PUSH2 0x1175 JUMP JUMPDEST SWAP2 POP PUSH2 0x122C DUP3 PUSH2 0x11ED JUMP JUMPDEST PUSH1 0x20 DUP3 ADD SWAP1 POP SWAP2 SWAP1 POP JUMP JUMPDEST PUSH0 PUSH1 0x20 DUP3 ADD SWAP1 POP DUP2 DUP2 SUB PUSH0 DUP4 ADD MSTORE PUSH2 0x124E DUP2 PUSH2 0x1215 JUMP JUMPDEST SWAP1 POP SWAP2 SWAP1 POP JUMP JUMPDEST PUSH32 0x4E487B7100000000000000000000000000000000000000000000000000000000 PUSH0 MSTORE PUSH1 0x11 PUSH1 0x4 MSTORE PUSH1 0x24 PUSH0 REVERT JUMPDEST PUSH0 PUSH2 0x128C DUP3 PUSH2 0xF2F JUMP JUMPDEST SWAP2 POP PUSH32 0xFFFFFFFFFFFFFFFFFFFFFFFFFFFFFFFFFFFFFFFFFFFFFFFFFFFFFFFFFFFFFFFF DUP3 SUB PUSH2 0x12BE JUMPI PUSH2 0x12BD PUSH2 0x1255 JUMP JUMPDEST JUMPDEST PUSH1 0x1 DUP3 ADD SWAP1 POP SWAP2 SWAP1 POP JUMP JUMPDEST PUSH32 0x4E487B7100000000000000000000000000000000000000000000000000000000 PUSH0 MSTORE PUSH1 0x12 PUSH1 0x4 MSTORE PUSH1 0x24 PUSH0 REVERT JUMPDEST PUSH0 PUSH2 0x1300 DUP3 PUSH2 0xF2F JUMP JUMPDEST SWAP2 POP PUSH2 0x130B DUP4 PUSH2 0xF2F JUMP JUMPDEST SWAP3 POP DUP3 PUSH2 0x131B JUMPI PUSH2 0x131A PUSH2 0x12C9 JUMP JUMPDEST JUMPDEST DUP3 DUP3 DIV SWAP1 POP SWAP3 SWAP2 POP POP JUMP JUMPDEST PUSH0 DUP2 MLOAD SWAP1 POP PUSH2 0x1334 DUP2 PUSH2 0xFE6 JUMP JUMPDEST SWAP3 SWAP2 POP POP JUMP JUMPDEST PUSH0 PUSH1 0x20 DUP3 DUP5 SUB SLT ISZERO PUSH2 0x134F JUMPI PUSH2 0x134E PUSH2 0xFB8 JUMP JUMPDEST JUMPDEST PUSH0 PUSH2 0x135C DUP5 DUP3 DUP6 ADD PUSH2 0x1326 JUMP JUMPDEST SWAP2 POP POP SWAP3 SWAP2 POP POP JUMP JUMPDEST PUSH32 0x416C6C207374616B65686F6C64657273206D75737420617070726F7665000000 PUSH0 DUP3 ADD MSTORE POP JUMP JUMPDEST PUSH0 PUSH2 0x1399 PUSH1 0x1D DUP4 PUSH2 0x1175 JUMP JUMPDEST SWAP2 POP PUSH2 0x13A4 DUP3 PUSH2 0x1365 JUMP JUMPDEST PUSH1 0x20 DUP3 ADD SWAP1 POP SWAP2 SWAP1 POP JUMP JUMPDEST PUSH0 PUSH1 0x20 DUP3 ADD SWAP1 POP DUP2 DUP2 SUB PUSH0 DUP4 ADD MSTORE PUSH2 0x13C6 DUP2 PUSH2 0x138D JUMP JUMPDEST SWAP1 POP SWAP2 SWAP1 POP JUMP JUMPDEST PUSH32 0x4E6F20746F6B656E7320746F2064697374726962757465000000000000000000 PUSH0 DUP3 ADD MSTORE POP JUMP JUMPDEST PUSH0 PUSH2 0x1401 PUSH1 0x17 DUP4 PUSH2 0x1175 JUMP JUMPDEST SWAP2 POP PUSH2 0x140C DUP3 PUSH2 0x13CD JUMP JUMPDEST PUSH1 0x20 DUP3 ADD SWAP1 POP SWAP2 SWAP1 POP JUMP JUMPDEST PUSH0 PUSH1 0x20 DUP3 ADD SWAP1 POP DUP2 DUP2 SUB PUSH0 DUP4 ADD MSTORE PUSH2 0x142E DUP2 PUSH2 0x13F5 JUMP JUMPDEST SWAP1 POP SWAP2 SWAP1 POP JUMP JUMPDEST PUSH32 0x4E487B7100000000000000000000000000000000000000000000000000000000 PUSH0 MSTORE PUSH1 0x32 PUSH1 0x4 MSTORE PUSH1 0x24 PUSH0 REVERT JUMPDEST PUSH0 PUSH2 0x146C DUP3 PUSH2 0xF2F JUMP JUMPDEST SWAP2 POP PUSH2 0x1477 DUP4 PUSH2 0xF2F JUMP JUMPDEST SWAP3 POP DUP3 DUP3 MUL PUSH2 0x1485 DUP2 PUSH2 0xF2F JUMP JUMPDEST SWAP2 POP DUP3 DUP3 DIV DUP5 EQ DUP4 ISZERO OR PUSH2 0x149C JUMPI PUSH2 0x149B PUSH2 0x1255 JUMP JUMPDEST JUMPDEST POP SWAP3 SWAP2 POP POP JUMP JUMPDEST PUSH0 PUSH1 0x40 DUP3 ADD SWAP1 POP PUSH2 0x14B6 PUSH0 DUP4 ADD DUP6 PUSH2 0xF90 JUMP JUMPDEST PUSH2 0x14C3 PUSH1 0x20 DUP4 ADD DUP5 PUSH2 0xF38 JUMP JUMPDEST SWAP4 SWAP3 POP POP POP JUMP JUMPDEST PUSH2 0x14D3 DUP2 PUSH2 0x10ED JUMP JUMPDEST DUP2 EQ PUSH2 0x14DD JUMPI PUSH0 PUSH0 REVERT JUMPDEST POP JUMP JUMPDEST PUSH0 DUP2 MLOAD SWAP1 POP PUSH2 0x14EE DUP2 PUSH2 0x14CA JUMP JUMPDEST SWAP3 SWAP2 POP POP JUMP JUMPDEST PUSH0 PUSH1 0x20 DUP3 DUP5 SUB SLT ISZERO PUSH2 0x1509 JUMPI PUSH2 0x1508 PUSH2 0xFB8 JUMP JUMPDEST JUMPDEST PUSH0 PUSH2 0x1516 DUP5 DUP3 DUP6 ADD PUSH2 0x14E0 JUMP JUMPDEST SWAP2 POP POP SWAP3 SWAP2 POP POP JUMP JUMPDEST PUSH32 0x5472616E73666572206661696C65640000000000000000000000000000000000 PUSH0 DUP3 ADD MSTORE POP JUMP JUMPDEST PUSH0 PUSH2 0x1553 PUSH1 0xF DUP4 PUSH2 0x1175 JUMP JUMPDEST SWAP2 POP PUSH2 0x155E DUP3 PUSH2 0x151F JUMP JUMPDEST PUSH1 0x20 DUP3 ADD SWAP1 POP SWAP2 SWAP1 POP JUMP JUMPDEST PUSH0 PUSH1 0x20 DUP3 ADD SWAP1 POP DUP2 DUP2 SUB PUSH0 DUP4 ADD MSTORE PUSH2 0x1580 DUP2 PUSH2 0x1547 JUMP JUMPDEST SWAP1 POP SWAP2 SWAP1 POP JUMP JUMPDEST PUSH32 0x416C72656164792061207374616B65686F6C6465720000000000000000000000 PUSH0 DUP3 ADD MSTORE POP JUMP JUMPDEST PUSH0 PUSH2 0x15BB PUSH1 0x15 DUP4 PUSH2 0x1175 JUMP JUMPDEST SWAP2 POP PUSH2 0x15C6 DUP3 PUSH2 0x1587 JUMP JUMPDEST PUSH1 0x20 DUP3 ADD SWAP1 POP SWAP2 SWAP1 POP JUMP JUMPDEST PUSH0 PUSH1 0x20 DUP3 ADD SWAP1 POP DUP2 DUP2 SUB PUSH0 DUP4 ADD MSTORE PUSH2 0x15E8 DUP2 PUSH2 0x15AF JUMP JUMPDEST SWAP1 POP SWAP2 SWAP1 POP JUMP JUMPDEST PUSH0 PUSH2 0x15F9 DUP3 PUSH2 0xF2F JUMP JUMPDEST SWAP2 POP PUSH2 0x1604 DUP4 PUSH2 0xF2F JUMP JUMPDEST SWAP3 POP DUP3 DUP3 ADD SWAP1 POP DUP1 DUP3 GT ISZERO PUSH2 0x161C JUMPI PUSH2 0x161B PUSH2 0x1255 JUMP JUMPDEST JUMPDEST SWAP3 SWAP2 POP POP JUMP JUMPDEST PUSH32 0x546F74616C2070657263656E7461676520657863656564732031303000000000 PUSH0 DUP3 ADD MSTORE POP JUMP JUMPDEST PUSH0 PUSH2 0x1656 PUSH1 0x1C DUP4 PUSH2 0x1175 JUMP JUMPDEST SWAP2 POP PUSH2 0x1661 DUP3 PUSH2 0x1622 JUMP JUMPDEST PUSH1 0x20 DUP3 ADD SWAP1 POP SWAP2 SWAP1 POP JUMP JUMPDEST PUSH0 PUSH1 0x20 DUP3 ADD SWAP1 POP DUP2 DUP2 SUB PUSH0 DUP4 ADD MSTORE PUSH2 0x1683 DUP2 PUSH2 0x164A JUMP JUMPDEST SWAP1 POP SWAP2 SWAP1 POP JUMP JUMPDEST PUSH32 0x416C726561647920617070726F76656400000000000000000000000000000000 PUSH0 DUP3 ADD MSTORE POP JUMP JUMPDEST PUSH0 PUSH2 0x16BE PUSH1 0x10 DUP4 PUSH2 0x1175 JUMP JUMPDEST SWAP2 POP PUSH2 0x16C9 DUP3 PUSH2 0x168A JUMP JUMPDEST PUSH1 0x20 DUP3 ADD SWAP1 POP SWAP2 SWAP1 POP JUMP JUMPDEST PUSH0 PUSH1 0x20 DUP3 ADD SWAP1 POP DUP2 DUP2 SUB PUSH0 DUP4 ADD MSTORE PUSH2 0x16EB DUP2 PUSH2 0x16B2 JUMP JUMPDEST SWAP1 POP SWAP2 SWAP1 POP JUMP INVALID LOG2 PUSH5 0x6970667358 0x22 SLT KECCAK256 0x4C DUP11 SWAP16 0x21 0xD8 LOG1 0xB9 0x2E SELFBALANCE 0xC0 0xB4 PUSH21 0x2D3E45E1C757C671EFAE5B1AE003FCAD7C831E9964 PUSH20 0x6F6C634300081C00330000000000000000000000 "
				},
				"gasEstimates": {
					"creation": {
						"codeDepositCost": "1185600",
						"executionCost": "infinite",
						"totalCost": "infinite"
					},
					"external": {
						"addStakeholder(address,uint256)": "infinite",
						"approvalCount()": "2471",
						"approveDistribution()": "53517",
						"contractBalance()": "infinite",
						"destroyVotes()": "2448",
						"distributeTokens()": "infinite",
						"mcpToken()": "infinite",
						"owner()": "2581",
						"renounceOwnership()": "infinite",
						"stakeholderList(uint256)": "4988",
						"stakeholders(address)": "infinite",
						"totalPercentage()": "2447",
						"transferOwnership(address)": "infinite",
						"voteToDestroy()": "infinite"
					}
				},
				"methodIdentifiers": {
					"addStakeholder(address,uint256)": "9aec312e",
					"approvalCount()": "6884d0a6",
					"approveDistribution()": "ec611c29",
					"contractBalance()": "8b7afe2e",
					"destroyVotes()": "8b34c207",
					"distributeTokens()": "9ab1b484",
					"mcpToken()": "aeee40fe",
					"owner()": "8da5cb5b",
					"renounceOwnership()": "715018a6",
					"stakeholderList(uint256)": "e320f576",
					"stakeholders(address)": "c07cfca9",
					"totalPercentage()": "d44a0e61",
					"transferOwnership(address)": "f2fde38b",
					"voteToDestroy()": "0fdbd14c"
				}
			},
			"storageLayout": {
				"storage": [
					{
						"astId": 8,
						"contract": "contracts/OPTB/Token_Distribution/TokenDistribution_1_0_0.sol:MCPDistribution",
						"label": "_owner",
						"offset": 0,
						"slot": "0",
						"type": "t_address"
					},
					{
						"astId": 266,
						"contract": "contracts/OPTB/Token_Distribution/TokenDistribution_1_0_0.sol:MCPDistribution",
						"label": "mcpToken",
						"offset": 0,
						"slot": "1",
						"type": "t_contract(IERC20)225"
					},
					{
						"astId": 280,
						"contract": "contracts/OPTB/Token_Distribution/TokenDistribution_1_0_0.sol:MCPDistribution",
						"label": "stakeholders",
						"offset": 0,
						"slot": "2",
						"type": "t_mapping(t_address,t_struct(Stakeholder)275_storage)"
					},
					{
						"astId": 283,
						"contract": "contracts/OPTB/Token_Distribution/TokenDistribution_1_0_0.sol:MCPDistribution",
						"label": "stakeholderList",
						"offset": 0,
						"slot": "3",
						"type": "t_array(t_address)dyn_storage"
					},
					{
						"astId": 285,
						"contract": "contracts/OPTB/Token_Distribution/TokenDistribution_1_0_0.sol:MCPDistribution",
						"label": "totalPercentage",
						"offset": 0,
						"slot": "4",
						"type": "t_uint256"
					},
					{
						"astId": 287,
						"contract": "contracts/OPTB/Token_Distribution/TokenDistribution_1_0_0.sol:MCPDistribution",
						"label": "approvalCount",
						"offset": 0,
						"slot": "5",
						"type": "t_uint256"
					},
					{
						"astId": 289,
						"contract": "contracts/OPTB/Token_Distribution/TokenDistribution_1_0_0.sol:MCPDistribution",
						"label": "destroyVotes",
						"offset": 0,
						"slot": "6",
						"type": "t_uint256"
					}
				],
				"types": {
					"t_address": {
						"encoding": "inplace",
						"label": "address",
						"numberOfBytes": "20"
					},
					"t_array(t_address)dyn_storage": {
						"base": "t_address",
						"encoding": "dynamic_array",
						"label": "address[]",
						"numberOfBytes": "32"
					},
					"t_bool": {
						"encoding": "inplace",
						"label": "bool",
						"numberOfBytes": "1"
					},
					"t_contract(IERC20)225": {
						"encoding": "inplace",
						"label": "contract IERC20",
						"numberOfBytes": "20"
					},
					"t_mapping(t_address,t_struct(Stakeholder)275_storage)": {
						"encoding": "mapping",
						"key": "t_address",
						"label": "mapping(address => struct MCPDistribution.Stakeholder)",
						"numberOfBytes": "32",
						"value": "t_struct(Stakeholder)275_storage"
					},
					"t_struct(Stakeholder)275_storage": {
						"encoding": "inplace",
						"label": "struct MCPDistribution.Stakeholder",
						"members": [
							{
								"astId": 268,
								"contract": "contracts/OPTB/Token_Distribution/TokenDistribution_1_0_0.sol:MCPDistribution",
								"label": "percentage",
								"offset": 0,
								"slot": "0",
								"type": "t_uint256"
							},
							{
								"astId": 270,
								"contract": "contracts/OPTB/Token_Distribution/TokenDistribution_1_0_0.sol:MCPDistribution",
								"label": "exists",
								"offset": 0,
								"slot": "1",
								"type": "t_bool"
							},
							{
								"astId": 272,
								"contract": "contracts/OPTB/Token_Distribution/TokenDistribution_1_0_0.sol:MCPDistribution",
								"label": "approved",
								"offset": 1,
								"slot": "1",
								"type": "t_bool"
							},
							{
								"astId": 274,
								"contract": "contracts/OPTB/Token_Distribution/TokenDistribution_1_0_0.sol:MCPDistribution",
								"label": "votedToDestroy",
								"offset": 2,
								"slot": "1",
								"type": "t_bool"
							}
						],
						"numberOfBytes": "64"
					},
					"t_uint256": {
						"encoding": "inplace",
						"label": "uint256",
						"numberOfBytes": "32"
					}
				}
			},
			"userdoc": {
				"kind": "user",
				"methods": {},
				"version": 1
			}
		}
	}
}